:1010000060D7002059A8000055D502002DA8000087
:101010002DA800002DA800002DA800000000000051
:1010200000000000000000000000000099A0000087
:101030002DA800000000000041A000002DA8000025
:101040004DA10000D90902004DA100004DA10000F2
:101050004DA100004DA100004DA100004DA10000D8
:101060004DA100004DA100004DA100004DA10000C8
:101070004DA100004DA100004DA100004DA10000B8
:101080004DA100004DA100004DA100004DA10000A8
:101090004DA100004DA100004DA100004DA1000098
:1010A0004DA100004DA100004DA100004DA1000088
:1010B0004DA100004DA100004DA100004DA1000078
:1010C0004DA100004DA100004DA100004DA1000068
:1010D0004DA100004DA100004DA100004DA1000058
:1010E0004DA100004DA100004DA100004DA1000048
:1010F0004DA100004DA100004DA100004DA1000038
:1011000053B94AB9002908BF00281CBF4FF0FF316E
:101110004FF0FF3000F00CB8ADF1080C6DE904CED3
:1011200000F008F8DDF804E0DDE9022304B07047C0
:10113000704700BF2DE9F04F07468C460846099ED0
:1011400015463C461946002B40F0C6808242B2FA52
:1011500082F746D94FB1C7F1200E24FA0EFE00FAED
:1011600007F3BD404EEA030CBC404FEA15481FFA96
:1011700085FEBCFBF8F9220C08FB19C309FB0EFA2B
:1011800042EA03439A4528D9EB1809F1FF3004D20B
:101190009A4502D9A9F102002B44A3EB0A03A4B299
:1011A000B3FBF8F208FB123302FB0EFE44EA0344E1
:1011B000A64514D92C1902F1FF3303D2A64501D953
:1011C000931E2C44A4EB0E0443EA00401EB1FC40E5
:1011D000002334607360BDE8F08F4846DDE71346B6
:1011E000F0E702B9FFDE87BB831A01214FEA154EF3
:1011F000AAB2B3FBFEFC200C0EFB1C330CFB02F866
:1012000040EA0343984563D9EB180CF1FF3004D250
:10121000984502D9ACF102002B44A3EB0803A4B219
:10122000B3FBFEFC0EFB1C330CFB02F244EA03444E
:10123000A2424FD92C190CF1FF3304D2A24202D999
:10124000ACF102032C44A41ABEE7C7F1200C20FA2B
:101250000CF800FA07F324FA0CFCBD404CEA030238
:101260004FEA154EABB2B8FBFEFC110C0EFB1C8016
:101270000CFB03F941EA0040814504FA07F423D945
:1012800028180CF1FF3104D2814502D9ACF10201DA
:101290002844A0EB090092B2B0FBFEFC0EFB1C0040
:1012A0000CFB03F842EA004398450FD9EB180CF108
:1012B000FF3204D2984502D9ACF102022B44A3EBD1
:1012C000080342EA014191E76146E2E76246F6E738
:1012D0006046A2E76346B6E7834205D90EB1C6E988
:1012E00000700021084676E7B3FA83F181B98342A2
:1012F00001D3BA420AD8BC1A60EB030301209C4612
:10130000002E68D0C6E9004C002164E70846F7E7E4
:10131000C1F1200C8B4022FA0CF41C4302FA01F5B7
:1013200000FA01F327FA0CF220FA0CFB4FEA1449F9
:101330001343BBFBF9F81FFA84FE09FB18BB1A0C18
:1013400008FB0EFA42EA0B42924507FA01F73ED932
:10135000A21808F1FF3004D2924502D9A8F1020088
:101360002244A2EB0A029BB2B2FBF9F809FB182255
:1013700008FB0EFE43EA024296452AD9A21808F15C
:10138000FF3304D2964502D9A8F10203224443EA6E
:101390000040A0FB0593A2EB0E029A42CE4698466F
:1013A00002D306D14F4504D2B9EB050E63EB040816
:1013B000013886B1B7EB0E0362EB080707FA0CFCA5
:1013C000CB404CEA0303CF40C6E900379CE74046D8
:1013D000C7E74346DBE73146FDE6000000000000BA
:1013E00070B5484DD5F85431996811F0010190B0AD
:1013F00023D10AAA40F603400AF024FC0446002840
:1014000072D10A9B9B681B78A3B90CF041FDBFF316
:101410005B8F2B4653F8CC2FBFF35B8F02F0050296
:10142000BFF35B8F53E8001F43E800200028F9D189
:10143000BFF35B8F0A9823F031F80AAA002141F22A
:1014400003000AF0FFFB044600284DD10A9B2E48FA
:101450009968082201312CF014FA0A9823F01EF83A
:1014600021460AAA41F201000AF0ECFB04460028DA
:101470003AD10A9883685A7885F86820D9789A789A
:1014800042EA0122A5F86A201A7985F86920197ABA
:10149000DA7942EA0122A5F86C205A799B7942EA6E
:1014A0000323A5F86E3022F0F9FF21460AAA41F283
:1014B00002000AF0C7FB0446B0B90A9B13489968BA
:1014C000402201312CF0DDF910482CF08EFA0A98F8
:1014D00022F0E4FF95F8743059061DD40C480368D7
:1014E0005A0704D16FF01204204610B070BD094BAA
:1014F0000E930DAA02234FF4825109930D932CF001
:101500002AFBEFE700000020700000207800002098
:10151000300C00203A66030021460AAA42F203007A
:101520000AF090FB04460028DED10A9BBC4899686B
:10153000082201312CF0A5F90A9822F0AFFF2146CC
:101540000AAA42F202000AF07DFB04460028CBD131
:101550000A9B9B68B3F80120A5F8FC2091B221B149
:10156000DA78B04811462FF0E0FD0A9822F096FF95
:1015700095F8746016F0200600F01A8195F8943002
:101580001B0712D50AAA002142F21C000AF05AFBDE
:1015900004460028A8D10A988368D3F80120D3F81C
:1015A0000530C5E9362322F079FF95F8D0309E0644
:1015B00023D509A908A80AF0C9FB0446002893D13D
:1015C000042142F224000AF0CDF90646002800F07A
:1015D000F680042108302EF032FFBDF82030038061
:1015E000BDF8243043802246314642F224000AF0FE
:1015F00029FB044600287FF477AF95F8D0305C06CD
:101600002CD5022142F22E000AF0ACF90446002843
:1016100000F0D580022108302EF011FF6FF07B031F
:101620000370032343702146002242F22E000AF089
:1016300009FB044600287FF457AF01460AAA42F28C
:101640002A000AF0FFFA044600287FF44DAF0A98FA
:1016500083685B7885F8183122F020FF082142F278
:1016600001000AF07FF90446002800F0A880082154
:1016700008442EF0E4FE95F8D01011F0400F024619
:1016800040F2022308BF032388074CBF43F02C001D
:1016900043F00C0095F8D1308E0648BF40F0400072
:1016A00013F0090F18BF40F40060CB0795F89A308B
:1016B00003F0060348BF40F01000062B08BF40F4BB
:1016C000C07000212CF058FA2146002242F201009D
:1016D0000AF0B8FA044600287FF406AF95F8743093
:1016E000B5F8FC109E067FD4D9B90AAA41F20500CC
:1016F0000AF0A8FA044600287FF4F6AEB5F8FC30EC
:1017000063B90A9B9B685A78997842EA0122A5F846
:10171000FC209A88434811462FF007FD0A9822F0D2
:10172000BDFE082140F601400AF01CF904460028DD
:1017300045D0082108442EF082FE95F8D030D90714
:10174000024664D534A1D1E900012CF015FA2146F6
:10175000002240F601400AF075FA044600287FF4A2
:10176000C3AE014608AA4FF601400AF06BFA2E4CB0
:101770002368002860D013F0060F0AD02B4B0E937D
:10178000022309930D930DAA4FF4845120462CF0A7
:10179000E2F90BF08BFF044600287FF4A5AE0DF0B4
:1017A00089FD044600287FF49FAE0BF033F89BE6DA
:1017B000022140F66D400AF0D5F8044610B96FF0EA
:1017C000680491E6022108302EF039FE01230370EF
:1017D00046702146324640F66D400AF033FA044620
:1017E00000283FF4CBAE7FE600299AD10E4803686B
:1017F0005C0709D00E4B0E930DAA02234FF48251C1
:1018000009930D932CF0A7F96FF004046CE60948D6
:101810004FF0005199E700BF90880002008000203F
:10182000D000002000010020300C00208166030061
:101830005E6603001088000203F00703022B4ED9F6
:10184000089B49499E68B6F80130032B96BF474A6A
:10185000474A52F82320CDE90223464B0193002347
:101860000093184603222CF079F9236803F007034C
:10187000022B34D9B6F80130B6F80320022B48D138
:10188000032A46D83C4B53F822303749CDE902327F
:101890003A4B019300230093184603222CF05EF983
:1018A000236803F00703022B19D9D6F809107379BE
:1018B0000691B6F807100591032BB17996BF304A0F
:1018C0002B4A52F823200292CDE903312D4B01938C
:1018D000002325490093032218462CF03FF908986D
:1018E00022F0DCFD08AA00214FF602400AF0AAF916
:1018F000064680B1236813F0060F3FF44AAF224B2F
:101900000E930223184809930D930DAA4FF48451A6
:101910003DE7174BB9E7089B1C4899680222013143
:101920002BF0AFFF089822F0B9FD95F8B9305B07AE
:101930007FF52FAF08AA31464FF603400AF082F92F
:1019400030B1236813F0060F3FF423AF104BD7E7F5
:10195000089B10489968012211442BF092FF0898C7
:1019600022F09CFD15E700BF300C00208829030001
:1019700020610300A566030048290300BE6603003A
:10198000C0290300D666030003670300B9000020E6
:101990002C670300B80000202DE9F041D0E90B3599
:1019A000866A5C193034A6428846174618D81C4D02
:1019B000A3FB050118A3D3E90023FFF7A1FBA41B98
:1019C00020F07F40C8F8000013A3D3E90023A4FB54
:1019D0000501FFF795FB20F07F403860BDE8F081FE
:1019E0000F4C0DA3D3E90023A6FB0401FFF788FBEE
:1019F00005F1300120F07F40C8F8000006A3D3E9CC
:101A00000023A1FB0401FFF77BFB20F07F4038603F
:101A1000BDE8F081AFF300808D49FD1A070000009A
:101A200000CA9A3B000000002DE9F04FAC4C8FB08B
:101A300094F86A20002800F0398112F0010740F084
:101A4000378194F82500FF2300F0030084F8263046
:101A50001EF05CFB94F86A0041072DD494F829200D
:101A600094F8353004EB820204EB8303D2F82C8027
:101A7000D3F83890B8F1000F11D09948414617F0CB
:101A800079FF98F800305A0605D5062112F0E0FEDD
:101A9000002800F0CE819248494617F06BFF98F875
:101AA000003013F00E0F40F0EE80236A9BB10C273C
:101AB00038460FB0BDE8F08F3A4604F16B01C0F331
:101AC000C0001EF0B5FCFF2884F82600C6D03846BA
:101AD0001EF062FBC2E716F009FE8246002800F005
:101AE000B28116F00FFE8346002800F0B18118F095
:101AF000E1FF0546002800F0A881406F4FF6FF7314
:101B00002B8505F11C03002800F0998105F168027E
:101B100005F164010B9312F0A7FEB5F86020714B3C
:101B200022F4EF6222F0070242F4887242F00102CE
:101B3000A5F8602095F8392002F03F0262F07F029C
:101B400085F8392095F87A2022F0070285F87A2066
:101B500095F83C2022F0070285F83C2095F8D82023
:101B600022F0070285F8D8204FF01B120026C5E9A5
:101B700016230622A5F8C020C5E912666E67A5F8EF
:101B80007860EE852E6385F83B602E65A5F8C4600D
:101B9000A5F8C860A5F8D060A5F8CC60A5F8E46009
:101BA00085F8E660C5F80861A5F80C61A5F8206124
:101BB00016F05EF895F83A21A5F8386122F0030294
:101BC00085F83A2195F87A20A5F8406122F01802AC
:101BD00085F87A2095F8662185F8436122F007029E
:101BE00085F8662195F88621C5F844A166F345126B
:101BF00085F8862195F8AE21A5F8646166F3C302E5
:101C0000C5E94A0100210020C5E94C0185F8AE2153
:101C100085F8D960A5F88461C5F8E060A5F8AC61E5
:101C2000A5F8B86119F08EFAA5F8D20019F090FA6B
:101C3000D5F8BC112C4AA5F8D4000A40C5F8BC213F
:101C400019F08CFA95F8C02160F3020285F8C021E2
:101C500019F08AFA0B9B236295F8C031C5F8C4616C
:101C600060F3C503C4E918ABC5E97466C5E97266DB
:101C7000C5E905662E70ED6185F8C0311FF00AFCDC
:101C8000002840F0D88094F824300121C3F34203A7
:101C90000DF133008DF8333012F066FF30BB236A4C
:101CA000002B3FF404AF17F02FFB00E7D50704D457
:101CB000002738460FB0BDE8F08F236A5BB193F878
:101CC000202042F0020283F82020236A93F820307B
:101CD000D8073FF5ECAE0FB0BDE8F04F17F056BB9C
:101CE000E4390020480148010000FFF699F801108E
:101CF0000246404617F0FAFB5B49B4F8689031237E
:101D00000025A360A0FB010155A3D3E90023C4E98A
:101D1000055525706560E560FFF7F2F9206114F064
:101D20001BF90646B9F1000F08D198F8005005F0EC
:101D30000F05A5F10105B5FA85F56D0994F82400A4
:101D4000236965F3000010F0010584F8240031D008
:101D50000020464ADFF81891049302250DF134085B
:101D6000019305920321CDE90200069433460090C9
:101D7000CDF82080CDF81C902A460D9513F0C2FFB7
:101D8000414616F043FD002889D13A4A05924AF2AD
:101D9000D8320092CDE90300CDE90100CDF81C90C6
:101DA000CDF8208006943346012203210D9513F0CF
:101DB000A9FF29E0304A3148049303F24713A9FBF5
:101DC0000001069402951360912303FB0911284B2F
:101DD0000793264B05934FF6FF7309924FF00209C4
:101DE00003930DF134081EA3D3E90023CDF83490FA
:101DF000CDF82080FFF784F93346CDE900504A46FC
:101E00002846032113F028FF414616F0FFFC002866
:101E10007FF445AF94F86A3043F0010384F86A30E8
:101E200017F08AFF00287FF443AF01201EF050F91D
:101E30003EE612273CE617F067FA032738E605F17D
:101E40006C00686762E6072732E6584616F060FCC9
:101E5000504616F051FC07272AE600BFAFF300807A
:101E60008D49FD1A0700000000CA9A3B5D950100EC
:101E70003D7D010099900100583A0020002AE78436
:101E800070B590F824308AB0C3F342030D4604467F
:101E900001210DF1230016468DF8233012F064FE67
:101EA00071780246284617F021FB1D491AA3D3E991
:101EB0000023A0FB0101FFF723F92369984205469F
:101EC00020D21B1A00220192164A0293164BA21A24
:101ED000A3FB02320221920900230A4409AE0991B0
:101EE00012490591CDE903330321D2B2069600933E
:101EF000184613F079FF314616F088FC48B9256181
:101F00000AB070BD02D9C21A0023DCE700200AB073
:101F100070BD0C200AB070BD8D49FD1A070000008D
:101F200000CA9A3BE439002009CB3D8D3D7D01007C
:101F300038B5194C9DF810E094F844C01CF0010528
:101F400022D163F3420C400194F83230A1874FEA6A
:101F5000CE0E0EF0180E00F0200040EA0E0023F026
:101F6000380303430D4884F83230A2FB000191236B
:101F700003FB021106A3D3E9002384F844C0FFF752
:101F8000BFF82064284638BD0C25284638BD00BF60
:101F90008D49FD1A070000007C3A0020002AE784E2
:101FA00010B59DF808C0044649014FEACC0000F086
:101FB000180001F0200CA17D22844CEA000C0C4892
:101FC00021F038014CEA010C9122A3FB000102FB35
:101FD000031184F816C004A3D3E90023FFF790F897
:101FE000606210BDAFF300808D49FD1A070000004C
:101FF000002AE784000000002DE9F047044600F1C4
:10200000350190F8440094F83230C0F3400060F39A
:1020100086138CB084F8323013F0D6FF94F8322057
:10202000A38F4D48E46102F079020025A3FB000173
:1020300084F83220912202FB0311C4E9055544A320
:10204000D3E900232570FFF75BF83123C4E901537E
:10205000236CE5600933A0F13102934232BF236162
:1020600022612564064613F077FF236A07460DF1C7
:102070002C08002B4CD0394D394BCDF820800694DC
:10208000651BA3FB05353448A38F4FF0000AA3FB63
:1020900000019122CDF80CA002FB031123690493E7
:1020A000304B0793304B05934FF0020928A3D3E937
:1020B0000023CDF82C90FFF723F8104619464FF473
:1020C0007A720023FFF71CF82D090435EDB22A4679
:1020D000CDE901603B460321CDF800A0504613F046
:1020E00011FE414616F092FB054668B994F844305B
:1020F00043F0010384F8443017F012FC0446F8B1B1
:1021000028460CB0BDE8F0870C200CB0BDE8F08785
:10211000CDE90A33216943460AAA032001F094F964
:102120000B990029A7D0114809A3D3E90023A1FBEB
:102130000001FEF7E5FF0A9F20F07F4007449AE781
:1021400048461DF0C5FF20460CB0BDE8F08700BF33
:102150008D49FD1A07000000002AE7847C3A002020
:10216000398EE3383D7D0100359B010000CA9A3B62
:102170002DE9F04FC38D458E1D4490F80E31ADB260
:102180002944164613F007028BB0044689B20AD0E0
:10219000531E042B00F27083DFE813F0C6013702F0
:1021A000A10150013A02B0F8E870C91B1FFA81F88A
:1021B000090400F16E8190F93930002BC0F26A8277
:1021C00094F8E43084F8E53094F8842194F885316B
:1021D00094F80C1184F80D1193420AD094F88631CA
:1021E00003F00F03062B04D1002384F88521A4F803
:1021F000C830BF4BD4F808911A68944204BF00223B
:102200001A60B9F1000F00F05A81D9F800000028D7
:1022100000F05581B4F81031B4F82AC04268C4F80F
:1022200008216345B4F81221B4F8141100F03A8281
:10223000B4F828C0A9F81E30182389F80430002308
:10224000A9F806C0A9F82020A9F8221089F81C30A6
:10225000494616F063FA16F06BFAA368002B09DA08
:10226000E168626823F0004391422CBF7618B618EB
:10227000A360F61A608DB4F8109110FB08F080B2DC
:10228000B0FBF9F119FB01F39BB298421FFA81FAF6
:1022900080F004811B1A40F2E241964803FB01F1F1
:1022A000A1FB000190A3D3E90023FEF729FF20F052
:1022B0007F400644E38D1F4494F939307D1B55441B
:1022C00040F2E24B002BE5850BFB09F7C0F20C82D4
:1022D000D4F81811874884A3D3E90023A1FB000197
:1022E000FEF70EFF20F07F483D4608F10108824AC4
:1022F000B4F81431B4F812018049A4F82A903A4491
:10230000B2FBF7F2A4F8C62042F2107202FB03738C
:102310003944013BB1FBF7F1B3FBF7F78AB2831DF8
:102320009A42A085A4F8C270A4F8CE2004DDC0F5BE
:102330007F43FA331A4492B294F80E31A4F8CA20BB
:102340001B0744BF0023A4F8C4300221012021F060
:10235000E9FD002202218146012012F0D5FA6849E8
:102360004FF4F072204612F05FFA00F1050A5FFAAE
:102370008AFA644B009452460121002013F04CFD70
:1023800030F002030CD0604A6049614840F6CB430C
:1023900027F09AFD404080F311884FF0030002DFE0
:1023A000544FA5FB077B50A3D3E900233846594679
:1023B000FEF7A6FE20F07F4556480723A5FB000147
:1023C000381A03FB05116BEB01014FF47A720023FD
:1023D000FEF796FECDE9015008940694CDF80080F2
:1023E000216994F939504C4804914C494C4C07945C
:1023F00011EA250138BF014605914FF6FE713346BB
:10240000039152460121002013F07CFC30F00203BE
:102410000CD03D4A3D493E4840F6E54327F054FD87
:10242000404080F311884FF0030002DFB9F1000F44
:1024300040F0548100200BB0BDE8F08F828D90F801
:102440000E51D0F8EC3006321144D0F8C42189B2D4
:102450006FF30205A0F8E8101981A3F10900D4F880
:10246000C81184F80E5122B194F86651AE0740F1BC
:102470008981002900F09D81D4F8CC21116843F8AE
:10248000091C106053F8092CC4F8CC01002A00F094
:102490008D816FF076000BB0BDE8F08F09FB110164
:1024A00040F2E243134889B203FB01F1A1FB0001B2
:1024B0000DA3D3E90023FEF723FE361AFAE6124AEB
:1024C000184913484FF4426327F0FEFC404080F364
:1024D00011884FF0030002DFD9F800009AE66FF090
:1024E0000F000BB0BDE8F08F8D49FD1A070000000A
:1024F000D83A002000CA9A3BFF5962027FC3C90143
:102500009822002021A20100543403003435030036
:10251000642D03008D49FD1A55EF010065ED0100A2
:10252000C9A1010020350300DFF81483012016F053
:1025300005F90746002800F04D81C24812F03EF927
:102540000546002800F04681BF4B1A68002A00F0BB
:10255000178116F011F93B68D4F808215A602B79DD
:10256000C4F8087143F003032B710C236B71002333
:10257000EB7194F81C312B72B44AD4F81831A2FBD9
:1025800003239B0AA5F80930B4F81031A5F80B30E5
:10259000B4F81231A5F80D30B4F81431A5F80F30A5
:1025A00094F80E31C4F8F060032262F3020384F859
:1025B0000E31A368002B0ADAE168626823F0004359
:1025C00091422CBF7618B618F31AC4F8F030A04B1D
:1025D00001220935C4F8EC5002211046C3E9024833
:1025E00012F0C4F900283FF454AF9A4A9A499B4824
:1025F00040F6733327F068FC404080F311884FF0B9
:10260000030002DF6FF0760015E7DFF854828DE7F4
:10261000D0F8EC20D0F8C43190F8E40084F8E5005C
:1026200094F80C01884984F80D0194F8840184F829
:10263000850100200860D4F8C801A2F10901B3B1F6
:1026400094F86651AD0712D494F8BF51EF070ED439
:10265000D4F8D051AB4200F0D78058B9187900F0C7
:102660000300032800F0DF80C4F8C83104E000282C
:1026700000F0A980D4F8CC31186842F8090C196030
:1026800052F8093CC4F8CC11002B00F0A6806FF082
:102690008B00D0E690F8D930002B3FF491AD80F854
:1026A000D92091E5B4F82CC094457FF4C1AD40F237
:1026B000E24C0CFB03FE42F2107C0CFB01EC0CF133
:1026C000FF3CBCFBFEFCB4F8C2E01FFA8CFCE64504
:1026D0007FF4AEAD012389F80430B9E5012202216F
:1026E000104612F011F9A5E6226CA36C02FB183318
:1026F000A3641EF023FF054694F8D800DFF8648138
:10270000C0F3C2001EF01CFF054407FB05F5564B45
:1027100094F81C2105F5742505F23F25A3FB05352A
:10272000AD0CA36C25640BFB02F205FB0AF02265DD
:102730007A080344963A934228BF1346C4E911230A
:102740000023A0FB0801C4F8E0303BA3D3E9002339
:10275000FEF7D6FC3D4B361AD4F81801A3FB003027
:10276000800A0BFB00F0A0FB080133A3D3E9002390
:10277000FEF7C6FC7D1BB4F8109120F07F48B6E54B
:102780001C60E6E694F8BF51ED073FF572AED4F851
:10279000D051AA4226D000297FF46EAE117901F003
:1027A0000301032962D0C4F8C82167E6C4F8D40144
:1027B0006FE643F8092CC4E97100C4F8CC01002A83
:1027C0007FF467AEF2E742F8093CC4E97111C4F83E
:1027D000CC1159E76FF068002DE6C4F8D4116FF002
:1027E0008B0028E61568C4F8D05100297FF444AE68
:1027F000116843F8091C106053F8092CC4E97200F1
:10280000002A7FF446AED1E71D68C4F8D0510028F5
:102810007FF430AF186842F8090C196052F8093C8F
:10282000C4E9721130E7D8790328F3D00A287FF47D
:102830001BAFEFE7AFF300808D49FD1A07000000E2
:10284000A9F501006C3B0020D83A00205917B7D1F8
:10285000A80700205434030004320300642D030051
:102860001136000000CA9A3B83DE1B43D17903294D
:10287000BED00A2997D1BBE7074A0849084840F665
:10288000C73327F021FB404080F311884FF003004D
:1028900002DF4FF0000849E654340300FC2D03002A
:1028A000642D0300000000002DE9F04F0B68D2F802
:1028B00000801B6897B00C460A93037F00F11E014D
:1028C000C3F380130546174614A806228DF8473037
:1028D0002AF0D7FF94F81190B9F1FF0F0DF1480BD2
:1028E0005BD05A460DF1470148461DF00DF99DF8A1
:1028F000473002338DF847302946032251F82E6BBA
:1029000007F1080007F1040A2AF0BBFF07F11803DA
:10291000042205F12A0150460B932AF0B2FF0B9BCB
:10292000052205F13A0118462AF0ABFF0B9B052161
:10293000184612F019F97B7F95F83F2000F03F0010
:1029400060F305037B77C2F30403BB77AB8EFB8197
:10295000012899B202F01F0305D91B3303F01F03AE
:102960000B2B00D8F9B90A9BEC6800225A6197F842
:102970002030304662F30003012687F820302946D4
:102980002E7115F0CBFE20682671214615F0C6FE8B
:1029900015F0CEFE17B0BDE8F08F062214A95846F8
:1029A0002AF06FFFA8E723680020586095F83700E9
:1029B00095F8363043EA00233B8298F8D830520924
:1029C00062F3C5036A8E0D9240F2E24202FB01F00F
:1029D00088F8D8300B901EF0B1FD0C9098F8D80014
:1029E000C0F3C2001EF0ACFD0C9BC54903440B981C
:1029F00000FB03F303F5742303F23F23A1FB03233E
:102A00009B0C7B6295F83130398A40F2E24203FB3D
:102A100002F24308963BBA63BB622B8FB94AADF80A
:102A20003A309E46B84B844603440244B3FBF0F36D
:102A3000B2FBF0F242F21070A8F8C6201FFA8EF234
:102A400000FB02C2013A881DB2FBFCF2A8F8C220CA
:102A50009AB28242A8F8CE2004DDC1F57F41FA3156
:102A60000A4492B2A8F8CA205146042208F1DC00B8
:102A70002AF007FF2B4613F81C2FC2F34011DA0788
:102A80000F910C9100F115814FF48073AB830A9B79
:102A900093F826001DF0EAFD0146062205F12B0001
:102AA000002900F0EB8005F124012AF0EAFEB9F1DB
:102AB000FF0F05F1250000F0E48014A906222AF09A
:102AC000E0FE9DF84730AB775946062205F11F001E
:102AD0002AF0D7FE98F8D830FA896A863A8AAA8608
:102AE000C3F3C203BDF83A2085F83830EA86404681
:102AF00017F0ECFF2946B881E8806568304615F08C
:102B00000DFEBB89EB801B232B710C9B2E68002BC9
:102B100040F0BC809DF83C302B772946304615F0BC
:102B2000FDFD15F005FE97F84500B7F84050B7F8E1
:102B30004260012100F007001EF00EFB2E4406F556
:102B4000E1763118824671484FF000093123C8F808
:102B50000830A1FB000168A3D3E90023C8F8049062
:102B6000C8F80C90FEF7CCFA0B9B7E6A0D9AE568CC
:102B70009E1B40F2E24303FB025520F07F4005F22A
:102B8000B245A5EB0A034A460221C8F8100001200D
:102B90000B9311F0B9FE0A9D284616F0A7FE821C81
:102BA0005B4B0095D2B24846012113F035F901285C
:102BB00000F08C800A9B93F82430DB0771D44046E8
:102BC00017F084FFDFF84491A6FB09564AA3D3E926
:102BD0000023834631462846FEF792FAA368CDF8D3
:102BE00018800BF10504A3F13A0B4A4B07934A4BAB
:102BF00005934FF4E4730893D8F8103020F07F4722
:102C000046484FF0000ACDE903A3A7FB00010723C4
:102C1000281A03FB071166EB01014FF47A720023B7
:102C2000FEF76EFA0B9BCDE90170A3FB090132A3FD
:102C3000D3E90023FEF764FAE4B220F07F4000906D
:102C40005B4622460121504613F05CF830F0020347
:102C50000CD0334A3349344840F2C91327F034F9D1
:102C6000404080F311884FF0030002DF012202216F
:102C7000104611F049FE17B0BDE8F08F2AF00CFEA7
:102C800015E7062200212AF007FE1AE77B7F43F0B2
:102C900040037B7750461CF035FD0123F8832B77EA
:102CA0003BE70023012200931846114613F0B4F8C5
:102CB00085E71B4A1D491C48F12327F005F94040D0
:102CC00080F311884FF0030002DFDDE615F0DCFD34
:102CD0000A9B83423FF46EAF114A1549124840F2F5
:102CE0009F2327F0F1F8404080F311884FF0030054
:102CF00002DF5FE7AFF300808D49FD1A0700000097
:102D000083DE1B43FF5962027FC3C90100CA9A3B9D
:102D100029ED0100F9EC010065ED01008D49FD1A76
:102D20005036030034350300642D0300902F030058
:102D3000AC360300000000002DE9F04F8BB00F46C9
:102D40000493BDF85830059006930020BDF860301C
:102D50009DF85490BDF85CB00393164616F0FAFF48
:102D6000002800F09D8109F0010A0546504613F045
:102D70001BF9BAF1000F6AD12B6A05F11C02079208
:102D8000002B6BD0D5F82080D8F8004098F844008C
:102D9000C0F3C00100F007001EF0DCF9B8F84010E5
:102DA00000F5E1700144B8F842000144C648C4A3EC
:102DB000D3E90023A1FB0001FEF7A2F920F07F4038
:102DC000206130461DF0C4F995F833306FF34103AC
:102DD00085F83330FF2385F8343066B3A9F1020358
:102DE000012B40F2618195F84430049A69F3420363
:102DF00085F8443095F8333062F3000385F83330BA
:102E00001499062205F124002AF03BFD039B2B8632
:102E1000059A00963B4605F11C000021FFF7C0F81B
:102E20001EF038FB002840F05B812846FFF7E4F8ED
:102E30000BB0BDE8F08F1DF0C7FD0028CED014996F
:102E4000049832461DF0F4FA85F83400C6E70621EE
:102E500011F0FEFC00288FD11220E9E715F046FCA6
:102E60000790002800F0738117F024FE0446002824
:102E700000F08F81203011F08BFE04F11C08002837
:102E800040F05881032104F124001EF011F8069B44
:102E9000606F63854FF6FF73A4F82CB0238500287C
:102EA00000F0578104F1640104F1680211F0DCFCC8
:102EB000B4F86030854A23F4EF6323F0070343F44A
:102EC000887343F00103A4F8603094F87A3023F05B
:102ED00007034FF0000B84F87A304FF01B13C4E95E
:102EE0001632C4F874B0A4F878B0A4F82EB0C4F8C0
:102EF00030B004F134001CF0B9FB94F8393060F3C1
:102F00000503012184F839300DF127001DF0D0FFB1
:102F10009DF827206E4BDDF80CC0A08D84F83BB0E7
:102F2000A3FB0213DB0803EB4303A2EB830305338C
:102F300084F83A3094F839300699A4F8C4B003F014
:102F40003F0384F8393094F83C30A4F8C8B023F03B
:102F5000030340F2E24284F83C305E4BA4F8D0B068
:102F600002FB01F10A460B44B3FBF1F35A49A4F802
:102F7000CCB01144B1FBF2F1A4F8C61042F21071CA
:102F800001FB0C210139B1FBF2F2A4F8C2200622A8
:102F9000A4F8C020811D9AB28A42A4F8CE2002DD96
:102FA000063A121A92B294F8D830A4F8CA204FF018
:102FB000000B23F0070384F8D830A4F8E4B084F8B9
:102FC000E6B0C4F808B1A4F80CB1A4F820B114F02C
:102FD0004FFE079BC4F8443194F83A31A4F838B155
:102FE00023F0030384F83A3194F87A30A4F840B11E
:102FF00023F0180384F87A3094F8663184F843B1EA
:1030000023F0070384F8663194F88631A4F864B19C
:103010006BF3451384F8863194F8AE31A4F884B18B
:103020006BF3C303002284F8AE310023C4E94A01E4
:10303000C4E94C23A4F8ACB1A4F8B8B118F082F8F4
:10304000A4F8D20018F084F8D4F8BC21234BA4F8DB
:10305000D4001340C4F8BC3118F080F894F8C031A3
:1030600060F3020384F8C03118F07EF894F8C031A0
:10307000C4F8C4B160F3C50384F8C0313123C4E996
:1030800074BBC4E972BBC4F804B0C4F80CB0A3604C
:10309000C5F82080C4E905BB84F800B0E46175E69A
:1030A0000C200BB0BDE8F08F00201DF075F895F8EE
:1030B000333043F00203D14685F8333093E600BF46
:1030C0008D49FD1A0700000000CA9A3B48014801DB
:1030D000ABAAAAAA7FC3C901FF5962020000FFF68A
:1030E0002C6AA36D63B12D4A2D492E484FF4976386
:1030F00026F0EAFE404080F311884FF0030002DF23
:1031000004F14C0104F1480011F0B2FB064600281E
:1031100031D02768A665D7F84441F4B1204615F0B0
:10312000EBFA384617F0CCFC002303202B620BB0DF
:10313000BDE8F08F194A1C491A48BF2326F0C4FE87
:10314000404080F311884FF0030002DF9AE6072029
:103150006EE604F16C006067A4E6104A134911485A
:1031600040F2C14326F0B0FE404080F311884FF09A
:10317000030002DFD2E7094A0C490A4840F2BA4389
:1031800026F0A2FE404080F311884FF0030002DFDA
:10319000BFE7079815F0B0FA072049E6F0360300BC
:1031A0005C330300642D0300DC300300AC34030007
:1031B0002DE9F04F80468FB004460F46154600F1CA
:1031C000240106220CA818F81C6F2AF05AFB94F868
:1031D0001C9018F0010FC9F3401BC6F3C016D94666
:1031E00040F004810023A383B97C97F8118011F08B
:1031F000010104F12B004FF0060200F0E18004F120
:103200001E012AF03EFBB8F1FF0F04F1250304F183
:103210001F0A00F0DF805246404604F11E010B9366
:103220001CF072FC0B9B1846A37F02330CA9A377FA
:1032300006222AF026FB3B68D3F800A0EB896386C0
:103240002B8AA386BAF83030E3861EF075F984F82D
:103250003800D5F80080404617F038FC7E68A88119
:103260002146E080206815F059FAAB89F3801B23D2
:1032700034683371B9F1000F40F0C68086F81CB095
:103280003146204615F04AFA15F052FAD8F80430C3
:10329000D8F8086095F84400B5F80E90FC689E4296
:1032A00038BF1E46C0F3C00140F2E24300F0070001
:1032B00003FB09F91DF04EFF203400220221241ADD
:1032C000012011F021FB504616F01CFD021D564B4B
:1032D000CDF800A0D2B20121002012F09DFD30F007
:1032E00002030CD0514A5249524840F2C93326F0E9
:1032F000EBFD404080F311884FF0030002DF4FF0F8
:10330000000A534603220121CDF800A0504612F0D6
:1033100083FD404617F0DAFBBB68CDF81880093B07
:103320009E1B454B0793454B059340F2F933444FA1
:103330000893D8F81030A9FB0798CDE903A3451DE1
:1033400037A3D3E9002348464146FDF7D9FE10468E
:1033500019464FF47A720023FDF7D2FE30A3D3E969
:103360000023029041464846FDF7CAFE2CA3D3E94C
:1033700000230190A4FB0701FDF7C2FEEDB220F08F
:103380007F40009033462A460121504612F0BAFC95
:1033900030F002030CD0254A2549264840F2FA3382
:1033A00026F092FD404080F311884FF0030002DFC9
:1033B00001220221104611F0A7FA0FB0BDE8F08FEC
:1033C0002AF06AFAB8F1FF0F04F1250304F11F0A8D
:1033D0007FF421AF1846062200212AF05DFAA67775
:1033E0000CA9504606222AF04CFA24E70F4A154948
:1033F00010484FF4527326F067FD404080F3118867
:103400004FF0030002DFEDE66B7F43F040036B7784
:10341000281D1CF077F90123E883337730E700BFDC
:103420008D49FD1A0700000021EF0100F03603006E
:1034300034350300642D030025EF010055EF010032
:1034400000CA9A3B902F03002DE9F04F8FB01E4623
:1034500009931546FF230A1DDFF80481DFF804B144
:10346000DFF804A1DFF804910892002131600446DE
:103470008DF82F3004930C91059106910DAF0CAE91
:1034800002230D93CDE9018700962B460DF12F0203
:103490002146002012F002FD02282DD00D9B002BAA
:1034A00030D19DF82F30FF2B3CD0052BE8D10020E8
:1034B00017F014FB0028E3D090F93930002BDFDB44
:1034C000049902690C9BFF290CD0069907921846B3
:1034D000049312F043FD059B089A99188842049BB7
:1034E000079A22D8CDE905239DF82F300493C7E72A
:1034F0002146002012F018FD0D9B022BF8D00D9BE9
:10350000002BCED073235A465146484626F0DCFCA9
:10351000404080F311884FF0030002DF9DF82F3008
:10352000FF2BC2D1049BFF2B10D0DDE905321048E0
:103530001344A3FB0001072202FB031106A3D3E9F6
:103540000023FDF7DDFD099B803018600FB0BDE85A
:10355000F08F00BFAFF3008000CA9A3B000000006C
:10356000F1F20100483703008C370300642D03009B
:103570008D49FD1A0000000070B582B01C46019212
:103580001546064601AA0220FFF75EFF23680BB32B
:103590000198431B1B021FD4294612F0DFFC1A4A74
:1035A00003460721A0FB020201FB032114A3D3E978
:1035B0000023FDF7A5FD226802442260002A09DBF2
:1035C00040F2E24006FB00F0904203D2121A82421F
:1035D000FCD8226002B070BD0146284612F0BEFC45
:1035E000094A03460721A0FB020201FB032104A3B1
:1035F000D3E90023FDF784FD2268121A2260DDE77B
:1036000000CA9A3B000000008D49FD1A000000002E
:103610002DE9F041B0F8941188B0044640F2E2433D
:103620004748002603FB01F105AD0623C5E9016605
:103630008DF80F30A1FB00013FA3D3E900230596CD
:10364000FDF75EFD0DF10F0301950093B4F88A318B
:10365000049004AA204601211BF04CFE9DF80F8027
:1036600008F1FF3C5FFA8CFC0DF11603304604F5BF
:10367000CA7703EB4C0C04F5D0764FF6FF7E3A8800
:10368000B8F1000F0AD02B46724504D01988914238
:103690004FF001001DD002339C45F5D10237BE42E8
:1036A000EDD1D4F8EC3048BBBDF8142040F2E24133
:1036B00002FB01F1100AC4F818111A70587094F83E
:1036C0000E31042262F3020384F80E3108B0BDE823
:1036D000F081D4F8EC1040F2E24302FB03F3100A4D
:1036E000C4F818310A70487094F80E31042262F35D
:1036F000020384F80E3108B0BDE8F081032203F81C
:10370000042C13F8052C94F80E11052542F0030241
:10371000112003F8020C03F8052C65F302010F20B9
:10372000202203F8010C1A7084F80E1108B0BDE8CD
:10373000F08100BFAFF300808D49FD1A0700000043
:1037400000CA9A3B0000000038B504461EF084FD14
:10375000A27DC2F34103013303F00303032B34D0F2
:1037600063F34202A27503F125001DF0B1FC63680A
:103770000BB32369FBB120F05FFA054612F0ECFBB6
:10378000C11C002020F026FA20F0A2FA20F054FA02
:10379000294612F0E3FB124903460722A0FB010170
:1037A00002FB03110CA3D3E90023FDF7A9FC236955
:1037B0001B1A236138BD12F0CFFBC11C002020F082
:1037C00009FABDE8384020F083BA6FF34202A275CF
:1037D0002520CAE7AFF3008000CA9A3B0000000032
:1037E0008D49FD1A000000002DE9F04F87B0044616
:1037F00020F004F8C0B250B91DF0C2FCB448214614
:103800001FF0D6FE07B0BDE8F04F1FF0CDBF20F08F
:1038100015F8054620F030F9834620F037F9814647
:1038200020F04CFB064620F02DFB824620F0E8F805
:10383000EDB2804620F0CAF81DF0A2FC002DDDD0CC
:10384000012015F0C7F80546002800F07D811BF027
:10385000FF0BF6B240F06F81002E40F0CC80FF27C6
:103860005A463B46314620461EF024FF0028C5D06C
:103870002B7F626800218DF813105FFA88F803F03F
:103880000F01002A00F0D380626892F82020900790
:1038900000F1CD800729B1D0A27D120740F16281ED
:1038A000002940F0AE806B7F252B00F2228104209E
:1038B00015F090F80028A1D020F012FA636A804633
:1038C00043B9238C40F2712202FB03F3B0FBF3F205
:1038D00003FB120823681A697E4B0721A2FB03032E
:1038E00001FB023178A3D3E90023FDF709FCA0F224
:1038F0004233434582D320F05BF8384663681CF0BE
:10390000C3FEE37D9B07814640F1CF81002800F094
:10391000CC8183464FF001081FF09EFF2B7F05AA44
:10392000039205F11E0201468246C3F38013009202
:1039300020460022CDE9018B1EF0D6FE50461FF036
:1039400011FF1FF051FF002840F0C5816248214659
:103950001FF02EFE6168A37D91F8202043F08003C4
:1039600042F0010281F82020A37515F051F81623CA
:10397000804603714FF6FF732D7FC380514624228A
:103980001C3029F07EFF98F81C30C8F80840C5F3B9
:10399000401565F3451388F81C3020F04DF90021DF
:1039A000C8F810000120059D1FF0ECFE002E08BF96
:1039B000FF2788F81970E37D2D1A13F00203C8F869
:1039C000145003D0B9F1000318BF012398F81A204E
:1039D00063F3000288F81A2015F01AF803464146EE
:1039E000D8F80000C8F80C3015F028F815F036F8B3
:1039F00007B0BDE8F08F5FFA8AF01CF0D3FE0746EF
:103A00002EE7012915D16B7F0C2B7FF4F7AE2A7FAF
:103A1000009700230193D20905F1240320461EF0EC
:103A20009BFD00287FF443AF297F01F00F0100299F
:103A300054D0062952D0022900F0A780012958D17C
:103A40006B7F0C2B7FF4DAAE2A7F00970DF1130306
:103A50000193D20905F12403002120461EF07CFDCC
:103A6000002846D06B7F002B3FF4C8AE63682BB1B3
:103A70002B7F03F00F03072B7FF4C0AE03209DF8CC
:103A8000139014F0A7FF054600283FF4B7AE14F0DA
:103A9000BFFF4FF6FF73EB8005232B71B8F1000FCA
:103AA0006FD17F20AB7E2876002E08BFFF2769F3F9
:103AB00041032868AB7629466F7614F0BFFF14F0F7
:103AC000CDFF9BE6AFF3008000CA9A3B00000000E8
:103AD000112302008D49FD1A092502006B7F252B59
:103AE00007D8A27D920602D56268002A4FD0252B06
:103AF000B9D92B7F03F00F03042B7FF47FAE6B7FCC
:103B0000252B3FF67BAEA37DD9077FF577AE1FF05F
:103B1000A3FE2B7F0278C3F38013B3EBD21F7FF495
:103B20006DAE0830062205F11E0129F081FE002845
:103B30007FF464AE96E7A07D5FFA89F1C0F3C00020
:103B40001CF0C6FD07468BE6714A7249724840F286
:103B5000C32326F0B9F9404080F311884FF00300E9
:103B600002DF74E6FF2F8DF81470C3F3801978D04C
:103B7000237EDB1BB3FA83F35B09002B7FF490AE4B
:103B800055E71FF02FFFC0B28CE76B7FAFE79620A1
:103B90001FF092FF00201FF063FE032014F01AFFB5
:103BA000814600283FF42AAE14F032FF4FF6FF732F
:103BB000A9F80630052389F80430B8F1000F70D158
:103BC0007F23002E89F8183014BF3B46FF2389F865
:103BD000193099F81A30D9F800006FF3410389F8C9
:103BE0001A30494614F02AFF14F038FF1FF034FE53
:103BF0002B7F0646C3F380133278DB0102F070029C
:103C000043F00303134333700C23384673701CF0E6
:103C10003BFDE37D9F074FD500284DD0337801460B
:103C2000304643F0400300F8023B062229F029FE0B
:103C3000062205F11E0106F1080029F022FE304699
:103C40001FF090FD1FF0D0FD002852D120F040F869
:103C5000A37D324843F00103A37521461FF0A8FC61
:103C6000C6E605F11E0A05AA514648461CF050FE5C
:103C700000283FF4D9AEE37D03F001034B457FF408
:103C8000D3AE5146062204F1080029F0D1FD297F68
:103C9000B0FA80F35B0901F00F01002B7FF400AE56
:103CA000C5E61FF09FFEC3B28BE794F8168004F1BF
:103CB000190BC8F380182FE6A37D3278C3F3801365
:103CC000304663F3861200F8022B04F11901062234
:103CD00029F0D7FDACE70E4A11490F4840F2914355
:103CE00026F0F2F8404080F311884FF0030002DF25
:103CF0002CE6074A0A49084840F2165326F0E4F831
:103D0000404080F311884FF0030002DF9EE700BFC0
:103D1000103C0300BC3B0300642D0300252302007C
:103D2000C43B030030B50F4D0FCD8DB001AC0FC4B7
:103D30002B680D49236001A80AF0F4F9034678B115
:103D40000A48026852070BD0094ACDE90A23032327
:103D500000930993002309AA4FF4C25127F0A6F853
:103D60000DB030BDF01E0300993D0000A00B0020F7
:103D7000F84103007FB50AAB05930293054B01930D
:103D8000002300930322184602F0E2F807B05DF822
:103D900004FB00BF794B03002DE9F0411E46037878
:103DA0008AB004468846174607AD032B2ED8DFE8B5
:103DB00003F00227292B1A49284629F0E2FC6378F0
:103DC0000493A3780393E3780293237901936379AF
:103DD0000093144AA37914480595042126F081F82C
:103DE000124BC3F80080124B1B68ABB9012F13D8DC
:103DF0001049224630460AB0BDE8F04108F016BE30
:103E00000D49D9E70D49D7E70D49D5E70D4A0A21F4
:103E1000284626F066F8D2E70AB0BDE8F08100BF78
:103E20001B4203003D420300E84E0020082800200A
:103E30000C280020493E00002242030029420300D2
:103E400033420300287903002DE9FF410378072B53
:103E500003D0012004B0BDE8F0811C4F1C4DDFF8F9
:103E6000748000242B6803F00703022B07EB040681
:103E700008D90023CDE9018600930322294618467C
:103E8000FFF778FF1448314629F0B5FCC0B9134B51
:103E900013491A6808681349122A21F8120002F11E
:103EA00001010ABF072219601A60002140F2AF70B9
:103EB00025F03EFC0AF0B6F9FFF734FF0020C9E711
:103EC0001A34B4F59C7FCDD1C3E700BF5E09002052
:103ED000A00B0020794B0300E84E002010280020A2
:103EE000082800209E4E00200D4A0E48002300B5F1
:103EF00013600D4A0721116002680A40022A89B046
:103F000009D90A4A06920222019205924FF486517B
:103F100005AA26F0CBFF09B05DF804EBFFF702BF5E
:103F20000C280020A00B0020102800206042030075
:103F300030B50C4D0FCD89B003AC0FC42B68236096
:103F4000002309490093022203A809F031FE01462B
:103F500020B1064825F0B8FF09B030BD044825F06F
:103F6000B3FFF9E7041F0300282003008E4203007B
:103F7000B442030008B5074825F0A6FF064B00220F
:103F80001A70FFF7D5FF054B1868BDE808402AF006
:103F90000CB900BFD6420300064F00202C28002099
:103FA00010B5144611B1054825F08EFF20461022A9
:103FB000BDE81040002129F06FBC00BFF4420300AF
:103FC000F8B5074614460E4669B9234B1B8813B94A
:103FD000224825F079FF14220021204629F05CFCBC
:103FE00000252846F8BD157CC5B91D49106829F083
:103FF00010FD98B91B4825F067FF338A256001330F
:10400000238103232146237438460DF077FA0146B5
:104010000028E6D0144825F057FFE2E7237C032B65
:1040200018D1F4681149206829F0F3FC28B9104828
:1040300025F04AFF084BA2881A800E4BBFF35B8F16
:10404000012553E8002F43E800510029F9D1BFF3BF
:104050005B8FC6E70125C4E79C4E00200A4303009E
:10406000350B00202443030038430300460B002097
:10407000524303002828002070B592B00E462AF063
:104080005DF90378044607AD032B25D8DFE803F07C
:10409000021E20221349284629F073FBA3790595B7
:1040A00062780492A2780392E278029222790192D5
:1040B000627900921E210C4A0AA825F012FF0B48D3
:1040C00032460AA925F000FF12B070BD0849E2E7A8
:1040D0000849E0E70849DEE7084A0A21284625F0B2
:1040E00000FFDBE71B4203003D4203005E43030089
:1040F00022420300294203003342030028790300CF
:1041000037B5134D044631B1124825F0DDFE0023CA
:104110002B7003B030BD104825F0D6FE0F4A0123A6
:10412000506991692B706B4603C320462AF022F830
:104130000B4B6946186020462AF063F90028E8DA3C
:10414000084C204625F0C0FE0A2025F040FEF8E786
:10415000064F00207443030094430300041F030030
:104160002C280020AD43030008B5002008F0E8FB30
:10417000014620B1BDE80840074825F0A5BE074824
:1041800025F0A2FEFFF7D4FE05480AF04DFEBDE87B
:10419000084004480BF072B8C6430300E64303002E
:1041A000D4010020B00100202DE9F041264E274D1A
:1041B000274F002496F80080B8F1000F39D0FCB9E1
:1041C000244825F081FE2449244B0B60244B4B608E
:1041D00001230B8128680C744FF6FF73CB810DF01F
:1041E0008DF9014610B11F4825F06EFE1E4CBFF33D
:1041F0005B8F2368BFF35B8F0BB31C4825F064FE15
:104200004FF47A7025F0E3FD19483C8825F05CFEF8
:104210001849194B8B600C238B812868174B0B6056
:104220008C800DF053FD10B1154825F04DFE012492
:10423000C0E74FF47A7025F0CAFD4446BAE7002182
:10424000212025F075FAD2E7064F00202C28002007
:104250009C4E0020FD43030014280020350B002055
:10426000C13F0000274403002828002040440300E9
:1042700053440300302800209E4E0020A13F000040
:104280006444030037B50020019004F0EBFB0446C2
:10429000D8B90F4D019B5BB10E4825F015FE0E48B5
:1042A00025F012FE0D4825F00FFE204603B030BD6C
:1042B000AB681B6D1BB101AA042128469847002159
:1042C00040F6CD4025F034FAE4E74FF0FF34ECE758
:1042D0004C1A0300754403008E440300A7440300F6
:1042E0002DE9F04F05468BB0184615F00303DDF8B5
:1042F000508003920E46019340F0F5812C1D002D55
:1043000040F0F48101F00706341DC6F108064FF0B5
:10431000000A0427411ECDF808A0CDF800A052469F
:10432000B94605B12060039B03F0010ECE4B9842C5
:10433000C0F02A81CD4B984280F02681BEF1000F5B
:1043400000F03C814FF0010CA4EB050BBEF1000F17
:1043500000F01D81BBF5007FC0F019816FF01500E2
:10436000F5E032B9252B40F02C8101220427B94613
:1043700027E12B2B24D81F2B01D8002221E1A3F108
:1043800020000B28F9D80FF2080C5CF820F000BFD1
:10439000C34500007B4300007B430000C345000091
:1043A0007B4300007B4300007B4300007B43000015
:1043B0007B4300007B43000067450000C3450000CD
:1043C000A3F12D005FFA80FCBCF14D0FD5D84D282C
:1043D000D3D80FF2080C5CF820F000BFC3450000F2
:1043E000C34500007B430000C3450000C3450000F7
:1043F000C3450000C3450000C3450000C34500009D
:10440000C3450000C3450000C3450000C34500008C
:104410007B4300007B4300007B4300007B430000A4
:104420007B4300007B4300007B4300002F450000DE
:104430007B4300007B4300007B4300002F450000CE
:104440002F4500002F4500007B4300007B43000008
:104450007B4300007B430000C34500007B4300001A
:104460007B4300007B4300007B4300007B43000054
:104470007B4300007B4300007B4300007B43000044
:104480007B4300007B430000154500007B43000098
:104490007B4300007B4300007B4300007B43000024
:1044A0007B4300007B4300007B4300002F4500005E
:1044B0007B43000015450000154500002F45000016
:1044C0002F4500002F450000C345000015450000A2
:1044D0005D4500007B430000C34500007B430000B6
:1044E0006145000015450000614500007B43000068
:1044F0007B430000614500006D430000154500004E
:104500007B4300007B430000154500007B43000017
:104510006D43000011F8012C6C2A23D111F8022CF4
:104520006C2A4FF000022DD00427B9461BE008F199
:10453000070828F007080734F8E8022324F00704E6
:1045400055B10EEB0400B04204D96FF01B000BB064
:10455000BDE8F08FC4E9002308340022082706E7ED
:104560000022E1E70022013C3C447842044025B1AE
:10457000A9EB05002044B042E7D8732B43D158F88B
:10458000040BCEE60827D0E74FF0000CDCE6009BDA
:104590000F2B3FF6E3AE45B3DDF800E00AA8CBF3FE
:1045A00087037044BCF1000F19D063F07F0300F85B
:1045B000103C0AF1010A009B013300930434C5F159
:1045C000080E11F8013F002B7FF4CBAE601BB0F555
:1045D000806FBFF4C3AE9DBB083E3044B7E700F820
:1045E000103C029B01330293E5E7BCF1000F01D0C0
:1045F0000136E0E7CDE9041229F0EDF80236DDE9F5
:1046000004120644D7E7B9F1040F08D108F10400F9
:1046100015B1D8F80030236004348046D1E7B9F1F1
:10462000080F7FF49BAE08F1070323F0070303F1A3
:1046300008081DB1D3E900BCC4E900BC0834C0E7D8
:10464000029A2B60800828706A7085F802A0BAF17F
:10465000000F05D006A9C5F10100009A9A4207D1C2
:10466000C5F1010939E000BF5C190300B87E030001
:1046700011F8012B170607D52718B74202F07F0261
:104680003FF663AF04F8012B0133E6E7019B06AA6E
:1046900012F80380BAF1000F02D018F0800F19D180
:1046A0000FFA88F2002355F8221045F82230084608
:1046B000029129F090F804EB0902471C3A44B242F7
:1046C0003FF643AF04F8018B029920463A4629F0A1
:1046D000D8F83C44019B01330193DDE900239A4261
:1046E000D4D1601B33E76FF00D0030E707293FF6A8
:1046F0000EAE2AE730B585B0CDE9010104460025AC
:1047000001A90548039500F0E9F8DDE90230984277
:10471000B8BF255405B030BDA39E02002DE9F84F67
:10472000B0F8189019F00808044693460DD00129F6
:104730000CBF49F0100949F02009A0F818908BF33C
:104740001188BFF36F8FBDE8F88F09F007090229C0
:1047500007D1204625F0ECFB0028F0D00128238B60
:104760004ED16769218B002F15DA256821F00701EA
:10477000C4E9008841F0010121830026218B01F06A
:10478000070ACA4502D0A368002B5AD10DB9002EE2
:1047900071D0002356E001F007035A1F012A1ED8EA
:1047A00021F00701062B256889B2C4E900880AD1E7
:1047B0003DB1638B2A46126801339BB2002AFAD1BD
:1047C000638341F002012183204625F0B1FB0646B8
:1047D0000028D3D0238B43F020032383CDE7042B81
:1047E0000CD121F0070189B22183204625F0A0FBDE
:1047F00005460028C1D041F0200121830025BCE7F7
:10480000032809D1226923F00703166843F0060341
:10481000238300252F46B1E7042806D1226923F01F
:104820000703566843F00403F2E7052806D122691E
:1048300023F00703966843F00503E9E700252E46B9
:10484000E8E7012341F0080121838BF31188BFF3CE
:104850006F8FFBB985BB16B11F492046B0474FF09B
:104860002003EFF3118B83F31288BFF36F8F238B39
:1048700023F008032383238BDA0625D523F01003C6
:1048800023830121B4F8189009F0070900297FF467
:104890005EAF54E7A1680029DCD0D1F80090D1F8D0
:1048A00004B03B4652462046D847B9F1000FD1D05C
:1048B0004946D9F80090F2E729463B465246204641
:1048C0002D6825F051FBC5E713F020011EBF23F032
:1048D000200323830221D5E7959F02002DE9F04FA5
:1048E00081469BB08A4615461C460026287810B99A
:1048F000304600F0EEBD6B1C2528029306D05146D1
:10490000C8470028C0F2E58501364CE21822002194
:104910000CA828F0C1FF6B78252B7CD00022681CE6
:104920009646904694461746014610F8013B2B2BBD
:1049300000F0A08000F29780202B00F09E80232BB7
:1049400000F09E802FB19DF8380040F004008DF8F3
:104950003800BCF1000F05D09DF8380040F0080089
:104960008DF83800B8F1000F05D09DF8380040F000
:1049700010008DF83800BEF1000F05D09DF838000A
:1049800040F020008DF838002AB19DF8382042F020
:1049900040028DF838209DF8382002F04400442869
:1049A00003D16FF386128DF838209DF838202A2B1A
:1049B00042F080028DF838207ED19DF8392042F0F7
:1049C00001024B1C8DF839201A782E2A9DF83920C7
:1049D0000CBF0121002161F341028DF8392077D10C
:1049E0005A782A2A6DD0013300214FF00A0C18465C
:1049F00010F8012BA2F13007092F40F2AB809DF88F
:104A000038201091C2F3400040EAD17161F34102B5
:104A10008DF838205CE0AA1C02928DF83B309DF89E
:104A20003930DF0740F1738154F804BBBBF1000F4C
:104A300007DA9DF8382042F004028DF83820CBF1D7
:104A4000000B580740F16C8154F8048BB8F1000F4B
:104A500080F26B819DF839306FF341038DF8393066
:104A60004FF0FF3861E12D2B0DD0302B7FF46AAF72
:104A7000012259E74FF0010C56E74FF0010853E7C8
:104A80004FF0010E50E701274EE70CFB0272303A5F
:104A90000346184610F8017BA7F1300EBEF1090F4E
:104AA000F3D9994290D09DF838100F92D20F62F34B
:104AB00041018DF8381087E70B4600224FF00A0CB1
:104AC000E7E79DF8392042F004028DF839200233DF
:104AD000194611F8012B6C2A5CD040D8682A46D0C0
:104AE0006A2A61D04C2A67D019460B4613F8012B6D
:104AF0000293782A8DF83B2000F2DF80572A68D88D
:104B0000412A04D0A2F14503022B00F2D6809DF881
:104B10003A3002F0DF020421A2F1410861F30203FE
:104B2000D8F100029DF839108DF83A3042EB0802B6
:104B300062F3C7110A068DF83910CBB200F1E58097
:104B400003F07802182A40F0B5806FF3C6038DF8A1
:104B500039309CE00CFB01213039034647E7742AC9
:104B600026D07A2AC0D19DF8393006220DE05A7835
:104B7000682A9DF8392006D1012161F3C6028DF81B
:104B80003920991CB1E71346022262F3C6038DF85F
:104B90003930AAE75A786C2A9DF8392001D10421CE
:104BA000EBE713460322F0E79DF839300522ECE7E6
:104BB0009DF839300722E8E7BDF8383023F4F04398
:104BC00023F0020343F4804343F00203ADF838308E
:104BD0008BE7A2F15803202B6FD801A151F823F0E5
:104BE000934C0000BB4C0000BB4C0000BB4C0000D1
:104BF000BB4C0000BB4C0000BB4C0000BB4C000099
:104C0000BB4C00000F4B0000BB4C0000934C00005D
:104C1000654C00000F4B00000F4B00000F4B0000D5
:104C2000BB4C0000654C0000BB4C0000BB4C0000BE
:104C3000BB4C0000BB4C0000C94C0000934C000072
:104C4000ED4C0000BB4C0000BB4C0000ED4C0000E4
:104C5000BB4C0000934C0000BB4C0000BB4C000060
:104C6000934C00009DF83A30012161F302038DF866
:104C70003A309DF8393003F07803402B02BF9DF89D
:104C8000381041F001018DF83810632A05D0002357
:104C900006E09DF83A300221E7E7003B18BF012308
:104CA0009DF83820C2F340010B4363F341028DF8B5
:104CB0003820B4E613F0380FE9D09DF8383043F0CF
:104CC00001038DF83830E2E79DF83A30032262F3B1
:104CD00002038DF83A309DF8393003F07803A3F1E0
:104CE000400CDCF1000343EB0C03D9E79DF83A30AC
:104CF000032262F302038DF83A309DF8393013F045
:104D0000780F14BF01230023CAE70123C8E79DF9E8
:104D10003820002AB4BFDDF83CB04FF0FF3B90E6EE
:104D200099077FF59DAEDDF840809DF8391000238E
:104D3000CDE90F339DF83A3003F00702042A09D178
:104D40008A0707D49DF93920002AB4BF4FF00D0817
:104D50004FF0060803F00703012BC1F3C30137D15D
:104D6000CB1E042B21D8DFE803F003090920200023
:104D700054F8043BDA17CDE90C3206E0073424F08E
:104D80000704F4E80223CDE90C239DF83870BB0733
:104D900056D0029B2A465146484625F0FAFB002889
:104DA000C0F297830644029DA0E554F8043B012914
:104DB0004FEAE372CDE90C3205D19DF830300C9307
:104DC00000230D93E1E70229DFD1BDF93030D1E7AF
:104DD000022B23D1CB1E042B13D8DFE803F0030AE8
:104DE0000A12120022680C920023201D0D93044623
:104DF000CBE7E01D20F00700F0E80223CDE90C230B
:104E0000F5E754F8043B0C9301294FF000030D9390
:104E1000D3D00229B9D1BDF83030D0E7042B09D165
:104E2000E31D23F0070303F10804D3E90023CDE9D0
:104E30000C23AAE7032B04BF54F8043B0C93A4E70C
:104E40009DF83B20782AAED8572A00F28C80252A7C
:104E500000F0D480242AA6D9412A03D0A2F1450328
:104E6000022BA0D8DDE90C13002BC0F2BE8138075D
:104E700000F1BD8117F0100718BF2027C3F30A55B2
:104E8000C3F31303CDE90813002D40F0B28151EABA
:104E9000030014BF01200020DB0243EA5153C90282
:104EA000462A45EA010E43EAE57C08BF66225EEA2F
:104EB0000C0CCDE9081300F00682002840F0CE81EA
:104EC000DDE908014FF0000C41F00041A5F2FE358C
:104ED000099163464FF0050E15F1020FC0F2C5812E
:104EE000BCF1000F01D0CDE90801002DDDE908106B
:104EF00000F3D08109980899C5F1040C1C3500FA1B
:104F000005F5ACF1200E21FA0CF120FA0EFE294332
:104F100041EA0E0120FA0CF0CDE9081002F0DF01A1
:104F2000472940F0D781DD1C02DB984580F2CE8115
:104F3000023AB8F1000FD2B201DD08F1FF389DF856
:104F40003810880600F1C681B8F1000FD4BF0021E7
:104F50000121662A039140F0BF8118EB030540F15F
:104F6000BD810025BDE1A2F15803202B3FF61BAF08
:104F700001A050F823F000BF8D510000A74D0000A4
:104F8000A74D0000A74D0000A74D0000A74D000051
:104F9000A74D0000A74D0000A74D0000654E000082
:104FA000A74D0000295000002D510000654E000063
:104FB000654E0000654E0000A74D00002D51000019
:104FC000A74D0000A74D0000A74D0000A74D000011
:104FD000C35100008D51000091510000A74D000009
:104FE000A74D000003500000A74D00008D510000A8
:104FF000A74D0000A74D00008D51000051461046FE
:105000007EE4B8F1000F0C9A09DB4146104603928A
:1050100028F0E8FB039A0027151862B9C3E610468A
:10502000039228F0D8FBF5E70C9B8DF84C30002755
:105030000DF14D0513AAAB1A07B101339DF83A00E3
:10504000C10640F13A8202330F9940060B4444BF37
:1050500010995B18BBF1000F23DDABEB030B9DF840
:1050600038305907C3F380081BD4580640F1348206
:10507000002F00F03482514638460392C84700287A
:10508000C0F22782039A474601364FF030085E444B
:105090005B46002BA6EB0B000BF1FF3B00F31182EC
:1050A000064647B1514638460392C8470028C0F229
:1050B0001082039A01369DF83A30590640F1658214
:1050C0009DF93930002BA6EB02030393C0F20A824C
:1050D00017463878039BA0F13002092AB84603EB43
:1050E000070607F1010740F229829DF83A200F9F39
:1050F000930608D43E44002FA6EB070307F1FF37C1
:1051000000F322821E4698F800002E280BD151464B
:10511000C8470028C0F2DD81002F06F1010600F328
:105120001A8208F10108A6EB08061DE23D072BD400
:1051300017F0100718BF2027DDE90C23002B05DA34
:10514000524263EB4303CDE90C232D270DF1650398
:1051500000930EAADDE90C0113AB25F0D4F9024649
:10516000B8F1000F0DF16505FFF657AF9DF8381047
:10517000AB1A6FF3861198458DF838107FF64DAF56
:10518000A8EB03030F9348E72B27D5E70027DDE7BC
:105190000C98002800F08D810DF1650300930EAA94
:1051A00013AB002125F0AFF9BDF83A3003F0EF035F
:1051B00043F4F04343F010030246ADF83A300027C1
:1051C000CEE70C9B07293FF6EEADDFE801F00C04BB
:1051D000060C08080C0C1E70E5E51E80E3E5F217CE
:1051E000C3E90062DFE51E60DDE52D2746E62B27DB
:1051F00044E640F2FF7085422DD10B43A2F14102FB
:105200001BD1192A11D849238DF84C304E238DF823
:105210004D3046238DF84E309DF838306FF38613AD
:105220008DF838300DF14F0504E769238DF84C30C7
:105230006E238DF84D306623ECE7192A99BF4E2373
:1052400041226E23612294BF8DF84C308DF84C3092
:105250008DF84D20DEE700201EE6013D49185B4138
:10526000002BFADACDE908132AE6400840EAC170BB
:105270004908B1F1333FAC4605F10105F5D20EFB0B
:1052800001F5A0FB0E012944013B0CF102054FF092
:10529000010C21E6023140F10000CDE9081008A818
:1052A000CDE9032325F000F9049B039ADDE90810FA
:1052B000013D013349184041002805F1FF35F9DA75
:1052C000CDE9081011E600231D4613E6A8EB0308FC
:1052D000662234E600213CE608F10105102DA8BF46
:1052E00010251021079100204FF00061CDE90A013F
:1052F000DDE90A10A5B9089D4919099D40EB05058E
:10530000B5F1805F1BD2CDE90815662A40F099807F
:10531000002B23DC30218DF84C100DF14D052FE0D2
:10532000490841EAC0714008CDE90A100AA8CDE950
:105330000423013D25F0B8F8DDE90423D8E7490846
:1053400041EAC57108A86D08CDE90423CDE9081527
:1053500025F0AAF8059B049A0133D6E713AD079907
:1053600000290BDD07A908A8CDE9042325F0B4F82E
:10537000059B05F8010B013B049AF0D10F93002324
:105380009DF83810890602D4B8F1000F1DDD2E21DA
:1053900005F8011B9BB1B8F1000F16DD59424145DC
:1053A000A8BF41469DF83A000F910029A8EB0108DB
:1053B000D4BF0021012161F345108DF83A00B8F106
:1053C000000F02DD0799002956DC0399002963D1FB
:1053D000CDF8408002F0DF01452921D1002B29467C
:1053E000B8BF5B4201F8022BB4BF2D222B22632BE6
:1053F0006A7009DD6420B3FBF0F202F1300CE91CA5
:1054000085F802C000FB12330A200D46B3FBF0F210
:1054100000FB123302F1300C303305F802CB4B7035
:105420000F9B002B43DC109B002BD4BF00230123D8
:105430009DF83A2063F3861200238DF83A202B70F2
:10544000F8E507A908A8CDE9042325F045F8DDE92A
:1054500004239DF838108DF84C00302818BF03F154
:10546000FF33880602D4B8F1000F12DD2E218DF82B
:105470004D100DF14E05A2E707A908A8CDE90423B8
:1054800025F02AF808F1FF38DDE9042305F8010BBF
:1054900095E70DF14D0598E700211091284615F884
:1054A000011D3029FAD02E2918BF054692E70123A5
:1054B000BEE74B4D07466A1FBDE5010748BF0133F4
:1054C000C2E5514640460392C8470028039ABFF6FA
:1054D000DFAD1BB0BDE8F08F4FF02008D7E54FF0EF
:1054E0003008D4E59046039B4746434418F8010B27
:1054F00070281ED11E46109B03EB0608A8EB06037E
:10550000002B3BDC2B463A465146484625F041F8F5
:105510000028DEDB304406468344ABEB0603002B59
:105520007FF741AC51462020C8470028D1DB013627
:10553000F3E75146C8470028D5DACAE75146C847BD
:105540000028BFF6C6ADC4E751463020C847002842
:10555000BFF6D1ADBDE751463020C847013FD8E581
:105560005146C8470028B4DB474606EB080318F845
:10557000010BA0F13002092AF2D9BBE751463020D5
:10558000C8470028A5DB0136B8E7D80601D41907BB
:1055900007D5514630200392C847002899DB039A6B
:1055A00001369DF83A30DB0608D59DF83B000392A2
:1055B0005146C84700288CDB039A01360F9F3744B9
:1055C000BB1B002B01DC2B469EE75146302003928B
:1055D000C8470028FFF67DAF039A0136F0E700BF09
:1055E0000D45030030B51049104889B000222CF059
:1055F00025F80F4D0F4900220023CDE90623002492
:105600000E23CDE90334CDE901440B4B00944FF454
:105610004072284623F014FA0849284623F05EF920
:10562000204609B030BD00BF41560000C016002022
:10563000F816002020B1002095580000874803008C
:10564000014823F091BB00BFEC0D002070B5124B58
:10565000BFF35B8F53E8005F6A1C43E80021002919
:10566000F8D1BFF35B8F2DB90C4C0D4E361B3611A4
:10567000B54200DB70BD237B53B123689B690BB13E
:1056800020469847636804221968204600F038FADB
:1056900001351034ECE700BF48280020281E030025
:1056A000381E030010B5044C237813B9034823F0C7
:1056B0005BFB0123237010BD074F0020EC0D002081
:1056C0000C4BBFF35B8F53E8002F013243E80021FE
:1056D0000029F8D1BFF35B8F58B1BFF35B8F064B46
:1056E00053E8002F013A43E800210029F8D1BFF325
:1056F0005B8F704744280020402800200020064B84
:10570000BFF35B8F024653E8000F43E800210029F6
:10571000F9D1BFF35B8F704744280020F8B5FFF73D
:10572000EDFF0A4C0A4D2D1B07462D110026AE42F7
:1057300000DBF8BD63685B792BB123681B6913B18B
:1057400039462046984701361034F0E7281E0300FA
:10575000381E03000149024825F0A9B8742003004F
:105760004C280020094A08B500231370084A13602A
:10577000084B094A1A604FF4004000F0D1FBFFF7D4
:10578000E9FFBDE8084000F025B900BF084F002040
:1057900044280020F0010020B5AD0200014600229F
:1057A0000148002325F0A2B84C280020014825F02C
:1057B00030B900BF4C2800200146014825F075B9DA
:1057C0004C280020014825F0A4B900BF4C28002037
:1057D0002A4B1B782DE9F04706460BB900284BD021
:1057E00025F0FCFA054618B16EB12846FFF7E4FF34
:1057F0002EB9234B1B68002B01DDFFF78FFFBDE89F
:10580000F047FFF7DFBF1F4BBFF35B8F53E8002F5D
:10581000013A43E800210029F8D1BFF35B8F1A4C0D
:105820001A4FDFF86CA03F1B3F11B046B845DCDAD9
:1058300063685B79CBB129784B0711D4B5F8009038
:105840006A68C9F38219C1F3C20192B1A2EB0A02DC
:1058500042F38F020123204600F068F9484504D343
:10586000236829461B682046984708F10108103430
:10587000DCE74FF0FF32EDE7BDE8F087074F00208F
:105880004428002040280020281E0300381E030062
:105890009C0B002010B5FFF7D9FE23F063FF0C4BE3
:1058A000186030B10B4B1B68092B02DD0A4823F04E
:1058B0005BFA094C0020FFF78BFF0028FAD14FF06C
:1058C000FF324FF0FF33204623F074FAF2E700BFB7
:1058D0008828002040280020EC0D002013B51D4B27
:1058E000BFF35B8F53E8002F511C43E800100028E2
:1058F000F8D1BFF35B8F184B1B7883B14FF02003B7
:10590000EFF3118483F31288BFF36F8F0020FFF74A
:105910005FFF84F31188BFF36F8F02B010BD0F4B90
:105920001B68002BF9D052B900220023CDE90023D7
:105930000B484FF40042002324F052F9EDE70A2A05
:10594000EBD107482BF086FE064802B0BDE81040B8
:1059500023F00ABA40280020084F002088280020A1
:10596000C0160020EC0D0020064B10B51B68044645
:1059700098472146A060044825F02EF8BDE8104065
:10598000FFF7ACBFF00100204C280020F8B50E4F07
:105990003D7875B90D4C0E4EFFF758FE361B36118B
:1059A000B54207DB0020FFF713FF0028FAD10123DF
:1059B0003B70F8BD63685B791BB1236820465B6967
:1059C000984701351034EBE7084F0020281E0300EC
:1059D000381E03000B480C4B30B51B1A0B4CDB0870
:1059E00000210430994200D130BD10F831202568E3
:1059F00002F0070225F007052A4344F8042B013181
:105A0000F0E700BF401C0300281E03009C0B002091
:105A1000044A054B9B1AB1EBD30F34BF52F8310047
:105A200000207047401C0300281E03002DE9F047AA
:105A30008946164698460446B8B9DFF884A0214F37
:105A4000A7EB0A073F110546BC4202DB2846BDE82A
:105A5000F0870AEB0410434632464946FFF7E6FF5B
:105A6000854238BF05460134EEE7174B174C03EB70
:105A7000C2031D7943681A79072302EB420203FA35
:105A800002F1454554F8263028BF454623EA010374
:105A900005F0070101FA02F213430021032223FA61
:105AA00002F000F00700814202F1030238BF014614
:105AB0001E2AF4D123F007030B4344F82630C5E730
:105AC000281E0300381E0300401C03009C0B00200E
:105AD000F8B5094C094BE41A06460F46E4080025C0
:105AE000A54200D1F8BD00212AB23B463046FFF75F
:105AF0009DFF0135F4E700BF281E0300401C030092
:105B0000094BC31A70B51B114668044601330D4694
:105B100033711146FFF7DCFF636801221D605A7183
:105B2000BDE87040FFF7BEBD281E030063B1002A28
:105B30000FDB43680849187900EB400351F8220055
:105B4000D84000F007007047044B03EBC202107905
:105B500070470420704700BF9C0B0020401C0300CE
:105B6000024B98689B69C01A704700BF8C280020C0
:105B7000014B9869704700BF8C2800200EB403B514
:105B800003AB014653F8042B04480193FEF7A6FE2D
:105B900002B05DF804EB03B0704700BF27AE02000F
:105BA0002DE9F0471D46089B1746DA0604460E46C7
:105BB00005D499064CBF2A492A49FFF7DFFFDFF8D1
:105BC000A8904FF00008A8452ADBDFF8A080DFF896
:105BD000A090DFF894A00025BD422FD2725D494607
:105BE0002046FFF7CBFF0135102D20D12149DFF8EA
:105BF0007880DFF884902046FFF7C0FF0025AF4291
:105C000028D9725DA2F120035F2B28BF2E224946BE
:105C10002046FFF7B3FF0135102D14D1BDE8F08702
:105C200049462046FFF7AAFF08F10108CBE76A07BB
:105C3000D2D151462046FFF7A1FFCDE7414620468D
:105C4000FFF79CFFCFE76B07D9D141462046FFF70E
:105C500095FFD4E741462046FFF790FFDBE700BF02
:105C60005A4A0300244603001A450300184503005E
:105C7000124503001C450300BB5003002DE9F04F03
:105C800087B01C4601F0010305929DF84090BDF9D4
:105C900048A004930746884601F0020B01F008066D
:105CA00025F0A0F80246002844D03A493846FFF7CC
:105CB00065FF0546BBF1000F08D018F0440F3BD13B
:105CC000354922463846FFF759FF0544049B53B136
:105CD000324B334953F82920324B3846002A08BF4B
:105CE0001A46FFF74BFF3EB12F4B304953F829209E
:105CF0003846FFF743FF0646BAF1000F16DB059B57
:105D0000002B45D0012303FA09F9294B294C19F03E
:105D1000100F18BF1C4651469DF84400FFF778FE4F
:105D2000214602463846FFF729FF0644701907B09E
:105D3000BDE8F08F0546BDE71F4B18680028C4D0AA
:105D40001E4B4FF47A781B68B4FBF3F44FF4616197
:105D5000B4FBF0F300FB134408FB04F44FF03C0CDD
:105D6000B3FBF1F201FB1231B4FBF0FEB1FBFCF32B
:105D700000FB1E440CFB131108FB04F40091B4FB60
:105D8000F0F00F49CDE901E03846FFF7F7FE9CE758
:105D9000084CC0E72C450300304503008820030071
:105DA000794B03001E4503009C200300554503006A
:105DB0002845030023450300A8280020AC28002024
:105DC0003945030038B50C46E107054603D5084AB6
:105DD0000849FFF7D3FEE20608D4A30628464CBFC5
:105DE00005490649BDE83840FFF7C8BE38BD00BFC9
:105DF0001E450300794B03005A4A03002446030062
:105E00002DE9FF470B8813F4E07F06460C469046C9
:105E1000C3F382194DD00A784B68C2F3C202002B3B
:105E200044D025495B1A43F38F03CDE90123CDF814
:105E30000090A368002241463046FFF71FFF8246CC
:105E4000254655F80C3BC3F3492353B11B4F1C485F
:105E50001C492B463246B9F1000F08BF384623F0E3
:105E6000C8FF6788C7F3CB0797B12368C3F34923FB
:105E70001D44102F3C4628BF10242946CDF8008031
:105E8000534622463046FFF78BFE3F1B2544F0D198
:105E9000B9F1000F04D04A4641463046FFF792FF61
:105EA000304604B0BDE8F04724F0B0BF4FF0FF33F8
:105EB000BBE7CA46C4E700BF9C0B00205DAE0200F2
:105EC00027AE0200DD48000073B542F20F738B422B
:105ED00028BF0B4605680F4A04460521684624F092
:105EE00000F863680C495B6806460422284624F0E3
:105EF00080FF63683246694628465B6824F079FF74
:105F0000636806495B681722284624F072FF02B0D6
:105F100070BD00BFE0780300934503007B4503009C
:105F2000084A10B50123084C13600021A04204D890
:105F300001B11360054B186010BD40085B000121E2
:105F4000F4E700BFAC28002040420F00A828002042
:105F50002DE9F04F85B0DDE90E6BDDF840A0054678
:105F6000884614469946BBF1000F37D00022CDF881
:105F700000A05B460C211046CDF80CA0FEF7B0F94E
:105F8000074604F0070206F1130005F00704144D5C
:105F9000144BE400384444EA821405EA472520F013
:105FA00007002C4303EAC64380081C43FFF7F6FBB7
:105FB000054650B1BBF1000F07D0CDF800A05B46FD
:105FC000002239460C30FEF78BF94B4622464146FB
:105FD000284605B0BDE8F04F24F04DBF5F46D0E73E
:105FE00000FE07000000F87F00230428CB604B6010
:105FF00098BF044B044A98BF53F820308A600B6066
:10600000704700BFF0200300CC2003000023084AA3
:106010000B60CB604B608A60064B074AD21AB0EB2C
:10602000221F3EBF03EB00139B680B60704700BF4D
:1060300044220300281E0300381E030038B504461E
:10604000FFF78EFD0546FFF793FD094A0346082139
:10605000204625F026F92B462046064A082125F041
:1060600020F92046044A082125F01BF9002038BDFC
:1060700098450300A9450300BA4503002DE9F347FD
:10608000114B124CDFF84880DFF84890DFF848A049
:106090001B1B07461E110025B54203DB002002B082
:1060A000BDE8F087636859791B79002914BF42461F
:1060B0004A46CDE900230821A3685246384625F018
:1060C000F0F801351034E7E7381E0300281E0300FE
:1060D000267A03004F560300064603002DE9F04FD1
:1060E000244B254CE41A4B685B7985B005460E4677
:1060F000E4081BB9214A032125F0D3F8204B214A9B
:10610000DFF884A0DFF884B00821284625F0C9F81C
:106110001F4A0821284625F0C4F84FF000080FFA5E
:1061200088F7A74208F1010803D3002005B0BDE8B5
:10613000F08F3A46012300213046FFF7F7FC002399
:106140003A46194681463046FFF7F0FC394603903F
:106150000020FFF75DFC039A5AF8222001925AF8BA
:106160002920009203465A460821284625F099F82E
:10617000D5E700BF401C0300281E0300274603008C
:106180003946030045460300DC200300A046030017
:106190006346030010B50023054ACB600C464B60F4
:1061A0008A6001461846FFF733FC206010BD00BF2F
:1061B000CC2003002DE9F04F52F804AC184C85B008
:1061C0000646504689469046029327F004FB15493F
:1061D000091B0B11024601930027A346019B9F4216
:1061E00008DB114A53460121304625F05AF86FF07A
:1061F00007050FE0A1680392504627F008FB103412
:10620000039A054650B9029C43464A460BEB0711D8
:106210003046A047284605B0BDE8F08F0137DDE7DE
:10622000281E0300381E0300B446030008B5024BC5
:10623000FFF7C0FF002008BDDD600000014BFFF745
:10624000B9BF00BFEDAE0200014BFFF7B3BF00BF07
:10625000F5AE0200014BFFF7ADBF00BF5D6300006C
:10626000014BFFF7A7BF00BF41AF020010B5C369E4
:10627000DB681C792CB9044A012125F012F820466C
:1062800010BD0120FCE700BFC94603002DE9F04F17
:106290002C4E1F462C4BF61A151E85B04FEAD6061B
:1062A00014BF2B46334602934B685B798046894680
:1062B0001BB9264A032124F0F4FFDFF894A0002440
:1062C000029B9C4202DB05B0BDE8F08FBDB357F8DE
:1062D00024B000239E4207D157F824301D4A0121E3
:1062E000404624F0DEFF23E0194600200393FFF729
:1062F0008FFB4022594627F08AFA039BD0B91A46F1
:1063000000210E9B12B24846FFF790FB0E9B834282
:1063100083460DD085B921462846FFF779FB034611
:106320005AF82B20009203210B4A404624F0B9FF73
:106330000134C5E70133CDE757F82430F0E72246B2
:10634000DEE700BF281E0300401C0300ED460300EB
:10635000DC20030018470300024703002DE9F74F34
:10636000D3F804B0DFF84CA00646884691461D4697
:1063700000275AF8041B0422584627F048FA04461E
:1063800070B10137052FF4D16B680B4A01213046FB
:1063900024F087FF6FF00704204603B0BDE8F08FBC
:1063A000009705F10803A9F1020241463046FFF7C4
:1063B0006DFFF1E7DC200300324703001FB507241F
:1063C0000294044C0194BDF81840009429F0A1F8FF
:1063D00004B010BD790B002013B504462AF0BEFDB1
:1063E000C0F307230193C0F307430093044A030E4D
:1063F0000821204624F055FF002002B010BD00BF48
:106400000F49030010B504462BF0E7F84FF47A73F8
:10641000A0FB032003FB0103D20B42EA43432046C7
:10642000024A082124F03DFF002010BD2849030046
:1064300010B5044620F04EFA084A034608212046CB
:1064400024F02FFF064A2046082124F02AFF0548A1
:10645000214622F00BFA002010BD00BF374903008F
:1064600056490300C964000030B5014687B00446B0
:10647000114822F0FBF9114A002312F8011BAA2946
:1064800003D10133B3F5006FF7D1C3F50061642286
:106490004A43D20A059200254FF40062CDE9031267
:1064A000CDE901232046064B064A0095082124F039
:1064B000F8FE284607B030BDA965000000D90020CD
:1064C000E0D8002060490300F0B587B0D0F8A07094
:1064D00004460D462AF030FD064623F043F9234BCF
:1064E000234A002E08BF1E46224BCDE900468442B7
:1064F00018BF1346082128461F4A24F0D2FED4E9CB
:106500000A23CDE9022394F90E301C4A0093082196
:10651000237B284624F0C5FE204622F0EFF9626E68
:1065200000920346164A0821284624F0BAFE05A91F
:1065300020462AF005FD034630B1124A08212846BC
:1065400024F0AFFE07B0F0BD059A6423B91ACDE977
:1065500000214B430C4AB3FBF7F30821CDE902734A
:1065600028463B4624F09DFEECE700BFA649030009
:106570001A4503001F5E0300A9490300B549030043
:10658000E1490300F8490300254A030010B5044619
:106590002AF09BFA034A03460821204624F081FE94
:1065A000002010BD5C4A0300F0B5D0F8A06089B0AF
:1065B00004460D4607A92AF0C3FC034630B1104A31
:1065C0000821284624F06DFE09B0F0BD20462AF0CF
:1065D000B3FC07990B4A771A002818BF02466423B8
:1065E000CDE90217CDE900267B43074AB3FBF6F35A
:1065F0000821CDE904632846234624F052FEE3E750
:10660000F8490300A6490300724A030003460068E4
:1066100010B50C46114608B1027822B9024A20464C
:1066200004F034FA204610BD494B030010B50C6845
:10663000D1E90112FFF7EAFF034A03460821204689
:1066400024F02FFE002010BD4E4B03002DE9F04733
:106650008AB0054601A821F00BFF019E1B4ADFF816
:106660007080DFF87090DFF870A0182303FB0066DD
:106670000821284624F015FE019CB44203D30020D3
:106680000AB0BDE8F08705AF394614222046FFF76F
:10669000BDFF424603460821284624F002FE20465C
:1066A0002AF07AFB0D4A002814BF4B4653460821B6
:1066B000284624F0F6FD142320460949049302AA33
:1066C000CDE9025718342AF071FBD6E76D4B030071
:1066D000774B03005E4B0300644B03007C4B0300CD
:1066E0002D6600002DE9F043114BDFF8489053F878
:1066F0002140013187B053F8218006460027A0458C
:1067000003D8384607B0BDE8F08320462AF044FBA2
:10671000054658B1142201A92046FFF777FF4A46E3
:1067200003460821304624F0BCFD2F461834E6E726
:1067300088230300834B030010B5082104461E4A3A
:1067400024F0AFFD00212046FFF7CCFF20B91B4A03
:106750000821204624F0A5FD08212046184A24F0EF
:10676000A0FD01212046FFF7BDFF20B9134A0821F3
:10677000204624F096FD08212046124A24F091FD7F
:1067800002212046FFF7AEFF20B90C4A082120461F
:1067900024F087FD082120460B4A24F082FD0321C6
:1067A0002046FFF79FFF20B9044A0821204624F025
:1067B00078FD002010BD00BF894B0300984B0300FB
:1067C000A04B0300AF4B0300BD4B03008B1E022BFD
:1067D0002DE9F04107468846144633D860681022F8
:1067E000002126F035FFB8F1020F06461ED0A06842
:1067F0000A22002126F02CFFC5B2214A2B4608218F
:10680000384624F04EFDB8F1040F1ED0102D0FD0E5
:10681000202D10D0082D10D13378DBB2194A082171
:10682000384624F03EFD0020BDE8F0812025E4E755
:1068300033889BB2F2E73368F0E7134A0821384601
:1068400024F02FFD6FF01500EEE7E0681022002124
:1068500026F0FEFE0D4A034604460821384624F081
:1068600020FD102D06D0202D07D0082DE5D1E4B253
:106870003470D8E7A4B23480D5E73460D3E700BFE2
:10688000154C0300404C03002A4C0300514C0300FC
:1068900070B50E4E044633780D4631B12BB1BDE8CC
:1068A00070400B4A012124F0FCBC83F001033370DB
:1068B00033B1084A0821204624F0F3FC0123337049
:1068C00029462046BDE8704024F0F8BC0B4F00205C
:1068D000654C0300A04C030070B504463C480378A7
:1068E000182B02D10B78112B31D0013A0B465518D9
:1068F0009D4225D18B5C0A780370A2F13003092BED
:10690000344C04D922F02003413B052B04D82368E2
:106910003149CA54013323602368022B34D1102239
:106920002D48002126F094FE2C4A136803F8010B31
:1069300013602B4A1368013313600023236023E0A4
:1069400013F8016B182ED3D11E78112ED0D1244DFF
:10695000244A2B680821204624F0A3FC204600216D
:10696000FFF796FF204B187870B9204A2B68116802
:10697000042B0ADC08B111602B6013F003010BD16A
:10698000126813681BBA136070BD086800BA41F83A
:10699000040B043B0120EBE75B4203F0030358BF09
:1069A0005942022904D1126813885BBA9BB2EAE704
:1069B0000329E9D1106802681104C2F3074301F406
:1069C0007F010B4302F47F4213430360DCE700BF07
:1069D0000D4F0020B4280020094F0020B0280020CF
:1069E000BC280020CA4C03000C4F0020B82800200F
:1069F0002DE9F74F0D462D49DFF8B480DFF8B4904C
:106A0000DFF8B4B000230B602C4988F8003006464C
:106A10000B601446012D274654F8043F21D918462F
:106A200002224946019326F0F2FE019B88B92268B2
:106A30009278003A18BF012203EB020A2049022291
:106A4000504626F0E4FE30B9012388F80030013DBD
:106A5000E0E70022F0E74946504626F0CCFEB0B908
:106A6000043700221146786826F07EFD154B00227F
:106A700011461860786826F077FD134B13491860AB
:106A80003046FFF705FF002003B0BDE8F08F9AF80D
:106A900000202D2AE5D19AF80120002AE1D05346A2
:106AA0005A460821304624F0FCFBD0E7B4280020E9
:106AB0000C4F0020E44C0300EA4C0300BC280020EB
:106AC000E74C0300B0280020B8280020D968000057
:106AD00007B50A482AF060F960B1094A0749126807
