:10100000408000204DAE00008982020021AE000029
:1010100021AE000021AE000021AE00000000000063
:101020000000000000000000000000008DA600008D
:1010300021AE00000000000035A6000021AE000037
:1010400041A7000081C5010041A7000041A70000A1
:1010500041A7000041A7000041A7000041A70000F0
:1010600041A7000041A7000041A7000041A70000E0
:1010700041A7000041A7000041A7000041A70000D0
:1010800041A7000041A7000041A7000041A70000C0
:1010900041A7000041A7000041A7000041A70000B0
:1010A00041A7000041A7000041A7000041A70000A0
:1010B00041A7000041A7000041A7000041A7000090
:1010C00041A7000041A7000041A7000041A7000080
:1010D00041A7000041A7000041A7000041A7000070
:1010E00041A7000041A7000041A7000041A7000060
:1010F00041A7000041A7000041A7000041A7000050
:1011000053B94AB9002908BF00281CBF4FF0FF316E
:101110004FF0FF3000F00CB8ADF1080C6DE904CED3
:1011200000F008F8DDF804E0DDE9022304B07047C0
:10113000704700BF2DE9F04F07468C460846099ED0
:1011400015463C461946002B40F0C6808242B2FA52
:1011500082F746D94FB1C7F1200E24FA0EFE00FAED
:1011600007F3BD404EEA030CBC404FEA15481FFA96
:1011700085FEBCFBF8F9220C08FB19C309FB0EFA2B
:1011800042EA03439A4528D9EB1809F1FF3004D20B
:101190009A4502D9A9F102002B44A3EB0A03A4B299
:1011A000B3FBF8F208FB123302FB0EFE44EA0344E1
:1011B000A64514D92C1902F1FF3303D2A64501D953
:1011C000931E2C44A4EB0E0443EA00401EB1FC40E5
:1011D000002334607360BDE8F08F4846DDE71346B6
:1011E000F0E702B9FFDE87BB831A01214FEA154EF3
:1011F000AAB2B3FBFEFC200C0EFB1C330CFB02F866
:1012000040EA0343984563D9EB180CF1FF3004D250
:10121000984502D9ACF102002B44A3EB0803A4B219
:10122000B3FBFEFC0EFB1C330CFB02F244EA03444E
:10123000A2424FD92C190CF1FF3304D2A24202D999
:10124000ACF102032C44A41ABEE7C7F1200C20FA2B
:101250000CF800FA07F324FA0CFCBD404CEA030238
:101260004FEA154EABB2B8FBFEFC110C0EFB1C8016
:101270000CFB03F941EA0040814504FA07F423D945
:1012800028180CF1FF3104D2814502D9ACF10201DA
:101290002844A0EB090092B2B0FBFEFC0EFB1C0040
:1012A0000CFB03F842EA004398450FD9EB180CF108
:1012B000FF3204D2984502D9ACF102022B44A3EBD1
:1012C000080342EA014191E76146E2E76246F6E738
:1012D0006046A2E76346B6E7834205D90EB1C6E988
:1012E00000700021084676E7B3FA83F181B98342A2
:1012F00001D3BA420AD8BC1A60EB030301209C4612
:10130000002E68D0C6E9004C002164E70846F7E7E4
:10131000C1F1200C8B4022FA0CF41C4302FA01F5B7
:1013200000FA01F327FA0CF220FA0CFB4FEA1449F9
:101330001343BBFBF9F81FFA84FE09FB18BB1A0C18
:1013400008FB0EFA42EA0B42924507FA01F73ED932
:10135000A21808F1FF3004D2924502D9A8F1020088
:101360002244A2EB0A029BB2B2FBF9F809FB182255
:1013700008FB0EFE43EA024296452AD9A21808F15C
:10138000FF3304D2964502D9A8F10203224443EA6E
:101390000040A0FB0593A2EB0E029A42CE4698466F
:1013A00002D306D14F4504D2B9EB050E63EB040816
:1013B000013886B1B7EB0E0362EB080707FA0CFCA5
:1013C000CB404CEA0303CF40C6E900379CE74046D8
:1013D000C7E74346DBE73146FDE6000000000000BA
:1013E00070B5484DD5F85431996811F0010190B0AD
:1013F00023D10AAA40F603400AF008FF0446002859
:1014000072D10A9B9B681B78A3B90CF07FFBBFF3DA
:101410005B8F2B4653F8CC2FBFF35B8F02F0050296
:10142000BFF35B8F53E8001F43E800200028F9D189
:10143000BFF35B8F0A981DF019FF0AAA002141F241
:1014400003000AF0E3FE044600284DD10A9B2E4813
:1014500099680822013127F0AEF80A981DF006FFBE
:1014600021460AAA41F201000AF0D0FE04460028F3
:101470003AD10A9883685A7885F86820D9789A789A
:1014800042EA0122A5F86A201A7985F86920197ABA
:10149000DA7942EA0122A5F86C205A799B7942EA6E
:1014A0000323A5F86E301DF0E1FE21460AAA41F2A1
:1014B00002000AF0ABFE0446B0B90A9B13489968D3
:1014C0004022013127F077F8104827F028F90A98D0
:1014D0001DF0CCFE95F8743059061DD40C480368F5
:1014E0005A0704D16FF01204204610B070BD094BAA
:1014F0000E930DAA02234FF4825109930D9327F006
:10150000B5F9EFE70000002070000020780000200F
:10151000FC090020E706030021460AAA42F2030064
:101520000AF074FE04460028DED10A9BBC48996884
:101530000822013127F03FF80A981DF097FE214656
:101540000AAA42F202000AF061FE04460028CBD14A
:101550000A9B9B68B3F80120A5F8FC2091B221B149
:10156000DA78B04811462AF0B6F80A981DF07EFEE7
:1015700095F8746016F0200600F01A8195F8943002
:101580001B0712D50AAA002142F21C000AF03EFEF7
:1015900004460028A8D10A988368D3F80120D3F81C
:1015A0000530C5E936231DF061FE95F8D0309E0662
:1015B00023D509A908A80AF0ADFE0446002893D156
:1015C000042142F224000AF0B1FC0646002800F093
:1015D000F6800421083029F008FABDF82030038095
:1015E000BDF8243043802246314642F224000AF0FE
:1015F0000DFE044600287FF477AF95F8D0305C06E6
:101600002CD5022142F22E000AF090FC044600285C
:1016100000F0D5800221083029F0E7F96FF07B0354
:101620000370032343702146002242F22E000AF089
:10163000EDFD044600287FF457AF01460AAA42F2A6
:101640002A000AF0E3FD044600287FF44DAF0A9813
:1016500083685B7885F818311DF008FE082142F296
:1016600001000AF063FC0446002800F0A88008216D
:10167000084429F0BAF995F8D01011F0400F02464D
:1016800040F2022308BF032388074CBF43F02C001D
:1016900043F00C0095F8D1308E0648BF40F0400072
:1016A00013F0090F18BF40F40060CB0795F89A308B
:1016B00003F0060348BF40F01000062B08BF40F4BB
:1016C000C070002127F0E3F82146002242F2010019
:1016D0000AF09CFD044600287FF406AF95F87430AC
:1016E000B5F8FC109E067FD4D9B90AAA41F20500CC
:1016F0000AF08CFD044600287FF4F6AEB5F8FC3005
:1017000063B90A9B9B685A78997842EA0122A5F846
:10171000FC209A884348114629F0DDFF0A981DF005
:10172000A5FD082140F601400AF000FC044600280F
:1017300045D00821084429F058F995F8D030D90748
:10174000024664D534A1D1E9000127F0A0F8214672
:10175000002240F601400AF059FD044600287FF4BB
:10176000C3AE014608AA4FF601400AF04FFD2E4CC9
:101770002368002860D013F0060F0AD02B4B0E937D
:10178000022309930D930DAA4FF48451204627F0AC
:101790006DF80CF0F7F8044600287FF4A5AE0DF0C4
:1017A00089FB044600287FF49FAE0BF0A9FA9BE664
:1017B000022140F66D400AF0B9FB044610B96FF003
:1017C000680491E60221083029F00FF90123037023
:1017D00046702146324640F66D400AF017FD044639
:1017E00000283FF4CBAE7FE600299AD10E4803686B
:1017F0005C0709D00E4B0E930DAA02234FF48251C1
:1018000009930D9327F032F86FF004046CE6094851
:101810004FF0005199E700BF90880002008000203F
:10182000D000002000010020FC0900202E0703004A
:101830000B0703001088000203F00703022B4ED9A8
:10184000089B49499E68B6F80130032B96BF474A6A
:10185000474A52F82320CDE90223464B0193002347
:1018600000931846032227F004F8236803F00703C7
:10187000022B34D9B6F80130B6F80320022B48D138
:10188000032A46D83C4B53F822303749CDE902327F
:101890003A4B0193002300931846032226F0E9FFF8
:1018A000236803F00703022B19D9D6F809107379BE
:1018B0000691B6F807100591032BB17996BF304A0F
:1018C0002B4A52F823200292CDE903312D4B01938C
:1018D0000023254900930322184626F0CAFF0898E2
:1018E0001DF0C4FC08AA00214FF602400AF08EFC4D
:1018F000064680B1236813F0060F3FF44AAF224B2F
:101900000E930223184809930D930DAA4FF48451A6
:101910003DE7174BB9E7089B1C4899680222013143
:1019200026F049FE08981DF0A1FC95F8B9305B0738
:101930007FF52FAF08AA31464FF603400AF066FC48
:1019400030B1236813F0060F3FF423AF104BD7E7F5
:10195000089B104899680122114426F02CFE089833
:101960001DF084FC15E700BFFC090020C8CE020072
:10197000EE0103005207030088CE02006B0703004C
:1019800000CF020083070300B0070300B900002066
:10199000D9070300B800002038B5194C9DF810E0B5
:1019A00094F844C01CF0010522D163F3420C4001BD
:1019B00094F83230A1874FEACE0E0EF0180E00F0E8
:1019C000200040EA0E0023F0380303430D4884F85A
:1019D0003230A2FB0001912303FB021106A3D3E9DD
:1019E000002384F844C0FFF78BFB2064284638BDF1
:1019F0000C25284638BD00BF8D49FD1A07000000A0
:101A0000A0340020002AE78410B59DF808C00446E1
:101A100049014FEACC0000F0180001F0200CA17D34
:101A200022844CEA000C0C4821F038014CEA010CED
:101A30009122A3FB000102FB031184F816C004A34A
:101A4000D3E90023FFF75CFB606210BDAFF30080B9
:101A50008D49FD1A07000000002AE78400000000FD
:101A60002DE9F047044600F1350190F8440094F860
:101A70003230C0F3400060F386138CB084F832300B
:101A800013F0A2F894F83220A38F4948E46102F0E1
:101A900079020025A3FB000184F83220912202FB89
:101AA0000311C4E9055540A3D3E900232570FFF7CE
:101AB00027FB3123C4E90153236CE5600933A0F10E
:101AC0003102934232BF236122612564064613F03E
:101AD00047F8236A07460DF12C08002B4BD0354DF3
:101AE000354BCDF820800694651BA3FB05353048A7
:101AF000A38F4FF0000AA3FB00019122CDF80CA0A8
:101B000002FB0311236904932C4B07932C4B059381
:101B10004FF0020924A3D3E90023CDF82C90FFF75E
:101B2000EFFA104619464FF47A720023FFF7E8FAED
:101B30002D094D44EDB22A46CDE901603B46032113
:101B4000CDF800A0504612F0E1FE414615F09CFB96
:101B5000054660B994F8443043F00103484684F8E0
:101B600044301AF02DF928460CB0BDE8F0870C205F
:101B70000CB0BDE8F087CDE90A33216943460AAAD3
:101B8000032002F00DF90B990029A8D00D4806A3F7
:101B9000D3E90023A1FB0001FFF7B2FA0A9F20F06E
:101BA0007F4007449BE700BF8D49FD1A07000000F6
:101BB000002AE784A0340020398EE338A5680100AC
:101BC000817A010000CA9A3B2DE9F04390F8BCE00D
:101BD00090F8BBC0E6458BB004460E4615462ED0A5
:101BE000ACEB0E0C0CF0030CBCF1020F0CD094F813
:101BF000183194F819219B1ADBB2012B00F07B817C
:101C000000200BB0BDE8F08394F8852194F884316E
:101C10009A4206D094F8863103F00603042B00F0B4
:101C2000A98394F8BD707B1E052B00F25283DFE878
:101C300013F01F0026039C0250036102CB0190F8B1
:101C40003E3113F00108D2D190F8E51090F8E4206D
:101C50008A4200F04C83012390F8842180F8BD3043
:101C600090F88531AEF1020C9A4280F8BCC0D1D117
:101C7000E38D678E1F4494F8E630BFB2EA1913F083
:101C8000070192B240F0BC83B4F8C050521B10045C
:101C90001FFA82F9ABD494F85C2194F85D3194F882
:101CA000BB0084F8BC00934294F8E40084F8E5009B
:101CB00009D094F85E3103F00F03062B04BF84F8BB
:101CC0005D21A4F8AC10B44BD4F8E0801A689442BB
:101CD00004BF00221A60B8F1000F00F02287D8F884
:101CE0000000002800F01D87B4F8E830B4F82AC0DE
:101CF0004268C4F8E0206345B4F8EA20B4F8EC1078
:101D000000F02A87B4F828C0A8F81E30182388F8F5
:101D100004300023A8F806C0A8F82020A8F8221054
:101D200088F81C30414615F037FA15F03FFAA368E1
:101D3000002B09DAE068626823F0004390422CBF70
:101D40003118B118A360CE1A638DB4F8E88013FB84
:101D500009F39BB2B3FBF8F118FB01F292B2934284
:101D60001FFA81F980F0CB86D31A8C4940F2E24207
:101D700002FB03F3A3FB010185A3D3E90023FFF7D3
:101D8000BFF920F07F431E44E38D1D4494F93930A0
:101D9000EF1B4F4440F2E245002BE78505FB08F5B9
:101DA000C0F2B987D4F8F0107C4879A3D3E90023B6
:101DB000A1FB0001FFF7A4F920F07F470137784924
:101DC000B4F8EC20B4F8EA00764BA4F82A80294451
:101DD000B1FBF5F1A4F8AA1042F2107101FB025216
:101DE0002B44013A811DB2FBF5F2B3FBF5F3A4F8E5
:101DF000A6209AB28A42A085A4F8B22004DDC0F5DC
:101E00007F40FA30024492B294F8E630A4F8AE2053
:101E10001A0744BF0023A4F8A830022101201CF0B7
:101E200069FF002202218146012011F071FB5E4909
:101E30004FF4DC72204611F0FBFA00F103085FFA60
:101E400088F85A4B009442460121002012F0E8FD28
:101E500030F002030CD0564A5649574840F6CB435F
:101E600022F0CCFE404080F311884FF0030002DFE7
:101E70000894069423690493484C504B0793504BA5
:101E80000593A5FB04544FF6FE730393284640A325
:101E9000D3E900232146FFF733F9104619464FF4E2
:101EA0007A720023FFF72CF939A3D3E900230290BB
:101EB00021462846FFF724F93346CDE90070424613
:101EC0000121002012F022FD30F002030CD0384A2C
:101ED0003849394840F6E54322F090FE404080F30F
:101EE00011884FF0030002DFB9F1000F40F0F486D3
:101EF0006FF08B0085E6334811F064FA002838D083
:101F000094F81931013B84F81931037902224271A6
:101F100043F003030371C271D4F89C3194F81A2181
:101F2000D4F8A0110272B3B194F83E21950712D4EF
:101F300094F89721D2070ED4D4F8A821934200F048
:101F4000008759B91A7902F00302032A01F09C8034
:101F5000C4F8A03104E0002900F07F84D4F8A43153
:101F60001A68026018600368C4F8A401002B00F02E
:101F70000582B4F8AC0000287FF442AEB4F8A63075
:101F8000012B40F26584A4F8AC3039E6AFF3008051
:101F90008D49FD1A07000000FC34002000CA9A3B5E
:101FA000FF5962027FC3C901B01E00208981010070
:101FB000E8D7020004D902007CD20200318101007E
:101FC00081AC010090350020E18D628E94F8C03024
:101FD0000A442A4495B2DA07194600F17782B4F828
:101FE000C220AD1A28043FF502AE94F8462094F8BA
:101FF000478094F8BB00B4F8447084F8BC0013F038
:102000001C0F02F0070908F0070840F09B85B4F8A0
:10201000426013F0E00F08D094F847205B0963F3A7
:10202000020284F847204FF4A477D4F8E050002D42
:1020300000F0AF852868002800F0AB8594F84630A2
:1020400094F84720D0F804C0C4F8E0C08907C3F36F
:10205000020CC2F3020E03F0070302F0070202D4DF
:10206000994500F08A86238DEB801C232B71002379
:1020700085F81DC085F81EE02B77294615F08CF8F1
:10208000D4F8E050002D00F013862868002800F0F6
:102090000F86B4F842304268C4F8E020B3420AD355
:1020A000B3F5A47F07D8B4F84430BB4203D3B3F5EB
:1020B000A47F40F2F187A4F84260A4F844702B7F1B
:1020C000228DEA804FF0030C43F00303092185F8C9
:1020D00004C069772B77B4F840302B84E38FAB844E
:1020E00015232946EB776F84EE8415F055F815F02B
:1020F0005DF87CE5CB4811F065F900283FF477AD39
:1021000094F8BB3084F8BC30012302794371D4F8D1
:102110009C3142F0030212210271C171D4F8A02156
:10212000002B00F0A38394F83E118D0700F19E83ED
:1021300094F89711C90700F19983D4F8A8118B423C
:1021400000F06787002A00F0E087D4F8A4311A680D
:10215000026018600368C4F8A401002B00F0B88581
:10216000B4F8AA30A4F8AC3041E594F8CC3013F0C0
:1021700003057FF43CADAB4811F024F90646002876
:102180003FF435AD94F93930002B80F2FD8294F89C
:102190005E30190700F10E8694F8CD50002D40F006
:1021A000C58604F15F073B462A4604F1CE0104F2DE
:1021B00049101CF0D5F81022394604F1800026F0B1
:1021C000FAF9082204F1780104F1990026F0F3F9F4
:1021D00094F8773094F8982084F86F5043F0010316
:1021E00084F8773094F85E3084F8705065F300021C
:1021F000012143F0080384F8982084F85E30C4E994
:10220000245584F8715084F8725084F8735084F81F
:10221000745084F8755084F8765032797171D4F81E
:102220009C3142F0030205213271F171002B00F064
:10223000268394F83E21900700F1218394F897219A
:10224000D10700F11C83D4F8A811D4F8A0218B4247
:1022500000F0F182002A00F07087D4F8A4311A68E7
:1022600032601E603368C4F8A461002B00F06585FD
:1022700094F8CC3043F0030384F8CC30B7E4628E9A
:10228000E18D94F8C0300A442A44DB0795B200F18E
:10229000D180B4F8C620AD1A28043FF5A8AC94F854
:1022A000BB3084F8BC3004F13405052204F1C101CF
:1022B000284626F080F90521284611F059FA94F8AD
:1022C0003930012260F3050384F8393084F8B021F5
:1022D0008DE4554A5549564840F2E14322F08EFCC0
:1022E000404080F311884FF0030002DF7FE490F854
:1022F000F92090F8F870BA4243D190F8112190F883
:102300001071BA4200F0C682D21BD0077FF56FACC5
:1023100094F81231D90740F1B585980740F1AD85A1
:1023200014F068FF014600B394F8103184F81131BD
:10233000238DC38003230371037F43F003030377DB
:10234000062343770C23C37794F8133180F82030A9
:10235000B4F81431A0F82130B4F81631A0F82330C5
:10236000086814F019FF14F021FF94F8BBC094F82A
:10237000BCE035E4204615F0F5FF52E4C4F8AC01AA
:10238000F7E5D21BD1077FF532AC90F8BA1011F007
:10239000010700F0258414F02DFF07460028E4D043
:1023A00094F8F83084F8F930037F228DC28043F02E
:1023B0000303037709234377C3770323037141465C
:1023C0000822203026F002F9D4E94223110C87F8C4
:1023D0002020C2F3072287F821201A0C87F8243026
:1023E00087F82210C3F30723090A87F82620120A68
:1023F00087F8231087F8253087F827203946AFE77C
:102400004B1E042B01F2268101A151F823F000BFDD
:102410007526000095250000EF1B00007B260000BC
:10242000EB26000090350020E8D7020014D302000C
:102430007CD20200CB4810F0C5FF064600283FF4CE
:10244000D6ABA28D94F8C010037906326FF3000169
:102450002A4484F8C010A4F8C62043F003030821DE
:10246000012203714171C27104F1C10105220830DA
:1024700026F0A1F8D4F89C31B4F8C620A6F80D20B7
:10248000002B00F0328494F83E21970700F12D8450
:1024900094F89721D50700F12884D4F8A811D4F82E
:1024A000A0218B4200F03B86002A00F02787D4F859
:1024B000A4311A6832601E603368C4F8A461002B2E
:1024C0007FF495ABC4F8AC61FFF791BBD4E912017E
:1024D000002210F0E5FF064600287FF488AB0220BA
:1024E00014F06AFE804600283FF481AB9D4810F04E
:1024F00069FF074600283FF47AAB94F8C03066F3D2
:102500000003C3F3421646EA930616F0070684F862
:10251000C030DBB240F0968594F8BB20A4F8C260CE
:102520009B0784F8BC2000F1C085334632467B729D
:1025300005233E727B717A811822D4F89C31D4F83D
:10254000A011FA713A7942F003023A71002B00F0BF
:10255000278594F83E21960700F1228594F897216B
:10256000D50700F11D85D4F8A821934200F0A2867A
:10257000002900F0DD86D4F8A4311A683A601F60A3
:10258000C4F8A4713B68002B7FF431ABC4F8AC7184
:10259000FFF72DBBDFF8D081012014F00DFE0746B8
:1025A00000283FF424AB6F4810F00CFF05460028CC
:1025B0003FF41DAB6D4B1A68002A00F05B8414F0E9
:1025C00019FE3B68D4F8E0205A602B79C4F8E0701B
:1025D00043F003032B710C236B710023EB7194F810
:1025E000F4302B72624AD4F8F030A2FB03239B0A2A
:1025F000A5F80930B4F8E830A5F80B30B4F8EA30A3
:10260000A5F80D30B4F8EC30A5F80F3094F8E630AA
:10261000C4F8C860032262F3020384F8E630A368BA
:10262000002B0ADAE068626823F0004390422CBF76
:102630003118B118CB1AC4F8C8304E4B01220935F5
:10264000C4F8C45002211046C3E9024810F092FFBA
:1026500000283FF4CCAA484A4849494840F6733319
:1026600022F0CCFA404080F311884FF0030002DFE3
:10267000FFF7BDBADFF80C818EE7A38D94F8E60072
:10268000D4F8C450D4F89C1106331A4493B26FF3B3
:102690000200A4F8C030A5F109022B81D4F8A031C2
:1026A00084F8E600002900F0CE8394F83E01870705
:1026B00000F1C98394F89701C60700F1C483D4F8E8
:1026C000A801814200F09E85002B00F06E86D4F8B0
:1026D000A431196845F8091C1A6055F8091CC4F89A
:1026E000A42100297FF483AA38E094F8BB1084F871
:1026F000BC1094F8E4101D4AD4F8C45084F8E510D6
:10270000D4F89C3194F85C1184F85D1100211160BB
:10271000D4F8A011A5F10902002B00F0A18394F8D0
:102720003E01860700F19C8394F89701C00700F1F1
:102730009783D4F8A801834200F0EA85002900F0CD
:102740002A86D4F8A431196845F8091C1A6055F88E
:10275000093CC4F8A421002B7FF449AAC4F8AC2199
:10276000FFF745BA90350020693F0000FC34002097
:102770005917B7D100070020E8D70200F8D60200A9
:102780007CD20200CDB2010004F15F073B462A462D
:1027900004F1CE0104F249101BF0E2FD102239468B
:1027A00004F1800025F007FF082204F1780104F10C
:1027B000990025F000FF94F8771094F8982094F889
:1027C0005E3084F86F50C4E9245523F0180365F394
:1027D000000142F0010284F8705084F8715084F8CE
:1027E000725084F8735084F8745084F8755084F8EB
:1027F000765043F0180384F8771084F8982001216C
:1028000084F85E3032797171D4F89C3142F0030261
:1028100006213271F17193B394F83E2192072ED4C0
:1028200094F89721D7072AD4D4F8A8219342D4F852
:10283000A0217FF40FAD1968C4F8A811002A7FF415
:102840000CAD1A6832601E603368C4E968660CE536
:102850000133A4F8AC30FFF7D4B90360C4E96700D2
:10286000C4F8A401002B7FF484AB87E5002A7FF431
:102870006CAC0360C4E96700C4F8A4016DE4D4F84B
:10288000A021002A7FF4E9AC3360C4E96766C4F88C
:10289000A461EAE490F85D7190F85C21974200F041
:1028A0003082C74F3A68002A00F0938390427FF449
:1028B0009EA990F85E2102F00F02082A00F2DB8642
:1028C00001A050F822F000BF312A0000A929000021
:1028D00059290000E11B0000E11B0000E11B000082
:1028E000E11B0000E11B0000ED280000E18D628E7D
:1028F000D4F878010A442A4494F85E51D4F89C1123
:1029000020F8022C042262F3030584F85E51A0F142
:102910001302D4F8A051002900F0ED839E0700F1C6
:10292000EA8394F89731DB0700F1E583D4F8A83106
:10293000994200F0F985002D00F04A86D4F8A431C0
:10294000196840F8131C1A60C4F8A42150F8133C0D
:10295000002B7FF44CA901E79F073FF548A914F02D
:1029600049FC014600283FF400AD94F85E010B7F5E
:10297000032243F0030362F30300182784F85E0187
:10298000208D0A710B774F77B4F860310B84B4F85F
:1029900062314B84B4F864318B84B4F86631CB84F3
:1029A0000F23C880CB77DBE494F85F31002B40F035
:1029B000DE8394F93920002AC0F2168594F85E214E
:1029C000C4F8F030062060F3030294F8680184F83C
:1029D0005E210125B4F8622184F8F450002800F04B
:1029E000F784B2FBF0F313FB00F3B4F860019BB281
:1029F000984298BF1A46A4F8E82094F85E3194F8FB
:102A0000E620B4F86401A4F8EA00C3F30013DB0085
:102A100022F00F0243F0020313430139B4F8662198
:102A2000A4F8EC2084F8E63084F8E510FFF7DFB86E
:102A3000644810F0C7FC024600283FF496AC0379C6
:102A40003C6043F003030371182343710F23C371E8
:102A5000B4F860310381B4F862314381B4F8643171
:102A60008381B4F86631C38100230374C374037592
:102A70004FF0FF3343758375C375037643768376D2
:102A8000C376037743778377B4F8AA30A4F8AC30E1
:102A900094F85E31C4F87C61072161F3030384F884
:102AA0005E31A368002B0ADAE768606823F0004310
:102AB00087422CBFF1193118CB1AC4F87C3113327C
:102AC000414BC4F878210122022110469C6010F08D
:102AD00051FD00283FF449AC3C4A3D4940F6F663BD
:102AE0003C4822F08BF8404080F311884FF00300FF
:102AF00002DF94F8BBC094F8BCE0FFF771B808FBA4
:102B0000113340F2E24234499BB202FB03F3A3FBD0
:102B1000010129A3D3E90023FEF7F2FA361AFFF7E1
:102B200033B92A4A2D492B484FF4426322F066F804
:102B3000404080F311884FF0030002DFD8F8000016
:102B4000FFF7D2B8C3F3820060F3020284F8462094
:102B50004FF4A476FFF75DBAB4F82CC094457FF427
:102B6000D1A840F2E24C0CFB03FE42F2107C0CFBBD
:102B700001EC0CF1FF3CBCFBFEFCB4F8A6E01FFA34
:102B80008CFCE6457FF4BEA8012388F80430FFF7EB
:102B9000C9B80E4A11490F4841F21A2322F02EF803
:102BA000404080F311884FF0030002DF286894F85A
:102BB000C010FFF743BA00BF8D49FD1A070000009F
:102BC000FC3400209035002010070020E8D70200D8
:102BD000F8D602007CD2020000CA9A3BC8D8020094
:102BE000CD4810F0EFFB804600283FF4BEAB94F8D0
:102BF000F930013B84F8F9300923437194F93930F5
:102C0000002B037943F0030303714FF00802ACBFBC
:102C100008230E23C3713946104425F0D7FCD4E9AC
:102C20004023110C88F80820C2F3072288F80920F5
:102C30001A0C88F80C3088F80A10C3F3072388F8B8
:102C40000E20090A120A88F80B1088F80D3088F84F
:102C50000F20D4F89C31002B00F0848094F83E21A2
:102C600092077FD494F89721D7077BD4D4F8A81182
:102C7000D4F8A0218B4200F06A82002A00F06E8313
:102C8000D4F8A4311A68C8F80020C3F80080D8F836
:102C90000030C4F8A481002B00F0B881B4F8AA3049
:102CA00094F8BBC094F8BCE0A4F8AC30FEF798BF31
:102CB0009A4A9B499B4841F2492321F09FFF40409B
:102CC00080F311884FF0030002DF2868FFF7E1B9B5
:102CD000C4F8AC01FFF744BA01221046022110F0FB
:102CE00017FC6FF08B00FEF78CBFD4F8A021002AF0
:102CF0007FF4DDAB3360C4E96766C4F8A461FFF715
:102D0000DEBB90F8852190F884319A4255D015F0B9
:102D100029FBFFF72ABB814A8349824840F69C433E
:102D200021F06CFF404080F311884FF0030002DF78
:102D30000027B4F8E880FFF742B8C4F8AC61FFF7A9
:102D400097BA1A68C4F8A82100297FF407A91A685D
:102D5000026018600368C4E96800002B7FF409A9C9
:102D6000FFF70CBBD4F8A021002A89D1C8F80030A5
:102D7000C4E96788C4F8A4818DE790457FF473A9FE
:102D800001232B71294614F007FAD4F8E050002DE6
:102D900000F09D822868002800F099824268C4F8FB
:102DA000E02001232B71294614F0F6F914F0FEF906
:102DB000FEF71DBF43F0100321E590F8943190F821
:102DC00095219A423EF413AF90F8962102F0030148
:102DD000032900F02A8200297EF409AF4E4810F042
:102DE000F1FA014600283FF4C0AA94F8963194F80D
:102DF0009701012262F3010394F8982184F8963137
:102E0000C3F3820767F3020294F84670C0F34000F0
:102E100060F3C30784F84670C3F34217087967F379
:102E2000C50284F89821C3F38202032340F0030013
:102E30004B71162308710A724F720022CB71204623
:102E400014F09AFF2AE7002B7FF441AC45F8091CE7
:102E5000C4E96722C4F8A42100297EF4C8AE7DE449
:102E600000297FF46EAC45F8093CC4E96722C4F838
:102E7000A42170E41C60FFF7A2BB284A2A4940F64F
:102E8000A1632DE6244810F09DFA00283FF46DAAB6
:102E900094F81131013B84F8113194F8123143F068
:102EA000010384F81231037943F00303037106230D
:102EB00043710C23C37103726FF00E034372052339
:102EC00083724FF0FF33C3720373D4F89C31002B2D
:102ED00000F0AD8094F83E21920700F1A88094F8AC
:102EE0009721D70700F1A380D4F8A8219342D4F802
:102EF000A02100F02782002A00F03483D4F8A43106
:102F00001A6802601860C4F8A4010368002B7FF4FB
:102F1000C5AEC4F8AC01C1E690350020E8D7020088
:102F2000C8D802007CD2020014D30200037943F017
:102F30000303037194F8BA30DA0745D5D4F80031A9
:102F40005B0741D51123C371032303724572777167
:102F5000D4F89C31002284F8CD205BB394F83E2154
:102F6000970727D494F89721D50723D4D4F8A8211C
:102F70009342D4F8A02100F03981002A00F01F828A
:102F8000D4F8A4311A6832601E60C4F8A4613368B2
:102F9000002B76D094F8BB3084F8BC30FEF727BE07
:102FA00000297FF4E8AA3B60C4E96777C4F8A471FC
:102FB000FFF7E8BAD4F8A021002AE1D13360C4E9D0
:102FC0006766C4F8A461E2E70D23F3713572022746
:102FD000BDE790F85E2102F00F02082A00F24B8351
:102FE00001A050F822F000BF312A0000A9290000FA
:102FF00059290000EF1B0000EF1B0000EF1B000031
:10300000EF1B0000EF1B0000ED280000C4F8AC81AE
:1030100044E61968C4F8A811002A7FF496A81A6833
:10302000026018600368C4E96800FFF796B8D4F836
:10303000A021002A7FF462AF0360C4E96700C4F8EE
:10304000A40162E7A28D06322A44A4F8C22014F03B
:10305000D1F8D8F80030D4F8E0205A60C4F8E08005
:1030600014F0C8F80368D4F8E010596094F8C03040
:10307000B4F8C220C4F8E000C3F382065B09FFF78E
:1030800056BAC4F8AC6185E7DA79032A3FF45FAE3B
:103090000A2A7EF45DAF5AE6012329462B7114F00B
:1030A0007BF814F083F8FEF7A2BD14F0A3F8238D8B
:1030B000A8F806301C2388F81C6088F8043094F8BF
:1030C0004630D8F80000C3F3020388F81D3094F8A6
:1030D0004730C3F3020388F81E30414614F05CF811
:1030E00014F064F894F8C030B4F8C220C3F3820638
:1030F0005B09FFF71CBA002D7FF420AC40F8131CCD
:10310000C4E96722C4F8A42120E41A7902F003027A
:10311000032A00F0EB80C4E96833FFF716B819689A
:10312000C4F8A811002A7FF4C2A91A6832601E6090
:103130003368C4E96866FFF7C2B91A7902F003027E
:10314000032A00F01481C4E96833FFF786B81968D0
:10315000C4F8A811002A7FF493AD1A68C8F80020BB
:10316000C3F80080D8F80030C4E9688893E59A482D
:1031700010F028F900283FF4F8A8027942F0030281
:1031800002711122C271032242710F22027294F85D
:103190005F214272D4F89C21002A00F0F18094F85B
:1031A0003E11890700F1EC8094F89711CB0700F1EC
:1031B000E780D4F8A8118A42D4F8A01100F0F18178
:1031C000002900F0FD81D4F8A4211168016010608D
:1031D000C4F8A4010268002A00F0EF8194F85C3181
:1031E00084F85D3100233B60FFF7BFB81968C4F86D
:1031F000A811002A7FF4C4AE1A6832601E60C4E9C8
:103200006866C4E60868C4F8A801002B7FF45FAACA
:103210000B6845F8093C0A6055F8091CC4E96822A6
:1032200000297EF4E4ACFFF799BA170780F89531CE
:10323000C2F3820340F14F8190F89631022262F38B
:10324000840380F8963194F8963159064FEA531268
:1032500040F13981022262F3471384F8963194F8E1
:10326000962194F8467094F8470094F89731C2F389
:10327000820107F0070700F00700C3F380038F42C5
:1032800008BF00215B00B0EB521F43F001034FEA7F
:10329000521208BF002243EA4213AEF1020C43EA85
:1032A0008103062284F8BCC084F8C03084F8BD20B5
:1032B000FEF7B7BC1A68C4F8A82100297FF45BA9FF
:1032C0001A683A601F60C4E96877FFF75BB9434A40
:1032D0004349444841F22C2321F090FC404080F3C4
:1032E00011884FF0030002DF286857E5DA79032AD6
:1032F0003FF495AE0A2A7FF40EAF90E61A7902F0F9
:103300000302032A00F0D780C4E96833FFF7CFB87F
:103310001868C4F8A80100297FF413AA196845F8B1
:10332000091C1A6055F8093CC4E96822FFF713BA72
:103330001A7902F00302032A00F01C81C4E9683301
:10334000FFF719B91968C4F8A811002A7FF4D6AD9F
:103350001A6802601860C4E96800D6E51A7902F0BC
:103360000302032A00F01581C4E9683388E4DA799E
:10337000032A3FF466AA0A2A7FF4E5AEFFF761BA92
:10338000D4F8A01100297FF41EAF0260C4E96700E1
:10339000C4F8A4011EE7197901F00301032900F024
:1033A000D180C4E96833FFF7CCB90B7903F003038C
:1033B000032B00F0CF80C4E96811FFF788B91A79B0
:1033C00002F00302032A00F00F81C4E96833D7E555
:1033D000A4F8E820FFF711BB90350020E8D70200E1
:1033E000C8D802007CD20200A6480FF0EBFF0028EC
:1033F0003EF4BBAF027942F003020271182242711F
:103400001022C271B4F860210281B4F862214281B5
:10341000B4F864218281B4F86621C28194F86821ED
:103420000274B4F86A21A0F81120B4F86C21A0F855
:103430001320B4F86E21A0F81520B4F87021A0F87C
:103440001720B4F87221A0F81920B4F87421A0F85C
:103450001B20B4F87621A0F81D20D4F89C21002A66
:1034600043D094F83E1189073FD494F89711CB07C5
:103470003BD4D4F8A8118A42D4F8A01100F0C2803D
:10348000002900F0D280D4F8A421116801601060F6
:10349000C4F8A4010268002A00F0A38094F85E3109
:1034A00094F8BBC094F8BCE0052262F3030384F8EF
:1034B0005E31FEF795BBDA79032A3FF436AE0A2A6D
:1034C0007FF422AF31E6D70719D5012262F3471303
:1034D00084F89631C3E6D8071AD594F896310122BC
:1034E00062F3840384F89631ADE6D4F8A011002984
:1034F000C9D10260C4E96700C4F8A401CAE712F0A8
:10350000040218BF042262F3471384F89631A6E63A
:1035100013F0040300F0828094F89631042262F3E1
:10352000840384F896318EE60B68C4F8A831002D28
:103530007FF404AA0B6840F8133C0A60C4E96822CF
:10354000FFF704BAD97903293FF4E8AE0A297FF4DA
:1035500028AFE3E6CB79032B3FF45AAE0A2B7FF476
:103560002AAF55E61A7902F00302032A0AD0C4E909
:103570006833C3E4DA79032A3FF4A2AE0A2A7FF45F
:10358000DDAE9DE6DA79032A3FF4E2AE0A2AEED1F7
:10359000DEE6DA79032A3FF4E0AD0A2A7FF4E4AEEE
:1035A000DBE51368C4F8A83100297FF40CAE11687C
:1035B00001601060C4E968000CE6C4F8AC010DE6D7
:1035C000117901F00301032916D0C4E96822FAE554
:1035D0000B7903F00303032B2FD0C4E96811FFF725
:1035E000ADB9C4F8AC0159E7DA79032A3FF404AE67
:1035F0000A2A7FF4EAAEFFE5D1790329D7D00A2958
:10360000E3D1D4E71368C4F8A83100297FF43BAFB5
:10361000116801601060C4E968003BE794F89621E6
:1036200063F3840284F896210DE6117901F0030119
:10363000032909D0C4E9682225E7CB79032B3FF49D
:1036400079AF0A2BC9D175E7D1790329E0D00A29CE
:10365000F0D1DDE70C4A0D490D4840F6C73321F0A3
:10366000CDFA404080F311884FF0030002DF4FF0A5
:103670000008FEF791BF044A044940F6E173FFF7E2
:103680002FBA00BF90350020E8D7020014D3020003
:103690007CD20200000000002DE9F04F8BB00F46F5
:1036A0000493BDF85830059006930020BDF86030B3
:1036B0009DF85490BDF85CB00393164614F0EAFAF6
:1036C000002800F0948109F0010A0546504611F0E7
:1036D0006BFABAF1000F6AD12B6A05F11C0207924E
:1036E000002B6BD0D5F82080D8F8004098F82A003D
:1036F000C0F3C00100F0070019F0ECFAB8F826108A
:1037000000F5E1700144B8F828000144C248C0A3A4
:10371000D3E90023A1FB0001FDF7F2FC20F07F407C
:103720002061304618F06AFB95F833306FF341039F
:1037300085F83330FF2385F8343066B3A9F10203EE
:10374000012B40F2588195F84430049A69F3420302
:1037500085F8443095F8333062F3000385F8333050
:103760001499062205F1240024F025FF039B2B86E3
:10377000059A00963B4605F11C000021FEF744F92E
:1037800019F046FC002840F057812846FEF768F9FA
:103790000BB0BDE8F08F18F0EBFE0028CED01499E6
:1037A0000498324618F026FC85F83400C6E7062156
:1037B0000FF052FE00288FD11220E9E713F0E0FC51
:1037C0000790002800F06F8114F0C2FE0446002824
:1037D00000F08B8120300FF0DFFF04F11C0800287F
:1037E00040F05481032104F1240019F035F9069BBF
:1037F000A06D63854FF6FF73A4F82CB023850028D5
:1038000000F0538104F1480104F14C020FF030FE46
:10381000636C824A1A4094F85E3023F0070384F800
:103820005E307F4B134363647E4B23644FF0000B89
:103830001B23E387C4F858B0A4F85CB0A4F82EB0FA
:10384000C4F830B004F1340017F094FD94F8393026
:1038500060F30503012184F839300DF1270019F0D8
:10386000FBF89DF82720704BDDF80CC0A08D84F884
:103870003BB0A3FB0213DB0803EB4303A2EB830380
:10388000053384F83A3094F839300699A4F8A8B092
:1038900003F03F0384F8393094F83C30A4F8ACB01E
:1038A00023F0030340F2E24284F83C305F4BA4F87B
:1038B000B4B002FB01F10A460B44B3FBF1F35C49DF
:1038C000A4F8B0B01144B1FBF2F1A4F8AA1042F28E
:1038D000107101FB0C210139B1FBF2F2A4F8A62012
:1038E0000622A4F8A420811D9AB28A42A4F8B2202C
:1038F00002DD063A121A92B2B4F8BA30A4F8AE2039
:103900004FF0000B03F0F803A4F8BA30A4F8BCB0F1
:10391000C4F8E0B0A4F8E4B0A4F8F8B012F072FF74
:10392000079BC4F81C3194F81231A4F810B123F0AD
:10393000030384F8123194F85E30A4F818B123F030
:10394000180384F85E3094F83E3184F81BB123F0FC
:10395000070384F83E3194F85E31A4F83CB16BF370
:10396000451384F85E3194F88631A4F85CB16BF3AA
:10397000C303002284F886310023C4E94001C4E96E
:103980004223A4F884B1A4F890B115F0E5F8A4F8A6
:10399000B60015F0E7F8D4F89421264BA4F8B80047
:1039A0001340C4F8943115F0E3F894F8983160F3BB
:1039B000020384F8983115F0E1F894F89831C4F8CE
:1039C0009CB160F3C50384F898313123C4E96ABB24
:1039D000C4E968BBC4F804B0C4F80CB0A360C5F86F
:1039E0002080C4E905BB84F800B0E4617EE60C20C9
:1039F0000BB0BDE8F08F002018F01AFA95F83330BC
:103A000043F00203D14685F833309CE6AFF30080E3
:103A10008D49FD1A0700000000CA9A3B000080F89B
:103A2000480111011B004801ABAAAAAA7FC3C90122
:103A3000FF5962020000FFF62C6AE36B63B12D4A66
:103A40002D492E484FF4976321F0D8F8404080F379
:103A500011884FF0030002DF04F1300104F12C0063
:103A60000FF00AFD0646002831D02768E663D7F834
:103A70001C41F4B1204613F089FB384614F06EFD6A
:103A8000002303202B620BB0BDE8F08F194A1C49BC
:103A90001A48BF2321F0B2F8404080F311884FF05C
:103AA000030002DF9EE6072072E604F15000A065E5
:103AB000A8E6104A1349114840F2C14321F09EF88C
:103AC000404080F311884FF0030002DFD2E7094A3B
:103AD0000C490A4840F2BA4321F090F8404080F384
:103AE00011884FF0030002DFBFE7079813F04EFB89
:103AF00007204DE6C8D902000CDA02007CD2020091
:103B0000F4D5020040D802002DE9F04F80468FB076
:103B100004460F46154600F1240106220CA818F8A9
:103B20001C6F24F048FD94F81C9018F0010FC9F3A5
:103B3000401BC6F3C016D94640F004810023A3837E
:103B4000B97C97F8118011F0010104F12B004FF0BE
:103B5000060200F0E18004F11E0124F02CFDB8F112
:103B6000FF0F04F1250304F11F0A00F0DF80524625
:103B7000404604F11E010B9317F046FE0B9B1846BE
:103B8000A37F02330CA9A377062224F014FD3B681F
:103B9000D3F800A0EB8963862B8AA386BAF830306D
:103BA000E38619F087FA84F83800D5F8008040469B
:103BB00014F0DAFC7E68A8812146E080206813F0CA
:103BC000EBFAAB89F3801B2334683371B9F1000F32
:103BD00040F0C68086F81CB03146204613F0DCFA6F
:103BE00013F0E4FAD8F80430D8F8086095F82A0001
:103BF000B5F80E90FC689E4238BF1E46C0F3C00167
:103C000040F2E24300F0070003FB09F919F062F803
:103C1000203400220221241A01200FF079FC5046A2
:103C200014F010F8821C564BCDF800A0D2B201213E
:103C3000002010F0F5FE30F002030CD0514A52493A
:103C4000524840F2C93320F0D9FF404080F3118838
:103C50004FF0030002DF4FF0000A012211465346E5
:103C6000CDF800A0504610F0DBFE404614F07CFC7E
:103C7000BB68CDF81880093B9E1B454B0793454B0D
:103C8000059340F2F933444F0893D8F81030A9FB5C
:103C90000798CDE903A3C51C37A3D3E90023484601
:103CA0004146FDF72DFA104619464FF47A7200236B
:103CB000FDF726FA30A3D3E9002302904146484697
:103CC000FDF71EFA2CA3D3E900230190A4FB070102
:103CD000FDF716FAEDB220F07F40009033462A46F9
:103CE0000121504610F012FE30F002030CD0254A9C
:103CF0002549264840F2FA3320F080FF404080F307
:103D000011884FF0030002DF0122022110460FF05C
:103D1000FFFB0FB0BDE8F08F24F058FCB8F1FF0FA7
:103D200004F1250304F11F0A7FF421AF184606228F
:103D3000002124F04BFCA6770CA95046062224F063
:103D40003AFC24E70F4A154910484FF4527320F00B
:103D500055FF404080F311884FF0030002DFEDE68D
:103D60006B7F43F040036B77281D17F04FFB012357
:103D7000E883337730E700BF8D49FD1A0700000064
:103D80004DAC0100C8D9020004D902007CD2020067
:103D900051AC010081AC010000CA9A3BA8D40200DA
:103DA0002DE9F04F8FB01E4609931546FF230A1DDB
:103DB000DFF80481DFF804B1DFF804A1DFF8049133
:103DC00008920021316004468DF82F3004930C9145
:103DD000059106910DAF0CAE02230D93CDE901873D
:103DE00000962B460DF12F022146002010F05AFEBE
:103DF00002282DD00D9B002B30D19DF82F30FF2BAA
:103E00003CD0032BE8D1002014F0B6FB0028E3D00F
:103E100090F93930002BDFDB049902690C9BFF29F4
:103E20000CD0069907921846049310F09BFE059B50
:103E3000089A99188842049B079A22D8CDE905234D
:103E40009DF82F300493C7E72146002010F070FE44
:103E50000D9B022BF8D00D9B002BCED073235A461E
:103E60005146484620F0CAFE404080F311884FF08A
:103E7000030002DF9DF82F30FF2BC2D1049BFF2BE4
:103E800010D0DDE9053210481344A3FB00010722DE
:103E900002FB031106A3D3E90023FDF731F9099BC7
:103EA000803018600FB0BDE8F08F00BFAFF3008026
:103EB00000CA9A3B000000001DB0010058DA020061
:103EC0009CDA02007CD202008D49FD1A000000003D
:103ED00070B582B01C4601921546064601AA022022
:103EE000FFF75EFF23680BB30198431B1B021FD42F
:103EF000294610F037FE1A4A03460721A0FB0202AA
:103F000001FB032114A3D3E90023FDF7F9F822688C
:103F100002442260002A09DB40F2E24006FB00F086
:103F2000904203D2121A8242FCD8226002B070BDC5
:103F30000146284610F016FE094A03460721A0FB59
:103F4000020201FB032104A3D3E90023FDF7D8F803
:103F50002268121A2260DDE700CA9A3B00000000C6
:103F60008D49FD1A000000002DE9F041B0F86C11F8
:103F700088B0044640F2E2434748002603FB01F1C3
:103F800005AD0623C5E901668DF80F30A1FB0001E0
:103F90003FA3D3E900230596FDF7B2F80DF10F0317
:103FA00001950093B4F86231049004AA20460121DF
:103FB00017F036F89DF80F8008F1FF3C5FFA8CFC93
:103FC0000DF11603304604F5B67703EB4C0C04F5FF
:103FD000BC764FF6FF7E3A88B8F1000F0AD02B4628
:103FE000724504D0198891424FF001001DD0023370
:103FF0009C45F5D10237BE42EDD1D4F8C43048BB60
:10400000BDF8142040F2E24102FB01F1100AC4F8AD
:10401000F0101A70587094F8E630042262F302032C
:1040200084F8E63008B0BDE8F081D4F8C41040F25E
:10403000E24302FB03F3100AC4F8F0300A70487040
:1040400094F8E630042262F3020384F8E63008B004
:10405000BDE8F081032203F8042C13F8052C94F832
:10406000E610052542F00302112003F8020C03F8C4
:10407000052C65F302010F20202203F8010C1A70B1
:1040800084F8E61008B0BDE8F08100BFAFF300800F
:104090008D49FD1A0700000000CA9A3B000000008D
:1040A00038B5044619F04AF9A27DC2F34103013341
:1040B00003F00303032B34D063F34202A27503F130
:1040C000250018F0C5FD63680BB32369FBB11AF036
:1040D000B5FC054610F044FDC11C00201AF07CFC24
:1040E0001AF0DEFC1AF0AAFC294610F03BFD12493A
:1040F00003460722A0FB010102FB03110CA3D3E935
:104100000023FCF7FDFF23691B1A236138BD10F063
:1041100027FDC11C00201AF05FFCBDE838401AF0F2
:10412000BFBC6FF34202A2752520CAE7AFF300803F
:1041300000CA9A3B000000008D49FD1A00000000F3
:104140002DE9F04F87B004461AF05AFAC0B250B9C0
:1041500018F0D4FDB44821461AF034F907B0BDE890
:10416000F04F1AF023BA1AF06BFA05461AF086FBE4
:1041700083461AF08DFB81461AF088FD06461AF038
:1041800069FD82461AF03EFBEDB280461AF020FB34
:1041900018F0B4FD002DDDD0012013F043F90546E1
:1041A000002800F07D811BF0FF0BF6B240F06F811C
:1041B000002E40F0CC80FF275A463B463146204631
:1041C00019F0EAFA0028C5D02B7F626800218DF82B
:1041D00013105FFA88F803F00F01002A00F0D38073
:1041E000626892F82020900700F1CD800729B1D0B5
:1041F000A27D120740F16281002940F0AE806B7F02
:10420000252B00F22281042013F00CF90028A1D004
:104210001AF04EFC636A804643B9238C40F2712247
:1042200002FB03F3B0FBF3F203FB120823681A69E5
:104230007E4B0721A2FB030301FB023178A3D3E9E4
:104240000023FCF75DFFA0F24233434582D31AF00E
:10425000B1FA3846636817F0EBFFE37D9B078146B0
:1042600040F1CF81002800F0CC8183464FF0010857
:104270001AF0F4F92B7F05AA039205F11E020146FC
:104280008246C3F38013009220460022CDE9018BC1
:1042900019F09CFA50461AF06FF91AF0A7F90028A5
:1042A00040F0C581624821461AF08CF86168A37D10
:1042B00091F8202043F0800342F0010281F8202091
:1042C000A37513F0CDF81623804603714FF6FF73E4
:1042D0002D7FC380514624221C3024F06CF998F8BD
:1042E0001C30C8F80840C5F3401565F3451388F83D
:1042F0001C301AF0A3FB0021C8F810000120059D16
:104300001AF048F9002E08BFFF2788F81970E37DDE
:104310002D1A13F00203C8F8145003D0B9F10003AA
:1043200018BF012398F81A2063F3000288F81A20B6
:1043300013F096F803464146D8F80000C8F80C3050
:1043400013F0A4F813F0B2F807B0BDE8F08F5FFAED
:104350008AF017F0FBFF07462EE7012915D16B7F86
:104360000C2B7FF4F7AE2A7F009700230193D2092C
:1043700005F12403204619F061F900287FF443AFCA
:10438000297F01F00F01002954D0062952D00229BB
:1043900000F0A780012958D16B7F0C2B7FF4DAAE97
:1043A0002A7F00970DF113030193D20905F124032D
:1043B0000021204619F042F9002846D06B7F002BDF
:1043C0003FF4C8AE63682BB12B7F03F00F03072BBC
:1043D0007FF4C0AE03209DF8139013F023F8054638
:1043E00000283FF4B7AE13F03BF84FF6FF73EB80B5
:1043F00005232B71B8F1000F6FD17F20AB7E28769B
:10440000002E08BFFF2769F341032868AB762946D1
:104410006F7613F03BF813F049F89BE6AFF300809A
:1044200000CA9A3B00000000F5D301008D49FD1A37
:10443000EDD501006B7F252B07D8A27D920602D512
:104440006268002A4FD0252BB9D92B7F03F00F03C8
:10445000042B7FF47FAE6B7F252B3FF67BAEA37DD5
:10446000D9077FF577AE1AF0F9F82B7F0278C3F3FE
:104470008013B3EBD21F7FF46DAE0830062205F136
:104480001E0124F06FF800287FF464AE96E7A07D4B
:104490005FFA89F1C0F3C00017F0EEFE07468BE625
:1044A000714A7249724840F2C32320F0A7FB404092
:1044B00080F311884FF0030002DF74E6FF2F8DF8C0
:1044C0001470C3F3801978D0237EDB1BB3FA83F317
:1044D0005B09002B7FF490AE55E71AF085F9C0B266
:1044E0008CE76B7FAFE796201AF0E8F900201AF00E
:1044F000B9F8032012F096FF814600283FF42AAE57
:1045000012F0AEFF4FF6FF73A9F80630052389F8C5
:104510000430B8F1000F70D17F23002E89F81830D5
:1045200014BF3B46FF2389F8193099F81A30D9F89F
:1045300000006FF3410389F81A30494612F0A6FFD4
:1045400012F0B4FF1AF08AF82B7F0646C3F38013EB
:104550003278DB0102F0700243F00303134333703F
:104560000C233846737017F063FEE37D9F074FD529
:1045700000284DD033780146304643F0400300F820
:10458000023B062224F017F8062205F11E0106F16F
:10459000080024F010F8304619F0EEFF1AF026F863
:1045A000002852D11AF07CFAA37D324843F001036F
:1045B000A375214619F006FFC6E605F11E0A05AAF5
:1045C0005146484617F078FF00283FF4D9AEE37D06
:1045D00003F001034B457FF4D3AE5146062204F1AC
:1045E000080023F0BFFF297FB0FA80F35B0901F0D8
:1045F0000F01002B7FF400AEC5E61AF0F5F8C3B248
:104600008BE794F8168004F1190BC8F380182FE695
:10461000A37D3278C3F38013304663F3861200F82B
:10462000022B04F11901062223F0C5FFACE70E4A64
:1046300011490F4840F2914320F0E0FA404080F3E6
:1046400011884FF0030002DF2CE6074A0A490848A8
:1046500040F2165320F0D2FA404080F311884FF018
:10466000030002DF9EE700BF74DE0200C0DE02002E
:104670007CD2020009D40100C8DE020010B4044656
:104680001846074B1970074B1B6833B9012A04D829
:104690002246054910BC08F03FBC10BC704700BF63
:1046A0001C480020F82300201D47000030B5164D9F
:1046B0000FCD8DB001AC0FC42B681449236001A845
:1046C00009F06EFB0346124802687BB152070BD01B
:1046D000104ACDE90A23032300930993002309AA72
:1046E0004FF4C25121F07CFA0DB030BD02F0070248
:1046F000022AF9D9084A0A920222009209924FF43A
:10470000865109AAEEE700BF70C402007D46000092
:104710008009002028E402004BE4020070B5037811
:10472000072B88B002D0012008B070BD0023447868
:1047300020491A46944230DC102BF4D11E4D2B68D0
:1047400003F00703022B0ED91C4B1D4A1B78CDE941
:104750000623032301930593002305AA4FF4C651B2
:10476000284621F03DFA09F09BFB04464FF4A020B7
:1047700000211FF087FECCB12B685B07D3D0114B13
:10478000CDE906340323019305930B48002305AAC2
:104790004FF4C25121F024FAC5E7466831F8025BB4
:1047A000B65CAE4208BF01330132C3E7FFF77EFFBC
:1047B0002046B9E788080020800900201C48002016
:1047C00068E402007CE4020000B5002089B008F033
:1047D0002DFB164B00221A60034615488BB1016869
:1047E00049070BD01349CDE9061303230193059321
:1047F0004FF4C251134605AA21F0F2F909B05DF851
:1048000004FB026802F00702022A09D90A4A06924A
:104810000222019205924FF4865105AA21F0E0F997
:1048200009B05DF804EBFFF741BF00BFF82300209B
:104830008009002099E40200B9E4020038B50C4672
:10484000BDF81000E5681C46C3180C2B114608DCA7
:104850002246284423F0AFFE03481FF02FF92046DC
:1048600038BD6FF00604FAE7880B002037B500204A
:10487000019004F0F1FB0446F0B9114D019B73B1B6
:10488000104820F0BBF9104820F0B8F90F4820F08C
:10489000B5F90F4820F0B2F9204603B030BDAB683F
:1048A0001B6D1BB101AA042128469847002140F640
:1048B000CD401FF0E7FDE1E74FF0FF34ECE700BF2C
:1048C000F8BF0200EBE4020015E50200ECE4020090
:1048D0003EE502002DE9F04F05468BB0184615F075
:1048E0000303DDF8508003920E46019340F0F581FA
:1048F0002C1D002D40F0F48101F00706341DC6F197
:1049000008064FF0000A0427411ECDF808A0CDF894
:1049100000A05246B94605B12060039B03F0010E8A
:10492000CE4B9842C0F02A81CD4B984280F0268130
:10493000BEF1000F00F03C814FF0010CA4EB050B21
:10494000BEF1000F00F01D81BBF5007FC0F01981A2
:104950006FF01500F5E032B9252B40F02C810122D3
:104960000427B94627E12B2B24D81F2B01D800227E
:1049700021E1A3F120000B28F9D80FF2080C5CF814
:1049800020F000BFB74B00006F4900006F490000E6
:10499000B74B00006F4900006F4900006F490000ED
:1049A0006F4900006F4900006F4900005B4B000039
:1049B000B74B0000A3F12D005FFA80FCBCF14D0F56
:1049C000D5D84D28D3D80FF2080C5CF820F000BFE2
:1049D000B74B0000B74B00006F490000B74B000019
:1049E000B74B0000B74B0000B74B0000B74B0000BF
:1049F000B74B0000B74B0000B74B0000B74B0000AF
:104A0000B74B00006F4900006F4900006F4900007C
:104A10006F4900006F4900006F4900006F490000B6
:104A2000234B00006F4900006F4900006F490000F0
:104A3000234B0000234B0000234B00006F49000074
:104A40006F4900006F4900006F490000B74B00003C
:104A50006F4900006F4900006F4900006F49000076
:104A60006F4900006F4900006F4900006F49000066
:104A70006F4900006F4900006F490000094B0000BA
:104A80006F4900006F4900006F4900006F49000046
:104A90006F4900006F4900006F4900006F49000036
:104AA000234B00006F490000094B0000094B000038
:104AB000234B0000234B0000234B0000B74B0000AA
:104AC000094B0000514B00006F490000B74B00003C
:104AD0006F490000554B0000094B0000554B00008A
:104AE0006F4900006F490000554B0000614900000C
:104AF000094B00006F4900006F490000094B00009E
:104B00006F4900006149000011F8012C6C2A23D183
:104B100011F8022C6C2A4FF000022DD00427B94660
:104B20001BE008F1070828F007080734F8E802231B
:104B300024F0070455B10EEB0400B04204D96FF025
:104B40001B000BB0BDE8F08FC4E90023083400223D
:104B5000082706E70022E1E70022013C3C447842B6
:104B6000044025B1A9EB05002044B042E7D8732BDF
:104B700043D158F8040BCEE60827D0E74FF0000CDD
:104B8000DCE6009B0F2B3FF6E3AE45B3DDF800E01B
:104B90000AA8CBF387037044BCF1000F19D063F06F
:104BA0007F0300F8103C0AF1010A009B01330093D7
:104BB0000434C5F1080E11F8013F002B7FF4CBAE91
:104BC000601BB0F5806FBFF4C3AE9DBB083E3044A0
:104BD000B7E700F8103C029B01330293E5E7BCF114
:104BE000000F01D00136E0E7CDE9041223F08DFC7F
:104BF0000236DDE904120644D7E7B9F1040F08D103
:104C000008F1040015B1D8F8003023600434804660
:104C1000D1E7B9F1080F7FF49BAE08F1070323F049
:104C2000070303F108081DB1D3E900BCC4E900BCC7
:104C30000834C0E7029A2B60800828706A7085F8F3
:104C400002A0BAF1000F05D006A9C5F10100009A33
:104C50009A4207D1C5F1010939E000BF08BF02003F
:104C6000041E030011F8012B170607D52718B742B9
:104C700002F07F023FF663AF04F8012B0133E6E751
:104C8000019B06AA12F80380BAF1000F02D018F0B7
:104C9000800F19D10FFA88F2002355F8221045F839
:104CA00022300846029123F030FC04EB0902471C35
:104CB0003A44B2423FF643AF04F8018B02992046D2
:104CC0003A4623F078FC3C44019B01330193DDE933
:104CD00000239A42D4D1601B33E76FF00D0030E718
:104CE00007293FF60EAE2AE730B585B0CDE90101C0
:104CF0000446002501A90548039500F0E9F8DDE91F
:104D000002309842B8BF255405B030BDD74B0200E1
:104D10002DE9F84FB0F8189019F0080804469346AA
:104D20000DD001290CBF49F0100949F02009A0F865
:104D300018908BF31188BFF36F8FBDE8F88F09F0DF
:104D40000709022907D120461FF08CFF0028F0D068
:104D50000128238B4ED16769218B002F15DA256836
:104D600021F00701C4E9008841F0010121830026F8
:104D7000218B01F0070ACA4502D0A368002B5AD143
:104D80000DB9002E71D0002356E001F007035A1F21
:104D9000012A1ED821F00701062B256889B2C4E933
:104DA00000880AD13DB1638B2A46126801339BB259
:104DB000002AFAD1638341F00201218320461FF0CB
:104DC00051FF06460028D3D0238B43F020032383D2
:104DD000CDE7042B0CD121F0070189B221832046B5
:104DE0001FF040FF05460028C1D041F0200121837B
:104DF0000025BCE7032809D1226923F007031668C0
:104E000043F00603238300252F46B1E7042806D18B
:104E1000226923F00703566843F00403F2E70528EC
:104E200006D1226923F00703966843F00503E9E7FA
:104E300000252E46E8E7012341F0080121838BF38A
:104E40001188BFF36F8FFBB985BB16B11F49204690
:104E5000B0474FF02003EFF3118B83F31288BFF3B9
:104E60006F8F238B23F008032383238BDA0625D54A
:104E700023F0100323830121B4F8189009F00709E7
:104E800000297FF45EAF54E7A1680029DCD0D1F897
:104E90000090D1F804B03B4652462046D847B9F1BD
:104EA000000FD1D04946D9F80090F2E729463B4699
:104EB000524620462D681FF0F1FEC5E713F0200191
:104EC0001EBF23F0200323830221D5E7C94C020033
:104ED0002DE9F04F81469BB08A4615461C460026B8
:104EE000287810B9304600F0EEBD6B1C25280293DF
:104EF00006D05146C8470028C0F2E58501364CE28D
:104F0000182200210CA823F061FB6B78252B7CD0A4
:104F10000022681C9646904694461746014610F8B3
:104F2000013B2B2B00F0A08000F29780202B00F09B
:104F30009E80232B00F09E802FB19DF8380040F01A
:104F400004008DF83800BCF1000F05D09DF8380042
:104F500040F008008DF83800B8F1000F05D09DF83A
:104F6000380040F010008DF83800BEF1000F05D079
:104F70009DF8380040F020008DF838002AB19DF8E7
:104F8000382042F040028DF838209DF8382002F099
:104F90004400442803D16FF386128DF838209DF821
:104FA00038202A2B42F080028DF838207ED19DF8DF
:104FB000392042F001024B1C8DF839201A782E2A34
:104FC0009DF839200CBF0121002161F341028DF8C9
:104FD000392077D15A782A2A6DD0013300214FF039
:104FE0000A0C184610F8012BA2F13007092F40F2E5
:104FF000AB809DF838201091C2F3400040EAD17197
:1050000061F341028DF838205CE0AA1C02928DF811
:105010003B309DF83930DF0740F1738154F804BB11
:10502000BBF1000F07DA9DF8382042F004028DF83A
:105030003820CBF1000B580740F16C8154F8048BF9
:10504000B8F1000F80F26B819DF839306FF34103A6
:105050008DF839304FF0FF3861E12D2B0DD0302B1A
:105060007FF46AAF012259E74FF0010C56E74FF089
:10507000010853E74FF0010E50E701274EE70CFB04
:105080000272303A0346184610F8017BA7F1300E41
:10509000BEF1090FF3D9994290D09DF838100F92C4
:1050A000D20F62F341018DF8381087E70B460022DA
:1050B0004FF00A0CE7E79DF8392042F004028DF822
:1050C00039200233194611F8012B6C2A5CD040D8E4
:1050D000682A46D06A2A61D04C2A67D019460B4606
:1050E00013F8012B0293782A8DF83B2000F2DF8021
:1050F000572A68D8412A04D0A2F14503022B00F2B6
:10510000D6809DF83A3002F0DF020421A2F1410876
:1051100061F30203D8F100029DF839108DF83A309E
:1051200042EB080262F3C7110A068DF83910CBB2C0
:1051300000F1E58003F07802182A40F0B5806FF3A3
:10514000C6038DF839309CE00CFB01213039034651
:1051500047E7742A26D07A2AC0D19DF83930062232
:105160000DE05A78682A9DF8392006D1012161F3B3
:10517000C6028DF83920991CB1E71346022262F36A
:10518000C6038DF83930AAE75A786C2A9DF8392081
:1051900001D10421EBE713460322F0E79DF83930F3
:1051A0000522ECE79DF839300722E8E7BDF83830F2
:1051B00023F4F04323F0020343F4804343F002035B
:1051C000ADF838308BE7A2F15803202B6FD801A13E
:1051D00051F823F087520000AF520000AF52000098
:1051E000AF520000AF520000AF520000AF520000BB
:1051F000AF520000AF52000003510000AF52000058
:105200008752000059520000035100000351000072
:1052100003510000AF52000059520000AF5200008D
:10522000AF520000AF520000AF520000BD5200006C
:1052300087520000E1520000AF520000AF52000060
:10524000E1520000AF52000087520000AF52000050
:10525000AF520000875200009DF83A30012161F3FF
:1052600002038DF83A309DF8393003F07803402B73
:1052700002BF9DF8381041F001018DF83810632A03
:1052800005D0002306E09DF83A300221E7E7003B15
:1052900018BF01239DF83820C2F340010B4363F38C
:1052A00041028DF83820B4E613F0380FE9D09DF8AC
:1052B000383043F001038DF83830E2E79DF83A309A
:1052C000032262F302038DF83A309DF8393003F07F
:1052D0007803A3F1400CDCF1000343EB0C03D9E7A6
:1052E0009DF83A30032262F302038DF83A309DF8BC
:1052F000393013F0780F14BF01230023CAE70123CC
:10530000C8E79DF93820002AB4BFDDF83CB04FF063
:10531000FF3B90E699077FF59DAEDDF840809DF854
:1053200039100023CDE90F339DF83A3003F007021E
:10533000042A09D18A0707D49DF93920002AB4BF6D
:105340004FF00D084FF0060803F00703012BC1F3DF
:10535000C30137D1CB1E042B21D8DFE803F00309AA
:105360000920200054F8043BDA17CDE90C3206E09E
:10537000073424F00704F4E80223CDE90C239DF858
:105380003870BB0756D0029B2A46514648461FF04C
:105390009AFF0028C0F297830644029DA0E554F8C6
:1053A000043B01294FEAE372CDE90C3205D19DF8A7
:1053B00030300C9300230D93E1E70229DFD1BDF9D2
:1053C0003030D1E7022B23D1CB1E042B13D8DFE8DA
:1053D00003F0030A0A12120022680C920023201D17
:1053E0000D930446CBE7E01D20F00700F0E8022310
:1053F000CDE90C23F5E754F8043B0C9301294FF059
:1054000000030D93D3D00229B9D1BDF83030D0E7D5
:10541000042B09D1E31D23F0070303F10804D3E9AA
:105420000023CDE90C23AAE7032B04BF54F8043B67
:105430000C93A4E79DF83B20782AAED8572A00F2B7
:105440008C80252A00F0D480242AA6D9412A03D0B2
:10545000A2F14503022BA0D8DDE90C13002BC0F20A
:10546000BE81380700F1BD8117F0100718BF202753
:10547000C3F30A55C3F31303CDE90813002D40F01D
:10548000B28151EA030014BF01200020DB0243EA8D
:105490005153C902462A45EA010E43EAE57C08BF9A
:1054A00066225EEA0C0CCDE9081300F006820028A3
:1054B00040F0CE81DDE908014FF0000C41F00041E1
:1054C000A5F2FE35099163464FF0050E15F1020F66
:1054D000C0F2C581BCF1000F01D0CDE90801002D5B
:1054E000DDE9081000F3D08109980899C5F1040C92
:1054F0001C3500FA05F5ACF1200E21FA0CF120FA6A
:105500000EFE294341EA0E0120FA0CF0CDE9081005
:1055100002F0DF01472940F0D781DD1C02DB98450E
:1055200080F2CE81023AB8F1000FD2B201DD08F16B
:10553000FF389DF83810880600F1C681B8F1000FD9
:10554000D4BF00210121662A039140F0BF8118EBEE
:10555000030540F1BD810025BDE1A2F15803202BD8
:105560003FF61BAF01A050F823F000BF81570000A9
:105570009B5300009B5300009B5300009B53000073
:105580009B5300009B5300009B5300009B53000063
:10559000595400009B5300001D5600002157000085
:1055A0005954000059540000595400009B53000006
:1055B000215700009B5300009B5300009B530000A9
:1055C0009B530000B757000081570000855700002B
:1055D0009B5300009B530000F75500009B530000B5
:1055E000815700009B5300009B530000815700002F
:1055F000514610467EE4B8F1000F0C9A09DB414693
:105600001046039222F088FF039A0027151862B90A
:10561000C3E61046039222F078FFF5E70C9B8DF865
:105620004C3000270DF14D0513AAAB1A07B1013319
:105630009DF83A00C10640F13A8202330F994006C4
:105640000B4444BF10995B18BBF1000F23DDABEB9B
:10565000030B9DF838305907C3F380081BD4580654
:1056600040F13482002F00F03482514638460392D4
:10567000C8470028C0F22782039A474601364FF0F8
:1056800030085E445B46002BA6EB0B000BF1FF3BA2
:1056900000F31182064647B1514638460392C84787
:1056A0000028C0F21082039A01369DF83A3059065C
:1056B00040F165829DF93930002BA6EB020303937C
:1056C000C0F20A8217463878039BA0F13002092AFB
:1056D000B84603EB070607F1010740F229829DF85F
:1056E0003A200F9F930608D43E44002FA6EB0703F1
:1056F00007F1FF3700F322821E4698F800002E289B
:105700000BD15146C8470028C0F2DD81002F06F1B9
:10571000010600F31A8208F10108A6EB08061DE253
:105720003D072BD417F0100718BF2027DDE90C2305
:10573000002B05DA524263EB4303CDE90C232D27FE
:105740000DF1650300930EAADDE90C0113AB1FF008
:1057500074FD0246B8F1000F0DF16505FFF657AF75
:105760009DF83810AB1A6FF3861198458DF83810F4
:105770007FF64DAFA8EB03030F9348E72B27D5E740
:105780000027DDE70C98002800F08D810DF16503FE
:1057900000930EAA13AB00211FF04FFDBDF83A3065
:1057A00003F0EF0343F4F04343F010030246ADF877
:1057B0003A300027CEE70C9B07293FF6EEADDFE835
:1057C00001F00C04060C08080C0C1E70E5E51E80A8
:1057D000E3E5F217C3E90062DFE51E60DDE52D2792
:1057E00046E62B2744E640F2FF7085422DD10B435D
:1057F000A2F141021BD1192A11D849238DF84C304E
:105800004E238DF84D3046238DF84E309DF83830BC
:105810006FF386138DF838300DF14F0504E76923D7
:105820008DF84C306E238DF84D306623ECE7192A45
:1058300099BF4E2341226E23612294BF8DF84C30D4
:105840008DF84C308DF84D20DEE700201EE6013D3E
:1058500049185B41002BFADACDE908132AE6400823
:1058600040EAC1704908B1F1333FAC4605F101058A
:10587000F5D20EFB01F5A0FB0E012944013B0CF112
:1058800002054FF0010C21E6023140F10000CDE9A4
:10589000081008A8CDE903231FF0A0FC049B039A7D
:1058A000DDE90810013D013349184041002805F1A8
:1058B000FF35F9DACDE9081011E600231D4613E69D
:1058C000A8EB0308662234E600213CE608F1010556
:1058D000102DA8BF10251021079100204FF0006166
:1058E000CDE90A01DDE90A10A5B9089D4919099D0C
:1058F00040EB0505B5F1805F1BD2CDE90815662A9E
:1059000040F09980002B23DC30218DF84C100DF1F4
:105910004D052FE0490841EAC0714008CDE90A1061
:105920000AA8CDE90423013D1FF058FCDDE904235A
:10593000D8E7490841EAC57108A86D08CDE90423F4
:10594000CDE908151FF04AFC059B049A0133D6E700
:1059500013AD079900290BDD07A908A8CDE9042399
:105960001FF054FC059B05F8010B013B049AF0D194
:105970000F9300239DF83810890602D4B8F1000F68
:105980001DDD2E2105F8011B9BB1B8F1000F16DDBE
:1059900059424145A8BF41469DF83A000F91002960
:1059A000A8EB0108D4BF0021012161F345108DF857
:1059B0003A00B8F1000F02DD0799002956DC03997F
:1059C000002963D1CDF8408002F0DF01452921D1C3
:1059D000002B2946B8BF5B4201F8022BB4BF2D2231
:1059E0002B22632B6A7009DD6420B3FBF0F202F115
:1059F000300CE91C85F802C000FB12330A200D466A
:105A0000B3FBF0F200FB123302F1300C303305F837
:105A100002CB4B700F9B002B43DC109B002BD4BFA1
:105A2000002301239DF83A2063F3861200238DF8AA
:105A30003A202B70F8E507A908A8CDE904231FF048
:105A4000E5FBDDE904239DF838108DF84C00302883
:105A500018BF03F1FF33880602D4B8F1000F12DD3E
:105A60002E218DF84D100DF14E05A2E707A908A8CB
:105A7000CDE904231FF0CAFB08F1FF38DDE9042358
:105A800005F8010B95E70DF14D0598E70021109100
:105A9000284615F8011D3029FAD02E2918BF0546D1
:105AA00092E70123BEE74B4D07466A1FBDE501079C
:105AB00048BF0133C2E5514640460392C84700281B
:105AC000039ABFF6DFAD1BB0BDE8F08F4FF02008A2
:105AD000D7E54FF03008D4E59046039B4746434452
:105AE00018F8010B70281ED11E46109B03EB060808
:105AF000A8EB0603002B3BDC2B463A4651464846B2
:105B00001FF0E1FB0028DEDB304406468344ABEBAC
:105B10000603002B7FF741AC51462020C8470028E0
:105B2000D1DB0136F3E75146C8470028D5DACAE78A
:105B30005146C8470028BFF6C6ADC4E751463020DD
:105B4000C8470028BFF6D1ADBDE751463020C84751
:105B5000013FD8E55146C8470028B4DB474606EB6D
:105B6000080318F8010BA0F13002092AF2D9BBE7AB
:105B700051463020C8470028A5DB0136B8E7D806D3
:105B800001D4190707D5514630200392C847002891
:105B900099DB039A01369DF83A30DB0608D59DF86B
:105BA0003B0003925146C84700288CDB039A01361C
:105BB0000F9F3744BB1B002B01DC2B469EE7514651
:105BC00030200392C8470028FFF67DAF039A0136C4
:105BD000F0E700BF96E5020030B51049104889B0E3
:105BE000002226F001F80F4D0F4900220023CDE9D5
:105BF000062300240E23CDE90334CDE901440B4BE9
:105C000000944FF4407228461DF0C4FD0849284610
:105C10001DF00EFD204609B030BD00BF355C000010
:105C2000D812002010130020005A0020895E0000C6
:105C300010E9020001481DF041BF00BF580B0020D1
:105C400070B5124BBFF35B8F53E8005F6A1C43E8EB
:105C500000210029F8D1BFF35B8F2DB90C4C0D4EFC
:105C6000361B3611B54200DB70BD237B53B1236870
:105C70009B690BB120469847636804221968204647
:105C800000F038FA01351034ECE700BF042400209E
:105C9000ACC30200BCC3020010B5044C237813B996
:105CA00003481DF00BFF0123237010BD1E48002088
:105CB000580B00200C4BBFF35B8F53E8002F0132D1
:105CC00043E800210029F8D1BFF35B8F58B1BFF33F
:105CD0005B8F064B53E8002F013A43E8002100296F
:105CE000F8D1BFF35B8F704700240020FC23002015
:105CF0000020064BBFF35B8F024653E8000F43E8DA
:105D000000210029F9D1BFF35B8F704700240020E8
:105D1000F8B5FFF7EDFF0A4C0A4D2D1B07462D1174
:105D20000026AE4200DBF8BD63685B792BB12368C7
:105D30001B6913B139462046984701361034F0E705
:105D4000ACC30200BCC30200014902481FF049BCB9
:105D5000B4C5020008240020094A08B500231370C6
:105D6000084A1360084B094A1A604FF4004000F0DB
:105D7000D1FBFFF7E9FFBDE8084000F025B900BFFF
:105D80001F48002000240020B0010020E95A020032
:105D900001460022014800231FF042BC08240020D5
:105DA00001481FF0D0BC00BF082400200146014874
:105DB0001FF015BD0824002001481FF044BD00BF9E
:105DC000082400202A4B1B782DE9F04706460BB922
:105DD00000284BD01FF09CFE054618B16EB1284636
:105DE000FFF7E4FF2EB9234B1B68002B01DDFFF703
:105DF0008FFFBDE8F047FFF7DFBF1F4BBFF35B8F9F
:105E000053E8002F013A43E800210029F8D1BFF3FD
:105E10005B8F1A4C1A4FDFF86CA03F1B3F11B04646
:105E2000B845DCDA63685B79CBB129784B0711D4CC
:105E3000B5F800906A68C9F38219C1F3C20192B142
:105E4000A2EB0A0242F38F020123204600F068F918
:105E5000484504D3236829461B682046984708F123
:105E600001081034DCE74FF0FF32EDE7BDE8F087C2
:105E70001E48002000240020FC230020ACC30200A8
:105E8000BCC302007C09002010B5FFF7D9FE1EF04C
:105E900013FB0C4B186030B10B4B1B68092B02DD58
:105EA0000A481DF00BFE094C0020FFF78BFF00286D
:105EB000FAD14FF0FF324FF0FF3320461DF024FEA1
:105EC000F2E700BF44240020FC230020580B0020F0
:105ED00013B51D4BBFF35B8F53E8002F511C43E8F4
:105EE00000100028F8D1BFF35B8F184B1B7883B1EB
:105EF0004FF02003EFF3118483F31288BFF36F8F09
:105F00000020FFF75FFF84F31188BFF36F8F02B0AB
:105F100010BD0F4B1B68002BF9D052B90022002393
:105F2000CDE900230B484FF4004200231EF002FD90
:105F3000EDE70A2AEBD1074825F062FE064802B0D9
:105F4000BDE810401DF0BABDFC2300201F48002012
:105F500044240020D8120020580B0020064B10B516
:105F60001B68044698472146A06004481FF0CEFBFA
:105F7000BDE81040FFF7ACBFB001002008240020AE
:105F8000F8B50E4F3D7875B90D4C0E4EFFF758FE23
:105F9000361B3611B54207DB0020FFF713FF002840
:105FA000FAD101233B70F8BD63685B791BB12368AC
:105FB00020465B69984701351034EBE71F48002005
:105FC000ACC30200BCC302000B480C4B30B51B1A1B
:105FD0000B4CDB0800210430994200D130BD10F891
:105FE0003120256802F0070225F007052A4344F80E
:105FF000042B0131F0E700BFECC10200ACC302008A
:106000007C090020044A054B9B1AB1EBD30F34BF27
:1060100052F8310000207047ECC10200ACC302000E
:106020002DE9F0478946164698460446B8B9DFF888
:1060300084A0214FA7EB0A073F110546BC4202DBB3
:106040002846BDE8F0870AEB04104346324649462D
:10605000FFF7E6FF854238BF05460134EEE7174BF0
:10606000174C03EBC2031D7943681A79072302EB2F
:10607000420203FA02F1454554F8263028BF45464E
:1060800023EA010305F0070101FA02F2134300219C
:10609000032223FA02F000F00700814202F103021A
:1060A00038BF01461E2AF4D123F007030B4344F8FE
:1060B0002630C5E7ACC30200BCC30200ECC102003D
:1060C0007C090020F8B5094C094BE41A06460F4636
:1060D000E4080025A54200D1F8BD00212AB23B46C4
:1060E0003046FFF79DFF0135F4E700BFACC3020067
:1060F000ECC10200094BC31A70B51B114668044677
:1061000001330D4633711146FFF7DCFF636801224E
:106110001D605A71BDE87040FFF7BEBDACC3020000
:1061200063B1002A0FDB43680849187900EB40038C
:1061300051F82200D84000F007007047044B03EBF1
:10614000C202107970470420704700BF7C0900200C
:10615000ECC10200024B98689B69C01A704700BFEF
:1061600048240020014B9869704700BF4824002054
:106170000EB403B503AB014653F8042B0448019356
:10618000FEF7A6FE02B05DF804EB03B0704700BF57
:106190005B5B02002DE9F0471D46089B1746DA06B7
:1061A00004460E4605D499064CBF2A492A49FFF7F2
:1061B000DFFFDFF8A8904FF00008A8452ADBDFF8E2
:1061C000A080DFF8A090DFF894A00025BD422FD278
:1061D000725D49462046FFF7CBFF0135102D20D1D7
:1061E0002149DFF87880DFF884902046FFF7C0FF70
:1061F0000025AF4228D9725DA2F120035F2B28BF92
:106200002E2249462046FFF7B3FF0135102D14D149
:10621000BDE8F08749462046FFF7AAFF08F10108CC
:10622000CBE76A07D2D151462046FFF7A1FFCDE761
:1062300041462046FFF79CFFCFE76B07D9D1414687
:106240002046FFF795FFD4E741462046FFF790FF31
:10625000DBE700BFE3EA0200ADE60200A3E50200CF
:10626000A1E502009BE50200A5E5020044F1020061
:106270002DE9F04F87B01C4601F0010305929DF80F
:106280004090BDF948A004930746884601F0020BF0
:1062900001F008061FF040FC0246002844D03A49AD
:1062A0003846FFF765FF0546BBF1000F08D018F030
:1062B000440F3BD1354922463846FFF759FF054484
:1062C000049B53B1324B334953F82920324B3846A3
:1062D000002A08BF1A46FFF74BFF3EB12F4B30494B
:1062E00053F829203846FFF743FF0646BAF1000F5E
:1062F00016DB059B002B45D0012303FA09F9294B36
:10630000294C19F0100F18BF1C4651469DF8440047
:10631000FFF778FE214602463846FFF729FF06447C
:10632000701907B0BDE8F08F0546BDE71F4B186830
:106330000028C4D01E4B4FF47A781B68B4FBF3F4EA
:106340004FF46161B4FBF0F300FB134408FB04F469
:106350004FF03C0CB3FBF1F201FB1231B4FBF0FE49
:10636000B1FBFCF300FB1E440CFB131108FB04F40F
:106370000091B4FBF0F00F49CDE901E03846FFF79A
:10638000F7FE9CE7084CC0E7B5E50200B9E502005E
:10639000C8C5020002EC0200A7E50200DCC502004D
:1063A000DEE50200B1E50200ACE502006424002055
:1063B00068240020C2E5020038B50C46E107054616
:1063C00003D5084A0849FFF7D3FEE20608D4A3061E
:1063D00028464CBF05490649BDE83840FFF7C8BE0E
:1063E00038BD00BFA7E5020002EC0200E3EA0200AC
:1063F000ADE602002DE9FF470B8813F4E07F064667
:106400000C469046C3F382194DD00A784B68C2F30C
:10641000C202002B44D025495B1A43F38F03CDE918
:106420000123CDF80090A368002241463046FFF7D3
:106430001FFF8246254655F80C3BC3F3492353B151
:106440001B4F1C481C492B463246B9F1000F08BFB0
:1064500038461EF068FB6788C7F3CB0797B12368FF
:10646000C3F349231D44102F3C4628BF102429465E
:10647000CDF80080534622463046FFF78BFE3F1B87
:106480002544F0D1B9F1000F04D04A4641463046C8
:10649000FFF792FF304604B0BDE8F0471FF050BB55
:1064A0004FF0FF33BBE7CA46C4E700BF7C090020BA
:1064B000915B02005B5B0200D14E000073B542F2BB
:1064C0000F738B4228BF0B4605680F4A044605210F
:1064D00068461EF0A0FB63680C495B680646042210
:1064E00028461FF020FB63683246694628465B68F1
:1064F0001FF019FB636806495B68172228461FF0E6
:1065000012FB02B070BD00BF291803001CE6020098
:1065100004E60200084A10B50123084C136000216C
:10652000A04204D801B11360054B186010BD4008AB
:106530005B000121F4E700BF6824002040420F0007
:10654000642400202DE9F04F85B0DDE90E6BDDF805
:1065500040A00546884614469946BBF1000F37D047
:106560000022CDF800A05B460C211046CDF80CA00F
:10657000FEF7B0F9074604F0070206F1130005F034
:106580000704144D144BE400384444EA821405EA2D
:10659000472520F007002C4303EAC64380081C432C
:1065A000FFF7F6FB054650B1BBF1000F07D0CDF861
:1065B00000A05B46002239460C30FEF78BF94B46B3
:1065C00022464146284605B0BDE8F04F1FF0EDBA1F
:1065D0005F46D0E700FE07000000F87F0023042894
:1065E000CB604B6098BF044B044A98BF53F82030EF
:1065F0008A600B60704700BF30C602000CC6020004
:106600000023084A0B60CB604B608A60064B074A48
:10661000D21AB0EB221F3EBF03EB00139B680B6046
:10662000704700BF84C70200ACC30200BCC30200B5
:1066300038B50446FFF78EFD0546FFF793FD094A7E
:106640000346082120461FF0C6FC2B462046064A7A
:1066500008211FF0C0FC2046044A08211FF0BBFCA3
:10666000002038BD21E6020032E6020043E60200C7
:106670002DE9F347114B124CDFF84880DFF84890C2
:10668000DFF848A01B1B07461E110025B54203DB9F
:10669000002002B0BDE8F087636859791B790029B2
:1066A00014BF42464A46CDE900230821A36852465A
:1066B00038461FF090FC01351034E7E7BCC30200F8
:1066C000ACC302006F190300D8F602008FE6020087
:1066D0002DE9F04F244B254CE41A4B685B7985B0CB
:1066E00005460E46E4081BB9214A03211FF073FC3E
:1066F000204B214ADFF884A0DFF884B00821284627
:106700001FF069FC1F4A082128461FF064FC4FF067
:1067100000080FFA88F7A74208F1010803D3002008
:1067200005B0BDE8F08F3A46012300213046FFF75F
:10673000F7FC00233A46194681463046FFF7F0FC45
:10674000394603900020FFF75DFC039A5AF8222097
:1067500001925AF82920009203465A4608212846F9
:106760001FF039FCD5E700BFECC10200ACC302004A
:10677000B0E60200C2E60200CEE602001CC602003D
:1067800029E70200ECE6020010B50023054ACB60C1
:106790000C464B608A6001461846FFF733FC2060C8
:1067A00010BD00BF0CC602002DE9F04F52F804AC3A
:1067B000184C85B00646504689469046029321F013
:1067C000A4FE1549091B0B11024601930027A3469D
:1067D000019B9F4208DB114A5346012130461FF0BE
:1067E000FAFB6FF007050FE0A1680392504621F015
:1067F000A8FE1034039A054650B9029C43464A4607
:106800000BEB07113046A047284605B0BDE8F08FD6
:106810000137DDE7ACC30200BCC302003DE7020064
:1068200008B5024BFFF7C0FF002008BDD16600008D
:10683000014BFFF7B9BF00BF215C0200014BFFF71E
:10684000B3BF00BF295C0200014BFFF7ADBF00BF23
:1068500051690000014BFFF7A7BF00BF755C020044
:1068600010B5C369DB681C792CB9044A01211FF0FB
:10687000B2FB204610BD0120FCE700BF52E702003A
:106880002DE9F04F2C4E1F462C4BF61A151E85B0E5
:106890004FEAD60614BF2B46334602934B685B790A
:1068A000804689461BB9264A03211FF094FBDFF876
:1068B00094A00024029B9C4202DB05B0BDE8F08F4F
:1068C000BDB357F824B000239E4207D157F82430B7
:1068D0001D4A012140461FF07EFB23E0194600209F
:1068E0000393FFF78FFB4022594621F02AFE039BBA
:1068F000D0B91A4600210E9B12B24846FFF790FB12
:106900000E9B834283460DD085B921462846FFF76A
:1069100079FB03465AF82B20009203210B4A40468C
:106920001FF059FB0134C5E70133CDE757F8243098
:10693000F0E72246DEE700BFACC30200ECC1020074
:1069400076E702001CC60200A1E702008BE7020006
:106950002DE9F74FD3F804B0DFF84CA0064688467F
:1069600091461D4600275AF8041B0422584621F080
:10697000E8FD044670B10137052FF4D16B680B4A6E
:10698000012130461FF027FB6FF00704204603B0BB
:10699000BDE8F08F009705F10803A9F10202414616
:1069A0003046FFF76DFFF1E71CC60200BBE70200AF
:1069B0001FB507240294044C0194BDF818400094BC
:1069C00023F0D8F904B010BD5A09002013B50446CD
:1069D00024F09AFDC0F307230193C0F3074300930B
:1069E000044A030E082120461FF0F5FA002002B0E9
:1069F00010BD00BF98E9020010B5044625F0C3F8A9
:106A00004FF47A73A0FB032003FB0103D20B42EA8D
:106A100043432046024A08211FF0DDFA002010BD42
:106A2000B1E9020010B504461AF0FEFD084A03461B
:106A3000082120461FF0CFFA064A204608211FF001
:106A4000CAFA054821461CF0BBFD002010BD00BF5E
:106A5000C0E90200DFE90200BD6A000030B501466E
:106A600087B0044611481CF0ABFD114A002312F810
:106A7000011BAA2903D10133B3F5006FF7D1C3F588
:106A8000006164224A43D20A059200254FF4006255
:106A9000CDE90312CDE901232046064B064A0095B5
:106AA00008211FF098FA284607B030BD9D6B000002
:106AB000E0810020C0810020E9E90200F0B587B044
:106AC000D0F8A07004460D4624F00CFD06461DF0DB
:106AD000F3FC234B234A002E08BF1E46224BCDE970
