:10100000E0A200204DBD0000E99F020021BD0000CC
:1010100021BD000021BD000021BD00000000000036
:101020000000000000000000000000008DB500007E
:1010300021BD00000000000035B5000021BD00000A
:1010400041B600003DDF010041B6000041B600009E
:1010500041B6000041B6000041B6000041B60000B4
:1010600041B6000041B6000041B6000041B60000A4
:1010700041B6000041B6000041B6000041B6000094
:1010800041B6000041B6000041B6000041B6000084
:1010900041B6000041B6000041B6000041B6000074
:1010A00041B6000041B6000041B6000041B6000064
:1010B00041B6000041B6000041B6000041B6000054
:1010C00041B6000041B6000041B6000041B6000044
:1010D00041B6000041B6000041B6000041B6000034
:1010E00041B6000041B6000041B6000041B6000024
:1010F00041B6000041B6000041B6000041B6000014
:101100007BB972B90029BEBF00204FF0004106E054
:1011100008BF00281CBF6FF000414FF0FF3000F007
:1011200057B8ADF1080C6DE904CE002909DB002B9E
:101130001ADB00F04FF8DDF804E0DDE9022304B02B
:101140007047404261EB4101002B1BDB00F042F88D
:10115000DDF804E0DDE9022304B0404261EB410127
:10116000524263EB43037047524263EB430300F088
:1011700031F8DDF804E0DDE9022304B0404261EB20
:1011800041017047524263EB430300F023F8DDF85E
:1011900004E0DDE9022304B0524263EB43037047ED
:1011A00053B94AB9002908BF00281CBF4FF0FF31CE
:1011B0004FF0FF3000F00CB8ADF1080C6DE904CE33
:1011C00000F008F8DDF804E0DDE9022304B0704720
:1011D000704700BF2DE9F04F07468C460846099E30
:1011E00015463C461946002B40F0C6808242B2FAB2
:1011F00082F746D94FB1C7F1200E24FA0EFE00FA4D
:1012000007F3BD404EEA030CBC404FEA15481FFAF5
:1012100085FEBCFBF8F9220C08FB19C309FB0EFA8A
:1012200042EA03439A4528D9EB1809F1FF3004D26A
:101230009A4502D9A9F102002B44A3EB0A03A4B2F8
:10124000B3FBF8F208FB123302FB0EFE44EA034440
:10125000A64514D92C1902F1FF3303D2A64501D9B2
:10126000931E2C44A4EB0E0443EA00401EB1FC4044
:10127000002334607360BDE8F08F4846DDE7134615
:10128000F0E702B9FFDE87BB831A01214FEA154E52
:10129000AAB2B3FBFEFC200C0EFB1C330CFB02F8C5
:1012A00040EA0343984563D9EB180CF1FF3004D2B0
:1012B000984502D9ACF102002B44A3EB0803A4B279
:1012C000B3FBFEFC0EFB1C330CFB02F244EA0344AE
:1012D000A2424FD92C190CF1FF3304D2A24202D9F9
:1012E000ACF102032C44A41ABEE7C7F1200C20FA8B
:1012F0000CF800FA07F324FA0CFCBD404CEA030298
:101300004FEA154EABB2B8FBFEFC110C0EFB1C8075
:101310000CFB03F941EA0040814504FA07F423D9A4
:1013200028180CF1FF3104D2814502D9ACF1020139
:101330002844A0EB090092B2B0FBFEFC0EFB1C009F
:101340000CFB03F842EA004398450FD9EB180CF167
:10135000FF3204D2984502D9ACF102022B44A3EB30
:10136000080342EA014191E76146E2E76246F6E797
:101370006046A2E76346B6E7834205D90EB1C6E9E7
:1013800000700021084676E7B3FA83F181B9834201
:1013900001D3BA420AD8BC1A60EB030301209C4671
:1013A000002E68D0C6E9004C002164E70846F7E744
:1013B000C1F1200C8B4022FA0CF41C4302FA01F517
:1013C00000FA01F327FA0CF220FA0CFB4FEA144959
:1013D0001343BBFBF9F81FFA84FE09FB18BB1A0C78
:1013E00008FB0EFA42EA0B42924507FA01F73ED992
:1013F000A21808F1FF3004D2924502D9A8F10200E8
:101400002244A2EB0A029BB2B2FBF9F809FB1822B4
:1014100008FB0EFE43EA024296452AD9A21808F1BB
:10142000FF3304D2964502D9A8F10203224443EACD
:101430000040A0FB0593A2EB0E029A42CE469846CE
:1014400002D306D14F4504D2B9EB050E63EB040875
:10145000013886B1B7EB0E0362EB080707FA0CFC04
:10146000CB404CEA0303CF40C6E900379CE7404637
:10147000C7E74346DBE73146FDE600000000000019
:1014800070B5484DD5F85431996811F0010190B00C
:1014900023D10AAA40F603400BF038FE0446002888
:1014A00072D10A9B9B681B78A3B90DF0AFFABFF30A
:1014B0005B8F2B4653F8CC2FBFF35B8F02F00502F6
:1014C000BFF35B8F53E8001F43E800200028F9D1E9
:1014D000BFF35B8F0A981FF0A7FB0AAA002141F215
:1014E00003000BF013FE044600284DD10A9B2E4842
:1014F00099680822013128F031FF0A981FF094FB07
:1015000021460AAA41F201000BF000FE0446002821
:101510003AD10A9883685A7885F86820D9789A78F9
:1015200042EA0122A5F86A201A7985F86920197A19
:10153000DA7942EA0122A5F86C205A799B7942EACD
:101540000323A5F86E301FF06FFB21460AAA41F273
:1015500002000BF0DBFD0446B0B90A9B1348996802
:101560004022013128F0FAFE104828F0ABFF0A981B
:101570001FF05AFB95F8743059061DD40C480368C7
:101580005A0704D16FF01204204610B070BD094B09
:101590000E930DAA02234FF4825109930D9329F063
:1015A00038F8EFE7000000207000002078000020ED
:1015B000480A00207E32030021460AAA42F20300B4
:1015C0000BF0A4FD04460028DED10A9BBC489968B4
:1015D0000822013128F0C2FE0A981FF025FB21469F
:1015E0000AAA42F202000BF091FD04460028CBD17A
:1015F0000A9B9B68B3F80120A5F8FC2091B221B1A9
:10160000DA78B04811462CF088F80A981FF00CFBE5
:1016100095F8746016F0200600F01A8195F8943061
:101620001B0712D50AAA002142F21C000BF06EFD26
:1016300004460028A8D10A988368D3F80120D3F87B
:101640000530C5E936231FF0EFFA95F8D0309E0635
:1016500023D509A908A80BF0DDFD0446002893D185
:10166000042142F224000BF0E1FB0646002800F0C2
:10167000F680042108302BF0DAF9BDF82030038021
:10168000BDF8243043802246314642F224000BF05C
:101690003DFD044600287FF477AF95F8D0305C0616
:1016A0002CD5022142F22E000BF0C0FB044600288C
:1016B00000F0D580022108302BF0B9F96FF07B03E0
:1016C0000370032343702146002242F22E000BF0E8
:1016D0001DFD044600287FF457AF01460AAA42F2D6
:1016E0002A000BF013FD044600287FF44DAF0A9842
:1016F00083685B7885F818311FF096FA082142F26A
:1017000001000BF093FB0446002800F0A88008219C
:1017100008442BF08CF995F8D01011F0400F0246D8
:1017200040F2022308BF032388074CBF43F02C007C
:1017300043F00C0095F8D1308E0648BF40F04000D1
:1017400013F0090F18BF40F40060CB0795F89A30EA
:1017500003F0060348BF40F01000062B08BF40F41A
:10176000C070002128F066FF2146002242F20100ED
:101770000BF0CCFC044600287FF406AF95F87430DB
:10178000B5F8FC109E067FD4D9B90AAA41F205002B
:101790000BF0BCFC044600287FF4F6AEB5F8FC3034
:1017A00063B90A9B9B685A78997842EA0122A5F8A6
:1017B000FC209A88434811462BF0AFFF0A981FF08F
:1017C00033FA082140F601400BF030FB04460028B4
:1017D00045D0082108442BF02AF995F8D030D907D4
:1017E000024664D534A1D1E9000128F023FF214647
:1017F000002240F601400BF089FC044600287FF4EB
:10180000C3AE014608AA4FF601400BF07FFC2E4CF8
:101810002368002860D013F0060F0AD02B4B0E93DC
:10182000022309930D930DAA4FF48451204628F00A
:10183000F0FE0DF027F8044600287FF4A5AE0EF068
:1018400095FB044600287FF49FAE0CF0D9F99BE687
:10185000022140F66D400BF0E9FA044610B96FF032
:10186000680491E6022108302BF0E1F801230370AF
:1018700046702146324640F66D400BF047FC044668
:1018800000283FF4CBAE7FE600299AD10E480368CA
:101890005C0709D00E4B0E930DAA02234FF4825120
:1018A00009930D9328F0B5FE6FF004046CE6094827
:1018B0004FF0005199E700BF90880002008000209F
:1018C000D000002000010020480A0020C53203009B
:1018D000A23203001088000203F00703022B4ED946
:1018E000089B49499E68B6F80130032B96BF474ACA
:1018F000474A52F82320CDE90223464B01930023A7
:1019000000931846032228F087FE236803F007039C
:10191000022B34D9B6F80130B6F80320022B48D197
:10192000032A46D83C4B53F822303749CDE90232DE
:101930003A4B0193002300931846032228F06CFED3
:10194000236803F00703022B19D9D6F8091073791D
:101950000691B6F807100591032BB17996BF304A6E
:101960002B4A52F823200292CDE903312D4B0193EB
:101970000023254900930322184628F04DFE0898BD
:101980001FF052F908AA00214FF602400BF0BEFBEF
:10199000064680B1236813F0060F3FF44AAF224B8E
:1019A0000E930223184809930D930DAA4FF4845106
:1019B0003DE7174BB9E7089B1C48996802220131A3
:1019C00028F0CCFC08981FF02FF995F8B9305B0788
:1019D0007FF52FAF08AA31464FF603400BF096FB78
:1019E00030B1236813F0060F3FF423AF104BD7E755
:1019F000089B104899680122114428F0AFFC089810
:101A00001FF012F915E700BF480A002048F3020052
:101A1000852D0300E932030008F3020002330300BE
:101A200080F302001A33030047330300B90000209B
:101A300070330300B800002038B5194C9DF810E051
:101A400094F844C01CF0010522D163F3420C40011C
:101A500094F83230A1874FEACE0E0EF0180E00F047
:101A6000200040EA0E0023F0380303430D4884F8B9
:101A70003230A2FB0001912303FB021106A3D3E93C
:101A8000002384F844C0FFF78BFB2064284638BD50
:101A90000C25284638BD00BF8D49FD1A07000000FF
:101AA000F0360020002AE78410B59DF808C00446EF
:101AB00049014FEACC0000F0180001F0200CA17D94
:101AC00022844CEA000C0C4821F038014CEA010C4D
:101AD0009122A3FB000102FB031184F816C004A3AA
:101AE000D3E90023FFF75CFB606210BDAFF3008019
:101AF0008D49FD1A07000000002AE784000000005D
:101B00002DE9F047044600F1350190F8440094F8BF
:101B10003230C0F3400060F386138CB084F832306A
:101B200014F030FD94F83220A38F4948E46102F0AC
:101B300079020025A3FB000184F83220912202FBE8
:101B40000311C4E9055540A3D3E900232570FFF72D
:101B500027FB3123C4E90153236CE5600933A0F16D
:101B60003102934232BF236122612564064614F09C
:101B7000D5FC236A07460DF12C08002B4BD0354DC0
:101B8000354BCDF820800694651BA3FB0535304806
:101B9000A38F4FF0000AA3FB00019122CDF80CA007
:101BA00002FB0311236904932C4B07932C4B0593E1
:101BB0004FF0020924A3D3E90023CDF82C90FFF7BE
:101BC000EFFA104619464FF47A720023FFF7E8FA4D
:101BD0002D094D44EDB22A46CDE901603B46032173
:101BE000CDF800A0504614F06FFB414617F02AF8DC
:101BF000054660B994F8443043F00103484684F840
:101C000044301BF0BBFD28460CB0BDE8F0870C202B
:101C10000CB0BDE8F087CDE90A33216943460AAA32
:101C2000032002F00DF90B990029A8D00D4806A356
:101C3000D3E90023A1FB0001FFF7B2FA0A9F20F0CD
:101C40007F4007449BE700BF8D49FD1A0700000055
:101C5000002AE784F0360020398EE33861820100E3
:101C60003D94010000CA9A3B2DE9F04390F8BCE096
:101C700090F8BBC0E6458BB004460E4615462ED004
:101C8000ACEB0E0C0CF0030CBCF1020F0CD094F872
:101C9000183194F819219B1ADBB2012B00F07B81DB
:101CA00000200BB0BDE8F08394F8852194F88431CE
:101CB0009A4206D094F8863103F00603042B00F014
:101CC000A98394F8BD707B1E052B00F25283DFE8D8
:101CD00013F01F0026039C0250036102CB0190F811
:101CE0003E3113F00108D2D190F8E51090F8E420CD
:101CF0008A4200F04C83012390F8842180F8BD30A3
:101D000090F88531AEF1020C9A4280F8BCC0D1D176
:101D1000E38D678E1F4494F8E630BFB2EA1913F0E2
:101D2000070192B240F0BC83B4F8C050521B1004BB
:101D30001FFA82F9ABD494F85C2194F85D3194F8E1
:101D4000BB0084F8BC00934294F8E40084F8E500FA
:101D500009D094F85E3103F00F03062B04BF84F81A
:101D60005D21A4F8AC10B44BD4F8E0801A6894421A
:101D700004BF00221A60B8F1000F00F02287D8F8E3
:101D80000000002800F01D87B4F8E830B4F82AC03D
:101D90004268C4F8E0206345B4F8EA20B4F8EC10D7
:101DA00000F02A87B4F828C0A8F81E30182388F855
:101DB00004300023A8F806C0A8F82020A8F82210B4
:101DC00088F81C30414616F0C5FE16F0CDFEA3681B
:101DD000002B09DAE068626823F0004390422CBFD0
:101DE0003118B118A360CE1A638DB4F8E88013FBE4
:101DF00009F39BB2B3FBF8F118FB01F292B29342E4
:101E00001FFA81F980F0CB86D31A8C4940F2E24266
:101E100002FB03F3A3FB010185A3D3E90023FFF732
:101E2000BFF920F07F431E44E38D1D4494F93930FF
:101E3000EF1B4F4440F2E245002BE78505FB08F518
:101E4000C0F2B987D4F8F0107C4879A3D3E9002315
:101E5000A1FB0001FFF7A4F920F07F470137784983
:101E6000B4F8EC20B4F8EA00764BA4F82A802944B0
:101E7000B1FBF5F1A4F8AA1042F2107101FB025275
:101E80002B44013A811DB2FBF5F2B3FBF5F3A4F844
:101E9000A6209AB28A42A085A4F8B22004DDC0F53B
:101EA0007F40FA30024492B294F8E630A4F8AE20B3
:101EB0001A0744BF0023A4F8A830022101201EF015
:101EC000F7FB002202218146012012F0FFFF5E494C
:101ED0004FF4DC72204612F089FF00F103085FFA2C
:101EE00088F85A4B009442460121002014F076FAFB
:101EF00030F002030CD0564A5649574840F6CB43BF
:101F000024F02CFD404080F311884FF0030002DFE5
:101F10000894069423690493484C504B0793504B04
:101F20000593A5FB04544FF6FE730393284640A384
:101F3000D3E900232146FFF733F9104619464FF441
:101F40007A720023FFF72CF939A3D3E9002302901A
:101F500021462846FFF724F93346CDE90070424672
:101F60000121002014F0B0F930F002030CD0384AFF
:101F70003849394840F6E54324F0F0FC404080F30E
:101F800011884FF0030002DFB9F1000F40F0F48632
:101F90006FF08B0085E6334812F0F2FE002838D04F
:101FA00094F81931013B84F8193103790222427106
:101FB00043F003030371C271D4F89C3194F81A21E1
:101FC000D4F8A0110272B3B194F83E21950712D44F
:101FD00094F89721D2070ED4D4F8A821934200F0A8
:101FE000008759B91A7902F00302032A01F09C8094
:101FF000C4F8A03104E0002900F07F84D4F8A431B3
:102000001A68026018600368C4F8A401002B00F08D
:102010000582B4F8AC0000287FF442AEB4F8A630D4
:10202000012B40F26584A4F8AC3039E6AFF30080B0
:102030008D49FD1A070000004C37002000CA9A3B6A
:10204000FF5962027FC3C901D0200020459B0100D7
:1020500068FC020084FD0200FCF60200ED9A01001B
:102060003DC60100E0370020E18D628E94F8C0305B
:102070000A442A4495B2DA07194600F17782B4F887
:10208000C220AD1A28043FF502AE94F8462094F819
:10209000478094F8BB00B4F8447084F8BC0013F097
:1020A0001C0F02F0070908F0070840F09B85B4F800
:1020B000426013F0E00F08D094F847205B0963F307
:1020C000020284F847204FF4A477D4F8E050002DA2
:1020D00000F0AF852868002800F0AB8594F8463002
:1020E00094F84720D0F804C0C4F8E0C08907C3F3CF
:1020F000020CC2F3020E03F0070302F0070202D43F
:10210000994500F08A86238DEB801C232B710023D8
:1021100085F81DC085F81EE02B77294616F01AFDBC
:10212000D4F8E050002D00F013862868002800F055
:102130000F86B4F842304268C4F8E020B3420AD3B4
:10214000B3F5A47F07D8B4F84430BB4203D3B3F54A
:10215000A47F40F2F187A4F84260A4F844702B7F7A
:10216000228DEA804FF0030C43F00303092185F828
:1021700004C069772B77B4F840302B84E38FAB84AD
:1021800015232946EB776F84EE8416F0E3FC16F0F6
:10219000EBFC7CE5CB4812F0F3FD00283FF477AD73
:1021A00094F8BB3084F8BC30012302794371D4F831
:1021B0009C3142F0030212210271C171D4F8A021B6
:1021C000002B00F0A38394F83E118D0700F19E834D
:1021D00094F89711C90700F19983D4F8A8118B429C
:1021E00000F06787002A00F0E087D4F8A4311A686D
:1021F000026018600368C4F8A401002B00F0B885E1
:10220000B4F8AA30A4F8AC3041E594F8CC3013F01F
:1022100003057FF43CADAB4812F0B2FD0646002842
:102220003FF435AD94F93930002B80F2FD8294F8FB
:102230005E30190700F10E8694F8CD50002D40F065
:10224000C58604F15F073B462A4604F1CE0104F23D
:1022500049101DF063FD1022394604F1800028F07A
:102260007DF8082204F1780104F1990028F076F84D
:1022700094F8773094F8982084F86F5043F0010375
:1022800084F8773094F85E3084F8705065F300027B
:10229000012143F0080384F8982084F85E30C4E9F3
:1022A000245584F8715084F8725084F8735084F87F
:1022B000745084F8755084F8765032797171D4F87E
:1022C0009C3142F0030205213271F171002B00F0C4
:1022D000268394F83E21900700F1218394F89721FA
:1022E000D10700F11C83D4F8A811D4F8A0218B42A7
:1022F00000F0F182002A00F07087D4F8A4311A6847
:1023000032601E603368C4F8A461002B00F065855C
:1023100094F8CC3043F0030384F8CC30B7E4628EF9
:10232000E18D94F8C0300A442A44DB0795B200F1ED
:10233000D180B4F8C620AD1A28043FF5A8AC94F8B3
:10234000BB3084F8BC3004F13405052204F1C1012E
:10235000284628F003F80521284612F0E7FE94F8F5
:102360003930012260F3050384F8393084F8B02154
:102370008DE4554A5549564840F2E14324F0EEFABF
:10238000404080F311884FF0030002DF7FE490F8B3
:10239000F92090F8F870BA4243D190F8112190F8E2
:1023A0001071BA4200F0C682D21BD0077FF56FAC25
:1023B00094F81231D90740F1B585980740F1AD8501
:1023C00016F0F6FB014600B394F8103184F8113191
:1023D000238DC38003230371037F43F0030303773B
:1023E000062343770C23C37794F8133180F8203009
:1023F000B4F81431A0F82130B4F81631A0F8233025
:10240000086816F0A7FB16F0AFFB94F8BBC094F871
:10241000BCE035E4204617F083FC52E4C4F8AC017C
:10242000F7E5D21BD1077FF532AC90F8BA1011F066
:10243000010700F0258416F0BBFB07460028E4D016
:1024400094F8F83084F8F930037F228DC28043F08D
:102450000303037709234377C377032303714146BB
:102460000822203027F085FFD4E94223110C87F899
:102470002020C2F3072287F821201A0C87F8243085
:1024800087F82210C3F30723090A87F82620120AC7
:1024900087F8231087F8253087F827203946AFE7DB
:1024A0004B1E042B01F2268101A151F823F000BF3D
:1024B00015270000352600008F1C00001B27000098
:1024C0008B270000E037002068FC020094F7020030
:1024D000FCF60200CB4812F053FC064600283FF4FD
:1024E000D6ABA28D94F8C010037906326FF30001C9
:1024F0002A4484F8C010A4F8C62043F0030308213E
:10250000012203714171C27104F1C1010522083039
:1025100027F024FFD4F89C31B4F8C620A6F80D208B
:10252000002B00F0328494F83E21970700F12D84AF
:1025300094F89721D50700F12884D4F8A811D4F88D
:10254000A0218B4200F03B86002A00F02787D4F8B8
:10255000A4311A6832601E603368C4F8A461002B8D
:102560007FF495ABC4F8AC61FFF791BBD4E91201DD
:10257000002212F073FC064600287FF488AB02208C
:1025800016F0F8FA804600283FF481AB9D4812F01F
:10259000F7FB074600283FF47AAB94F8C03066F3A7
:1025A0000003C3F3421646EA930616F0070684F8C2
:1025B000C030DBB240F0968594F8BB20A4F8C2602E
:1025C0009B0784F8BC2000F1C085334632467B72FD
:1025D00005233E727B717A811822D4F89C31D4F89D
:1025E000A011FA713A7942F003023A71002B00F01F
:1025F000278594F83E21960700F1228594F89721CB
:10260000D50700F11D85D4F8A821934200F0A286D9
:10261000002900F0DD86D4F8A4311A683A601F6002
:10262000C4F8A4713B68002B7FF431ABC4F8AC71E3
:10263000FFF72DBBDFF8D081012016F09BFA07468B
:1026400000283FF424AB6F4812F09AFB054600289F
:102650003FF41DAB6D4B1A68002A00F05B8416F046
:10266000A7FA3B68D4F8E0205A602B79C4F8E070F0
:1026700043F003032B710C236B710023EB7194F86F
:10268000F4302B72624AD4F8F030A2FB03239B0A89
:10269000A5F80930B4F8E830A5F80B30B4F8EA3002
:1026A000A5F80D30B4F8EC30A5F80F3094F8E6300A
:1026B000C4F8C860032262F3020384F8E630A3681A
:1026C000002B0ADAE068626823F0004390422CBFD6
:1026D0003118B118CB1AC4F8C8304E4B0122093555
:1026E000C4F8C45002211046C3E9024812F020FC8D
:1026F00000283FF4CCAA484A4849494840F6733379
:1027000024F02CF9404080F311884FF0030002DFE1
:10271000FFF7BDBADFF80C818EE7A38D94F8E600D1
:10272000D4F8C450D4F89C1106331A4493B26FF312
:102730000200A4F8C030A5F109022B81D4F8A03121
:1027400084F8E600002900F0CE8394F83E01870764
:1027500000F1C98394F89701C60700F1C483D4F847
:10276000A801814200F09E85002B00F06E86D4F80F
:10277000A431196845F8091C1A6055F8091CC4F8F9
:10278000A42100297FF483AA38E094F8BB1084F8D0
:10279000BC1094F8E4101D4AD4F8C45084F8E51035
:1027A000D4F89C3194F85C1184F85D11002111601B
:1027B000D4F8A011A5F10902002B00F0A18394F830
:1027C0003E01860700F19C8394F89701C00700F151
:1027D0009783D4F8A801834200F0EA85002900F02D
:1027E0002A86D4F8A431196845F8091C1A6055F8EE
:1027F000093CC4F8A421002B7FF449AAC4F8AC21F9
:10280000FFF745BAE0370020094000004C370020B0
:102810005917B7D11C07002068FC020078FB0200A2
:10282000FCF6020089CC010004F15F073B462A4612
:1028300004F1CE0104F249101DF070FA102239465D
:1028400004F1800027F08AFD082204F1780104F1E8
:10285000990027F083FD94F8771094F8982094F865
:102860005E3084F86F50C4E9245523F0180365F3F3
:10287000000142F0010284F8705084F8715084F82D
:10288000725084F8735084F8745084F8755084F84A
:10289000765043F0180384F8771084F898200121CB
:1028A00084F85E3032797171D4F89C3142F00302C1
:1028B00006213271F17193B394F83E2192072ED420
:1028C00094F89721D7072AD4D4F8A8219342D4F8B2
:1028D000A0217FF40FAD1968C4F8A811002A7FF475
:1028E0000CAD1A6832601E603368C4E968660CE596
:1028F0000133A4F8AC30FFF7D4B90360C4E9670032
:10290000C4F8A401002B7FF484AB87E5002A7FF490
:102910006CAC0360C4E96700C4F8A4016DE4D4F8AA
:10292000A021002A7FF4E9AC3360C4E96766C4F8EB
:10293000A461EAE490F85D7190F85C21974200F0A0
:102940003082C74F3A68002A00F0938390427FF4A8
:102950009EA990F85E2102F00F02082A00F2DB86A1
:1029600001A050F822F000BFD12A0000492A00003F
:10297000F9290000811C0000811C0000811C00005E
:10298000811C0000811C00008D290000E18D628EF9
:10299000D4F878010A442A4494F85E51D4F89C1182
:1029A00020F8022C042262F3030584F85E51A0F1A2
:1029B0001302D4F8A051002900F0ED839E0700F126
:1029C000EA8394F89731DB0700F1E583D4F8A83166
:1029D000994200F0F985002D00F04A86D4F8A43120
:1029E000196840F8131C1A60C4F8A42150F8133C6D
:1029F000002B7FF44CA901E79F073FF548A916F08B
:102A0000D7F8014600283FF400AD94F85E010B7F33
:102A1000032243F0030362F30300182784F85E01E6
:102A2000208D0A710B774F77B4F860310B84B4F8BE
:102A300062314B84B4F864318B84B4F86631CB8452
:102A40000F23C880CB77DBE494F85F31002B40F094
:102A5000DE8394F93920002AC0F2168594F85E21AD
:102A6000C4F8F030062060F3030294F8680184F89B
:102A70005E210125B4F8622184F8F450002800F0AA
:102A8000F784B2FBF0F313FB00F3B4F860019BB2E0
:102A9000984298BF1A46A4F8E82094F85E3194F85A
:102AA000E620B4F86401A4F8EA00C3F30013DB00E5
:102AB00022F00F0243F0020313430139B4F86621F8
:102AC000A4F8EC2084F8E63084F8E510FFF7DFB8CE
:102AD000644812F055F9024600283FF496AC037999
:102AE0003C6043F003030371182343710F23C37148
:102AF000B4F860310381B4F862314381B4F86431D1
:102B00008381B4F86631C38100230374C3740375F1
:102B10004FF0FF3343758375C37503764376837631
:102B2000C376037743778377B4F8AA30A4F8AC3040
:102B300094F85E31C4F87C61072161F3030384F8E3
:102B40005E31A368002B0ADAE768606823F000436F
:102B500087422CBFF1193118CB1AC4F87C311332DB
:102B6000414BC4F878210122022110469C6012F0EA
:102B7000DFF900283FF449AC3C4A3D4940F6F66392
:102B80003C4823F0EBFE404080F311884FF00300F7
:102B900002DF94F8BBC094F8BCE0FFF771B808FB03
:102BA000113340F2E24234499BB202FB03F3A3FB30
:102BB000010129A3D3E90023FEF7F2FA361AFFF741
:102BC00033B92A4A2D492B484FF4426323F0C6FEFD
:102BD000404080F311884FF0030002DFD8F8000076
:102BE000FFF7D2B8C3F3820060F3020284F84620F4
:102BF0004FF4A476FFF75DBAB4F82CC094457FF487
:102C0000D1A840F2E24C0CFB03FE42F2107C0CFB1C
:102C100001EC0CF1FF3CBCFBFEFCB4F8A6E01FFA93
:102C20008CFCE6457FF4BEA8012388F80430FFF74A
:102C3000C9B80E4A11490F4841F21A2323F08EFEFB
:102C4000404080F311884FF0030002DF286894F8B9
:102C5000C010FFF743BA00BF8D49FD1A07000000FE
:102C60004C370020E03700202C07002068FC0200D1
:102C700078FB0200FCF6020000CA9A3B48FD020005
:102C8000CD4812F07DF8804600283FF4BEAB94F8A2
:102C9000F930013B84F8F9300923437194F9393054
:102CA000002B037943F0030303714FF00802ACBF1C
:102CB00008230E23C3713946104427F05AFBD4E988
:102CC0004023110C88F80820C2F3072288F8092055
:102CD0001A0C88F80C3088F80A10C3F3072388F818
:102CE0000E20090A120A88F80B1088F80D3088F8AF
:102CF0000F20D4F89C31002B00F0848094F83E2102
:102D000092077FD494F89721D7077BD4D4F8A811E1
:102D1000D4F8A0218B4200F06A82002A00F06E8372
:102D2000D4F8A4311A68C8F80020C3F80080D8F895
:102D30000030C4F8A481002B00F0B881B4F8AA30A8
:102D400094F8BBC094F8BCE0A4F8AC30FEF798BF90
:102D50009A4A9B499B4841F2492323F0FFFD40409A
:102D600080F311884FF0030002DF2868FFF7E1B914
:102D7000C4F8AC01FFF744BA01221046022112F058
:102D8000A5F86FF08B00FEF78CBFD4F8A021002AC5
:102D90007FF4DDAB3360C4E96766C4F8A461FFF774
:102DA000DEBB90F8852190F884319A4255D016F018
:102DB000B7FFFFF72ABB814A8349824840F69C430C
:102DC00023F0CCFD404080F311884FF0030002DF78
:102DD0000027B4F8E880FFF742B8C4F8AC61FFF709
:102DE00097BA1A68C4F8A82100297FF407A91A68BD
:102DF000026018600368C4E96800002B7FF409A929
:102E0000FFF70CBBD4F8A021002A89D1C8F8003004
:102E1000C4E96788C4F8A4818DE790457FF473A95D
:102E200001232B71294615F095FED4F8E050002DB2
:102E300000F09D822868002800F099824268C4F85A
:102E4000E02001232B71294615F084FE15F08CFE3D
:102E5000FEF71DBF43F0100321E590F8943190F880
:102E600095219A423EF413AF90F8962102F00301A7
:102E7000032900F02A8200297EF409AF4E4811F0A0
:102E80007FFF014600283FF4C0AA94F8963194F8D9
:102E90009701012262F3010394F8982184F8963196
:102EA000C3F3820767F3020294F84670C0F3400050
:102EB00060F3C30784F84670C3F34217087967F3D9
:102EC000C50284F89821C3F38202032340F0030073
:102ED0004B71162308710A724F720022CB71204683
:102EE00016F028FC2AE7002B7FF441AC45F8091CBA
:102EF000C4E96722C4F8A42100297EF4C8AE7DE4A9
:102F000000297FF46EAC45F8093CC4E96722C4F897
:102F1000A42170E41C60FFF7A2BB284A2A4940F6AE
:102F2000A1632DE6244811F02BFF00283FF46DAA81
:102F300094F81131013B84F8113194F8123143F0C7
:102F4000010384F81231037943F00303037106236C
:102F500043710C23C37103726FF00E034372052398
:102F600083724FF0FF33C3720373D4F89C31002B8C
:102F700000F0AD8094F83E21920700F1A88094F80B
:102F80009721D70700F1A380D4F8A8219342D4F861
:102F9000A02100F02782002A00F03483D4F8A43165
:102FA0001A6802601860C4F8A4010368002B7FF45B
:102FB000C5AEC4F8AC01C1E6E037002068FC0200F1
:102FC00048FD0200FCF6020094F70200037943F08A
:102FD0000303037194F8BA30DA0745D5D4F8003109
:102FE0005B0741D51123C3710323037245727771C7
:102FF000D4F89C31002284F8CD205BB394F83E21B4
:10300000970727D494F89721D50723D4D4F8A8217B
:103010009342D4F8A02100F03981002A00F01F82E9
:10302000D4F8A4311A6832601E60C4F8A461336811
:10303000002B76D094F8BB3084F8BC30FEF727BE66
:1030400000297FF4E8AA3B60C4E96777C4F8A4715B
:10305000FFF7E8BAD4F8A021002AE1D13360C4E92F
:103060006766C4F8A461E2E70D23F37135720227A5
:10307000BDE790F85E2102F00F02082A00F24B83B0
:1030800001A050F822F000BFD12A0000492A000018
:10309000F92900008F1C00008F1C00008F1C00000D
:1030A0008F1C00008F1C00008D290000C4F8AC812B
:1030B00044E61968C4F8A811002A7FF496A81A6893
:1030C000026018600368C4E96800FFF796B8D4F896
:1030D000A021002A7FF462AF0360C4E96700C4F84E
:1030E000A40162E7A28D06322A44A4F8C22015F09A
:1030F0005FFDD8F80030D4F8E0205A60C4F8E080D2
:1031000015F056FD0368D4F8E010596094F8C0300B
:10311000B4F8C220C4F8E000C3F382065B09FFF7ED
:1031200056BAC4F8AC6185E7DA79032A3FF45FAE9A
:103130000A2A7EF45DAF5AE6012329462B7115F069
:1031400009FD15F011FDFEF7A2BD15F031FD238D2F
:10315000A8F806301C2388F81C6088F8043094F81E
:103160004630D8F80000C3F3020388F81D3094F805
:103170004730C3F3020388F81E30414615F0EAFCDD
:1031800015F0F2FC94F8C030B4F8C220C3F3820604
:103190005B09FFF71CBA002D7FF420AC40F8131C2C
:1031A000C4E96722C4F8A42120E41A7902F00302DA
:1031B000032A00F0EB80C4E96833FFF716B81968FA
:1031C000C4F8A811002A7FF4C2A91A6832601E60F0
:1031D0003368C4E96866FFF7C2B91A7902F00302DE
:1031E000032A00F01481C4E96833FFF786B8196830
:1031F000C4F8A811002A7FF493AD1A68C8F800201B
:10320000C3F80080D8F80030C4E9688893E59A488C
:1032100011F0B6FD00283FF4F8A8027942F003024D
:1032200002711122C271032242710F22027294F8BC
:103230005F214272D4F89C21002A00F0F18094F8BA
:103240003E11890700F1EC8094F89711CB0700F14B
:10325000E780D4F8A8118A42D4F8A01100F0F181D7
:10326000002900F0FD81D4F8A421116801601060EC
:10327000C4F8A4010268002A00F0EF8194F85C31E0
:1032800084F85D3100233B60FFF7BFB81968C4F8CC
:10329000A811002A7FF4C4AE1A6832601E60C4E927
:1032A0006866C4E60868C4F8A801002B7FF45FAA2A
:1032B0000B6845F8093C0A6055F8091CC4E9682206
:1032C00000297EF4E4ACFFF799BA170780F895312E
:1032D000C2F3820340F14F8190F89631022262F3EB
:1032E000840380F8963194F8963159064FEA5312C8
:1032F00040F13981022262F3471384F8963194F841
:10330000962194F8467094F8470094F89731C2F3E8
:10331000820107F0070700F00700C3F380038F4224
:1033200008BF00215B00B0EB521F43F001034FEADE
:10333000521208BF002243EA4213AEF1020C43EAE4
:103340008103062284F8BCC084F8C03084F8BD2014
:10335000FEF7B7BC1A68C4F8A82100297FF45BA95E
:103360001A683A601F60C4E96877FFF75BB9434A9F
:103370004349444841F22C2323F0F0FA404080F3C3
:1033800011884FF0030002DF286857E5DA79032A35
:103390003FF495AE0A2A7FF40EAF90E61A7902F058
:1033A0000302032A00F0D780C4E96833FFF7CFB8DF
:1033B0001868C4F8A80100297FF413AA196845F811
:1033C000091C1A6055F8093CC4E96822FFF713BAD2
:1033D0001A7902F00302032A00F01C81C4E9683361
:1033E000FFF719B91968C4F8A811002A7FF4D6ADFF
:1033F0001A6802601860C4E96800D6E51A7902F01C
:103400000302032A00F01581C4E9683388E4DA79FD
:10341000032A3FF466AA0A2A7FF4E5AEFFF761BAF1
:10342000D4F8A01100297FF41EAF0260C4E9670040
:10343000C4F8A4011EE7197901F00301032900F083
:10344000D180C4E96833FFF7CCB90B7903F00303EB
:10345000032B00F0CF80C4E96811FFF788B91A790F
:1034600002F00302032A00F00F81C4E96833D7E5B4
:10347000A4F8E820FFF711BBE037002068FC020049
:1034800048FD0200FCF60200A64811F079FC002875
:103490003EF4BBAF027942F003020271182242717E
:1034A0001022C271B4F860210281B4F86221428115
:1034B000B4F864218281B4F86621C28194F868214D
:1034C0000274B4F86A21A0F81120B4F86C21A0F8B5
:1034D0001320B4F86E21A0F81520B4F87021A0F8DC
:1034E0001720B4F87221A0F81920B4F87421A0F8BC
:1034F0001B20B4F87621A0F81D20D4F89C21002AC6
:1035000043D094F83E1189073FD494F89711CB0724
:103510003BD4D4F8A8118A42D4F8A01100F0C2809C
:10352000002900F0D280D4F8A42111680160106055
:10353000C4F8A4010268002A00F0A38094F85E3168
:1035400094F8BBC094F8BCE0052262F3030384F84E
:103550005E31FEF795BBDA79032A3FF436AE0A2ACC
:103560007FF422AF31E6D70719D5012262F3471362
:1035700084F89631C3E6D8071AD594F8963101221B
:1035800062F3840384F89631ADE6D4F8A0110029E3
:10359000C9D10260C4E96700C4F8A401CAE712F007
:1035A000040218BF042262F3471384F89631A6E69A
:1035B00013F0040300F0828094F89631042262F341
:1035C000840384F896318EE60B68C4F8A831002D88
:1035D0007FF404AA0B6840F8133C0A60C4E968222F
:1035E000FFF704BAD97903293FF4E8AE0A297FF43A
:1035F00028AFE3E6CB79032B3FF45AAE0A2B7FF4D6
:103600002AAF55E61A7902F00302032A0AD0C4E968
:103610006833C3E4DA79032A3FF4A2AE0A2A7FF4BE
:10362000DDAE9DE6DA79032A3FF4E2AE0A2AEED156
:10363000DEE6DA79032A3FF4E0AD0A2A7FF4E4AE4D
:10364000DBE51368C4F8A83100297FF40CAE1168DB
:1036500001601060C4E968000CE6C4F8AC010DE636
:10366000117901F00301032916D0C4E96822FAE5B3
:103670000B7903F00303032B2FD0C4E96811FFF784
:10368000ADB9C4F8AC0159E7DA79032A3FF404AEC6
:103690000A2A7FF4EAAEFFE5D1790329D7D00A29B7
:1036A000E3D1D4E71368C4F8A83100297FF43BAF15
:1036B000116801601060C4E968003BE794F8962146
:1036C00063F3840284F896210DE6117901F0030179
:1036D000032909D0C4E9682225E7CB79032B3FF4FD
:1036E00079AF0A2BC9D175E7D1790329E0D00A292E
:1036F000F0D1DDE70C4A0D490D4840F6C73323F001
:103700002DF9404080F311884FF0030002DF4FF0A5
:103710000008FEF791BF044A044940F6E173FFF741
:103720002FBA00BFE037002068FC020094F70200C7
:10373000FCF60200000000002DE9F04F8BB00F46B0
:103740000493BDF85830059006930020BDF8603012
:103750009DF85490BDF85CB00393164615F078FFC1
:10376000002800F0948109F0010A0546504612F045
:10377000F9FEBAF1000F6AD12B6A05F11C0207921B
:10378000002B6BD0D5F82080D8F8004098F82A009C
:10379000C0F3C00100F007001AF07AFFB8F8261055
:1037A00000F5E1700144B8F828000144C248C0A304
:1037B000D3E90023A1FB0001FDF7F2FC20F07F40DC
:1037C0002061304619F0F8FF95F833306FF341036C
:1037D00085F83330FF2385F8343066B3A9F102034E
:1037E000012B40F2588195F84430049A69F3420362
:1037F00085F8443095F8333062F3000385F83330B0
:103800001499062205F1240026F0A8FD039B2B86BF
:10381000059A00963B4605F11C000021FEF744F98D
:103820001BF0D4F8002840F057812846FEF768F9CD
:103830000BB0BDE8F08F1AF079FB0028CED01499B8
:10384000049832461AF0B4F885F83400C6E7062129
:1038500011F0E0FA00288FD11220E9E715F06EF997
:103860000790002800F06F8116F050FB04460028F6
:1038700000F08B81203011F06DFC04F11C08002851
:1038800040F05481032104F124001AF0C3FD069B8B
:10389000A06D63854FF6FF73A4F82CB02385002834
:1038A00000F0538104F1480104F14C0211F0BEFA1A
:1038B000636C824A1A4094F85E3023F0070384F860
:1038C0005E307F4B134363647E4B23644FF0000BE9
:1038D0001B23E387C4F858B0A4F85CB0A4F82EB05A
:1038E000C4F830B004F1340019F022FA94F83930F9
:1038F00060F30503012184F839300DF127001AF037
:1039000089FD9DF82720704BDDF80CC0A08D84F850
:103910003BB0A3FB0213DB0803EB4303A2EB8303DF
:10392000053384F83A3094F839300699A4F8A8B0F1
:1039300003F03F0384F8393094F83C30A4F8ACB07D
:1039400023F0030340F2E24284F83C305F4BA4F8DA
:10395000B4B002FB01F10A460B44B3FBF1F35C493E
:10396000A4F8B0B01144B1FBF2F1A4F8AA1042F2ED
:10397000107101FB0C210139B1FBF2F2A4F8A62071
:103980000622A4F8A420811D9AB28A42A4F8B2208B
:1039900002DD063A121A92B2B4F8BA30A4F8AE2098
:1039A0004FF0000B03F0F803A4F8BA30A4F8BCB051
:1039B000C4F8E0B0A4F8E4B0A4F8F8B014F000FC47
:1039C000079BC4F81C3194F81231A4F810B123F00D
:1039D000030384F8123194F85E30A4F818B123F090
:1039E000180384F85E3094F83E3184F81BB123F05C
:1039F000070384F83E3194F85E31A4F83CB16BF3D0
:103A0000451384F85E3194F88631A4F85CB16BF309
:103A1000C303002284F886310023C4E94001C4E9CD
:103A20004223A4F884B1A4F890B116F073FDA4F871
:103A3000B60016F075FDD4F89421264BA4F8B80012
:103A40001340C4F8943116F071FD94F8983160F386
:103A5000020384F8983116F06FFD94F89831C4F899
:103A60009CB160F3C50384F898313123C4E96ABB83
:103A7000C4E968BBC4F804B0C4F80CB0A360C5F8CE
:103A80002080C4E905BB84F800B0E4617EE60C2028
:103A90000BB0BDE8F08F002019F0A8FE95F8333088
:103AA00043F00203D14685F833309CE6AFF3008043
:103AB0008D49FD1A0700000000CA9A3B000080F8FB
:103AC000480111011B004801ABAAAAAA7FC3C90182
:103AD000FF5962020000FFF62C6AE36B63B12D4AC6
:103AE0002D492E484FF4976322F038FF404080F371
:103AF00011884FF0030002DF04F1300104F12C00C3
:103B000011F098F90646002831D02768E663D7F807
:103B10001C41F4B1204615F017F8384616F0FCF9B0
:103B2000002303202B620BB0BDE8F08F194A1C491B
:103B30001A48BF2322F012FF404080F311884FF053
:103B4000030002DF9EE6072072E604F15000A06544
:103B5000A8E6104A1349114840F2C14322F0FEFE84
:103B6000404080F311884FF0030002DFD2E7094A9A
:103B70000C490A4840F2BA4322F0F0FE404080F37C
:103B800011884FF0030002DFBFE7079814F0DCFF55
:103B900007204DE648FE02008CFE0200FCF6020003
:103BA00074FA0200C0FC02002DE9F04F80468FB08D
:103BB00004460F46154600F1240106220CA818F809
:103BC0001C6F26F0CBFB94F81C9018F0010FC9F382
:103BD000401BC6F3C016D94640F004810023A383DE
:103BE000B97C97F8118011F0010104F12B004FF01E
:103BF000060200F0E18004F11E0126F0AFFBB8F1EF
:103C0000FF0F04F1250304F11F0A00F0DF80524684
:103C1000404604F11E010B9319F0D4FA0B9B184691
:103C2000A37F02330CA9A377062226F097FB3B68FB
:103C3000D3F800A0EB8963862B8AA386BAF83030CC
:103C4000E3861AF015FF84F83800D5F80080404666
:103C500016F068F97E68A8812146E080206814F09B
:103C600079FFAB89F3801B2334683371B9F1000FFE
:103C700040F0C68086F81CB03146204614F06AFF3A
:103C800014F072FFD8F80430D8F8086095F82A00CC
:103C9000B5F80E90FC689E4238BF1E46C0F3C001C6
:103CA00040F2E24300F0070003FB09F91AF0F0FCD0
:103CB000203400220221241A012011F007F9504675
:103CC00015F09EFC821C564BCDF800A0D2B201210B
:103CD000002012F083FB30F002030CD0514A52490D
:103CE000524840F2C93322F039FE404080F3118837
:103CF0004FF0030002DF4FF0000A01221146534645
:103D0000CDF800A0504612F069FB404616F00AF9C3
:103D1000BB68CDF81880093B9E1B454B0793454B6C
:103D2000059340F2F933444F0893D8F81030A9FBBB
:103D30000798CDE903A3C51C37A3D3E90023484660
:103D40004146FDF72DFA104619464FF47A720023CA
:103D5000FDF726FA30A3D3E90023029041464846F6
:103D6000FDF71EFA2CA3D3E900230190A4FB070161
:103D7000FDF716FAEDB220F07F40009033462A4658
:103D80000121504612F0A0FA30F002030CD0254A6F
:103D90002549264840F2FA3322F0E0FD404080F306
:103DA00011884FF0030002DF01220221104611F0BA
:103DB0008DF80FB0BDE8F08F26F0DBFAB8F1FF0FF9
:103DC00004F1250304F11F0A7FF421AF18460622EF
:103DD000002126F0CEFAA6770CA95046062226F03E
:103DE000BDFA24E70F4A154910484FF4527322F0E8
:103DF000B5FD404080F311884FF0030002DFEDE68F
:103E00006B7F43F040036B77281D18F0DDFF012323
:103E1000E883337730E700BF8D49FD1A07000000C3
:103E200009C6010048FE020084FD0200FCF6020003
:103E30000DC601003DC6010000CA9A3B28F90200E8
:103E40002DE9F04F8FB01E4609931546FF230A1D3A
:103E5000DFF80481DFF804B1DFF804A1DFF8049192
:103E600008920021316004468DF82F3004930C91A4
:103E7000059106910DAF0CAE02230D93CDE901879C
:103E800000962B460DF12F022146002012F0E8FA91
:103E900002282DD00D9B002B30D19DF82F30FF2B09
:103EA0003CD0032BE8D1002016F044F80028E3D0E2
:103EB00090F93930002BDFDB049902690C9BFF2954
:103EC0000CD0069907921846049312F029FB059B23
:103ED000089A99188842049B079A22D8CDE90523AD
:103EE0009DF82F300493C7E72146002012F0FEFA18
:103EF0000D9B022BF8D00D9B002BCED073235A467E
:103F00005146484622F02AFD404080F311884FF088
:103F1000030002DF9DF82F30FF2BC2D1049BFF2B43
:103F200010D0DDE9053210481344A3FB000107223D
:103F300002FB031106A3D3E90023FDF731F9099B26
:103F4000803018600FB0BDE8F08F00BFAFF3008085
:103F500000CA9A3B00000000D9C90100D8FE020047
:103F60001CFF0200FCF602008D49FD1A0000000053
:103F700070B582B01C4601921546064601AA022081
:103F8000FFF75EFF23680BB30198431B1B021FD48E
:103F9000294612F0C5FA1A4A03460721A0FB02027D
:103FA00001FB032114A3D3E90023FDF7F9F82268EC
:103FB00002442260002A09DB40F2E24006FB00F0E6
:103FC000904203D2121A8242FCD8226002B070BD25
:103FD0000146284612F0A4FA094A03460721A0FB2D
:103FE000020201FB032104A3D3E90023FDF7D8F863
:103FF0002268121A2260DDE700CA9A3B0000000026
:104000008D49FD1A000000002DE9F041B0F86C1157
:1040100088B0044640F2E2434748002603FB01F122
:1040200005AD0623C5E901668DF80F30A1FB00013F
:104030003FA3D3E900230596FDF7B2F80DF10F0376
:1040400001950093B4F86231049004AA204601213E
:1040500018F0C4FC9DF80F8008F1FF3C5FFA8CFC5F
:104060000DF11603304604F5B67703EB4C0C04F55E
:10407000BC764FF6FF7E3A88B8F1000F0AD02B4687
:10408000724504D0198891424FF001001DD00233CF
:104090009C45F5D10237BE42EDD1D4F8C43048BBBF
:1040A000BDF8142040F2E24102FB01F1100AC4F80D
:1040B000F0101A70587094F8E630042262F302038C
:1040C00084F8E63008B0BDE8F081D4F8C41040F2BE
:1040D000E24302FB03F3100AC4F8F0300A704870A0
:1040E00094F8E630042262F3020384F8E63008B064
:1040F000BDE8F081032203F8042C13F8052C94F892
:10410000E610052542F00302112003F8020C03F823
:10411000052C65F302010F20202203F8010C1A7010
:1041200084F8E61008B0BDE8F08100BFAFF300806E
:104130008D49FD1A0700000000CA9A3B00000000EC
:1041400038B504461AF0D8FDA27DC2F3410301330D
:1041500003F00303032B34D063F34202A27503F18F
:1041600025001AF053FA63680BB32369FBB11CF006
:1041700043F9054612F0D2F9C11C00201CF00AF9DF
:104180001CF06CF91CF038F9294612F0C9F91249F3
:1041900003460722A0FB010102FB03110CA3D3E994
:1041A0000023FCF7FDFF23691B1A236138BD12F0C1
:1041B000B5F9C11C00201CF0EDF8BDE838401CF03A
:1041C0004DB96FF34202A2752520CAE7AFF3008014
:1041D00000CA9A3B000000008D49FD1A0000000053
:1041E0002DE9F04F87B004461BF0E8FEC0B250B98D
:1041F0001AF062FAB44821461BF0C2FD07B0BDE8D0
:10420000F04F1BF0B1BE1BF0F9FE05461CF014F890
:1042100083461CF01BF881461CF016FA06461CF07B
:10422000F7F982461BF0CCFFEDB280461BF0AEFFE3
:104230001AF042FA002DDDD0012014F0D1FD054620
:10424000002800F07D811BF0FF0BF6B240F06F817B
:10425000002E40F0CC80FF275A463B463146204690
:104260001AF078FF0028C5D02B7F626800218DF8F6
:1042700013105FFA88F803F00F01002A00F0D380D2
:10428000626892F82020900700F1CD800729B1D014
:10429000A27D120740F16281002940F0AE806B7F61
:1042A000252B00F22281042014F09AFD0028A1D0D1
:1042B0001CF0DCF8636A804643B9238C40F271221B
:1042C00002FB03F3B0FBF3F203FB120823681A6945
:1042D0007E4B0721A2FB030301FB023178A3D3E944
:1042E0000023FCF75DFFA0F24233434582D31BF06D
:1042F0003FFF3846636819F079FCE37D9B078146F0
:1043000040F1CF81002800F0CC8183464FF00108B6
:104310001BF082FE2B7F05AA039205F11E020146C7
:104320008246C3F38013009220460022CDE9018B20
:104330001AF02AFF50461BF0FDFD1BF035FE002849
:1043400040F0C581624821461BF01AFD6168A37DDB
:1043500091F8202043F0800342F0010281F82020F0
:10436000A37514F05BFD1623804603714FF6FF73AF
:104370002D7FC380514624221C3025F0EFFF98F892
:104380001C30C8F80840C5F3401565F3451388F89C
:104390001C301CF031F80021C8F810000120059DE8
:1043A0001BF0D6FD002E08BFFF2788F81970E37DAB
:1043B0002D1A13F00203C8F8145003D0B9F100030A
:1043C00018BF012398F81A2063F3000288F81A2016
:1043D00014F024FD03464146D8F80000C8F80C301C
:1043E00014F032FD14F040FD07B0BDE8F08F5FFA25
:1043F0008AF019F089FC07462EE7012915D16B7F59
:104400000C2B7FF4F7AE2A7F009700230193D2098B
:1044100005F1240320461AF0EFFD00287FF443AF96
:10442000297F01F00F01002954D0062952D002291A
:1044300000F0A780012958D16B7F0C2B7FF4DAAEF6
:104440002A7F00970DF113030193D20905F124038C
:10445000002120461AF0D0FD002846D06B7F002BAB
:104460003FF4C8AE63682BB12B7F03F00F03072B1B
:104470007FF4C0AE03209DF8139014F0B1FC054604
:1044800000283FF4B7AE14F0C9FC4FF6FF73EB8081
:1044900005232B71B8F1000F6FD17F20AB7E2876FA
:1044A000002E08BFFF2769F341032868AB76294631
:1044B0006F7614F0C9FC14F0D7FC9BE6AFF30080D4
:1044C00000CA9A3B00000000B1ED01008D49FD1AC1
:1044D000A9EF01006B7F252B07D8A27D920602D59C
:1044E0006268002A4FD0252BB9D92B7F03F00F0328
:1044F000042B7FF47FAE6B7F252B3FF67BAEA37D35
:10450000D9077FF577AE1BF087FD2B7F0278C3F3C9
:104510008013B3EBD21F7FF46DAE0830062205F195
:104520001E0125F0F2FE00287FF464AE96E7A07D20
:104530005FFA89F1C0F3C00019F07CFB07468BE6F7
:10454000714A7249724840F2C32322F007FA404090
:1045500080F311884FF0030002DF74E6FF2F8DF81F
:104560001470C3F3801978D0237EDB1BB3FA83F376
:104570005B09002B7FF490AE55E71BF013FEC0B231
:104580008CE76B7FAFE796201BF076FE00201BF0D8
:1045900047FD032014F024FC814600283FF42AAE96
:1045A00014F03CFC4FF6FF73A9F80630052389F898
:1045B0000430B8F1000F70D17F23002E89F8183035
:1045C00014BF3B46FF2389F8193099F81A30D9F8FF
:1045D00000006FF3410389F81A30494614F034FCA7
:1045E00014F042FC1BF018FD2B7F0646C3F380132A
:1045F0003278DB0102F0700243F00303134333709F
:104600000C233846737019F0F1FAE37D9F074FD5FC
:1046100000284DD033780146304643F0400300F87F
:10462000023B062225F09AFE062205F11E0106F144
:10463000080025F093FE30461BF07CFC1BF0B4FC18
:10464000002852D11BF00AFFA37D324843F001033A
:10465000A37521461BF094FBC6E605F11E0A05AAC8
:104660005146484619F006FC00283FF4D9AEE37DD8
:1046700003F001034B457FF4D3AE5146062204F10B
:10468000080025F042FE297FB0FA80F35B0901F0B3
:104690000F01002B7FF400AEC5E61BF083FDC3B213
:1046A0008BE794F8168004F1190BC8F380182FE6F5
:1046B000A37D3278C3F38013304663F3861200F88B
:1046C000022B04F11901062225F048FEACE70E4A40
:1046D00011490F4840F2914322F040F9404080F3E5
:1046E00011884FF0030002DF2CE6074A0A49084808
:1046F00040F2165322F032F9404080F311884FF017
:10470000030002DF9EE700BFF40203004003030042
:10471000FCF60200C5ED01004803030001461846FF
:10472000044B1B682BB9012A03D80A46024909F039
:1047300073BB704718260020CD4B000030B5164DD6
:104740000FCD8DB001AC0FC42B681449236001A8B4
:104750000AF0A6FA034612487BB1026852070AD053
:10476000104ACDE90A2303230093099309AA4FF4C1
:10477000C25121F0F2FE0DB030BD036803F0070313
:10478000022BF8D9084B0A9302230093099309AA34
:104790004FF48651EDE700BF30E502001D470000F1
:1047A000BC090020A8080300CB0803002DE9F04154
:1047B000804688B014460E46E1B9394B1B887BB958
:1047C0003848026812F0060F0AD0374A4FF4C45135
:1047D000CDE90623032305AA0193059321F0BDFE2D
:1047E00014220021204625F0C4FD0025284608B0EB
:1047F000BDE8F081157C002D32D12C49106825F0E0
:1048000075FE68BB274F3B6803F00703022B0AD9EC
:10481000274B069305AA02234FF48651384601938D
:10482000059321F09AFE00232360338A0326013387
:1048300023812674214640460DF0BCFC0028D5D0CB
:104840003B6813F0060FD1D01A4B0196CDE9063024
:1048500005AA144805964FF4C45121F07EFEC5E721
:10486000237C032B01D00125C0E7F468124920689E
:1048700025F03CFE0028F6D10A48036803F0070340
:10488000022B09D90D4B069305AA02234FF486513A
:104890000193059321F061FE014BA2881A80E2E7A3
:1048A0003C4A0020BC090020EA08030076090020E9
:1048B00003090300160903008709002030090300DB
:1048C00010B5144688B071B10B4803685B070AD075
:1048D0000A4B05AACDE9063103234FF4C2510193D7
:1048E000059321F03AFE10220021204608B0BDE8D1
:1048F000104025F03EBD00BFBC0900203A0903006E
:1049000038B50C46BDF81000E5681C46C3180C2BE2
:10491000114608DC2246284425F020FD034820F0FB
:10492000E9FD204638BD6FF00604FAE7380C002098
:1049300070B503788AB004460E4607AD032B20D825
:10494000DFE803F002191B1D1149284625F086FCFB
:1049500063780493A3780393E37802932379019314
:10496000637900930B4AA37905951E21304622F006
:1049700002F80AB070BD0849E7E70849E5E70849C9
:10498000E3E7084A0A21284621F0F5FFE0E700BFE7
:104990005009030072090300570903005E09030070
:1049A00068090300D944030070B5134C236883429F
:1049B0008CB00D461DD104AE26F0D8F83146FFF775
:1049C000B7FF0E490B6813F0060F09D00C4B01938B
:1049D0000023CDE9026500930222184621F0C0FDB4
:1049E000206826F02AF8074A002323601370FFF797
:1049F000A5FE0CB070BD00BF18260020BC09002029
:104A0000950903007A4A0020F0B595B00CAF0C462A
:104A1000054626F0ABF83946FFF78AFF2F4EB4B1B2
:104A20002F490B685A0709D02E4B01930023CDE97B
:104A3000027400930122184621F092FD306825F09F
:104A4000FCFF00233360FFF779FE15B0F0BD33683B
:104A50009D42FAD1244B224D01221A702B6803F09B
:104A60000703022B19D9214B0297CDE900430322FA
:104A700023462946204621F073FD2B6803F00703E7
:104A8000022B0AD91A4B0A9309AA02234FF4865122
:104A900028460593099321F060FD1649164B0B60DB
:104AA000164B4B6001230B814FF6FF73CB813068AF
:104AB00000230B740DF07EFB0028C6D02B685B072B
:104AC000C3D00F4B09AACDE90A304FF4C2510323DA
:104AD00003480593099321F040FDB6E7182600200E
:104AE000BC090020B70903007A4A0020D509030059
:104AF000E40903001C26002076090020AD470000D1
:104B00000E0A030070B52B4D2B6803F00703022B30
:104B10008EB006460AD9284B0C930BAA02234FF4F9
:104B20008651284604930B9321F017FD0AF038F9BB
:104B300004460A2021F022FD84B12B685A070BD0CD
:104B40001E4B1C48CDE90C340BAA03234FF4C25171
:104B500004930B9321F001FD012029E01823ADF807
:104B600008302823ADF80A304FF4C873ADF80E3082
:104B7000134BADF80C400FCB04AC84E80F00114B85
:104B800002AA214630460AF0A1FF88B12B685B07D4
:104B90000BD00D4B0BAACDE90C304FF4C2510323BF
:104BA000044801930B9321F0D8FCFFF7C7FD0020C8
:104BB0000EB070BDBC090020270A0300510A030093
:104BC00044E50200182600206F0A03000346F0B4F3
:104BD0001A78072A084613D100225D780A4914463C
:104BE000A54204DC102A0BD1F0BCFFF78BBF5F6835
:104BF00031F8026B3F5DB74208BF01320134EFE785
:104C00000120F0BC704700BFAC0800201149124BD6
:104C100000B58B600C238B81104B0B60104B1B88F5
:104C20008B80104B89B018680DF0ACFE034670B154
:104C30000D48026852070AD00C4A4FF4C251CDE920
:104C40000623032305AA0193059321F086FC09B0EE
:104C50005DF804FB302600204A4A0020C1480000CD
:104C60003C4A002018260020BC0900208C0A0300C2
:104C700000B5002089B009F059F8174B00221A60DE
:104C80000346164883B1026852070AD0144A4FF40B
:104C9000C251CDE90623032305AA0193059321F010
:104CA0005CFC09B05DF804FB036803F00703022B0A
:104CB00009D90C4B069305AA02234FF486510193A0
:104CC000059321F04AFC08480AF06EFE09B05DF831
:104CD00004EBFFF733BD00BF18260020BC090020FD
:104CE000A60A0300C60A0300B00100201D4B5A8823
:104CF000013A092A34D8DFE802F005090D11151927
:104D00001D21292D9A88184B1A7070479A88164BC6
:104D10005A7070479A88144B9A7070479A88124B51
:104D2000DA7070479A88104B1A7170479A880E4B48
:104D30005A7170479A880C4B9A7170470A4A998841
:104D4000D171D9881B891172537270479A88064BAA
:104D50009A7270479B88044A003B18BF0123D372A4
:104D6000704700BF3E4A00207B4A00201E4B5B88F4
:104D7000013B092B36D8DFE803F0050A0E12161A9C
:104D80001E22292D194B1A48197821F0E7BD174B1F
:104D900018485978F9E7154B17489978F5E7134BF8
:104DA0001648D978F1E7114B15481979EDE70F4B03
:104DB00014485979E9E70D4B13489979E5E70B4910
:104DC00012484B7A0A7AC97921F0C8BD074B1048BE
:104DD000997ADAE7054BDB7A13B10E4821F0BEBDB4
:104DE0000D48FBE7704700BF3E4A00207B4A002089
:104DF000E10A0300000B03001C0B0300390B030046
:104E0000640B0300800B03009C0B0300B80B030032
:104E1000D70B0300F70B0300130C03002DE9F04F31
:104E20001F4D204C204E83B000AF4FF0FF334FF0AA
:104E3000FF32284620F084FB03460028F5D1226883
:104E4000520724D5194ADFF868B05189B2F800A09A
:104E5000B2F80290B2F804E0B2F806C01089E84651
:104E60008CB06A46C2E9079EC2F810B0DFF844B0C1
:104E7000D1620921C2E905BAC2E909C0796042F8E4
:104E80000C1F4FF49241204622F05AFDC546FFF711
:104E90002DFF3378002BC8D1FFF768FFC5E700BFAF
:104EA000380C0020C0090020874A00203E4A00201C
:104EB000330C0300C40C0300F0B51B4D1B4E1C4CFF
:104EC0001C4F012389B02B7033789BB1E37A069392
:104ED000A37A0593E3790493A37903936379029307
:104EE00023790193E37800936278A3782178384698
:104EF00021F034FD2878A8B14FF47A73584300218B
:104F0000C90341EA504140F2E733C003C0184FF4EF
:104F10007A724FF0000341F10001FCF741F920F0F3
:104F2000CDFFD1E70146EBE798090020874A002032
:104F30007B4A0020600C030037B50020019005F08B
:104F40000BF80446F0B9114D019B73B1104821F0E4
:104F500005FD104821F002FD0F4821F0FFFC0F482D
:104F600021F0FCFC204603B030BDAB681B6D1BB1CB
:104F700001AA042128469847002140F6CD4020F0A0
:104F80009DFFE1E74FF0FF34ECE700BF3CE002009B
:104F9000D40C0300FE0C0300D50C0300270D030006
:104FA00038B5054628F011FE4FF47A72A0FB024393
:104FB00002FB0131E40B44EA41404FF47A720023D2
:104FC000C90BFCF79DF8044A03460821284622F045
:104FD000B2FE002038BD00BF730D030037B5054693
:104FE00028F0F3FD4FF47A73A0FB034003FB0101AB
:104FF000E40B44EA41404FF47A720023C90BFCF7FA
:105000007FF83C2490FBF4F104FB110091FBF4F3D6
:1050100004FB1311019000912846034A082122F055
:105020008AFE002003B030BD670D030013B5506841
:1050300024F0E4FF084BC2B200241A700C2123466E
:10504000CDE90044012000F027FBFFF7DFFD00F071
:1050500053FB204602B010BD9809002013B5012271
:10506000002423460D211046CDE9004400F014FB36
:10507000FFF7CCFD00F040FB024B012220461A70E6
:1050800002B010BD874A002013B5002423462246F3
:105090000D21CDE90044012000F0FEFAFFF7B6FD36
:1050A00000F02AFB024B20461C7002B010BD00BF6E
:1050B000874A002008B5074821F0A6FB30B1BDE8BB
:1050C000084041F20162062121F076BB4FF0FF302B
:1050D00008BD00BF8C0D030008B5074821F094FB04
:1050E00030B1BDE8084041F20162082121F064BB03
:1050F0004FF0FF3008BD00BF8C0D030008B5074816
:1051000021F082FB30B1BDE8084041F20162092183
:1051100021F052BB4FF0FF3008BD00BF930D0300DC
:1051200008B5074821F070FB30B1BDE8084041F2F6
:1051300001620C2121F040BB4FF0FF3008BD00BFE1
:105140008C0D030013B500230193032822D8DFE858
:1051500000F002233B53344821F056FB40F2011289
:105160000446062121F028FB204601A921F051FB2D
:10517000019B580608D441F601220621204621F061
:105180001BFB012002B010BD41F201620621204646
:1051900021F012FB0020F5E7234821F035FB40F217
:1051A00001120446082121F007FB01A9204621F045
:1051B00030FB019BD90503D441F601220821DDE72C
:1051C00041F201620821E2E7184821F01DFB40F29C
:1051D00001120446092121F0EFFA01A9204621F02D
:1051E00018FB019B9A0503D441F601220921C5E76A
:1051F00041F201620921CAE70B4821F005FB40F2A8
:10520000011204460C2121F0D7FA01A9204621F011
:1052100000FB019BDB0403D441F601220C21ADE726
:1052200041F201620C21B2E78C0D0300930D0300E3
:1052300010B51A4888B021F0E7FA044648B30120B7
:10524000FFF780FF03461648ABB1036813F0060F63
:1052500009D0144B069302230193059305AA4FF43A
:10526000845121F0D3FA01220821204608B0BDE87C
:10527000104021F0B6BA036803F00703022BF2D9FD
:10528000094B069302230193059305AA4FF4865117
:10529000E7E76FF0010008B010BD00BF8C0D030000
:1052A0006C0A00209A0D0300AA0D030010B51A48DD
:1052B00088B021F0A9FA044648B30120FFF742FF65
:1052C00003461648B3B1036803F00703022B09D95C
:1052D000134B069302230193059305AA4FF48651BD
:1052E00021F094FA00220821204608B0BDE81040C1
:1052F00021F077BA036813F0060FF3D0094B069339
:1053000002230193059305AA4FF48451E8E76FF057
:10531000010008B010BD00BF8C0D03006C0A002016
:10532000B50D0300C10D030010B5174888B021F07A
:105330006BFA044618B30120FFF704FF0346134835
:10534000B3B1036803F00703022B09D9104B06938E
:1053500005AA02234FF486510193059321F056FAD2
:105360004FF48071204608B0BDE8104021F049BAE2
:10537000036803F00703022BF2D9064BE7E76FF04F
:10538000010008B010BD00BF8C0D03006C0A0020A6
:10539000B50D0300AA0D030010B51A4888B021F01E
:1053A00033FA044648B30220FFF7CCFE0346164802
:1053B000ABB1036813F0060F09D0144B0693022318
:1053C0000193059305AA4FF4845121F01FFA01229D
:1053D0000921204608B0BDE8104021F002BA036858
:1053E00003F00703022BF2D9094B06930223019322
:1053F000059305AA4FF48651E7E76FF0010008B066
:1054000010BD00BF930D03006C0A0020D50D0300F2
:10541000E50D030010B51A4888B021F0F5F90446EF
:1054200048B30220FFF78EFE03461648B3B1036867
:1054300003F00703022B09D9134B069302230193B0
:10544000059305AA4FF4865121F0E0F900220921C5
:10545000204608B0BDE8104021F0C3B9036813F03E
:10546000060FF3D0094B069302230193059305AA77
:105470004FF48451E8E76FF0010008B010BD00BFA1
:10548000930D03006C0A0020F00D0300FC0D0300D7
:1054900010B5174888B021F0B7F9044618B30220B8
:1054A000FFF750FE03461348B3B1036803F0070348
:1054B000022B09D9104B069305AA02234FF48651FB
:1054C0000193059321F0A2F94FF40071204608B032
:1054D000BDE8104021F095B9036803F00703022BE3
:1054E000F2D9064BE7E76FF0010008B010BD00BF2E
:1054F000930D03006C0A0020F00D0300E50D03007E
:1055000010B51A4888B021F07FF9044648B303204B
:10551000FFF718FE03461648ABB1036813F0060FF9
:1055200009D0144B069302230193059305AA4FF467
:10553000845121F06BF901220C21204608B0BDE80E
:10554000104021F04EB9036803F00703022BF2D993
:10555000094B069302230193059305AA4FF4865144
:10556000E7E76FF0010008B010BD00BF8C0D03002D
:105570006C0A0020100E0300200E030010B51A481C
:1055800088B021F041F9044648B30320FFF7DAFD63
:1055900003461648B3B1036803F00703022B09D989
:1055A000134B069302230193059305AA4FF48651EA
:1055B00021F02CF900220C21204608B0BDE8104053
:1055C00021F00FB9036813F0060FF3D0094B0693CF
:1055D00002230193059305AA4FF48451E8E76FF085
:1055E000010008B010BD00BF8C0D03006C0A002044
:1055F0002B0E0300370E030010B5174888B021F0BA
:1056000003F9044618B30320FFF79CFD0346134833
:10561000B3B1036803F00703022B09D9104B0693BB
:1056200005AA02234FF486510193059321F0EEF869
:105630004FF48051204608B0BDE8104021F0E1B899
:10564000036803F00703022BF2D9064BE7E76FF07C
:10565000010008B010BD00BF8C0D03006C0A0020D3
:105660002B0E0300200E030000B5094803685B07FA
:1056700089B009D0074B069305AA02234FF4825143
:105680000193059321F0C2F809B05DF804FB00BF57
:105690006C0A00204B0E0300F8B515460446BDF811
:1056A00018200E4628461946BDF81C3021F0BFF8D8
:1056B000012C03D0022C0FD00020F8BD40F42A4763
:1056C0000B4C47F01007062827806680A58009D973
:1056D00063812281E180EFE740F42A47054C47F0DF
:1056E0002007F0E70428F4D80228E5D9F2E700BF44
:1056F0004A4A00203E4A0020034B00221A805A806A
:105700009A80DA801A8170474A4A0020054B1A783D
:1057100022B1002211461046FFF7B6BC11461046D2
:10572000FFF79CBC874A002070B5234C204627F029
:105730002BFE28B921682148BDE8704021F00EB940
:105740002669A568336843F04003336006212B685F
:1057500040F2111220469847014630B1226818489D
:105760000623BDE8704021F0F9B83368AE6913F044
:10577000400F4FF006010CBF4FF480234FF400336D
:105780004FF4A0322046B0472668014618B10D48B4
:1057900006233246E5E70C490C4B4B6040238B60F7
:1057A000EB6913B101222046984731460848BDE80D
:1057B0007040062221F0D2B80CE002006A0E03000D
:1057C000900E0300B90E0300402600200D57000084
:1057D000EF0E03002DE9F04F05468BB0184615F08B
:1057E0000303DDF8508003920E46019340F0F581EB
:1057F0002C1D002D40F0F48101F00706341DC6F188
:1058000008064FF0000A0427411ECDF808A0CDF885
:1058100000A05246B94605B12060039B03F0010E7B
:10582000CE4B9842C0F02A81CD4B984280F0268121
:10583000BEF1000F00F03C814FF0010CA4EB050B12
:10584000BEF1000F00F01D81BBF5007FC0F0198193
:105850006FF01500F5E032B9252B40F02C810122C4
:105860000427B94627E12B2B24D81F2B01D800226F
:1058700021E1A3F120000B28F9D80FF2080C5CF805
:1058800020F000BFB75A00006F5800006F580000AA
:10589000B75A00006F5800006F5800006F580000A2
:1058A0006F5800006F5800006F5800005B5A0000EE
:1058B000B75A0000A3F12D005FFA80FCBCF14D0F38
:1058C000D5D84D28D3D80FF2080C5CF820F000BFD3
:1058D000B75A0000B75A00006F580000B75A0000CE
:1058E000B75A0000B75A0000B75A0000B75A000074
:1058F000B75A0000B75A0000B75A0000B75A000064
:10590000B75A00006F5800006F5800006F58000031
:105910006F5800006F5800006F5800006F5800006B
:10592000235A00006F5800006F5800006F580000A5
:10593000235A0000235A0000235A00006F58000029
:105940006F5800006F5800006F580000B75A0000F1
:105950006F5800006F5800006F5800006F5800002B
:105960006F5800006F5800006F5800006F5800001B
:105970006F5800006F5800006F580000095A00006F
:105980006F5800006F5800006F5800006F580000FB
:105990006F5800006F5800006F5800006F580000EB
:1059A000235A00006F580000095A0000095A0000ED
:1059B000235A0000235A0000235A0000B75A00005F
:1059C000095A0000515A00006F580000B75A0000F1
:1059D0006F580000555A0000095A0000555A00003F
:1059E0006F5800006F580000555A000061580000C1
:1059F000095A00006F5800006F580000095A000053
:105A00006F5800006158000011F8012C6C2A23D156
:105A100011F8022C6C2A4FF000022DD00427B94651
:105A20001BE008F1070828F007080734F8E802230C
:105A300024F0070455B10EEB0400B04204D96FF016
:105A40001B000BB0BDE8F08FC4E90023083400222E
:105A5000082706E70022E1E70022013C3C447842A7
:105A6000044025B1A9EB05002044B042E7D8732BD0
:105A700043D158F8040BCEE60827D0E74FF0000CCE
:105A8000DCE6009B0F2B3FF6E3AE45B3DDF800E00C
:105A90000AA8CBF387037044BCF1000F19D063F060
:105AA0007F0300F8103C0AF1010A009B01330093C8
:105AB0000434C5F1080E11F8013F002B7FF4CBAE82
:105AC000601BB0F5806FBFF4C3AE9DBB083E304491
:105AD000B7E700F8103C029B01330293E5E7BCF105
:105AE000000F01D00136E0E7CDE9041224F0E0FB1D
:105AF0000236DDE904120644D7E7B9F1040F08D1F4
:105B000008F1040015B1D8F8003023600434804651
:105B1000D1E7B9F1080F7FF49BAE08F1070323F03A
:105B2000070303F108081DB1D3E900BCC4E900BCB8
:105B30000834C0E7029A2B60800828706A7085F8E4
:105B400002A0BAF1000F05D006A9C5F10100009A24
:105B50009A4207D1C5F1010939E000BF4CDF0200CC
:105B60005C4A030011F8012B170607D52718B74226
:105B700002F07F023FF663AF04F8012B0133E6E742
:105B8000019B06AA12F80380BAF1000F02D018F0A8
:105B9000800F19D10FFA88F2002355F8221045F82A
:105BA00022300846029124F083FB04EB0902471CD3
:105BB0003A44B2423FF643AF04F8018B02992046C3
:105BC0003A4624F0CBFB3C44019B01330193DDE9D1
:105BD00000239A42D4D1601B33E76FF00D0030E709
:105BE00007293FF60EAE2AE730B585B0CDE90101B1
:105BF0000446002501A90548039500F0E9F8DDE910
:105C000002309842B8BF255405B030BD3769020054
:105C10002DE9F84FB0F8189019F00808044693469B
:105C20000DD001290CBF49F0100949F02009A0F856
:105C300018908BF31188BFF36F8FBDE8F88F09F0D0
:105C40000709022907D1204620F0BCFE0028F0D029
:105C50000128238B4ED16769218B002F15DA256827
:105C600021F00701C4E9008841F0010121830026E9
:105C7000218B01F0070ACA4502D0A368002B5AD134
:105C80000DB9002E71D0002356E001F007035A1F12
:105C9000012A1ED821F00701062B256889B2C4E924
:105CA00000880AD13DB1638B2A46126801339BB24A
:105CB000002AFAD1638341F002012183204620F0BB
:105CC00081FE06460028D3D0238B43F02003238394
:105CD000CDE7042B0CD121F0070189B221832046A6
:105CE00020F070FE05460028C1D041F0200121833C
:105CF0000025BCE7032809D1226923F007031668B1
:105D000043F00603238300252F46B1E7042806D17C
:105D1000226923F00703566843F00403F2E70528DD
:105D200006D1226923F00703966843F00503E9E7EB
:105D300000252E46E8E7012341F0080121838BF37B
:105D40001188BFF36F8FFBB985BB16B11F49204681
:105D5000B0474FF02003EFF3118B83F31288BFF3AA
:105D60006F8F238B23F008032383238BDA0625D53B
:105D700023F0100323830121B4F8189009F00709D8
:105D800000297FF45EAF54E7A1680029DCD0D1F888
:105D90000090D1F804B03B4652462046D847B9F1AE
:105DA000000FD1D04946D9F80090F2E729463B468A
:105DB000524620462D6820F021FEC5E713F0200151
:105DC0001EBF23F0200323830221D5E7296A0200A6
:105DD0002DE9F04F81469BB08A4615461C460026A9
:105DE000287810B9304600F0EEBD6B1C25280293D0
:105DF00006D05146C8470028C0F2E58501364CE27E
:105E0000182200210CA824F0B4FA6B78252B7CD042
:105E10000022681C9646904694461746014610F8A4
:105E2000013B2B2B00F0A08000F29780202B00F08C
:105E30009E80232B00F09E802FB19DF8380040F00B
:105E400004008DF83800BCF1000F05D09DF8380033
:105E500040F008008DF83800B8F1000F05D09DF82B
:105E6000380040F010008DF83800BEF1000F05D06A
:105E70009DF8380040F020008DF838002AB19DF8D8
:105E8000382042F040028DF838209DF8382002F08A
:105E90004400442803D16FF386128DF838209DF812
:105EA00038202A2B42F080028DF838207ED19DF8D0
:105EB000392042F001024B1C8DF839201A782E2A25
:105EC0009DF839200CBF0121002161F341028DF8BA
:105ED000392077D15A782A2A6DD0013300214FF02A
:105EE0000A0C184610F8012BA2F13007092F40F2D6
:105EF000AB809DF838201091C2F3400040EAD17188
:105F000061F341028DF838205CE0AA1C02928DF802
:105F10003B309DF83930DF0740F1738154F804BB02
:105F2000BBF1000F07DA9DF8382042F004028DF82B
:105F30003820CBF1000B580740F16C8154F8048BEA
:105F4000B8F1000F80F26B819DF839306FF3410397
:105F50008DF839304FF0FF3861E12D2B0DD0302B0B
:105F60007FF46AAF012259E74FF0010C56E74FF07A
:105F7000010853E74FF0010E50E701274EE70CFBF5
:105F80000272303A0346184610F8017BA7F1300E32
:105F9000BEF1090FF3D9994290D09DF838100F92B5
:105FA000D20F62F341018DF8381087E70B460022CB
:105FB0004FF00A0CE7E79DF8392042F004028DF813
:105FC00039200233194611F8012B6C2A5CD040D8D5
:105FD000682A46D06A2A61D04C2A67D019460B46F7
:105FE00013F8012B0293782A8DF83B2000F2DF8012
:105FF000572A68D8412A04D0A2F14503022B00F2A7
:10600000D6809DF83A3002F0DF020421A2F1410867
:1060100061F30203D8F100029DF839108DF83A308F
:1060200042EB080262F3C7110A068DF83910CBB2B1
:1060300000F1E58003F07802182A40F0B5806FF394
:10604000C6038DF839309CE00CFB01213039034642
:1060500047E7742A26D07A2AC0D19DF83930062223
:106060000DE05A78682A9DF8392006D1012161F3A4
:10607000C6028DF83920991CB1E71346022262F35B
:10608000C6038DF83930AAE75A786C2A9DF8392072
:1060900001D10421EBE713460322F0E79DF83930E4
:1060A0000522ECE79DF839300722E8E7BDF83830E3
:1060B00023F4F04323F0020343F4804343F002034C
:1060C000ADF838308BE7A2F15803202B6FD801A12F
:1060D00051F823F087610000AF610000AF6100005C
:1060E000AF610000AF610000AF610000AF61000070
:1060F000AF610000AF61000003600000AF6100000D
:106100008761000059610000036000000360000027
:1061100003600000AF61000059610000AF61000042
:10612000AF610000AF610000AF610000BD61000021
:1061300087610000E1610000AF610000AF61000015
:10614000E1610000AF61000087610000AF61000005
:10615000AF610000876100009DF83A30012161F3D2
:1061600002038DF83A309DF8393003F07803402B64
:1061700002BF9DF8381041F001018DF83810632AF4
:1061800005D0002306E09DF83A300221E7E7003B06
:1061900018BF01239DF83820C2F340010B4363F37D
:1061A00041028DF83820B4E613F0380FE9D09DF89D
:1061B000383043F001038DF83830E2E79DF83A308B
:1061C000032262F302038DF83A309DF8393003F070
:1061D0007803A3F1400CDCF1000343EB0C03D9E797
:1061E0009DF83A30032262F302038DF83A309DF8AD
:1061F000393013F0780F14BF01230023CAE70123BD
:10620000C8E79DF93820002AB4BFDDF83CB04FF054
:10621000FF3B90E699077FF59DAEDDF840809DF845
:1062200039100023CDE90F339DF83A3003F007020F
:10623000042A09D18A0707D49DF93920002AB4BF5E
:106240004FF00D084FF0060803F00703012BC1F3D0
:10625000C30137D1CB1E042B21D8DFE803F003099B
:106260000920200054F8043BDA17CDE90C3206E08F
:10627000073424F00704F4E80223CDE90C239DF849
:106280003870BB0756D0029B2A465146484620F03C
:10629000CAFE0028C0F297830644029DA0E554F888
:1062A000043B01294FEAE372CDE90C3205D19DF898
:1062B00030300C9300230D93E1E70229DFD1BDF9C3
:1062C0003030D1E7022B23D1CB1E042B13D8DFE8CB
:1062D00003F0030A0A12120022680C920023201D08
:1062E0000D930446CBE7E01D20F00700F0E8022301
:1062F000CDE90C23F5E754F8043B0C9301294FF04A
:1063000000030D93D3D00229B9D1BDF83030D0E7C6
:10631000042B09D1E31D23F0070303F10804D3E99B
:106320000023CDE90C23AAE7032B04BF54F8043B58
:106330000C93A4E79DF83B20782AAED8572A00F2A8
:106340008C80252A00F0D480242AA6D9412A03D0A3
:10635000A2F14503022BA0D8DDE90C13002BC0F2FB
:10636000BE81380700F1BD8117F0100718BF202744
:10637000C3F30A55C3F31303CDE90813002D40F00E
:10638000B28151EA030014BF01200020DB0243EA7E
:106390005153C902462A45EA010E43EAE57C08BF8B
:1063A00066225EEA0C0CCDE9081300F00682002894
:1063B00040F0CE81DDE908014FF0000C41F00041D2
:1063C000A5F2FE35099163464FF0050E15F1020F57
:1063D000C0F2C581BCF1000F01D0CDE90801002D4C
:1063E000DDE9081000F3D08109980899C5F1040C83
:1063F0001C3500FA05F5ACF1200E21FA0CF120FA5B
:106400000EFE294341EA0E0120FA0CF0CDE90810F6
:1064100002F0DF01472940F0D781DD1C02DB9845FF
:1064200080F2CE81023AB8F1000FD2B201DD08F15C
:10643000FF389DF83810880600F1C681B8F1000FCA
:10644000D4BF00210121662A039140F0BF8118EBDF
:10645000030540F1BD810025BDE1A2F15803202BC9
:106460003FF61BAF01A050F823F000BF816600008B
:106470009B6200009B6200009B6200009B62000028
:106480009B6200009B6200009B6200009B62000018
:10649000596300009B6200001D650000216600003A
:1064A0005963000059630000596300009B620000BB
:1064B000216600009B6200009B6200009B6200005E
:1064C0009B620000B76600008166000085660000E0
:1064D0009B6200009B620000F76400009B6200006A
:1064E000816600009B6200009B62000081660000E4
:1064F000514610467EE4B8F1000F0C9A09DB414684
:106500001046039223F0DBFE039A0027151862B9A8
:10651000C3E61046039223F0CBFEF5E70C9B8DF803
:106520004C3000270DF14D0513AAAB1A07B101330A
:106530009DF83A00C10640F13A8202330F994006B5
:106540000B4444BF10995B18BBF1000F23DDABEB8C
:10655000030B9DF838305907C3F380081BD4580645
:1065600040F13482002F00F03482514638460392C5
:10657000C8470028C0F22782039A474601364FF0E9
:1065800030085E445B46002BA6EB0B000BF1FF3B93
:1065900000F31182064647B1514638460392C84778
:1065A0000028C0F21082039A01369DF83A3059064D
:1065B00040F165829DF93930002BA6EB020303936D
:1065C000C0F20A8217463878039BA0F13002092AEC
:1065D000B84603EB070607F1010740F229829DF850
:1065E0003A200F9F930608D43E44002FA6EB0703E2
:1065F00007F1FF3700F322821E4698F800002E288C
:106600000BD15146C8470028C0F2DD81002F06F1AA
:10661000010600F31A8208F10108A6EB08061DE244
:106620003D072BD417F0100718BF2027DDE90C23F6
:10663000002B05DA524263EB4303CDE90C232D27EF
:106640000DF1650300930EAADDE90C0113AB20F0F8
:10665000A4FC0246B8F1000F0DF16505FFF657AF37
:106660009DF83810AB1A6FF3861198458DF83810E5
:106670007FF64DAFA8EB03030F9348E72B27D5E731
:106680000027DDE70C98002800F08D810DF16503EF
:1066900000930EAA13AB002120F07FFCBDF83A3026
:1066A00003F0EF0343F4F04343F010030246ADF868
:1066B0003A300027CEE70C9B07293FF6EEADDFE826
:1066C00001F00C04060C08080C0C1E70E5E51E8099
:1066D000E3E5F217C3E90062DFE51E60DDE52D2783
:1066E00046E62B2744E640F2FF7085422DD10B434E
:1066F000A2F141021BD1192A11D849238DF84C303F
:106700004E238DF84D3046238DF84E309DF83830AD
:106710006FF386138DF838300DF14F0504E76923C8
:106720008DF84C306E238DF84D306623ECE7192A36
:1067300099BF4E2341226E23612294BF8DF84C30C5
:106740008DF84C308DF84D20DEE700201EE6013D2F
:1067500049185B41002BFADACDE908132AE6400814
:1067600040EAC1704908B1F1333FAC4605F101057B
:10677000F5D20EFB01F5A0FB0E012944013B0CF103
:1067800002054FF0010C21E6023140F10000CDE995
:10679000081008A8CDE9032320F0D0FB049B039A3E
:1067A000DDE90810013D013349184041002805F199
:1067B000FF35F9DACDE9081011E600231D4613E68E
:1067C000A8EB0308662234E600213CE608F1010547
:1067D000102DA8BF10251021079100204FF0006157
:1067E000CDE90A01DDE90A10A5B9089D4919099DFD
:1067F00040EB0505B5F1805F1BD2CDE90815662A8F
:1068000040F09980002B23DC30218DF84C100DF1E5
:106810004D052FE0490841EAC0714008CDE90A1052
:106820000AA8CDE90423013D20F088FBDDE904231B
:10683000D8E7490841EAC57108A86D08CDE90423E5
:10684000CDE9081520F07AFB059B049A0133D6E7C1
:1068500013AD079900290BDD07A908A8CDE904238A
:1068600020F084FB059B05F8010B013B049AF0D155
:106870000F9300239DF83810890602D4B8F1000F59
:106880001DDD2E2105F8011B9BB1B8F1000F16DDAF
:1068900059424145A8BF41469DF83A000F91002951
:1068A000A8EB0108D4BF0021012161F345108DF848
:1068B0003A00B8F1000F02DD0799002956DC039970
:1068C000002963D1CDF8408002F0DF01452921D1B4
:1068D000002B2946B8BF5B4201F8022BB4BF2D2222
:1068E0002B22632B6A7009DD6420B3FBF0F202F106
:1068F000300CE91C85F802C000FB12330A200D465B
:10690000B3FBF0F200FB123302F1300C303305F828
:1069100002CB4B700F9B002B43DC109B002BD4BF92
:10692000002301239DF83A2063F3861200238DF89B
:106930003A202B70F8E507A908A8CDE9042320F038
:1069400015FBDDE904239DF838108DF84C00302844
:1069500018BF03F1FF33880602D4B8F1000F12DD2F
:106960002E218DF84D100DF14E05A2E707A908A8BC
:10697000CDE9042320F0FAFA08F1FF38DDE9042319
:1069800005F8010B95E70DF14D0598E700211091F1
:10699000284615F8011D3029FAD02E2918BF0546C2
:1069A00092E70123BEE74B4D07466A1FBDE501078D
:1069B00048BF0133C2E5514640460392C84700280C
:1069C000039ABFF6DFAD1BB0BDE8F08F4FF0200893
:1069D000D7E54FF03008D4E59046039B4746434443
:1069E00018F8010B70281ED11E46109B03EB0608F9
:1069F000A8EB0603002B3BDC2B463A4651464846A3
:106A000020F011FB0028DEDB304406468344ABEB6C
:106A10000603002B7FF741AC51462020C8470028D1
:106A2000D1DB0136F3E75146C8470028D5DACAE77B
:106A30005146C8470028BFF6C6ADC4E751463020CE
:106A4000C8470028BFF6D1ADBDE751463020C84742
:106A5000013FD8E55146C8470028B4DB474606EB5E
:106A6000080318F8010BA0F13002092AF2D9BBE79C
:106A700051463020C8470028A5DB0136B8E7D806C4
:106A800001D4190707D5514630200392C847002882
:106A900099DB039A01369DF83A30DB0608D59DF85C
:106AA0003B0003925146C84700288CDB039A01360D
:106AB0000F9F3744BB1B002B01DC2B469EE7514642
:106AC00030200392C8470028FFF67DAF039A0136B5
:106AD000F0E700BF7211030030B51049104889B0CB
