:10000000C0730020C57E0000BD9D0200997E0000E7
:10001000997E0000997E0000997E0000000000009B
:10002000000000000000000000000000E177000078
:10003000997E0000000000008D770000997E00008E
:10004000917800002DCF0100917800009178000098
:10005000917800009178000091780000917800007C
:10006000917800009178000091780000917800006C
:10007000917800009178000091780000917800005C
:10008000917800009178000091780000917800004C
:10009000917800009178000091780000917800003C
:1000A000917800009178000091780000917800002C
:1000B000917800009178000091780000917800001C
:1000C000917800009178000091780000917800000C
:0C00D00091780000917800009178000009
:0400DC00FFFFFFFF24
:1000E00001F0FF01102A2BDB10F0070F08D010F8E9
:1000F000013B013A8B422DD010F0070F42B3F6D1ED
:10010000F0B441EA012141EA014122F007047FF005
:1001100000070023F0E80256083C85EA010586EA5C
:10012000010685FA47F5A3FA87F586FA47F6A5FA98
:1001300087F68EB9EED1F0BC01F0FF0102F00702A4
:1001400032B110F8013B013A83EA010313B1F8D14F
:100150000020704701387047002D06BF3546033830
:10016000073815F0010F07D1013015F4807F02BF69
:10017000013015F4C03F0130F0BC0138704700BFBA
:1001800081F0004102E000BF83F0004330B54FEA48
:1001900041044FEA430594EA050F08BF90EA020FB5
:1001A0001FBF54EA000C55EA020C7FEA645C7FEA48
:1001B000655C00F0E2804FEA5454D4EB5555B8BF6B
:1001C0006D420CDD2C4480EA020281EA030382EADC
:1001D000000083EA010180EA020281EA0303362D6E
:1001E00088BF30BD11F0004F4FEA01314FF4801C41
:1001F0004CEA113102D0404261EB410113F0004F53
:100200004FEA03334CEA133302D0524263EB430309
:1002100094EA050F00F0A780A4F10104D5F1200EA7
:100220000DDB02FA0EFC22FA05F2801841F1000102
:1002300003FA0EF2801843FA05F359410EE0A5F1D6
:1002400020050EF1200E012A03FA0EFC28BF4CF007
:10025000020C43FA05F3C01851EBE37101F00045BD
:1002600007D54FF0000EDCF1000C7EEB00006EEBCA
:100270000101B1F5801F1BD3B1F5001F0CD3490854
:100280005FEA30004FEA3C0C04F101044FEA4452AB
:1002900012F5800F80F09A80BCF1004F08BF5FEA32
:1002A000500C50F1000041EB045141EA050130BD12
:1002B0005FEA4C0C404141EB0101013C28BFB1F524
:1002C000801FE9D291F0000F04BF01460020B1FA6F
:1002D00081F308BF2033A3F10B03B3F120020CDA42
:1002E0000C3208DD02F1140CC2F10C0201FA0CF020
:1002F00021FA02F10CE002F11402D8BFC2F1200C85
:1003000001FA02F120FA0CFCDCBF41EA0C0190403A
:10031000E41AA2BF01EB0451294330BD6FEA040483
:100320001F3C1CDA0C340EDC04F11404C4F120026E
:1003300020FA04F001FA02F340EA030021FA04F380
:1003400045EA030130BDC4F10C04C4F1200220FAD7
:1003500002F001FA04F340EA0300294630BD21FA15
:1003600004F0294630BD94F0000F83F4801306BFDB
:1003700081F480110134013D4EE77FEA645C18BFCF
:100380007FEA655C29D094EA050F08BF90EA020F66
:1003900005D054EA000C04BF1946104630BD91EA5E
:1003A000030F1EBF0021002030BD5FEA545C05D161
:1003B0004000494128BF41F0004130BD14F58004A0
:1003C0003CBF01F5801130BD01F0004545F0FE4114
:1003D00041F470014FF0000030BD7FEA645C1ABF49
:1003E000194610467FEA655C1CBF0B46024650EA80
:1003F000013406BF52EA033591EA030F41F40021AC
:1004000030BD00BF90F0000F04BF0021704730B531
:100410004FF4806404F132044FF000054FF0000106
:1004200050E700BF90F0000F04BF0021704730B5C7
:100430004FF4806404F1320410F0004548BF40429C
:100440004FF000013EE700BF42004FEAE2014FEAF1
:1004500031014FEA02701FBF12F07F4393F07F4FCC
:1004600081F06051704732F07F4208BF704793F0CF
:100470007F4F04BF41F40021704730B54FF46074E2
:1004800001F0004521F000411CE700BF50EA0102E5
:1004900008BF704730B54FF000050AE050EA01028E
:1004A00008BF704730B511F0004502D5404261EBFE
:1004B00041014FF4806404F132045FEA915C3FF43F
:1004C000D8AE4FF003025FEADC0C18BF03325FEADC
:1004D000DC0C18BF033202EBDC02C2F1200300FA8D
:1004E00003FC20FA02F001FA03FE40EA0E0021FAB2
:1004F00002F11444BDE600BF70B54FF0FF0C4CF4A0
:10050000E06C1CEA11541DBF1CEA135594EA0C0F51
:1005100095EA0C0F00F0DEF82C4481EA030621EA8C
:100520004C5123EA4C5350EA013518BF52EA0335C7
:1005300041F4801143F4801338D0A0FB02CE4FF079
:100540000005E1FB02E506F00042E0FB03E54FF0A9
:100550000006E1FB03569CF0000F18BF4EF0010EA1
:10056000A4F1FF04B6F5007F64F5407404D25FEA9D
:100570004E0E6D4146EB060642EAC62141EA555150
:100580004FEAC52040EA5E504FEACE2EB4F1FD0C92
:1005900088BFBCF5E06F1ED8BEF1004F08BF5FEA10
:1005A000500E50F1000041EB045170BD06F00046C2
:1005B00046EA010140EA020081EA0301B4EB5C046F
:1005C000C2BFD4EB0C0541EA045170BD41F4801167
:1005D0004FF0000E013C00F3AB8014F1360FDEBF8C
:1005E000002001F0004170BDC4F10004203C35DA68
:1005F0000C341BDC04F11404C4F1200500FA05F3EB
:1006000020FA04F001FA05F240EA020001F000428B
:1006100021F0004110EBD37021FA04F642EB060101
:100620005EEA430E08BF20EAD37070BDC4F10C042B
:10063000C4F1200500FA04F320FA05F001FA04F2EF
:1006400040EA020001F0004110EBD37041F10001DB
:100650005EEA430E08BF20EAD37070BDC4F12005E6
:1006600000FA05F24EEA020E20FA04F301FA05F24E
:1006700043EA020321FA04F001F0004121FA04F2F6
:1006800020EA020000EBD3705EEA430E08BF20EAC6
:10069000D37070BD94F0000F0FD101F00046400000
:1006A00041EB010111F4801F08BF013CF7D041EA82
:1006B000060195F0000F18BF704703F00046520086
:1006C00043EB030313F4801F08BF013DF7D043EA57
:1006D0000603704794EA0C0F0CEA135518BF95EA0D
:1006E0000C0F0CD050EA410618BF52EA4306D1D194
:1006F00081EA030101F000414FF0000070BD50EAB3
:10070000410606BF1046194652EA430619D094EA3C
:100710000C0F02D150EA013613D195EA0C0F05D126
:1007200052EA03361CBF104619460AD181EA03017A
:1007300001F0004141F0FE4141F470014FF0000032
:1007400070BD41F0FE4141F4780170BD70B54FF0CD
:10075000FF0C4CF4E06C1CEA11541DBF1CEA13554D
:1007600094EA0C0F95EA0C0F00F0A7F8A4EB05042F
:1007700081EA030E52EA03354FEA013100F0888026
:100780004FEA03334FF0805545EA131343EA1263EF
:100790004FEA022245EA111545EA10654FEA0026A4
:1007A0000EF000419D4208BF964244F1FD0404F55D
:1007B000407402D25B084FEA3202B61A65EB0305B9
:1007C0005B084FEA32024FF480104FF4002CB6EB76
:1007D000020E75EB030E22BFB61A754640EA0C00F6
:1007E0005B084FEA3202B6EB020E75EB030E22BF36
:1007F000B61A754640EA5C005B084FEA3202B6EB77
:10080000020E75EB030E22BFB61A754640EA9C0035
:100810005B084FEA3202B6EB020E75EB030E22BF05
:10082000B61A754640EADC0055EA060E18D04FEAC3
:10083000051545EA16754FEA06164FEAC30343EA63
:1008400052734FEAC2025FEA1C1CC0D111F4801F30
:100850000BD141EA00014FF000004FF0004CB6E729
:1008600011F4801F04BF01430020B4F1FD0C88BFC8
:10087000BCF5E06F3FF6AFAEB5EB030C04BFB6EBD3
:10088000020C5FEA500C50F1000041EB045170BDC6
:100890000EF0004E4EEA113114EB5C04C2BFD4EBF3
:1008A0000C0541EA045170BD41F480114FF0000E77
:1008B000013C90E645EA060E8DE60CEA135594EAF3
:1008C0000C0F08BF95EA0C0F3FF43BAF94EA0C0FF6
:1008D0000AD150EA01347FF434AF95EA0C0F7FF46B
:1008E00025AF104619462CE795EA0C0F06D152EABF
:1008F00003353FF4FDAE1046194622E750EA4106A3
:1009000018BF52EA43067FF4C5AE50EA41047FF4B3
:100910000DAF52EA43057FF4EBAE12E74A0011D265
:1009200012F5001211D20DD56FF47873B3EB625249
:100930000ED44FEAC12343F0004343EA505323FA55
:1009400002F070474FF00000704750EA013002D1CA
:100950004FF0FF3070474FF00000704780F00040CC
:1009600002E000BF81F0004142001FBF5FEA410387
:1009700092EA030F7FEA226C7FEA236C6AD04FEA87
:100980001262D2EB1363C1BFD218414048404140CC
:10099000B8BF5B42192B88BF704710F0004F40F47E
:1009A000000020F07F4018BF404211F0004F41F49A
:1009B000000121F07F4118BF494292EA030F3FD066
:1009C000A2F1010241FA03FC10EB0C00C3F1200379
:1009D00001FA03F100F0004302D5494260EB400008
:1009E000B0F5000F13D3B0F1807F06D340084FEA73
:1009F000310102F10102FE2A51D2B1F1004F40EB68
:100A0000C25008BF20F0010040EA030070474900CF
:100A100040EB0000013A28BFB0F5000FEDD2B0FA6C
:100A200080FCACF1080CB2EB0C0200FA0CF0AABF8F
:100A300000EBC25052421843BCBFD040184370472D
:100A400092F0000F81F4000106BF80F40000013233
:100A5000013BB5E74FEA41037FEA226C18BF7FEA0A
:100A6000236C21D092EA030F04D092F0000F08BF4C
:100A70000846704790EA010F1CBF0020704712F033
:100A80007F4F04D1400028BF40F00040704712F172
:100A900000723CBF00F50000704700F0004343F0D7
:100AA000FE4040F4000070477FEA226216BF08460D
:100AB0007FEA23630146420206BF5FEA412390EAD0
:100AC000010F40F4800070474FF0000304E000BFC6
:100AD00010F0004348BF40425FEA000C08BF704777
:100AE00043F0964301464FF000001CE050EA01023B
:100AF00008BF70474FF000030AE000BF50EA010250
:100B000008BF704711F0004302D5404261EB41013C
:100B10005FEA010C02BF84460146002043F0B64361
:100B200008BFA3F18053A3F50003BCFA8CF2083A86
:100B3000A3EBC25310DB01FA02FC634400FA02FC8F
:100B4000C2F12002BCF1004F20FA02F243EB020096
:100B500008BF20F00100704702F1200201FA02FCF8
:100B6000C2F1200250EA4C0021FA02F243EB0200EB
:100B700008BF20EADC7070477BB972B90029BEBF9C
:100B800000204FF0004106E008BF00281CBF6FF0B6
:100B900000414FF0FF3000F057B8ADF1080C6DE99F
:100BA00004CE002909DB002B1ADB00F015F9DDF873
:100BB00004E0DDE9022304B07047404261EB4101EB
:100BC000002B1BDB00F008F9DDF804E0DDE902236F
:100BD00004B0404261EB4101524263EB4303704772
:100BE000524263EB430300F0F7F8DDF804E0DDE97F
:100BF000022304B0404261EB41017047524263EB73
:100C0000430300F0E9F8DDF804E0DDE9022304B075
:100C1000524263EB4303704753B94AB9002908BFF6
:100C200000281CBF4FF0FF314FF0FF3000F00CB830
:100C3000ADF1080C6DE904CE00F0CEF8DDF804E06B
:100C4000DDE9022304B07047704700BF4FF0FF3C5E
:100C500006E000BF4FF0010C02E000BF4FF0010CB6
:100C60004DF804CD4FEA410C7FEA6C5C4FEA430C2F
:100C700018BF7FEA6C5C1BD001B050EA410C0CBF7E
:100C800052EA430C91EA030F02BF90EA020F0020E0
:100C9000704710F1000F91EA030F58BF994208BF47
:100CA00090422CBFD8176FEAE37040F00100704704
:100CB0004FEA410C7FEA6C5C02D150EA013C07D15B
:100CC0004FEA430C7FEA6C5CD6D152EA033CD3D0A6
:100CD0005DF8040B704700BF8446104662468C46A0
:100CE0001946634600E000BF01B5FFF7B7FF0028D3
:100CF00048BF10F1000F01BD4DF808EDFFF7F4FFFC
:100D00000CBF012000205DF808FB00BF4DF808ED86
:100D1000FFF7EAFF34BF012000205DF808FB00BFA9
:100D20004DF808EDFFF7E0FF94BF012000205DF8CB
:100D300008FB00BF4DF808EDFFF7CEFF94BF012080
:100D400000205DF808FB00BF4DF808EDFFF7C4FF79
:100D500034BF012000205DF808FB00BF4FEA410CC2
:100D60007FEA6C5C02D150EA013C0AD14FEA430CA5
:100D70007FEA6C5C02D152EA033C02D14FF00000E2
:100D800070474FF0010070474FEA410212F5001220
:100D900015D211D56FF47873B3EB625212D94FEAC2
:100DA000C12343F0004343EA505311F0004F23FAAC
:100DB00002F018BF404270474FF00000704750EA01
:100DC000013005D111F0004008BF6FF000407047BE
:100DD0004FF00000704700BF2DE9F04F07468C46EA
:100DE0000846099E15463C461946002B40F0C68031
:100DF0008242B2FA82F746D94FB1C7F1200E24FAE7
:100E00000EFE00FA07F3BD404EEA030CBC404FEA69
:100E100015481FFA85FEBCFBF8F9220C08FB19C324
:100E200009FB0EFA42EA03439A4528D9EB1809F167
:100E3000FF3004D29A4502D9A9F102002B44A3EB5A
:100E40000A03A4B2B3FBF8F208FB123302FB0EFE56
:100E500044EA0344A64514D92C1902F1FF3303D206
:100E6000A64501D9931E2C44A4EB0E0443EA00408E
:100E70001EB1FC40002334607360BDE8F08F48462B
:100E8000DDE71346F0E702B9FFDE87BB831A0121D5
:100E90004FEA154EAAB2B3FBFEFC200C0EFB1C332E
:100EA0000CFB02F840EA0343984563D9EB180CF1B8
:100EB000FF3004D2984502D9ACF102002B44A3EBD9
:100EC0000803A4B2B3FBFEFC0EFB1C330CFB02F2C6
:100ED00044EA0344A2424FD92C190CF1FF3304D247
:100EE000A24202D9ACF102032C44A41ABEE7C7F116
:100EF000200C20FA0CF800FA07F324FA0CFCBD4091
:100F00004CEA03024FEA154EABB2B8FBFEFC110CE3
:100F10000EFB1C800CFB03F941EA0040814504FAFA
:100F200007F423D928180CF1FF3104D2814502D9E6
:100F3000ACF102012844A0EB090092B2B0FBFEFC28
:100F40000EFB1C000CFB03F842EA004398450FD946
:100F5000EB180CF1FF3204D2984502D9ACF1020231
:100F60002B44A3EB080342EA014191E76146E2E723
:100F70006246F6E76046A2E76346B6E7834205D9D4
:100F80000EB1C6E900700021084676E7B3FA83F196
:100F900081B9834201D3BA420AD8BC1A60EB030379
:100FA00001209C46002E68D0C6E9004C002164E771
:100FB0000846F7E7C1F1200C8B4022FA0CF41C43E1
:100FC00002FA01F500FA01F327FA0CF220FA0CFB01
:100FD0004FEA14491343BBFBF9F81FFA84FE09FBDF
:100FE00018BB1A0C08FB0EFA42EA0B42924507FAAC
:100FF00001F73ED9A21808F1FF3004D2924502D978
:10100000A8F102002244A2EB0A029BB2B2FBF9F85B
:1010100009FB182208FB0EFE43EA024296452AD934
:10102000A21808F1FF3304D2964502D9A8F10203B1
:10103000224443EA0040A0FB0593A2EB0E029A4231
:10104000CE46984602D306D14F4504D2B9EB050EE1
:1010500063EB0408013886B1B7EB0E0362EB0807B7
:1010600007FA0CFCCB404CEA0303CF40C6E900373B
:101070009CE74046C7E74346DBE73146FDE610F80C
:10108000012B11F8013B012A28BF9A42F7D0D01A50
:101090007047034613F8012B002AFBD1181A0138B8
:1010A00070470000000000007FB51F4D044628680F
:1010B00026F0DAFE002804DA1C4826F075FF04B09A
:1010C00070BD28686A460D2126F0D2FE002801DA9C
:1010D0001748F2E7286802AA102126F0C9FE002866
:1010E00001DA1448E9E7012CDDE9006003D0022CA5
:1010F000DDE90260E3D1FFF795F909A3D3E9002305
:10110000FFF724FB044630460D46FFF78BF90246F5
:101110000B4620462946FFF739F8D0E7AFF30080A9
:101120000000000080842E41B8210020E116030059
:10113000FD1603002517030030B51B4C85B0206851
:1011400026F092FE002804DA184826F02DFF05B09C
:1011500030BD20686A460E2126F08AFE002801DA9A
:101160001348F2E7206802AA0D2126F081FE00282C
:1011700001DA1048E9E70198FFF754F908A3D3E929
:101180000023FFF7E3FA044600980D46FFF74AF9FB
:1011900002460B4620462946FEF7F8FFD7E700BF78
:1011A0000000000080842E41C0210020E1160300D1
:1011B000521703007817030037B5134C206826F048
:1011C00053FE20682CF016F86A4620681C2126F091
:1011D0004FFE0198FFF726F909A3D3E90023FFF793
:1011E000B5FA044600980D46FFF71CF902460B4677
:1011F00020462946FEF7CAFF03B030BDAFF300809A
:101200000000000080842E41B42100200000000076
:1012100070B52F4E86B004462E4826F0C5FE3068C5
:1012200026F022FE05462C4826F0BEFE15F14D0F95
:1012300000D025B930686A46032126F019FE052C36
:101240001BD10198FFF7EEF81FA3D3E90023FFF7A6
:101250007DFA044600980D46FFF7E4F802460B4677
:1012600020462946FEF792FF04461C480D4626F00C
:101270009BFE2046294606B070BD062C17D0072CD1
:10128000F7D10598FFF7CEF80FA3D3E90023FFF7B6
:101290005DFA044604980D46FFF7C4F802460B4673
:1012A00020462946FEF772FF04460D46E1E7039803
:1012B000FFF7B8F804A3D3E90023FFF747FA044681
:1012C0000D460298E8E700BF0000000080842E4130
:1012D000BC210020EC170300F4170300F8170300EB
:1012E00070B5494DD5F85431996811F0010188B0B5
:1012F00023D102AA40F6034007F072FF04460028FB
:101300007FD1029B9B681B78A3B909F019FDBFF33D
:101310005B8F2B4653F8CC2FBFF35B8F02F0050297
:10132000BFF35B8F53E8001F43E800200028F9D18A
:10133000BFF35B8F02981FF07BFB02AA002141F2F2
:10134000030007F04DFF044600285AD1029B2F4EA0
:101350009A68D2F80100D2F8051003C618461FF0AB
:1013600067FB214602AA41F2010007F039FF04465B
:10137000002846D1029883685A7885F86820D97881
:101380009A7842EA0122A5F86A201A7985F869203C
:10139000197ADA7942EA0122A5F86C205A799B7908
:1013A00042EA0323A5F86E301FF042FB214602AA51
:1013B00041F2020007F014FF044610BB029B9A683A
:1013C000531C413218685968344603C408339342A9
:1013D0002646F7D10E4828F0C5FD02981FF028FBDD
:1013E00095F874305A0619D40A4B06930A4802231A
:1013F00005AA4FF482516FF012040193059328F06F
:1014000075FE204608B070BD00000020700000206E
:101410007800002032240300D4F4020002AA002144
:1014200042F2030007F0DCFE04460028E9D1029BEB
:10143000C14E9A68D2F80100D2F8051003C61846CA
:101440001FF0F6FA214602AA42F2020007F0C8FE97
:1014500004460028D5D1029B9B68B3F80120A5F86B
:10146000FC2091B229B1DA78114606F128002CF05F
:1014700076FC02981FF0DCFA95F8746016F02006EE
:1014800000F0F98095F894301B0712D502AA0021CC
:1014900042F21C0007F0A4FE04460028B1D10298D5
:1014A0008368D3F80120D3F80530C5E936231FF04F
:1014B000BFFA95F8D0309E0622D501A9684607F0FC
:1014C0000FFF044600289CD1042142F2240007F0BB
:1014D0001FFD0646002800F0D580042108302BF0BF
:1014E000F4FABDF800300380BDF804304380224692
:1014F000314642F2240007F073FE0446002880D1F2
:1015000095F8D0305C0610D502AA002142F22A00DC
:1015100007F066FE044600287FF473AF02988368E4
:101520005B7885F818311FF083FA082142F2010038
:1015300007F0EEFC0446002800F0A48008210844CF
:101540002BF0C3FA95F8D01011F0400F024640F28C
:10155000022308BF032388074CBF43F02C0043F04D
:101560000C008B0695F8D13048BF40F0400013F0D6
:10157000090F95F89A3018BF40F4006003F0060395
:10158000CE0748BF40F01000062B08BF40F4C070E3
:10159000002128F0BCFD2146002242F2010007F0A4
:1015A0001FFE044600287FF42CAF95F87430B5F880
:1015B000FC1098067BD4D9B902AA41F2050007F0C5
:1015C0000FFE044600287FF41CAFB5F8FC3063B969
:1015D000029B9B685A78997842EA0122A5F8FC2080
:1015E0009A88564811462CF0BAFB02981FF020FA50
:1015F000082140F6014007F08BFC0446002841D04A
:10160000082108442BF061FA95F8D030D90702463A
:101610005DD547A1D1E9000128F079FD21460022DE
:1016200040F6014007F0DCFD044600287FF4E9AEF7
:1016300001466A464FF6014007F0D2FD04460028F5
:1016400049D03F4B06933F48022305AA4FF48451EB
:101650000193059328F04AFD08F09EFF04460028F8
:101660007FF4CFAE0AF098FC044600287FF4C9AEA0
:1016700008F0F6FAC5E6022140F66D4007F048FC96
:10168000044610B96FF06804BBE6022108302BF065
:101690001CFA0123037046702146324640F66D4025
:1016A00007F09EFD044600283FF4ECAEA9E60029B1
:1016B0009ED1254B06932348022305AA4FF482515D
:1016C000019305936FF0040428F010FD99E61F487C
:1016D0004FF00051A0E700981FF0AAF921466A4692
:1016E0004FF6024007F07CFD044608B1184BA9E70D
:1016F00000988368B3F80130A5F8B9301FF098F965
:1017000095F8B9305B07A7D56A4621464FF60340E6
:1017100007F066FD08B10F4B94E7009883685B788B
:1017200085F8B8301FF084F996E700BFAFF300806A
:101730009088000200800020D000002000010020DE
:1017400079240300D4F40200562403001088000218
:101750009D240300C62403002DE9F041D0E90B3598
:10176000866A5C193034A6428846174618D81C4D44
:10177000A3FB050118A3D3E90023FFF74DFAA41B2F
:1017800020F07F40C8F8000013A3D3E90023A4FB96
:101790000501FFF741FA20F07F403860BDE8F08195
:1017A0000F4C0DA3D3E90023A6FB0401FFF734FA85
:1017B00005F1300120F07F40C8F8000006A3D3E90E
:1017C0000023A1FB0401FFF727FA20F07F403860D7
:1017D000BDE8F081AFF300808D49FD1A07000000DD
:1017E00000CA9A3B000000002DE9F04FAC4C8FB0CE
:1017F00094F86A20002800F0398112F0010740F0C7
:10180000378194F82500FF2300F0030084F8263088
:101810001AF01EFF94F86A0041072DD494F829208D
:1018200094F8353004EB820204EB8303D2F82C8069
:10183000D3F83890B8F1000F11D09948414614F010
:101840003BFB98F800305A0605D506210FF0A0FAA8
:10185000002800F0CE819248494614F02DFB98F8FC
:10186000003013F00E0F40F0EE80236A9BB10C277E
:1018700038460FB0BDE8F08F3A4604F16B01C0F373
:10188000C0001BF077F8FF2884F82600C6D0384641
:101890001AF024FFC2E713F0B9F98246002800F0DD
:1018A000B28113F0BFF98346002800F0B18115F032
:1018B000AFFB0546002800F0A881406F4FF6FF738C
:1018C0002B8505F11C03002800F0998105F16802C1
:1018D00005F164010B930FF067FAB5F86020714BC6
:1018E00022F4EF6222F0070242F4887242F0010211
:1018F000A5F8602095F8392002F03F0262F07F02DF
:1019000085F8392095F87A2022F0070285F87A20A8
:1019100095F83C2022F0070285F83C2095F8D82065
:1019200022F0070285F8D8204FF01B120026C5E9E7
:1019300016230622A5F8C020C5E912666E67A5F831
:101940007860EE852E6385F83B602E65A5F8C4604F
:10195000A5F8C860A5F8D060A5F8CC60A5F8E4604B
:1019600085F8E660C5F80861A5F80C61A5F8206166
:1019700012F00EFC95F83A21A5F8386122F0030226
:1019800085F83A2195F87A20A5F8406122F01802EE
:1019900085F87A2095F8662185F8436122F00702E0
:1019A00085F8662195F88621C5F844A166F34512AD
:1019B00085F8862195F8AE21A5F8646166F3C30227
:1019C000C5E94A0100210020C5E94C0185F8AE2196
:1019D00085F8D960A5F88461C5F8E060A5F8AC6128
:1019E000A5F8B86115F05CFEA5F8D20015F05EFE12
:1019F000D5F8BC112C4AA5F8D4000A40C5F8BC2182
:101A000015F05AFE95F8C02160F3020285F8C02156
:101A100015F058FE0B9B236295F8C031C5F8C461E0
:101A200060F3C503C4E918ABC5E97466C5E972661D
:101A3000C5E905662E70ED6185F8C0311BF0D4FF55
:101A4000002840F0D88094F824300121C3F34203E9
:101A50000DF133008DF833300FF026FB30BB236AD5
:101A6000002B3FF404AF13F0E9FE00E7D50704D4E0
:101A7000002738460FB0BDE8F08F236A5BB193F8BA
:101A8000202042F0020283F82020236A93F82030BD
:101A9000D8073FF5ECAE0FB0BDE8F04F13F010BF24
:101AA000102D0020480148010000FFF699F80110B0
:101AB0000246404613F0B4FF5B49B4F86890312306
:101AC0000025A360A0FB010155A3D3E90023C4E9CD
:101AD000055525706560E560FFF79EF8206110F000
:101AE000DBFC0646B9F1000F08D198F8005005F06C
:101AF0000F05A5F10105B5FA85F56D0994F82400E7
:101B0000236965F3000010F0010584F8240031D04A
:101B10000020464ADFF81891049302250DF134089D
:101B2000019305920321CDE902000694334600900B
:101B3000CDF82080CDF81C902A460D9510F082FB40
:101B4000414613F0F3F8002889D13A4A05924AF247
:101B5000D8320092CDE90300CDE90100CDF81C9008
:101B6000CDF8208006943346012203210D9510F014
:101B700069FB29E0304A3148049303F24713A9FB7B
:101B80000001069402951360912303FB0911284B71
:101B90000793264B05934FF6FF7309924FF0020906
:101BA00003930DF134081EA3D3E90023CDF834903C
:101BB000CDF82080FFF730F83346CDE900504A4693
:101BC0002846032110F0E8FA414613F0AFF8002848
:101BD0007FF445AF94F86A3043F0010384F86A302B
:101BE00014F05AFB00287FF443AF01201AF012FDD5
:101BF0003EE612273CE613F021FE032738E605F106
:101C00006C00686762E6072732E6584613F010F862
:101C1000504613F001F807272AE600BFAFF3008013
:101C20008D49FD1A0700000000CA9A3B915A010035
:101C30005D420100CD550100842D0020002AE7847B
:101C400070B590F824308AB0C3F342030D460446C1
:101C500001210DF1230016468DF823300FF024FAF0
:101C600071780246284613F0DBFE1D491AA3D3E91A
:101C70000023A0FB0101FEF7CFFF23699842054630
:101C800020D21B1A00220192164A0293164BA21A66
:101C9000A3FB02320221920900230A4409AE0991F2
:101CA00012490591CDE903330321D2B20696009380
:101CB000184610F039FB314613F038F848B9256161
:101CC0000AB070BD02D9C21A0023DCE700200AB0B6
:101CD00070BD0C200AB070BD8D49FD1A07000000D0
:101CE00000CA9A3B102D002009CB3D8D5D420100BA
:101CF00038B5194C9DF810E094F844C01CF001056B
:101D000022D163F3420C400194F83230A1874FEAAC
:101D1000CE0E0EF0180E00F0200040EA0E0023F068
:101D2000380303430D4884F83230A2FB00019123AD
:101D300003FB021106A3D3E9002384F844C0FEF795
:101D40006BFF2064284638BD0C25284638BD00BFEF
:101D50008D49FD1A07000000A82D0020002AE78405
:101D600010B59DF808C0044649014FEACC0000F0C8
:101D7000180001F0200CA17D22844CEA000C0C48D4
:101D800021F038014CEA010C9122A3FB000102FB77
:101D9000031184F816C004A3D3E90023FEF73CFF27
:101DA000606210BDAFF300808D49FD1A070000008E
:101DB000002AE784000000002DE9F047044600F106
:101DC000350190F8440094F83230C0F3400060F3DD
:101DD00086138CB084F8323010F096FB94F83220E1
:101DE000A38F4D48E46102F079020025A3FB0001B6
:101DF00084F83220912202FB0311C4E9055544A363
:101E0000D3E900232570FEF707FF3123C4E901530E
:101E1000236CE5600933A0F13102934232BF2361A4
:101E200022612564064610F037FB236A07460DF150
:101E30002C08002B4CD0394D394BCDF8208006941E
:101E4000651BA3FB05353448A38F4FF0000AA3FBA5
:101E500000019122CDF80CA002FB03112369049329
:101E6000304B0793304B05934FF0020928A3D3E979
:101E70000023CDF82C90FEF7CFFE104619464FF404
:101E80007A720023FEF7C8FE2D090435EDB22A460A
:101E9000CDE901603B460321CDF800A0504610F08B
:101EA000D1F9414612F042FF054668B994F8443032
:101EB00043F0010384F8443013F0D4FF0446F8B132
:101EC00028460CB0BDE8F0870C200CB0BDE8F087C8
:101ED000CDE90A33216943460AAA032001F074F9C7
:101EE0000B990029A7D0114809A3D3E90023A1FB2E
:101EF0000001FEF791FE0A9F20F07F4007449AE719
:101F000048461AF087FB20460CB0BDE8F08700BFBA
:101F10008D49FD1A07000000002AE784A82D002043
:101F2000398EE3385D4201009560010000CA9A3B9A
:101F30002DE9F04FC38D458E1D4490F80E31ADB2A2
:101F40002944164613F007028BB0044689B20AD022
:101F5000531E042B00F27083DFE813F0C601370232
:101F6000A10150013A02B0F8E870C91B1FFA81F8CC
:101F7000090400F16E8190F93930002BC0F26A82B9
:101F800094F8E43084F8E53094F8842194F88531AD
:101F900094F80C1184F80D1193420AD094F886310C
:101FA00003F00F03062B04D1002384F88521A4F845
:101FB000C830BF4BD4F808911A68944204BF00227D
:101FC0001A60B9F1000F00F05A81D9F8000000281A
:101FD00000F05581B4F81031B4F82AC04268C4F852
:101FE00008216345B4F81221B4F8141100F03A82C4
:101FF000B4F828C0A9F81E30182389F8043000234B
:10200000A9F806C0A9F82020A9F8221089F81C30E8
:10201000494612F013FE12F01BFEA368002B09DAEA
:10202000E168626823F0004391422CBF7618B6182D
:10203000A360F61A608DB4F8109110FB08F080B21E
:10204000B0FBF9F119FB01F39BB298421FFA81FA38
:1020500080F004811B1A40F2E241964803FB01F133
:10206000A1FB000190A3D3E90023FEF7D5FD20F0EA
:102070007F400644E38D1F4494F939307D1B55445D
:1020800040F2E24B002BE5850BFB09F7C0F20C8216
:10209000D4F81811874884A3D3E90023A1FB0001D9
:1020A000FEF7BAFD20F07F483D4608F10108824A5C
:1020B000B4F81431B4F812018049A4F82A903A44D3
:1020C000B2FBF7F2A4F8C62042F2107202FB0373CF
:1020D0003944013BB1FBF7F1B3FBF7F78AB2831D3B
:1020E0009A42A085A4F8C270A4F8CE2004DDC0F501
:1020F0007F43FA331A4492B294F80E31A4F8CA20FE
:102100001B0744BF0023A4F8C430022101201EF0A5
:10211000C7F900220221814601200EF095FE684990
:102120004FF4F07220460EF01FFE00F1050A5FFA30
:102130008AFA644B009452460121002010F00CF9F9
:1021400030F002030CD0604A6049614840F6CB434E
:1021500025F02AFF404080F311884FF0030002DF92
:10216000544FA5FB077B50A3D3E9002338465946BB
:10217000FEF752FD20F07F4556480723A5FB0001DE
:10218000381A03FB05116BEB01014FF47A7200233F
:10219000FEF742FDCDE9015008940694CDF8008089
:1021A000216994F939504C4804914C494C4C07949E
:1021B00011EA250138BF014605914FF6FE713346FD
:1021C000039152460121002010F03CF830F0020348
:1021D0000CD03D4A3D493E4840F6E54325F0E4FE3B
:1021E000404080F311884FF0030002DFB9F1000F87
:1021F00040F0548100200BB0BDE8F08F828D90F844
:102200000E51D0F8EC3006321144D0F8C42189B216
:102210006FF30205A0F8E8101981A3F10900D4F8C2
:10222000C81184F80E5122B194F86651AE0740F1FE
:102230008981002900F09D81D4F8CC21116843F8F0
:10224000091C106053F8092CC4F8CC01002A00F0D6
:102250008D816FF076000BB0BDE8F08F09FB1101A6
:1022600040F2E243134889B203FB01F1A1FB0001F4
:102270000DA3D3E90023FEF7CFFC361AFAE6124A83
:10228000184913484FF4426325F08EFE404080F316
:1022900011884FF0030002DFD9F800009AE66FF0D2
:1022A0000F000BB0BDE8F08F8D49FD1A070000004C
:1022B000042E002000CA9A3BFF5962027FC3C90165
:1022C000A01C002081670100CC050300AC060300C0
:1022D000DCFE02008D49FD1A99B4010099B201009B
:1022E0002967010098060300DFF81483012012F02B
:1022F000B5FC0746002800F04D81C2480EF002FDF3
:102300000546002800F04681BF4B1A68002A00F0FD
:10231000178112F0C1FC3B68D4F808215A602B7970
:10232000C4F8087143F003032B710C236B71002375
:10233000EB7194F81C312B72B44AD4F81831A2FB1B
:1023400003239B0AA5F80930B4F81031A5F80B3027
:10235000B4F81231A5F80D30B4F81431A5F80F30E7
:1023600094F80E31C4F8F060032262F3020384F89B
:102370000E31A368002B0ADAE168626823F000439B
:1023800091422CBF7618B618F31AC4F8F030A04B5F
:1023900001220935C4F8EC5002211046C3E9024875
:1023A0000EF084FD00283FF454AF9A4A9A499B48A6
:1023B00040F6733325F0F8FD404080F311884FF06C
:1023C000030002DF6FF0760015E7DFF854828DE737
:1023D000D0F8EC20D0F8C43190F8E40084F8E5009F
:1023E00094F80C01884984F80D0194F8840184F86C
:1023F000850100200860D4F8C801A2F10901B3B139
:1024000094F86651AD0712D494F8BF51EF070ED47B
:10241000D4F8D051AB4200F0D78058B9187900F009
:102420000300032800F0DF80C4F8C83104E000286E
:1024300000F0A980D4F8CC31186842F8090C196072
:1024400052F8093CC4F8CC11002B00F0A6806FF0C4
:102450008B00D0E690F8D930002B3FF491AD80F896
:10246000D92091E5B4F82CC094457FF4C1AD40F279
:10247000E24C0CFB03FE42F2107C0CFB01EC0CF175
:10248000FF3CBCFBFEFCB4F8C2E01FFA8CFCE64546
:102490007FF4AEAD012389F80430B9E501220221B1
:1024A00010460EF0D1FCA5E6226CA36C02FB18339B
:1024B000A3641BF0EDFA054694F8D800DFF86481B8
:1024C000C0F3C2001BF0E6FA054407FB05F5564BC6
:1024D00094F81C2105F5742505F23F25A3FB05356D
:1024E000AD0CA36C25640BFB02F205FB0AF0226520
:1024F0007A080344963A934228BF1346C4E911234D
:102500000023A0FB0801C4F8E0303BA3D3E900237B
:10251000FEF782FB3D4B361AD4F81801A3FB0030BE
:10252000800A0BFB00F0A0FB080133A3D3E90023D2
:10253000FEF772FB7D1BB4F8109120F07F48B6E5E2
:102540001C60E6E694F8BF51ED073FF572AED4F893
:10255000D051AA4226D000297FF46EAE117901F045
:102560000301032962D0C4F8C82167E6C4F8D40186
:102570006FE643F8092CC4E97100C4F8CC01002AC5
:102580007FF467AEF2E742F8093CC4E97111C4F880
:10259000CC1159E76FF068002DE6C4F8D4116FF044
:1025A0008B0028E61568C4F8D05100297FF444AEAA
:1025B000116843F8091C106053F8092CC4E9720033
:1025C000002A7FF446AED1E71D68C4F8D051002838
:1025D0007FF430AF186842F8090C196052F8093CD2
:1025E000C4E9721130E7D8790328F3D00A287FF4C0
:1025F0001BAFEFE7AFF300808D49FD1A0700000025
:10260000F9BA0100982E0020042E00205917B7D1E6
:1026100008060020CC0503007C030300DCFE02005A
:102620009133000000CA9A3B83DE1B43D179032912
:10263000BED00A2997D1BBE7074A0849084840F6A7
:10264000C73325F0B1FC404080F311884FF0030000
:1026500002DF4FF0000849E6CC05030074FF0200DA
:10266000DCFE0200000000002DE9F04F0B6891F83D
:1026700011901B68D2F800A097B005460B93037F1A
:10268000D0F81E001490C3F380138DF84730B9F1D1
:10269000FF0F6B8CADF854300C4617460DF1500807
:1026A0004BD198E803001290ADF84C102B46EA8D00
:1026B00053F82EBB9B78BB723A81D5F82A307B60E9
:1026C000D5F83A30BB6107F1180095F83E30037138
:1026D00005210EF0E9FC7B7F95F83F2000F03F00DC
:1026E00060F305037B77C2F30403BB77AE8EFE81F4
:1026F0000128B6B202F01F0305D91B3303F01F03F4
:102700000B2B00D82EBB0B9BEC6800225A6197F86C
:102710002030012662F3000387F82030584629460E
:102720002E7112F08BFA20682671214612F086FA7B
:1027300012F08EFA17B0BDE8F08F12AA0DF1470122
:10274000484619F08DFC9DF8473002338DF847302C
:10275000ACE723680021596095F8371095F83630BA
:1027600043EA01233B829AF8D830520962F3C50349
:102770006A8E0D928AF8D83040F2E24202FB06F6E9
:102780001BF086F90C909AF8D800C0F3C2001BF039
:1027900081F90C9BC249034406FB03F303F5742340
:1027A00003F23F23A1FB03239B0C7B6295F831309E
:1027B000398A40F2E24203FB02F27308963BBA63A5
:1027C000BB622B8FB74AADF83A3018463244B64B4D
:1027D000B2FBF6F2AAF8C62082B242F2107000FBF9
:1027E00002623344013A881DB2FBF6F2B3FBF6F302
:1027F000AAF8C2209AB28242AAF8CE2004DDC1F51E
:102800007F41FA310A4492B2AAF8CA207B68CAF81A
:10281000DC302B4613F81C2FC2F34011DA070F915E
:102820000C9100F117814FF48073AB830B9B93F8ED
:1028300026001AF0C5F905F12B03002800F0ED8001
:102840006A6AC5F82B202A8D9A80B9F1FF0F00F033
:10285000E880B8F804301498A5F82930C5F82500A8
:102860009DF84730AB771298BDF84C30C5F81F0083
:10287000A5F823309AF8D830FA896A863A8AAA8667
:10288000C3F3C203BDF83A2085F83830EA865046D3
:1028900014F0CAFB2946B881E8806568584612F0F2
:1028A000CDF9BB89EB801B232B710C9BD5F80080E5
:1028B000002B40F0BC809DF83C302B7729464046E9
:1028C00012F0BCF912F0C4F997F84500B7F840507F
:1028D000B7F84280012100F007001AF0E7FEA84493
:1028E00008F5E178834608EB000170484FF00009D5
:1028F0003123CAF80830A1FB000167A3D3E9002304
:10290000CAF80490CAF80C90FEF786F97B6A0D9A13
:10291000E56820F07F40F61A40F2E24303FB0255DF
:1029200002214A46CAF8100001200EF08DFA0B9FD2
:10293000384613F07DFA821C5D4B0097D2B24846B0
:1029400001210FF009FD05F2B2450128A5EB0B05A9
:1029500000F08D800B9B93F82430DB0772D4504637
:1029600014F062FBDFF84491A6FB09864AA3D3E981
:102970000023834631464046FEF74EF9A368CDF862
:1029800018A00BF10504A3F13A0B4A4B07934A4BED
:1029900005934FF4E4730893DAF81030049320F0B1
:1029A0007F4746480023A7FB000103930723B8EBAA
:1029B000000003FB071166EB01014FF47A7200235C
:1029C000FEF72AF934A3D3E90023CDE90170A5FB72
:1029D0000901FEF721F9E4B220F07F4000905B4648
:1029E0002246012100200FF02DFC30F002030CD014
:1029F000334A3449344840F2C91325F0D5FA4040EF
:102A000080F311884FF0030002DF012202211046FB
:102A10000EF01AFA17B0BDE8F08FC5F82B009880B9
:102A200013E70022C5F82520A5F8292018E77B7FA9
:102A300043F040037B77381D19F00EF90123F8832A
:102A40002B773BE7002301220093184611460FF035
:102A500083FC84E71A4A1D491B48F12325F0A4FA98
:102A6000404080F311884FF0030002DFDBE612F0F4
:102A70009BF90B9B83423FF46DAF114A14491248F6
:102A800040F29F2325F090FA404080F311884FF0E8
:102A9000030002DF5EE700BF8D49FD1A070000005A
:102AA00083DE1B43FF5962027FC3C90100CA9A3B00
:102AB0005DB201002DB2010099B201008D49FD1AED
:102AC000C8070300AC060300DCFE02000801030097
:102AD00024080300000000002DE9F04F8BB00F46E2
:102AE0000493BDF85830059006930020BDF860307F
:102AF0009DF85490BDF85CB00393164613F0DAFBD2
:102B0000002800F09D8109F0010A054650460FF0AB
:102B1000EBFCBAF1000F6AD12B6A05F11C02079297
:102B2000002B6BD0D5F82080D8F8004098F84400EE
:102B3000C0F3C00100F007001AF0B6FDB8F840106D
:102B400000F5E1700144B8F842000144C648C4A34E
:102B5000D3E90023A1FB0001FEF75EF820F07F40DF
:102B60002061304619F096FD95F833306FF341033C
:102B700085F83330FF2385F8343066B3A9F10203BA
:102B8000012B40F2618195F84410049C059A69F389
:102B9000420185F8441095F8331064F3000185F87C
:102BA00033101499096869621499898829850399F1
:102BB00029863B4605F11C0000210096FFF7D0F85E
:102BC0001AF012FF002840F05B812846FFF7F4F866
:102BD0000BB0BDE8F08F1AF0A1F90028CED01499FF
:102BE0000498324619F0C6FE85F83400C6E706217F
:102BF0000EF0CEF800288FD11220E9E712F006F887
:102C00000790002800F0738114F002FA04460028AF
:102C100000F08F8120300EF05BFA04F11C080028D0
:102C200040F05881032104F124001AF0EBFB069BCD
:102C3000606F63854FF6FF73A4F82CB023850028DE
:102C400000F0578104F1640104F168020EF0ACF861
:102C5000B4F86030854A23F4EF6323F0070343F4AC
:102C6000887343F00103A4F8603094F87A3023F0BD
:102C700007034FF0000B84F87A304FF01B13C4E9C0
:102C80001632C4F874B0A4F878B0A4F82EB0C4F822
:102C900030B004F1340018F091FF94F8393060F34B
:102CA0000503012184F839300DF127001AF0AAFB41
:102CB0009DF827206E4BDDF80CC0A08D84F83BB04A
:102CC000A3FB0213DB0803EB4303A2EB83030533EF
:102CD00084F83A3094F839300699A4F8C4B003F077
:102CE0003F0384F8393094F83C30A4F8C8B023F09E
:102CF000030340F2E24284F83C305E4BA4F8D0B0CB
:102D000002FB01F10A460B44B3FBF1F35A49A4F864
:102D1000CCB01144B1FBF2F1A4F8C61042F210712C
:102D200001FB0C210139B1FBF2F2A4F8C22006220A
:102D3000A4F8C020811D9AB28A42A4F8CE2002DDF8
:102D4000063A121A92B294F8D830A4F8CA204FF07A
:102D5000000B23F0070384F8D830A4F8E4B084F81B
:102D6000E6B0C4F808B1A4F80CB1A4F820B111F091
:102D70000FFA079BC4F8443194F83A31A4F838B1FB
:102D800023F0030384F83A3194F87A30A4F840B180
:102D900023F0180384F87A3094F8663184F843B14C
:102DA00023F0070384F8663194F88631A4F864B1FF
:102DB0006BF3451384F8863194F8AE31A4F884B1EE
:102DC0006BF3C303002284F8AE310023C4E94A0147
:102DD000C4E94C23A4F8ACB1A4F8B8B114F060FC79
:102DE000A4F8D20014F062FCD4F8BC21234BA4F860
:102DF000D4001340C4F8BC3114F05EFC94F8C03128
:102E000060F3020384F8C03114F05CFC94F8C03124
:102E1000C4F8C4B160F3C50384F8C0313123C4E9F8
:102E200074BBC4E972BBC4F804B0C4F80CB0A360AE
:102E3000C5F82080C4E905BB84F800B0E46175E6FC
:102E40000C200BB0BDE8F08F002019F047FC95F87E
:102E5000333043F00203D14685F8333093E600BFA8
:102E60008D49FD1A0700000000CA9A3B480148013D
:102E7000ABAAAAAA7FC3C901FF5962020000FFF6EC
:102E80002C6AA36D63B12D4A2D492E484FF49763E8
:102E900025F08AF8404080F311884FF0030002DFEC
:102EA00004F14C0104F148000DF082FF06460028B1
:102EB00031D02768A665D7F84441F4B1204611F017
:102EC000ABFE384614F0AAF8002303202B620BB0A7
:102ED000BDE8F08F194A1C491A48BF2325F064F851
:102EE000404080F311884FF0030002DF9AE607208C
:102EF0006EE604F16C006067A4E6104A13491148BD
:102F000040F2C14325F050F8404080F311884FF063
:102F1000030002DFD2E7094A0C490A4840F2BA43EB
:102F200025F042F8404080F311884FF0030002DFA3
:102F3000BFE7079811F070FE072049E66808030014
:102F4000D4040300DCFE0200540203002406030044
:102F50002DE9F04F044690F81C80238D406A8DB017
:102F6000C8F3401BADF82C30E307C8F3C016894600
:102F700015460A90D84600F1F9800023A38399F8FA
:102F8000123099F8110013F001031CBFD4F81E3061
:102F9000C4F82B3004F12B0214BF638CC4F82B301F
:102FA000FF28938004F1250704F11F0240F0D08030
:102FB0000023BDF82C100A98C4F82530BB80A677F2
:102FC000C4F81F009180D9F80030D3F800A0EB8935
:102FD00063862B8AA386BAF83030E3861AF056FD52
:102FE00084F838002E68304614F01EF8D9F80470C2
:102FF000A8812146E080206811F020FEAB89FB808B
:103000001B233C683B71B8F1000F40F0BD8087F88E
:103010001CB03946204611F011FE11F019FE7368FC
:10302000B76895F84400B5F80EB0D9F80C409F4247
:1030300038BF1F46C0F3C00140F2E24300F0070072
:1030400003FB0BFB1AF030FB203400220221241A70
:1030500001200DF0F9FE504613F004F9021D524B09
:10306000CDF800A0D2B2012100200FF075F930F0A8
:1030700002030CD04D4A4E494E4840F2C93324F069
:1030800093FF404080F311884FF0030002DF0025DA
:103090002B4603220121009528460FF05DF93046AA
:1030A00013F0C2FFD9F808300696A3F10908424B85
:1030B0000793424B059340F2F933DFF804910893EC
:1030C0003369ABFB09B6CDE90353A8EB070834A37A
:1030D000D3E90023471D31465846FDF79DFD1046B4
:1030E00019464FF47A720023FDF796FD2CA3D3E91D
:1030F0000023029031465846FDF78EFD28A3D3E900
:1031000000230190A4FB0901FDF786FDFFB220F02A
:103110007F40009043463A46012128460FF092F83E
:1031200030F002030CD0214A2149224840F2FA3300
:1031300024F03AFF404080F311884FF0030002DF93
:103140000122022110460DB0BDE8F04F0DF07CBE0B
:1031500004F11E0118F084FFA37FBDF82C200A980B
:10316000C4F825000233A377BA802CE70F4A15492B
:1031700010484FF4527324F017FF404080F3118839
:103180004FF0030002DFF8E66B7F43F040036B77FC
:10319000281D18F061FD0123E8833B7739E700BF64
:1031A0008D49FD1A0700000065B40100680803009E
:1031B000AC060300DCFE020069B4010099B4010012
:1031C00000CA9A3B080103002DE9F04F8FB01E465C
:1031D00009931546FF230A1DDFF80481DFF804B1C7
:1031E000DFF804A1DFF80491089200213160044661
:1031F0008DF82F3004930C91059106910DAF0CAE14
:1032000002230D93CDE9018700962B460DF12F0285
:10321000214600200FF0E2F802282DD00D9B002B54
:1032200030D19DF82F30FF2B3CD0052BE8D100206A
:1032300013F002FF0028E3D090F93930002BDFDBD8
:10324000049902690C9BFF290CD006990792184635
:1032500004930FF023F9059B089A99188842049B60
:10326000079A22D8CDE905239DF82F300493C7E7AC
:10327000214600200FF0F8F80D9B022BF8D00D9B93
:10328000002BCED073235A465146484624F08CFE7C
:10329000404080F311884FF0030002DF9DF82F308B
:1032A000FF2BC2D1049BFF2B10D0DDE90532104863
:1032B0001344A3FB0001072202FB031106A3D3E979
:1032C0000023FDF7A9FC099B803018600FB0BDE812
:1032D000F08F00BFAFF3008000CA9A3B00000000EF
:1032E00041B80100C008030004090300DCFE02002D
:1032F0008D49FD1A0000000070B582B01C46019295
:103300001546064601AA0220FFF75EFF23680BB3AD
:103310000198431B1B021FD429460FF0BFF81A4A1D
:1033200003460721A0FB020201FB032114A3D3E9FA
:103330000023FDF771FC226802442260002A09DBA9
:1033400040F2E24006FB00F0904203D2121A8242A1
:10335000FCD8226002B070BD014628460FF09EF8EE
:10336000094A03460721A0FB020201FB032104A333
:10337000D3E90023FDF750FC2268121A2260DDE732
:1033800000CA9A3B000000008D49FD1A00000000B1
:103390002DE9F041B0F8941188B0044640F2E243C0
:1033A0004748002603FB01F105AD0623C5E9016688
:1033B0008DF80F30A1FB00013FA3D3E90023059650
:1033C000FDF72AFC0DF10F0301950093B4F88A3143
:1033D000049004AA2046012118F034FA9DF80F80C9
:1033E00008F1FF3C5FFA8CFC0DF11603304604F542
:1033F000CA7703EB4C0C04F5D0764FF6FF7E3A8883
:10340000B8F1000F0AD02B46724504D019889142BA
:103410004FF001001DD002339C45F5D10237BE426A
:10342000EDD1D4F8EC3048BBBDF8142040F2E241B5
:1034300002FB01F1100AC4F818111A70587094F8C0
:103440000E31042262F3020384F80E3108B0BDE8A5
:10345000F081D4F8EC1040F2E24302FB03F3100ACF
:10346000C4F818310A70487094F80E31042262F3DF
:10347000020384F80E3108B0BDE8F081032203F89E
:10348000042C13F8052C94F80E11052542F00302C4
:10349000112003F8020C03F8052C65F302010F203C
:1034A000202203F8010C1A7084F80E1108B0BDE850
:1034B000F08100BFAFF300808D49FD1A07000000C6
:1034C00000CA9A3B0000000038B504461BF06EF9B4
:1034D000A27DC2F34103013303F00303032B34D075
:1034E00063F34202A27503F125001AF09BF86368AA
:1034F0000BB32369FBB11CF065FE05460EF0CCFF53
:10350000C11C00201CF02CFE1CF0A8FE1CF05AFE72
:1035100029460EF0C3FF124903460722A0FB010112
:1035200002FB03110CA3D3E90023FDF775FB23690C
:103530001B1A236138BD0EF0AFFFC11C00201CF028
:103540000FFEBDE838401CF089BE6FF34202A27541
:103550002520CAE7AFF3008000CA9A3B00000000B4
:103560008D49FD1A000000002DE9F04F87B0044698
:103570001CF006FCC0B250B91AF0ACF8BE482146A7
:103580001CF0D8FA07B0BDE8F04F1CF0CFBB1CF020
:1035900017FC05461CF036FD83461CF03DFD8146B8
:1035A0001CF04AFF06461CF02BFF82461CF0EEFC86
:1035B000EDB280461CF0D0FC1AF08CF8002DDDD066
:1035C000012011F097FC0546002800F091811BF0C6
:1035D000FF0BF6B240F08381002E40F0E080FF2721
:1035E0005A463B46314620461BF00EFB0028C5D00C
:1035F0002B7F626800218DF813105FFA88F803F0C2
:103600000F01002A00F0E780626892F820209007FE
:1036100000F1E1800729B1D0A27D120740F1768147
:10362000002940F0C2806B7F252B00F236810420F8
:1036300011F060FC0028A1D01CF018FE636A8046DF
:1036400043B9238C40F2712202FB03F3B0FBF3F287
:1036500003FB120823681A69884B0721A2FB0303A6
:1036600001FB023182A3D3E90023FDF7D5FAA0F2D2
:103670004233434582D31CF061FC3846636819F03D
:10368000ADFAE37D9B07814640F1E281002800F01E
:10369000DF8183464FF0010A1CF0A0FB2B7F05AAB7
:1036A000039205F11E0201468046C3F38013009287
:1036B00020460022CDE901AB1BF0C0FA40461CF0C9
:1036C00013FB1CF053FB002840F0DC816C482146C2
:1036D0001CF030FA6168A37D91F8202043F080034C
:1036E00042F0010281F82020A37511F021FC16227E
:1036F000027195F81CE04FF6FF724346C280824685
:10370000CEF3401E00F11C0208F120081D68586825
:103710009968D3F80CC0C2F80CC01033434515604B
:103720005060916002F11002F0D11B6813609AF8AA
:103730001C30CAF808406EF345138AF81C301CF0A0
:1037400041FD0021CAF810000120059D1CF0DCFAA3
:10375000002E08BFFF278AF81970E37D2D1A13F099
:103760000203CAF8145000F07A81B9F1000918BFB9
:103770004FF001099AF81A3069F300038AF81A30F9
:1037800011F0D6FB03465146DAF80000CAF80C30B7
:1037900011F0E4FB11F0F2FB07B0BDE8F08F5FFA27
:1037A0008AF019F0A9FA07461AE7012915D16B7FAB
:1037B0000C2B7FF4E3AE2A7F009700230193D209FC
:1037C00005F1240320461BF071F900287FF42FAF88
:1037D000297F01F00F01002954D0062952D0022977
:1037E00000F0A780012958D16B7F0C2B7FF4C6AE67
:1037F0002A7F00970DF113030193D20905F12403E9
:10380000002120461BF052F9002846D06B7F002B88
:103810003FF4B4AE63682BB12B7F03F00F03072B8B
:103820007FF4ACAE03209DF8139011F063FB0546C6
:1038300000283FF4A3AE11F07BFB4FF6FF73EB8043
:1038400005232B71B8F1000F6FD17F20AB7E287656
:10385000002E08BFFF2769F341032868AB7629468D
:103860006F7611F07BFB11F089FB87E6AFF30080E8
:1038700000CA9A3B0000000065E801008D49FD1A6E
:103880005DEA01006B7F252B07D8A27D920602D549
:103890006268002A4FD0252BB9D92B7F03F00F0384
:1038A000042B7FF46BAE6B7F252B3FF667AEA37DB9
:1038B000D9077FF563AE1CF091FA2B7F0278C3F332
:1038C0008013B3EBD21F7FF459AE0830062205F106
:1038D0001E012AF038FE00287FF450AE96E7A07D46
:1038E0005FFA89F1C0F3C00019F09CF9074677E64A
:1038F000724A7349734840F2C32324F055FB404099
:1039000080F311884FF0030002DF60E6FF2F8DF88F
:103910001470C3F3801977D0237EDB1BB3FA83F3D3
:103920005B09002B7FF47CAE55E71CF021FBC0B295
:103930008CE76B7FAFE796201CF084FB00201CF027
:1039400055FA032011F0D6FA814600283FF416AE4E
:1039500011F0EEFA4FF6FF73A9F80630052389F847
:103960000430B8F1000F6FD17F23002E89F8183092
:1039700014BF3B46FF2389F8193099F81A30D9F85B
:1039800000006FF3410389F81A30494611F0E6FA56
:1039900011F0F4FA1CF022FA2B7F0646C3F38013D1
:1039A0003278DB0102F0700243F0030313433370FB
:1039B0000C233846737019F011F9E37D9F0750D539
:1039C00000284ED03278334642F0400203F8022BF2
:1039D0000268C6F8022082889A80D5F81E30B3604B
:1039E0006B8CB38130461CF07FF91CF0BFF90028C6
:1039F00056D11CF033FCA37D334843F00103A3757B
:103A000021461CF097F8C7E605F11E0A05AA5146A3
:103A1000484619F027FA00283FF4DAAEE37D03F0B8
:103A200001034B457FF4D4AE5146062204F1080051
:103A30002AF089FD297FB0FA80F35B0901F00F01BC
:103A4000002B7FF4EDADC6E61CF092FAC3B28CE712
:103A500094F816A004F1190BCAF3801A1CE69946D3
:103A600088E6A37D3278C3F3801363F3861233466E
:103A700003F8022BD4F81920C6F80220B4F81D2050
:103A80009A80AAE70D4A11490E4840F2914324F06A
:103A90008BFA404080F311884FF0030002DF15E6F7
:103AA000064A0A49074840F2165324F07DFA40407E
:103AB00080F311884FF0030002DF9AE7880D0300BE
:103AC000340D0300DCFE020079E801003C0D030028
:103AD00070B50329144688B005461A466DD8002CE7
:103AE0003CD0072C58D15B6810683D4AD917C0FB01
:103AF0000231012B71F1000222DB3A48181836A37B
:103B0000D3E9002341F10001FDF736F880B2022825
:103B10001ED004281ED008281ED0102832D103231E
:103B200031492A6951F823101161526814691B0147
:103B3000302223212846A44608B0BDE870406047E3
:103B40002A48181861F1000123A3D3E90023DBE719
:103B50000023E5E70123E3E70223E1E71A88244B8A
:103B600033F8021B8A420AD12E69736802AA9B6845
:103B7000202128469847002807DA08B070BD013494
:103B80000B2CEDD16FF01500F7E79DF80820110719
:103B9000234604D4082C05D16FF08500EDE70A2CEC
:103BA00008BF092302F00F0242EA03127368D2B27F
:103BB000DB68202128469847DFE70E4B0693022357
:103BC000019305930C48002305AA4FF4845124F077
:103BD0006FFFE1E7AFF300803AA39500000000001B
:103BE00040420F009DD14A00C0070020632EB5FF60
:103BF000D81303002E3B03002CF502000000000048
:103C00002DE9F04F446A99B016461F46CDE9046786
:103C1000DDF89480054674B9102022F063F802465E
:103C2000686220B9A84BEA21A84823F0E1FCC0E96A
:103C300001440460C4606B6A196851B15A684A60F3
:103C4000012393408B60284622F034FD6B6A0022EA
:103C50001A603B1EB9BF23F0004305930023C8F848
:103C60000030DDF814909A4BBCBF0122C8F8002048
:103C700033EA090319D1249A42F20F731360C9F38E
:103C80001303334300F08085269B53B9914B22E008
:103C9000914B03930833269A1360039819B0BDE83B
:103CA000F08F8C4B03930333F5E7DDE90434CDE962
:103CB0000C34DDE90C0100220023FDF71DF88046DD
:103CC00058B1249A01231360269B002B00F05985DC
:103CD00082481860431E0393DFE716AB019317ABCE
:103CE00000932846DDE90C2322F05CFFC9F30A5457
:103CF0008346002C7ED00D9BCDF84C80C3F313037C
:103D0000DDE90C0143F07F5141F44011A4F2FF348E
:103D1000734B0022FCF738FA65A3D3E90023FCF7C4
:103D2000EBFB65A3D3E90023FCF730FA06462046F7
:103D30000F46FCF777FB62A3D3E90023FCF7DCFB1B
:103D400002460B4630463946FCF720FA06460F4637
:103D5000FDF71AF800228246002330463946FCF768
:103D6000D5FF48B15046FCF75DFB32463B46FCF7B9
:103D7000C3FF08B90AF1FF3ABAF1160F57D8594BE9
:103D800003EBCA03D3E90023DDE90C01FCF7BEFF16
:103D900000284ED00AF1FF3A00230F93169B1C1BFC
:103DA000631E099345BFC4F101030693002300235A
:103DB0004CBF09930693BAF1000F3CDB099BCDF889
:103DC00038A05344099300230A93229B092B00F245
:103DD0008D80052BC4BF043B2293229BA3F10203D9
:103DE000CCBF00240124032B00F28C80DFE803F019
:103DF0002D4F4D5BDDE916431C4404F23243202B6A
:103E0000C3BFC3F1400304F2124009FA03F3C3F144
:103E10002003C6BF26FA00F0184306FA03F0FCF7A9
:103E2000F1FA0123A1F1F871013C139370E701232A
:103E3000B3E70F90B2E7069BA3EB0A030693CAF120
:103E400000030A9300230E93BFE700230B93239BE9
:103E5000002B5ADC4FF00109CDF820904B46CDF8ED
:103E60008C90686A00224260042202F114069E428D
:103E7000416850D9284622F0DDFB039000284ED13E
:103E8000194B02464FF4D571CEE60123DEE700233D
:103E90000B93239B0AEB030909F10103012B089300
:103EA000B8BF0123DDE70123F2E700BFAFF30080D5
:103EB00061436F63A787D23FB3C8608B288AC63F30
:103EC000FB799F501344D33FDC3E0300F33E0300D5
:103ED0000000F07FD83E0300CF3E03002321030003
:103EE0000000F83F70F702004D3F0300012400235B
:103EF00022930B944FF0FF390022CDF8209012232B
:103F00002392AEE701230B93F4E7DDF88C90CDF814
:103F100020904B46A5E7013141605200A5E76B6A4E
:103F2000039A1A60089B0E2B00F2A880002C00F068
:103F3000A580BAF1000F34DD9A4A0AF00F0302EBB4
:103F4000C303D3E900341AF4807FCDE910344FEA7B
:103F50002A1416D0944BDDE90C01D3E90823FCF7B1
:103F6000F5FBCDE9040104F00F0403278E4E54B98C
:103F7000DDE91023DDE90401FCF7E8FBCDE90401EC
:103F800029E00227F2E7E10708D5DDE91001D6E9CB
:103F90000023FCF7B1FACDE91001013764100836AF
:103FA000E5E700F0A580CAF100047E4B7E4E04F0E8
:103FB0000F0203EBC203D3E90023DDE90C01FCF798
:103FC0009BFACDE90401241100230227002C40F0C4
:103FD0008480002BD2D10F9B002B00F08B80DDE979
:103FE0000434CDE91034DDE91001704B0022FCF7F8
:103FF0008DFE00287ED0089B002B7BD0B9F1000FEE
:1040000038DDDDE910016A4B0022FCF775FACDE9D5
:1040100004010AF1FF3801374C463846FCF702FA32
:10402000DDE90423FCF768FA624B0022FCF7AEF8E6
:10403000A1F15076CDE910011196002C5DD1DDE99A
:1040400004015D4B0022FCF79FF802460B46CDE9C8
:104050000423109A3346FCF777FE002840F09C8238
:10406000DDE90401109A06F10043FCF74FFE002839
:1040700040F09082DDE90C34CDE90434179B002B2D
:10408000C0F25281BAF10E0F00F34E81454B03EBA3
:10409000CA03D3E90034CDE90634239B002B80F218
:1040A000DB80089B002B00F3D78040F07282424BEC
:1040B0000022DDE90601FCF71FFADDE90423FCF725
:1040C00039FE089C2646002840F04882039F312391
:1040D00007F8013B0AF1010A44E2E20705D5D6E9F7
:1040E0000023FCF709FA01370123641008366DE755
:1040F000022770E7089CD0468FE70399294B21449B
:1041000012910B9903EBC403DDE9106753E9022315
:10411000002955D029490020FCF718FB3B463246C0
:10412000FCF732F8CDE91001039FDDE90401FCF74B
:104130002BFE0446FCF776F902460B46DDE9040146
:10414000FCF722F8303402460B46CDE9042307F889
:10415000014BDDE91023FCF7D9FD002874D1DDE91E
:10416000042312490020FCF70FF8DDE91023FCF7C7
:10417000CDFD002840F0B780129B9F423FF47AAFFC
:10418000DDE910010A4B0022FCF7B6F9084BCDE936
:1041900010010022DDE90401FCF7AEF9CDE90401CC
:1041A000C3E700BF70F7020048F702000000F03FCD
:1041B0000000244000001C40000014400000E03FCC
:1041C00030463946FCF798F9CDE91001129B039C63
:1041D0001493DDE90401FCF7D7FD1590FCF722F9F3
:1041E00002460B46DDE90401FBF7CEFF159B303399
:1041F00004F8013B129B9C4206460F464FF000021A
:1042000024D1A44BDDE91001FBF7C0FF02460B46A9
:1042100030463946FCF798FD002863D1DDE91023CC
:104220009C490020FBF7B0FF02460B46304639465A
:10423000FCF76CFD00283FF41DAF149F7B1E149308
:1042400017F8013C302BF8D0C2463BE0924BFCF70C
:1042500053F9CDE90401BCE7DDE90489039FDDE9F9
:10426000062340464946FCF771FAFCF78DFD0446EB
:10427000FCF7D8F8DDE90623FCF73EF904F1300637
:1042800002460B4640464946FBF77EFF07F8016BA6
:10429000039EDDF820C0BE1BB44502460B4636D156
:1042A000FBF774FFDDE9062380468946FCF74CFDE9
:1042B00058BBDDE9062340464946FCF71DFD08B121
:1042C000E10722D42846594622F0F4F900233B7036
:1042D000249B0AF101001860269B002B3FF4DDAC03
:1042E0001F60DAE427463B461F4613F8012D392AA2
:1042F00007D1039A9A42F7D10399302208F10108B5
:104300000A701A7801321A709EE7D046EBE7624BCA
:104310000022FCF7F1F80022002380468946FCF7D2
:10432000EBFC00289BD0CDE70B9A002A00F0D08050
:10433000229A012A00F3B280139A002A00F0A68084
:1043400003F233430A9C069F069A1A440692099A7E
:1043500001211A442846099222F014FA0646002F39
:104360000CDD099B002B09DDBB42069AA8BF3B462A
:10437000D21A0692099AFF1AD31A09930A9BF3B12B
:104380000B9B002B00F0A880002C10DD314622464C
:10439000284622F0B5FA5A4601460646284622F03B
:1043A00007FA59468046284622F084F9C3460A9BFC
:1043B0001A1B04D05946284622F0A2FA834601214E
:1043C000284622F0DFF90E9B002B044640F386803E
:1043D0001A460146284622F093FA229B012B0446F6
:1043E0007FDD4FF00008236904EB830318692AF08E
:1043F00013FBC0F12000099B184410F01F0000F0CF
:104400009280C0F12003042B40F38A80C0F11C008D
:10441000069B03440693099B034407440993069BA8
:10442000002B05DD59461A46284622F0C3FA83467A
:10443000099B002B05DD21461A46284622F0BAFAD0
:1044400004460F9B002B70D0214658462AF031FBC2
:1044500000286ADA002359460A22284622F04CF93D
:104460000B9B0AF1FF3A8346002B00F09481314602
:1044700000230A22284622F03FF9B9F1000F064630
:1044800000F39380229B022B57DC8EE0169BC3F136
:10449000360357E70000E03F00002440089B5C1E05
:1044A0000A9BA342BFBF0A9B0A94E21A0E9BB6BFA7
:1044B0009B181C1B0E93089BB8BF0024002BB9BF90
:1044C000069B089A069F089BBCBF9F1A00233BE7E8
:1044D0000A9C069F0B9E42E70A9A6BE7229B012BE0
:1044E00019DC049BBBB9059BC3F313039BB9059B64
:1044F00023F000431B0D1B0583B1069B013306937C
:10450000099B013309934FF001080E9B002B7FF4A8
:104510006AAF01206FE74FF00008F6E79846F4E72E
:104520003FF47DAF18461C3072E7089B002B36DC49
:10453000229B022B33DDDDF82090B9F1000F0DD165
:1045400021464B460522284622F0D6F8014604466D
:1045500058462AF0AEFA00283FF7B8AD239B039FD8
:104560006FEA030A4FF000082146284622F0A2F81D
:10457000002E3FF4A7AEB8F1000F05D0B04503D030
:104580004146284622F096F83146284622F092F815
:1045900098E600242646E1E7C246264696E50B9BB0
:1045A000DDF82090002B00F0FD80002F05DD314666
:1045B0003A46284622F0FEF90646B8F1000F5CD0D4
:1045C0007168284622F036F8074628B9804B024623
:1045D00040F2EA21FFF728BB32690232920006F16D
:1045E0000C010C3029F0BFFF01223946284622F089
:1045F000E1F9039B01330893039B4B440A93049B0B
:1046000003F00103B04609930646089B2146013B8F
:10461000584604932AF079F9034630330690414610
:1046200058460B932AF045FA3246814621462846E1
:1046300022F030FAC2680B9B074602BB014658467F
:104640002AF037FA0B9B024639462846CDE90B3251
:1046500022F030F8229B0C9A089F43EA0201099B42
:104660000B430B9B0DD1392B29D0B9F1000F01DD84
:10467000069B3133049A137076E73046B9E701227E
:10468000E2E7B9F1000F06DB229941EA090909992D
:1046900059EA010120D1002AECDD594601222846C1
:1046A000089322F087F9214683462AF002FA00286F
:1046B000089B02DCDED1DA07DCD5392BD8D1049A8D
:1046C000392313703B461F46013B17F8012C392A4A
:1046D00050D001321A7047E7002A03DD392BEED0A3
:1046E0000133C7E7089A0A9902F8013C8A422AD0A6
:1046F000594600230A22284621F0FEFFB045834692
:104700004FF000034FF00A024146284607D121F03E
:10471000F3FF80460646089B0133089375E721F0B6
:10472000EBFF3146804600230A22284621F0E4FFB1
:104730000646F0E7B9F1000F039ACCBF4F460127B8
:1047400017444FF00008594601222846089322F0EA
:1047500031F9214683462AF0ACF90028B2DC02D1B7
:10476000089BDB07AED43B461F4613F8012D302AC9
:10477000FAD0F9E6039A9A42A5D10AF1010A312347
:1047800079E7144BFFF7A7BA269B002B7FF480AA8A
:10479000114BFFF7A0BAB9F1000F03DC229B022BEB
:1047A0003FF7CBAE039F214658462AF0AEF800F102
:1047B000300307F8013B039ABA1A9145BADD59460E
:1047C00000230A22284621F097FF8346EBE700BF2B
:1047D0004D3F030022210300CF3E030030B587B0D8
:1047E0000B7A0593CB7904938B7903934B790293DE
:1047F0000B790193CB7800938B784A7805460C4669
:104800000B48097823F0D0FB0A490E238B810A4B11
:104810000B600A4B8C6018688D8009F0D9FF28B1B5
:10482000074807B0BDE8304023F0BEBB07B030BD3D
:104830002C140300A4210020F9480000A02100202E
:10484000431403001FB50E240294044C0194BDF8D8
:104850001840009427F09AF904B010BD9039002058
:1048600070B5002088B005F013FA064630B1014655
:10487000104808B0BDE8704023F096BB0E4D0F48BD
:1048800023F092FB0FCD03AC0FC42B6823600C49BF
:1048900000963346022203A806F0E2F8014620B152
:1048A000084823F081FB08B070BD074823F07CFB6B
:1048B000F9E700BF4914030050F602006914030031
:1048C00038F8020080140300A614030008B5074856
:1048D00023F06AFB064B00221A70FFF7C1FF054B5D
:1048E0001868BDE8084025F0B0BF00BFC814030039
:1048F0009E390020A021002010B5144611B10548B2
:1049000023F052FB20461022BDE81040002129F080
:104910004BBE00BFE61403002DE9F04380468BB088
:1049200014460D4679B9374B1B8813B9364823F026
:104930003BFB14220021204629F036FE002630469B
:104940000BB0BDE8F083314BBFF35B8F012253E81E
:10495000001F43E800200028F9D1BFF35B8F2C48EB
:10496000298A23F021FB267C56BB2A4BD4F800C0B1
:104970006A4603F11009964618685968174603C736
:1049800008334B453A46F7D11B783B707146604679
:1049900025F0FCFA074698B91F4823F005FB2B8A3F
:1049A000276001332381032321462374404609F005
:1049B00029FB01460028C2D0184823F0F5FABEE7CB
:1049C000237C032B1BD1ED68154B2E6805AA03F140
:1049D000100C174618685968144603C40833634519
:1049E0002246F7D11B7823703946304625F0CEFA9F
:1049F00028B90C4823F0D8FA024BAA881A8001265D
:104A00009DE700BF58390020FC1403009C210020C2
:104A10001615030064F602002D150300411503006E
:104A200075F602005B15030070B592B00E4625F0D6
:104A3000D4FF0378044607AD032B25D8DFE803F045
:104A4000021E20221349284629F020FFA37905954C
:104A500062780492A2780392E2780292227901921B
:104A6000627900921E210C4A0AA823F0AAFA0B4888
:104A700032460AA923F098FA12B070BD0849E2E75D
:104A80000849E0E70849DEE7084A0A21284623F0FA
:104A900098FADBE76715030089150300AC150300DE
:104AA0006E150300751503007F150300A93303007D
:104AB00037B5144D044631B1134823F075FA00237D
:104AC0002B7003B030BD114823F06EFA104A012359
:104AD000D2F83600D2F83A102B706B4603C320464A
:104AE00025F098FE0B4B69461860204625F0D8FF4C
:104AF0000028E6DA084C204623F056FA0A2023F074
:104B0000A3F9F8E79E390020C2150300E21503005F
:104B100050F60200A0210020FB150300F0B585B07F
:104B20001C462B48BDF828709DF82C50164623F0E3
:104B30003BFA0E2C07D9274823F036FA6FF00C0405
:104B4000204605B0F0BD3B190E2B05DD224823F0B1
:104B50002BFA6FF00604F3E72DB1204823F024FA76
:104B60006FF00D04ECE71E4D22463146E81929F09E
:104B7000FAFC2B788DF800306B788DF80130AB782B
:104B80008DF80230D5F80330CDF80330D5F8073072
:104B9000CDF80730B5F80B30ADF80B3011486B7B12
:104BA0008DF80D300DF1030123F0FEF90E480022BF
:104BB000002369461FF0E6FE18B10C4823F042F9C5
:104BC000BEE79DF802100A4823F0EEF9B8E700BFEF
:104BD000141603001B1603003016030050160300C2
:104BE000903900201D400300C40C0020F40C00206C
:104BF0005E1603001FB542F2AA53ADF800308DF8DF
:104C00000200FCF751FACDE9020106480022002318
:104C100069461FF0B7FE10B1024823F013F905B042
:104C20005DF804FB240D002030B589B06C4684E8A3
:104C30000F009DF803009DF804509DF8054010B149
:104C4000002000F07DFA2DB1114823F0ADF90120CC
:104C500000F076FA14B1022000F072FA42F6AA339C
:104C6000ADF8103008238DF81230FBF731FFFBF759
:104C7000EBFBCDE9060107480022002304A91FF041
:104C800081FE10B1034823F0DDF809B030BD00BF4C
:104C90006F160300240D00201FB542F6AA33ADF8AD
:104CA00000300A238DF8023000F0E6FAFBF710FF1F
:104CB000FBF7CAFBCDE90201064800220023694642
:104CC0001FF060FE10B1034823F0BCF805B05DF89A
:104CD00004FB00BF240D0020F0B5374F374D384E90
:104CE00089B06C464FF0FF334FF0FF322146384613
:104CF0001FF09EFE03460028F3D19DF80020AA2A4B
:104D0000EFD19DF80200421E012A02D8FFF772FF80
:104D1000E7E7032815D142F2AA53ADF810308DF819
:104D20001200FCF709FACDE906012648002200230B
:104D300004A91FF027FE0028D3D0224823F082F8D0
:104D4000CFE7042808D142F2AA53ADF810308DF80D
:104D50001200FCF731FAE6E7421F022A08D842F2B5
:104D6000AA53ADF810308DF81200FCF751FADAE7CB
:104D7000082804D194E80F00FFF756FFB1E709288F
:104D80000ED104AA104904930DF1030021F0B6FBE3
:104D900004990D4823F008F9049800F09DFAA0E763
:104DA0000A2802D1FFF778FF9BE70B2899D12888C2
:104DB0003146FFF713FD94E7C40C0020583900205A
:104DC00090390020240D0020E43B0300F0B5314D64
:104DD000314C324E8FB04FF0FF324FF0FF330AA903
:104DE00028461FF025FE002844D12D4B06AA03F1CA
:104DF000080E1746186859689446ACE80300083353
:104E000073456246F6D118689B88CCF80000ACF870
:104E100004309DF82830206861688DF818309DF8BE
:104E200029309DF82A208DF8193003AB03C38DF883
:104E30001A20083A21891980022ADDE90C011DD9BE
:104E4000CDE90001174B0A22002103A829F0BFFC7D
:104E500003AB03CB1B88CDF81B00CDF81F103088A7
:104E6000ADF823303946FFF7B9FC102200210AA81B
:104E700029F09AFB642022F0E7FFACE7FBF74EFD38
:104E8000C0B20090084B0A22002103A829F09FFC21
:104E9000DEE700BF240D00209CF6020058390020F8
:104EA0008EF60200781603007F16030008B5FFF7A0
:104EB000D7FC054806F030FE044807F051F83220D0
:104EC00022F0C2FFFBE700BF940100207001002028
:104ED0002DE9F0411E4FDFF87C801F4C00253E7805
:104EE0005EB32DBB404623F05FF81C4B23601C4B88
:104EF0006360012323814FF6FF73E381194B164949
:104F00001868257409F07EF8014610B1164823F0A0
:104F10004BF8164DBFF35B8F2B68BFF35B8F93B1DC
:104F2000134823F041F8134B1348198823F03CF839
:104F3000642022F089FF0125D1E74FF47A7022F036
:104F400083FF3546CBE70021212020F09DFBE1E7E0
:104F50009E3900208416030088210020AE0A00201C
:104F600019490000A0210020AE1603009C2100205A
:104F7000C7160300583900202E1E030008B5034849
:104F80001FF056FA024B186008BD00BFDA16030086
:104F9000B821002008B503481FF04AFA024B1860F8
:104FA00008BD00BF4A170300C02100201FB50C48F0
:104FB0001FF03EFA0B4B02A918601CF053FE58B9C3
:104FC0009DF80D300093BDF80820BDF80A309DF81B
:104FD0000C10054822F0E8FF05B05DF804FB00BFA7
:104FE000A1170300B4210020A817030010B5074C37
:104FF0000748206028F0F2FC30B92368054819689A
:10500000BDE8104022F0D0BF10BD00BFBC21002081
:1050100018F20200D417030008B528F0F2FBBDE82F
:1050200008400146014822F0BFBF00BFFE17030041
:10503000012810B50C4613D1144822F046FF224631
:10504000052122F032FF50B9BFF35B8F104B53E8BC
:10505000002F43E800410029F9D1BFF35B8F10BD59
:105060000228FCD1094822F030FF2246062122F016
:105070001CFF0028F3D1BFF35B8F064B53E8002FD2
:1050800043E800410029E8D0F8E700BF1418030006
:10509000D8210020D421002010B5184C204622F041
:1050A00014FF41F60122072122F0E5FE204622F0FE
:1050B0000CFF41F60122052122F0DDFE204622F000
:1050C00004FF41F60122062122F0D5FE204622F0FF
:1050D000FCFE0022072122F0E8FE204622F0F5FE29
:1050E0000022052122F0E1FE204622F0EEFEBDE87E
:1050F00010400022062122F0D8BE00BF1418030081
:1051000010B50C46A0B90C4822F0DFFE224607215C
:1051100022F0CBFE50B9BFF35B8F084B53E8002F52
:1051200043E800410029F9D1BFF35B8F012010BD96
:10513000FFF77EFFFAE700BF14180300DC21002010
:1051400010B50446BFF35B8F60B90E4B1968BFF30F
:105150005B8FB1FA81F14909FFF7D2FF041E18BF36
:1051600001240AE001280AD1074B1968BFF35B8FBD
:10517000B1FA81F14909FFF75BFF204610BD034BEF
:10518000E4E700BFDC210020D8210020D42100204A
:1051900070B51F4C204628F021FC28B921681D4815
:1051A000BDE8704022F000BF0B2140F211122046F2
:1051B00022F061FE014630B1226817480B23BDE89A
:1051C000704022F0F1BE2369A5681B68AE6913F434
:1051D000006F4FF00B010CBF4FF480234FF40033EE
:1051E0004FF4A0322046B047014618B122680B4860
:1051F0000B23E4E70A490B4B4B604FF400638B60D1
:10520000EB6923B120460122BDE87040184770BD0C
:1052100098F002001C180300421803006B180300EA
:10522000C42100201950000073B5114C114DFFF737
:10523000AFFF2669A3680E485B6801A9984700285C
:1052400013D1336801985840C0F3C020BFF35B8F7F
:1052500055E8003F45E80002002AF9D1BFF35B8F13
:105260000021A42020F010FAE4E7F9DBEEE700BF0C
:1052700098F00200D0210020034BBFF35B8F186829
:10528000BFF35B8F704700BFD021002007B50E48E9
:1052900022F01BFE0D4A106030B90B490C4803B0D8
:1052A0005DF804EB22F080BE83686A465B681B21D0
:1052B0009847084822F009FE18B1836800211B684E
:1052C000984703B05DF804FBA1180300E02100201B
:1052D000A7180300B81803002DE9F04F1E4B1F4E0E
:1052E0001D68013087B096FBF0F6AB6804AA5B68D6
:1052F0001B2128469847074658BBDDE9044AA6FB10
:1053000004B006FB0A060023144ADFF8548058460E
:105310003146FBF781FC4FF0FF39D94578EB0603A6
:10532000039016D3FA23A4FB036403FB0A4A0B4A37
:10533000002330465146FBF76FFCB14578EB0A027B
:10534000034606D3AA6800971468039A1B212846CF
:10535000A04707B0BDE8F08FE021002040420F00D9
:105360003F420F002DE9F04F05468BB0184615F06F
:105370000303DDF8508003920E46019340F0F5815F
:105380002C1D002D40F0F48101F00706341DC6F1FC
:1053900008064FF0000A0427411ECDF808A0CDF8FA
:1053A00000A05246B94605B12060039B03F0010EF0
:1053B000CE4B9842C0F02A81CD4B984280F0268196
:1053C000BEF1000F00F03C814FF0010CA4EB050B87
:1053D000BEF1000F00F01D81BBF5007FC0F0198108
:1053E0006FF01500F5E032B9252B40F02C81012239
:1053F0000427B94627E12B2B24D81F2B01D80022E4
:1054000021E1A3F120000B28F9D80FF2080C5CF879
:1054100020F000BF47560000FF530000FF5300007C
:1054200047560000FF530000FF530000FF530000E9
:10543000FF530000FF530000FF530000EB55000036
:1054400047560000A3F12D005FFA80FCBCF14D0F20
:10545000D5D84D28D3D80FF2080C5CF820F000BF47
:105460004756000047560000FF5300004756000013
:1054700047560000475600004756000047560000B8
:1054800047560000475600004756000047560000A8
:1054900047560000FF530000FF530000FF53000079
:1054A000FF530000FF530000FF530000FF530000B4
:1054B000B3550000FF530000FF530000FF530000EE
:1054C000B3550000B3550000B3550000FF53000072
:1054D000FF530000FF530000FF5300004756000039
:1054E000FF530000FF530000FF530000FF53000074
:1054F000FF530000FF530000FF530000FF53000064
:10550000FF530000FF530000FF53000099550000B7
:10551000FF530000FF530000FF530000FF53000043
:10552000FF530000FF530000FF530000FF53000033
:10553000B3550000FF530000995500009955000035
:10554000B3550000B3550000B355000047560000A6
:1055500099550000E1550000FF5300004756000038
:10556000FF530000E555000099550000E555000087
:10557000FF530000FF530000E5550000F153000009
:1055800099550000FF530000FF530000995500009B
:10559000FF530000F153000011F8012C6C2A23D1B5
:1055A00011F8022C6C2A4FF000022DD00427B946C6
:1055B0001BE008F1070828F007080734F8E8022381
:1055C00024F0070455B10EEB0400B04204D96FF08B
:1055D0001B000BB0BDE8F08FC4E9002308340022A3
:1055E000082706E70022E1E70022013C3C4478421C
:1055F000044025B1A9EB050020448642E7D3732B74
:1056000043D158F8040BCEE60827D0E74FF0000C42
:10561000DCE6009B0F2B3FF6E3AE45B3DDF800E080
:105620000AA8CBF387037044BCF1000F19D063F0D4
:105630007F0300F8103C0AF1010A009B013300933C
:105640000434C5F1080E11F8013F002B7FF4CBAEF6
:10565000601BB0F5806FBFF4C3AE9DBB083E304405
:10566000B7E700F8103C029B01330293E5E7BCF179
:10567000000F01D00136E0E7CDE90412FBF709FD88
:105680000236DDE904120644D7E7B9F1040F08D168
:1056900008F1040015B1D8F80030236004348046C6
:1056A000D1E7B9F1080F7FF49BAE08F1070323F0AF
:1056B000070303F108081DB1D3E900BCC4E900BC2D
:1056C0000834C0E7029A2B60800828706A7085F859
:1056D00002A0BAF1000F05D006A9C5F10100009A99
:1056E0009A4207D1C5F1010939E000BF98EF0200E5
:1056F0002840030011F8012B170607D52718BE42D2
:1057000002F07F02FFF463AF04F8012B0133E6E7F8
:10571000019B06AA12F80380BAF1000F02D018F01C
:10572000800F19D10FFA88F2002355F8221045F89E
:10573000223008460291FBF7ACFC04EB0902471C3F
:105740003A449642FFF443AF04F8018B0299204695
:105750003A4628F008FF3C44019B01330193DDE900
:1057600000239A42D4D1601B33E76FF00D0030E77D
:1057700007293FF60EAE2AE7014B1860704700BFBD
:10578000B001002030B585B0CDE901010446002507
:1057900001A90548039500F049F9DDE90230984276
:1057A000B8BF255405B030BD837F02002DE9F84F06
:1057B000B0F8189019F00808044693460DD0012956
:1057C0000CBF49F0100949F02009A0F818908BF39C
:1057D0001188BFF36F8FBDE8F88F09F00709022920
:1057E00007D1204622F0FAFB0028F0D00128238BB5
:1057F0004ED16769218B002F15DA256821F007014A
:10580000C4E9008841F0010121830026218B01F0C9
:10581000070ACA4502D0A368002B5AD10DB9002E41
:1058200071D0002356E001F007035A1F012A1ED849
:1058300021F00701062B256889B2C4E900880AD146
:105840003DB1638B2A46126801339BB2002AFAD11C
:10585000638341F002012183204622F0BFFB06460C
:105860000028D3D0238B43F020032383CDE7042BE0
:105870000CD121F0070189B22183204622F0AEFB32
:1058800005460028C1D041F0200121830025BCE756
:10589000032809D1226923F00703166843F00603A1
:1058A000238300252F46B1E7042806D1226923F07F
:1058B0000703566843F00403F2E7052806D122697E
:1058C00023F00703966843F00503E9E700252E4619
:1058D000E8E7012341F0080121838BF31188BFF32E
:1058E0006F8FFBB985BB16B11F492046B0474FF0FB
:1058F0002003EFF3118B83F31288BFF36F8F238B99
:1059000023F008032383238BDA0625D523F0100325
:1059100023830121B4F8189009F0070900297FF4C6
:105920005EAF54E7A1680029DCD0D1F80090D1F82F
:1059300004B03B4652462046D847B9F1000FD1D0BB
:105940004946D9F80090F2E729463B4652462046A0
:105950002D6822F05FFBC5E713F020011EBF23F086
:10596000200323830221D5E741800200F0B5084ED1
:10597000026803460A270020114601320C78A55D13
:105980006D0701D41960F0BD07FB00403038F3E724
:10599000A13D03002DE9F84F15469A46D378224AD7
:1059A00013F802B06F2B80460F460BF0030B29D083
:1059B00024D8582B14BF0A261026DDF8289032462A
:1059C000002340463946FBF727F9092AD4B21ED8EE
:1059D0003034B045E4B277F1000309F8014D01D34A
:1059E000D14511D82B789B0605D5082E15D1AB785B
:1059F00043F00803AB704846BDE8F88F03F0F703A7
:105A0000702BD7E70826D8E780460F46D7E7BBF1CB
:105A1000010F0CBF37345734DBE7102EEBD1AB78D6
:105A200043F01003E6E700BFA13D03002DE9F04F6E
:105A300081469BB08A4615461C460026287810B938
:105A4000304600F0C5BD6B1C2528029306D0514698
:105A5000C8470028C0F2BC85013626E21822002182
:105A60000CA828F0A1FD6B78252B59D06A1C17468D
:105A700012F8013B2B2B00F08B8079D8202B00F003
:105A80008C80232B00F08E809DF8383003F0440288
:105A9000442A03D16FF386138DF838309DF83830DF
:105AA0000A9743F080038DF838303B782A2B7ED15B
:105AB0009DF8393043F001038DF839307B1C0A938F
:105AC0001A782E2A9DF839200CBF0121002161F39C
:105AD00041028DF839200BD15A1C0A925A782A2A91
