:10000000C07300206D7D0000139C0200417D000044
:10001000417D0000417D0000417D000000000000A6
:1000200000000000000000000000000089760000D1
:10003000417D00000000000035760000417D000099
:1000400039770000D5CD01003977000039770000FD
:1000500039770000397700003977000039770000E0
:1000600039770000397700003977000039770000D0
:1000700039770000397700003977000039770000C0
:1000800039770000397700003977000039770000B0
:1000900039770000397700003977000039770000A0
:1000A0003977000039770000397700003977000090
:1000B0003977000039770000397700003977000080
:1000C0003977000039770000397700003977000070
:0C00D00039770000397700003977000014
:0400DC00FFFFFFFF24
:1000E00001F0FF01102A2BDB10F0070F08D010F8E9
:1000F000013B013A8B422DD010F0070F42B3F6D1ED
:10010000F0B441EA012141EA014122F007047FF005
:1001100000070023F0E80256083C85EA010586EA5C
:10012000010685FA47F5A3FA87F586FA47F6A5FA98
:1001300087F68EB9EED1F0BC01F0FF0102F00702A4
:1001400032B110F8013B013A83EA010313B1F8D14F
:100150000020704701387047002D06BF3546033830
:10016000073815F0010F07D1013015F4807F02BF69
:10017000013015F4C03F0130F0BC0138704700BFBA
:1001800081F0004102E000BF83F0004330B54FEA48
:1001900041044FEA430594EA050F08BF90EA020FB5
:1001A0001FBF54EA000C55EA020C7FEA645C7FEA48
:1001B000655C00F0E2804FEA5454D4EB5555B8BF6B
:1001C0006D420CDD2C4480EA020281EA030382EADC
:1001D000000083EA010180EA020281EA0303362D6E
:1001E00088BF30BD11F0004F4FEA01314FF4801C41
:1001F0004CEA113102D0404261EB410113F0004F53
:100200004FEA03334CEA133302D0524263EB430309
:1002100094EA050F00F0A780A4F10104D5F1200EA7
:100220000DDB02FA0EFC22FA05F2801841F1000102
:1002300003FA0EF2801843FA05F359410EE0A5F1D6
:1002400020050EF1200E012A03FA0EFC28BF4CF007
:10025000020C43FA05F3C01851EBE37101F00045BD
:1002600007D54FF0000EDCF1000C7EEB00006EEBCA
:100270000101B1F5801F1BD3B1F5001F0CD3490854
:100280005FEA30004FEA3C0C04F101044FEA4452AB
:1002900012F5800F80F09A80BCF1004F08BF5FEA32
:1002A000500C50F1000041EB045141EA050130BD12
:1002B0005FEA4C0C404141EB0101013C28BFB1F524
:1002C000801FE9D291F0000F04BF01460020B1FA6F
:1002D00081F308BF2033A3F10B03B3F120020CDA42
:1002E0000C3208DD02F1140CC2F10C0201FA0CF020
:1002F00021FA02F10CE002F11402D8BFC2F1200C85
:1003000001FA02F120FA0CFCDCBF41EA0C0190403A
:10031000E41AA2BF01EB0451294330BD6FEA040483
:100320001F3C1CDA0C340EDC04F11404C4F120026E
:1003300020FA04F001FA02F340EA030021FA04F380
:1003400045EA030130BDC4F10C04C4F1200220FAD7
:1003500002F001FA04F340EA0300294630BD21FA15
:1003600004F0294630BD94F0000F83F4801306BFDB
:1003700081F480110134013D4EE77FEA645C18BFCF
:100380007FEA655C29D094EA050F08BF90EA020F66
:1003900005D054EA000C04BF1946104630BD91EA5E
:1003A000030F1EBF0021002030BD5FEA545C05D161
:1003B0004000494128BF41F0004130BD14F58004A0
:1003C0003CBF01F5801130BD01F0004545F0FE4114
:1003D00041F470014FF0000030BD7FEA645C1ABF49
:1003E000194610467FEA655C1CBF0B46024650EA80
:1003F000013406BF52EA033591EA030F41F40021AC
:1004000030BD00BF90F0000F04BF0021704730B531
:100410004FF4806404F132044FF000054FF0000106
:1004200050E700BF90F0000F04BF0021704730B5C7
:100430004FF4806404F1320410F0004548BF40429C
:100440004FF000013EE700BF42004FEAE2014FEAF1
:1004500031014FEA02701FBF12F07F4393F07F4FCC
:1004600081F06051704732F07F4208BF704793F0CF
:100470007F4F04BF41F40021704730B54FF46074E2
:1004800001F0004521F000411CE700BF50EA0102E5
:1004900008BF704730B54FF000050AE050EA01028E
:1004A00008BF704730B511F0004502D5404261EBFE
:1004B00041014FF4806404F132045FEA915C3FF43F
:1004C000D8AE4FF003025FEADC0C18BF03325FEADC
:1004D000DC0C18BF033202EBDC02C2F1200300FA8D
:1004E00003FC20FA02F001FA03FE40EA0E0021FAB2
:1004F00002F11444BDE600BF70B54FF0FF0C4CF4A0
:10050000E06C1CEA11541DBF1CEA135594EA0C0F51
:1005100095EA0C0F00F0DEF82C4481EA030621EA8C
:100520004C5123EA4C5350EA013518BF52EA0335C7
:1005300041F4801143F4801338D0A0FB02CE4FF079
:100540000005E1FB02E506F00042E0FB03E54FF0A9
:100550000006E1FB03569CF0000F18BF4EF0010EA1
:10056000A4F1FF04B6F5007F64F5407404D25FEA9D
:100570004E0E6D4146EB060642EAC62141EA555150
:100580004FEAC52040EA5E504FEACE2EB4F1FD0C92
:1005900088BFBCF5E06F1ED8BEF1004F08BF5FEA10
:1005A000500E50F1000041EB045170BD06F00046C2
:1005B00046EA010140EA020081EA0301B4EB5C046F
:1005C000C2BFD4EB0C0541EA045170BD41F4801167
:1005D0004FF0000E013C00F3AB8014F1360FDEBF8C
:1005E000002001F0004170BDC4F10004203C35DA68
:1005F0000C341BDC04F11404C4F1200500FA05F3EB
:1006000020FA04F001FA05F240EA020001F000428B
:1006100021F0004110EBD37021FA04F642EB060101
:100620005EEA430E08BF20EAD37070BDC4F10C042B
:10063000C4F1200500FA04F320FA05F001FA04F2EF
:1006400040EA020001F0004110EBD37041F10001DB
:100650005EEA430E08BF20EAD37070BDC4F12005E6
:1006600000FA05F24EEA020E20FA04F301FA05F24E
:1006700043EA020321FA04F001F0004121FA04F2F6
:1006800020EA020000EBD3705EEA430E08BF20EAC6
:10069000D37070BD94F0000F0FD101F00046400000
:1006A00041EB010111F4801F08BF013CF7D041EA82
:1006B000060195F0000F18BF704703F00046520086
:1006C00043EB030313F4801F08BF013DF7D043EA57
:1006D0000603704794EA0C0F0CEA135518BF95EA0D
:1006E0000C0F0CD050EA410618BF52EA4306D1D194
:1006F00081EA030101F000414FF0000070BD50EAB3
:10070000410606BF1046194652EA430619D094EA3C
:100710000C0F02D150EA013613D195EA0C0F05D126
:1007200052EA03361CBF104619460AD181EA03017A
:1007300001F0004141F0FE4141F470014FF0000032
:1007400070BD41F0FE4141F4780170BD70B54FF0CD
:10075000FF0C4CF4E06C1CEA11541DBF1CEA13554D
:1007600094EA0C0F95EA0C0F00F0A7F8A4EB05042F
:1007700081EA030E52EA03354FEA013100F0888026
:100780004FEA03334FF0805545EA131343EA1263EF
:100790004FEA022245EA111545EA10654FEA0026A4
:1007A0000EF000419D4208BF964244F1FD0404F55D
:1007B000407402D25B084FEA3202B61A65EB0305B9
:1007C0005B084FEA32024FF480104FF4002CB6EB76
:1007D000020E75EB030E22BFB61A754640EA0C00F6
:1007E0005B084FEA3202B6EB020E75EB030E22BF36
:1007F000B61A754640EA5C005B084FEA3202B6EB77
:10080000020E75EB030E22BFB61A754640EA9C0035
:100810005B084FEA3202B6EB020E75EB030E22BF05
:10082000B61A754640EADC0055EA060E18D04FEAC3
:10083000051545EA16754FEA06164FEAC30343EA63
:1008400052734FEAC2025FEA1C1CC0D111F4801F30
:100850000BD141EA00014FF000004FF0004CB6E729
:1008600011F4801F04BF01430020B4F1FD0C88BFC8
:10087000BCF5E06F3FF6AFAEB5EB030C04BFB6EBD3
:10088000020C5FEA500C50F1000041EB045170BDC6
:100890000EF0004E4EEA113114EB5C04C2BFD4EBF3
:1008A0000C0541EA045170BD41F480114FF0000E77
:1008B000013C90E645EA060E8DE60CEA135594EAF3
:1008C0000C0F08BF95EA0C0F3FF43BAF94EA0C0FF6
:1008D0000AD150EA01347FF434AF95EA0C0F7FF46B
:1008E00025AF104619462CE795EA0C0F06D152EABF
:1008F00003353FF4FDAE1046194622E750EA4106A3
:1009000018BF52EA43067FF4C5AE50EA41047FF4B3
:100910000DAF52EA43057FF4EBAE12E74A0011D265
:1009200012F5001211D20DD56FF47873B3EB625249
:100930000ED44FEAC12343F0004343EA505323FA55
:1009400002F070474FF00000704750EA013002D1CA
:100950004FF0FF3070474FF00000704780F00040CC
:1009600002E000BF81F0004142001FBF5FEA410387
:1009700092EA030F7FEA226C7FEA236C6AD04FEA87
:100980001262D2EB1363C1BFD218414048404140CC
:10099000B8BF5B42192B88BF704710F0004F40F47E
:1009A000000020F07F4018BF404211F0004F41F49A
:1009B000000121F07F4118BF494292EA030F3FD066
:1009C000A2F1010241FA03FC10EB0C00C3F1200379
:1009D00001FA03F100F0004302D5494260EB400008
:1009E000B0F5000F13D3B0F1807F06D340084FEA73
:1009F000310102F10102FE2A51D2B1F1004F40EB68
:100A0000C25008BF20F0010040EA030070474900CF
:100A100040EB0000013A28BFB0F5000FEDD2B0FA6C
:100A200080FCACF1080CB2EB0C0200FA0CF0AABF8F
:100A300000EBC25052421843BCBFD040184370472D
:100A400092F0000F81F4000106BF80F40000013233
:100A5000013BB5E74FEA41037FEA226C18BF7FEA0A
:100A6000236C21D092EA030F04D092F0000F08BF4C
:100A70000846704790EA010F1CBF0020704712F033
:100A80007F4F04D1400028BF40F00040704712F172
:100A900000723CBF00F50000704700F0004343F0D7
:100AA000FE4040F4000070477FEA226216BF08460D
:100AB0007FEA23630146420206BF5FEA412390EAD0
:100AC000010F40F4800070474FF0000304E000BFC6
:100AD00010F0004348BF40425FEA000C08BF704777
:100AE00043F0964301464FF000001CE050EA01023B
:100AF00008BF70474FF000030AE000BF50EA010250
:100B000008BF704711F0004302D5404261EB41013C
:100B10005FEA010C02BF84460146002043F0B64361
:100B200008BFA3F18053A3F50003BCFA8CF2083A86
:100B3000A3EBC25310DB01FA02FC634400FA02FC8F
:100B4000C2F12002BCF1004F20FA02F243EB020096
:100B500008BF20F00100704702F1200201FA02FCF8
:100B6000C2F1200250EA4C0021FA02F243EB0200EB
:100B700008BF20EADC7070477BB972B90029BEBF9C
:100B800000204FF0004106E008BF00281CBF6FF0B6
:100B900000414FF0FF3000F057B8ADF1080C6DE99F
:100BA00004CE002909DB002B1ADB00F015F9DDF873
:100BB00004E0DDE9022304B07047404261EB4101EB
:100BC000002B1BDB00F008F9DDF804E0DDE902236F
:100BD00004B0404261EB4101524263EB4303704772
:100BE000524263EB430300F0F7F8DDF804E0DDE97F
:100BF000022304B0404261EB41017047524263EB73
:100C0000430300F0E9F8DDF804E0DDE9022304B075
:100C1000524263EB4303704753B94AB9002908BFF6
:100C200000281CBF4FF0FF314FF0FF3000F00CB830
:100C3000ADF1080C6DE904CE00F0CEF8DDF804E06B
:100C4000DDE9022304B07047704700BF4FF0FF3C5E
:100C500006E000BF4FF0010C02E000BF4FF0010CB6
:100C60004DF804CD4FEA410C7FEA6C5C4FEA430C2F
:100C700018BF7FEA6C5C1BD001B050EA410C0CBF7E
:100C800052EA430C91EA030F02BF90EA020F0020E0
:100C9000704710F1000F91EA030F58BF994208BF47
:100CA00090422CBFD8176FEAE37040F00100704704
:100CB0004FEA410C7FEA6C5C02D150EA013C07D15B
:100CC0004FEA430C7FEA6C5CD6D152EA033CD3D0A6
:100CD0005DF8040B704700BF8446104662468C46A0
:100CE0001946634600E000BF01B5FFF7B7FF0028D3
:100CF00048BF10F1000F01BD4DF808EDFFF7F4FFFC
:100D00000CBF012000205DF808FB00BF4DF808ED86
:100D1000FFF7EAFF34BF012000205DF808FB00BFA9
:100D20004DF808EDFFF7E0FF94BF012000205DF8CB
:100D300008FB00BF4DF808EDFFF7CEFF94BF012080
:100D400000205DF808FB00BF4DF808EDFFF7C4FF79
:100D500034BF012000205DF808FB00BF4FEA410CC2
:100D60007FEA6C5C02D150EA013C0AD14FEA430CA5
:100D70007FEA6C5C02D152EA033C02D14FF00000E2
:100D800070474FF0010070474FEA410212F5001220
:100D900015D211D56FF47873B3EB625212D94FEAC2
:100DA000C12343F0004343EA505311F0004F23FAAC
:100DB00002F018BF404270474FF00000704750EA01
:100DC000013005D111F0004008BF6FF000407047BE
:100DD0004FF00000704700BF2DE9F04F07468C46EA
:100DE0000846099E15463C461946002B40F0C68031
:100DF0008242B2FA82F746D94FB1C7F1200E24FAE7
:100E00000EFE00FA07F3BD404EEA030CBC404FEA69
:100E100015481FFA85FEBCFBF8F9220C08FB19C324
:100E200009FB0EFA42EA03439A4528D9EB1809F167
:100E3000FF3004D29A4502D9A9F102002B44A3EB5A
:100E40000A03A4B2B3FBF8F208FB123302FB0EFE56
:100E500044EA0344A64514D92C1902F1FF3303D206
:100E6000A64501D9931E2C44A4EB0E0443EA00408E
:100E70001EB1FC40002334607360BDE8F08F48462B
:100E8000DDE71346F0E702B9FFDE87BB831A0121D5
:100E90004FEA154EAAB2B3FBFEFC200C0EFB1C332E
:100EA0000CFB02F840EA0343984563D9EB180CF1B8
:100EB000FF3004D2984502D9ACF102002B44A3EBD9
:100EC0000803A4B2B3FBFEFC0EFB1C330CFB02F2C6
:100ED00044EA0344A2424FD92C190CF1FF3304D247
:100EE000A24202D9ACF102032C44A41ABEE7C7F116
:100EF000200C20FA0CF800FA07F324FA0CFCBD4091
:100F00004CEA03024FEA154EABB2B8FBFEFC110CE3
:100F10000EFB1C800CFB03F941EA0040814504FAFA
:100F200007F423D928180CF1FF3104D2814502D9E6
:100F3000ACF102012844A0EB090092B2B0FBFEFC28
:100F40000EFB1C000CFB03F842EA004398450FD946
:100F5000EB180CF1FF3204D2984502D9ACF1020231
:100F60002B44A3EB080342EA014191E76146E2E723
:100F70006246F6E76046A2E76346B6E7834205D9D4
:100F80000EB1C6E900700021084676E7B3FA83F196
:100F900081B9834201D3BA420AD8BC1A60EB030379
:100FA00001209C46002E68D0C6E9004C002164E771
:100FB0000846F7E7C1F1200C8B4022FA0CF41C43E1
:100FC00002FA01F500FA01F327FA0CF220FA0CFB01
:100FD0004FEA14491343BBFBF9F81FFA84FE09FBDF
:100FE00018BB1A0C08FB0EFA42EA0B42924507FAAC
:100FF00001F73ED9A21808F1FF3004D2924502D978
:10100000A8F102002244A2EB0A029BB2B2FBF9F85B
:1010100009FB182208FB0EFE43EA024296452AD934
:10102000A21808F1FF3304D2964502D9A8F10203B1
:10103000224443EA0040A0FB0593A2EB0E029A4231
:10104000CE46984602D306D14F4504D2B9EB050EE1
:1010500063EB0408013886B1B7EB0E0362EB0807B7
:1010600007FA0CFCCB404CEA0303CF40C6E900373B
:101070009CE74046C7E74346DBE73146FDE610F80C
:10108000012B11F8013B012A28BF9A42F7D0D01A50
:101090007047034613F8012B002AFBD1181A0138B8
:1010A00070470000000000007FB51F4D044628680F
:1010B00026F02EFE002804DA1C4826F0A0FE04B01C
:1010C00070BD28686A460D2126F026FE002801DA48
:1010D0001748F2E7286802AA102126F01DFE002812
:1010E00001DA1448E9E7012CDDE9006003D0022CA5
:1010F000DDE90260E3D1FFF795F909A3D3E9002305
:10110000FFF724FB044630460D46FFF78BF90246F5
:101110000B4620462946FFF739F8D0E7AFF30080A9
:101120000000000080842E41B821002041150300FA
:101130005D1503008515030030B51B4C85B0206894
:1011400026F0E6FD002804DA184826F058FE05B01F
:1011500030BD20686A460E2126F0DEFD002801DA47
:101160001348F2E7206802AA0D2126F0D5FD0028D9
:1011700001DA1048E9E70198FFF754F908A3D3E929
:101180000023FFF7E3FA044600980D46FFF74AF9FB
:1011900002460B4620462946FEF7F8FFD7E700BF78
:1011A0000000000080842E41C02100204115030072
:1011B000B2150300D815030037B5134C206826F08C
:1011C000A7FD20682BF041FF6A4620681C2126F00D
:1011D000A3FD0198FFF726F909A3D3E90023FFF740
:1011E000B5FA044600980D46FFF71CF902460B4677
:1011F00020462946FEF7CAFF03B030BDAFF300809A
:101200000000000080842E41B42100200000000076
:1012100070B52F4E86B004462E4826F0F0FD30689B
:1012200026F076FD05462C4826F0E9FD15F14D0F18
:1012300000D025B930686A46032126F06DFD052CE3
:101240001BD10198FFF7EEF81FA3D3E90023FFF7A6
:101250007DFA044600980D46FFF7E4F802460B4677
:1012600020462946FEF792FF04461C480D4626F00C
:10127000C6FD2046294606B070BD062C17D0072CA7
:10128000F7D10598FFF7CEF80FA3D3E90023FFF7B6
:101290005DFA044604980D46FFF7C4F802460B4673
:1012A00020462946FEF772FF04460D46E1E7039803
:1012B000FFF7B8F804A3D3E90023FFF747FA044681
:1012C0000D460298E8E700BF0000000080842E4130
:1012D000BC2100204C1603005416030058160300CE
:1012E00070B5494DD5F85431996811F0010188B0B5
:1012F00023D102AA40F6034007F0C6FE04460028A8
:101300007FD1029B9B681B78A3B909F06DFCBFF3EA
:101310005B8F2B4653F8CC2FBFF35B8F02F0050297
:10132000BFF35B8F53E8001F43E800200028F9D18A
:10133000BFF35B8F02981FF0CFFA02AA002141F29F
:10134000030007F0A1FE044600285AD1029B2F4E4D
:101350009A68D2F80100D2F8051003C618461FF0AB
:10136000BBFA214602AA41F2010007F08DFE0446B5
:10137000002846D1029883685A7885F86820D97881
:101380009A7842EA0122A5F86A201A7985F869203C
:10139000197ADA7942EA0122A5F86C205A799B7908
:1013A00042EA0323A5F86E301FF096FA214602AAFE
:1013B00041F2020007F068FE044610BB029B9A68E7
:1013C000531C413218685968344603C408339342A9
:1013D0002646F7D10E4828F0F0FC02981FF07CFA60
:1013E00095F874305A0619D40A4B06930A4802231A
:1013F00005AA4FF482516FF012040193059328F06F
:10140000A0FD204608B070BD000000207000002044
:1014100078000020922203002CF3020002AA00218F
:1014200042F2030007F030FE04460028E9D1029B97
:10143000C14E9A68D2F80100D2F8051003C61846CA
:101440001FF04AFA214602AA42F2020007F01CFEEF
:1014500004460028D5D1029B9B68B3F80120A5F86B
:10146000FC2091B229B1DA78114606F128002CF05F
:10147000A1FB02981FF030FA95F8746016F0200670
:1014800000F0F98095F894301B0712D502AA0021CC
:1014900042F21C0007F0F8FD04460028B1D1029882
:1014A0008368D3F80120D3F80530C5E936231FF04F
:1014B00013FA95F8D0309E0622D501A9684607F0A8
:1014C00063FE044600289CD1042142F2240007F068
:1014D00073FC0646002800F0D580042108302BF06C
:1014E0001FFABDF800300380BDF804304380224667
:1014F000314642F2240007F0C7FD0446002880D19F
:1015000095F8D0305C0610D502AA002142F22A00DC
:1015100007F0BAFD044600287FF473AF0298836891
:101520005B7885F818311FF0D7F9082142F20100E5
:1015300007F042FC0446002800F0A480082108447B
:101540002BF0EEF995F8D01011F0400F024640F262
:10155000022308BF032388074CBF43F02C0043F04D
:101560000C008B0695F8D13048BF40F0400013F0D6
:10157000090F95F89A3018BF40F4006003F0060395
:10158000CE0748BF40F01000062B08BF40F4C070E3
:10159000002128F0E7FC2146002242F2010007F07A
:1015A00073FD044600287FF42CAF95F87430B5F82D
:1015B000FC1098067BD4D9B902AA41F2050007F0C5
:1015C00063FD044600287FF41CAFB5F8FC3063B916
:1015D000029B9B685A78997842EA0122A5F8FC2080
:1015E0009A88564811462CF0E5FA02981FF074F9D3
:1015F000082140F6014007F0DFFB0446002841D0F7
:10160000082108442BF08CF995F8D030D907024610
:101610005DD547A1D1E9000128F0A4FC21460022B4
:1016200040F6014007F030FD044600287FF4E9AEA3
:1016300001466A464FF6014007F026FD04460028A1
:1016400049D03F4B06933F48022305AA4FF48451EB
:101650000193059328F075FC08F0F2FE044600287B
:101660007FF4CFAE0AF0ECFB044600287FF4C9AE4D
:1016700008F04AFAC5E6022140F66D4007F09CFBEF
:10168000044610B96FF06804BBE6022108302BF065
:1016900047F90123037046702146324640F66D40FB
:1016A00007F0F2FC044600283FF4ECAEA9E600295E
:1016B0009ED1254B06932348022305AA4FF482515D
:1016C000019305936FF0040428F03BFC99E61F4852
:1016D0004FF00051A0E700981FF0FEF821466A463F
:1016E0004FF6024007F0D0FC044608B1184BA9E7BA
:1016F00000988368B3F80130A5F8B9301FF0ECF812
:1017000095F8B9305B07A7D56A4621464FF60340E6
:1017100007F0BAFC08B10F4B94E7009883685B7838
:1017200085F8B8301FF0D8F896E700BFAFF3008017
:101730009088000200800020D000002000010020DE
:10174000D92203002CF30200B62203001088000205
:10175000FD220300262303002DE9F041D0E90B35DB
:10176000866A5C193034A6428846174618D81C4D44
:10177000A3FB050118A3D3E90023FFF74DFAA41B2F
:1017800020F07F40C8F8000013A3D3E90023A4FB96
:101790000501FFF741FA20F07F403860BDE8F08195
:1017A0000F4C0DA3D3E90023A6FB0401FFF734FA85
:1017B00005F1300120F07F40C8F8000006A3D3E90E
:1017C0000023A1FB0401FFF727FA20F07F403860D7
:1017D000BDE8F081AFF300808D49FD1A07000000DD
:1017E00000CA9A3B000000002DE9F04FAC4C8FB0CE
:1017F00094F86A20002800F0398112F0010740F0C7
:10180000378194F82500FF2300F0030084F8263088
:101810001AF072FE94F86A0041072DD494F829203A
:1018200094F8353004EB820204EB8303D2F82C8069
:10183000D3F83890B8F1000F11D09948414614F010
:101840008FFA98F800305A0605D506210FF0F4F902
:10185000002800F0CE819248494614F081FA98F8A9
:10186000003013F00E0F40F0EE80236A9BB10C277E
:1018700038460FB0BDE8F08F3A4604F16B01C0F373
:10188000C0001AF0CBFFFF2884F82600C6D03846E7
:101890001AF078FEC2E713F00DF98246002800F036
:1018A000B28113F013F98346002800F0B18115F0DE
:1018B00003FB0546002800F0A881406F4FF6FF7338
:1018C0002B8505F11C03002800F0998105F16802C1
:1018D00005F164010B930FF0BBF9B5F86020714B73
:1018E00022F4EF6222F0070242F4887242F0010211
:1018F000A5F8602095F8392002F03F0262F07F02DF
:1019000085F8392095F87A2022F0070285F87A20A8
:1019100095F83C2022F0070285F83C2095F8D82065
:1019200022F0070285F8D8204FF01B120026C5E9E7
:1019300016230622A5F8C020C5E912666E67A5F831
:101940007860EE852E6385F83B602E65A5F8C4604F
:10195000A5F8C860A5F8D060A5F8CC60A5F8E4604B
:1019600085F8E660C5F80861A5F80C61A5F8206166
:1019700012F062FB95F83A21A5F8386122F00302D3
:1019800085F83A2195F87A20A5F8406122F01802EE
:1019900085F87A2095F8662185F8436122F00702E0
:1019A00085F8662195F88621C5F844A166F34512AD
:1019B00085F8862195F8AE21A5F8646166F3C30227
:1019C000C5E94A0100210020C5E94C0185F8AE2196
:1019D00085F8D960A5F88461C5F8E060A5F8AC6128
:1019E000A5F8B86115F0B0FDA5F8D20015F0B2FD6C
:1019F000D5F8BC112C4AA5F8D4000A40C5F8BC2182
:101A000015F0AEFD95F8C02160F3020285F8C02103
:101A100015F0ACFD0B9B236295F8C031C5F8C4618D
:101A200060F3C503C4E918ABC5E97466C5E972661D
:101A3000C5E905662E70ED6185F8C0311BF028FF01
:101A4000002840F0D88094F824300121C3F34203E9
:101A50000DF133008DF833300FF07AFA30BB236A82
:101A6000002B3FF404AF13F03DFE00E7D50704D48C
:101A7000002738460FB0BDE8F08F236A5BB193F8BA
:101A8000202042F0020283F82020236A93F82030BD
:101A9000D8073FF5ECAE0FB0BDE8F04F13F064BED1
:101AA000042D0020480148010000FFF699F80110BC
:101AB0000246404613F008FF5B49B4F868903123B2
:101AC0000025A360A0FB010155A3D3E90023C4E9CD
:101AD000055525706560E560FFF79EF8206110F000
:101AE0002FFC0646B9F1000F08D198F8005005F018
:101AF0000F05A5F10105B5FA85F56D0994F82400E7
:101B0000236965F3000010F0010584F8240031D04A
:101B10000020464ADFF81891049302250DF134089D
:101B2000019305920321CDE902000694334600900B
:101B3000CDF82080CDF81C902A460D9510F0D6FAED
:101B4000414613F047F8002889D13A4A05924AF2F3
:101B5000D8320092CDE90300CDE90100CDF81C9008
:101B6000CDF8208006943346012203210D9510F014
:101B7000BDFA29E0304A3148049303F24713A9FB28
:101B80000001069402951360912303FB0911284B71
:101B90000793264B05934FF6FF7309924FF0020906
:101BA00003930DF134081EA3D3E90023CDF834903C
:101BB000CDF82080FFF730F83346CDE900504A4693
:101BC0002846032110F03CFA414613F003F80028A0
:101BD0007FF445AF94F86A3043F0010384F86A302B
:101BE00014F0AEFA00287FF443AF01201AF066FC2F
:101BF0003EE612273CE613F075FD032738E605F1B3
:101C00006C00686762E6072732E6584612F064FF08
:101C1000504612F055FF07272AE600BFAFF30080B9
:101C20008D49FD1A0700000000CA9A3B395901008E
:101C30000541010075540100782D0020002AE78439
:101C400070B590F824308AB0C3F342030D460446C1
:101C500001210DF1230016468DF823300FF078F99D
:101C600071780246284613F02FFE1D491AA3D3E9C6
:101C70000023A0FB0101FEF7CFFF23699842054630
:101C800020D21B1A00220192164A0293164BA21A66
:101C9000A3FB02320221920900230A4409AE0991F2
:101CA00012490591CDE903330321D2B20696009380
:101CB000184610F08DFA314612F08CFF48B92561B4
:101CC0000AB070BD02D9C21A0023DCE700200AB0B6
:101CD00070BD0C200AB070BD8D49FD1A07000000D0
:101CE00000CA9A3B042D002009CB3D8D054101001F
:101CF00038B5194C9DF810E094F844C01CF001056B
:101D000022D163F3420C400194F83230A1874FEAAC
:101D1000CE0E0EF0180E00F0200040EA0E0023F068
:101D2000380303430D4884F83230A2FB00019123AD
:101D300003FB021106A3D3E9002384F844C0FEF795
:101D40006BFF2064284638BD0C25284638BD00BFEF
:101D50008D49FD1A070000009C2D0020002AE78411
:101D600010B59DF808C0044649014FEACC0000F0C8
:101D7000180001F0200CA17D22844CEA000C0C48D4
:101D800021F038014CEA010C9122A3FB000102FB77
:101D9000031184F816C004A3D3E90023FEF73CFF27
:101DA000606210BDAFF300808D49FD1A070000008E
:101DB000002AE784000000002DE9F047044600F106
:101DC000350190F8440094F83230C0F3400060F3DD
:101DD00086138CB084F8323010F0EAFA94F832208E
:101DE000A38F4D48E46102F079020025A3FB0001B6
:101DF00084F83220912202FB0311C4E9055544A363
:101E0000D3E900232570FEF707FF3123C4E901530E
:101E1000236CE5600933A0F13102934232BF2361A4
:101E200022612564064610F08BFA236A07460DF1FD
:101E30002C08002B4CD0394D394BCDF8208006941E
:101E4000651BA3FB05353448A38F4FF0000AA3FBA5
:101E500000019122CDF80CA002FB03112369049329
:101E6000304B0793304B05934FF0020928A3D3E979
:101E70000023CDF82C90FEF7CFFE104619464FF404
:101E80007A720023FEF7C8FE2D090435EDB22A460A
:101E9000CDE901603B460321CDF800A0504610F08B
:101EA00025F9414612F096FE054668B994F844308B
:101EB00043F0010384F8443013F028FF0446F8B1DE
:101EC00028460CB0BDE8F0870C200CB0BDE8F087C8
:101ED000CDE90A33216943460AAA032001F074F9C7
:101EE0000B990029A7D0114809A3D3E90023A1FB2E
:101EF0000001FEF791FE0A9F20F07F4007449AE719
:101F000048461AF0DBFA20460CB0BDE8F08700BF67
:101F10008D49FD1A07000000002AE7849C2D00204F
:101F2000398EE338054101003D5F010000CA9A3B4C
:101F30002DE9F04FC38D458E1D4490F80E31ADB2A2
:101F40002944164613F007028BB0044689B20AD022
:101F5000531E042B00F27083DFE813F0C601370232
:101F6000A10150013A02B0F8E870C91B1FFA81F8CC
:101F7000090400F16E8190F93930002BC0F26A82B9
:101F800094F8E43084F8E53094F8842194F88531AD
:101F900094F80C1184F80D1193420AD094F886310C
:101FA00003F00F03062B04D1002384F88521A4F845
:101FB000C830BF4BD4F808911A68944204BF00227D
:101FC0001A60B9F1000F00F05A81D9F8000000281A
:101FD00000F05581B4F81031B4F82AC04268C4F852
:101FE00008216345B4F81221B4F8141100F03A82C4
:101FF000B4F828C0A9F81E30182389F8043000234B
:10200000A9F806C0A9F82020A9F8221089F81C30E8
:10201000494612F067FD12F06FFDA368002B09DA44
:10202000E168626823F0004391422CBF7618B6182D
:10203000A360F61A608DB4F8109110FB08F080B21E
:10204000B0FBF9F119FB01F39BB298421FFA81FA38
:1020500080F004811B1A40F2E241964803FB01F133
:10206000A1FB000190A3D3E90023FEF7D5FD20F0EA
:102070007F400644E38D1F4494F939307D1B55445D
:1020800040F2E24B002BE5850BFB09F7C0F20C8216
:10209000D4F81811874884A3D3E90023A1FB0001D9
:1020A000FEF7BAFD20F07F483D4608F10108824A5C
:1020B000B4F81431B4F812018049A4F82A903A44D3
:1020C000B2FBF7F2A4F8C62042F2107202FB0373CF
:1020D0003944013BB1FBF7F1B3FBF7F78AB2831D3B
:1020E0009A42A085A4F8C270A4F8CE2004DDC0F501
:1020F0007F43FA331A4492B294F80E31A4F8CA20FE
:102100001B0744BF0023A4F8C430022101201EF0A5
:102110001BF900220221814601200EF0E9FD6849E9
:102120004FF4F07220460EF073FD00F1050A5FFADD
:102130008AFA644B009452460121002010F060F8A6
:1021400030F002030CD0604A6049614840F6CB434E
:1021500025F055FE404080F311884FF0030002DF68
:10216000544FA5FB077B50A3D3E9002338465946BB
:10217000FEF752FD20F07F4556480723A5FB0001DE
:10218000381A03FB05116BEB01014FF47A7200233F
:10219000FEF742FDCDE9015008940694CDF8008089
:1021A000216994F939504C4804914C494C4C07949E
:1021B00011EA250138BF014605914FF6FE713346FD
:1021C00003915246012100200FF090FF30F00203EE
:1021D0000CD03D4A3D493E4840F6E54325F00FFE10
:1021E000404080F311884FF0030002DFB9F1000F87
:1021F00040F0548100200BB0BDE8F08F828D90F844
:102200000E51D0F8EC3006321144D0F8C42189B216
:102210006FF30205A0F8E8101981A3F10900D4F8C2
:10222000C81184F80E5122B194F86651AE0740F1FE
:102230008981002900F09D81D4F8CC21116843F8F0
:10224000091C106053F8092CC4F8CC01002A00F0D6
:102250008D816FF076000BB0BDE8F08F09FB1101A6
:1022600040F2E243134889B203FB01F1A1FB0001F4
:102270000DA3D3E90023FEF7CFFC361AFAE6124A83
:10228000184913484FF4426325F0B9FD404080F3EC
:1022900011884FF0030002DFD9F800009AE66FF0D2
:1022A0000F000BB0BDE8F08F8D49FD1A070000004C
:1022B000F82D002000CA9A3BFF5962027FC3C90172
:1022C000A01C0020296601002C0403000C0503005B
:1022D0003CFD02008D49FD1A41B3010041B10100EE
:1022E000D1650100F8040300DFF81483012012F027
:1022F00009FC0746002800F04D81C2480EF056FC4C
:102300000546002800F04681BF4B1A68002A00F0FD
:10231000178112F015FC3B68D4F808215A602B791C
:10232000C4F8087143F003032B710C236B71002375
:10233000EB7194F81C312B72B44AD4F81831A2FB1B
:1023400003239B0AA5F80930B4F81031A5F80B3027
:10235000B4F81231A5F80D30B4F81431A5F80F30E7
:1023600094F80E31C4F8F060032262F3020384F89B
:102370000E31A368002B0ADAE168626823F000439B
:1023800091422CBF7618B618F31AC4F8F030A04B5F
:1023900001220935C4F8EC5002211046C3E9024875
:1023A0000EF0D8FC00283FF454AF9A4A9A499B4853
:1023B00040F6733325F023FD404080F311884FF041
:1023C000030002DF6FF0760015E7DFF854828DE737
:1023D000D0F8EC20D0F8C43190F8E40084F8E5009F
:1023E00094F80C01884984F80D0194F8840184F86C
:1023F000850100200860D4F8C801A2F10901B3B139
:1024000094F86651AD0712D494F8BF51EF070ED47B
:10241000D4F8D051AB4200F0D78058B9187900F009
:102420000300032800F0DF80C4F8C83104E000286E
:1024300000F0A980D4F8CC31186842F8090C196072
:1024400052F8093CC4F8CC11002B00F0A6806FF0C4
:102450008B00D0E690F8D930002B3FF491AD80F896
:10246000D92091E5B4F82CC094457FF4C1AD40F279
:10247000E24C0CFB03FE42F2107C0CFB01EC0CF175
:10248000FF3CBCFBFEFCB4F8C2E01FFA8CFCE64546
:102490007FF4AEAD012389F80430B9E501220221B1
:1024A00010460EF025FCA5E6226CA36C02FB183347
:1024B000A3641BF041FA054694F8D800DFF8648164
:1024C000C0F3C2001BF03AFA054407FB05F5564B72
:1024D00094F81C2105F5742505F23F25A3FB05356D
:1024E000AD0CA36C25640BFB02F205FB0AF0226520
:1024F0007A080344963A934228BF1346C4E911234D
:102500000023A0FB0801C4F8E0303BA3D3E900237B
:10251000FEF782FB3D4B361AD4F81801A3FB0030BE
:10252000800A0BFB00F0A0FB080133A3D3E90023D2
:10253000FEF772FB7D1BB4F8109120F07F48B6E5E2
:102540001C60E6E694F8BF51ED073FF572AED4F893
:10255000D051AA4226D000297FF46EAE117901F045
:102560000301032962D0C4F8C82167E6C4F8D40186
:102570006FE643F8092CC4E97100C4F8CC01002AC5
:102580007FF467AEF2E742F8093CC4E97111C4F880
:10259000CC1159E76FF068002DE6C4F8D4116FF044
:1025A0008B0028E61568C4F8D05100297FF444AEAA
:1025B000116843F8091C106053F8092CC4E9720033
:1025C000002A7FF446AED1E71D68C4F8D051002838
:1025D0007FF430AF186842F8090C196052F8093CD2
:1025E000C4E9721130E7D8790328F3D00A287FF4C0
:1025F0001BAFEFE7AFF300808D49FD1A0700000025
:10260000A1B901008C2E0020F82D00205917B7D158
:10261000080600202C040300DC0103003CFD02003E
:102620009133000000CA9A3B83DE1B43D179032912
:10263000BED00A2997D1BBE7074A0849084840F6A7
:10264000C73325F0DCFB404080F311884FF00300D6
:1026500002DF4FF0000849E62C040300D4FD02001D
:102660003CFD0200000000002DE9F04F0B6891F8DE
:1026700011901B68D2F800A097B005460B93037F1A
:10268000D0F81E001490C3F380138DF84730B9F1D1
:10269000FF0F6B8CADF854300C4617460DF1500807
:1026A0004BD198E803001290ADF84C102B46EA8D00
:1026B00053F82EBB9B78BB723A81D5F82A307B60E9
:1026C000D5F83A30BB6107F1180095F83E30037138
:1026D00005210EF03DFC7B7F95F83F2000F03F0088
:1026E00060F305037B77C2F30403BB77AE8EFE81F4
:1026F0000128B6B202F01F0305D91B3303F01F03F4
:102700000B2B00D82EBB0B9BEC6800225A6197F86C
:102710002030012662F3000387F82030584629460E
:102720002E7112F0DFF920682671214612F0DAF9D5
:1027300012F0E2F917B0BDE8F08F12AA0DF14701CF
:10274000484619F0E1FB9DF8473002338DF84730D9
:10275000ACE723680021596095F8371095F83630BA
:1027600043EA01233B829AF8D830520962F3C50349
:102770006A8E0D928AF8D83040F2E24202FB06F6E9
:102780001BF0DAF80C909AF8D800C0F3C2001BF0E6
:10279000D5F80C9BC249034406FB03F303F57423ED
:1027A00003F23F23A1FB03239B0C7B6295F831309E
:1027B000398A40F2E24203FB02F27308963BBA63A5
:1027C000BB622B8FB74AADF83A3018463244B64B4D
:1027D000B2FBF6F2AAF8C62082B242F2107000FBF9
:1027E00002623344013A881DB2FBF6F2B3FBF6F302
:1027F000AAF8C2209AB28242AAF8CE2004DDC1F51E
:102800007F41FA310A4492B2AAF8CA207B68CAF81A
:10281000DC302B4613F81C2FC2F34011DA070F915E
:102820000C9100F117814FF48073AB830B9B93F8ED
:1028300026001AF019F905F12B03002800F0ED80AD
:102840006A6AC5F82B202A8D9A80B9F1FF0F00F033
:10285000E880B8F804301498A5F82930C5F82500A8
:102860009DF84730AB771298BDF84C30C5F81F0083
:10287000A5F823309AF8D830FA896A863A8AAA8667
:10288000C3F3C203BDF83A2085F83830EA865046D3
:1028900014F01EFB2946B881E8806568584612F09E
:1028A00021F9BB89EB801B232B710C9BD5F8008091
:1028B000002B40F0BC809DF83C302B7729464046E9
:1028C00012F010F912F018F997F84500B7F84050D7
:1028D000B7F84280012100F007001AF03BFEA8443F
:1028E00008F5E178834608EB000170484FF00009D5
:1028F0003123CAF80830A1FB000167A3D3E9002304
:10290000CAF80490CAF80C90FEF786F97B6A0D9A13
:10291000E56820F07F40F61A40F2E24303FB0255DF
:1029200002214A46CAF8100001200EF0E1F90B9F7F
:10293000384613F0D1F9821C5D4B0097D2B248465D
:1029400001210FF05DFC05F2B2450128A5EB0B0556
:1029500000F08D800B9B93F82430DB0772D4504637
:1029600014F0B6FADFF84491A6FB09864AA3D3E92E
:102970000023834631464046FEF74EF9A368CDF862
:1029800018A00BF10504A3F13A0B4A4B07934A4BED
:1029900005934FF4E4730893DAF81030049320F0B1
:1029A0007F4746480023A7FB000103930723B8EBAA
:1029B000000003FB071166EB01014FF47A7200235C
:1029C000FEF72AF934A3D3E90023CDE90170A5FB72
:1029D0000901FEF721F9E4B220F07F4000905B4648
:1029E0002246012100200FF081FB30F002030CD0C1
:1029F000334A3449344840F2C91325F000FA4040C4
:102A000080F311884FF0030002DF012202211046FB
:102A10000EF06EF917B0BDE8F08FC5F82B00988066
:102A200013E70022C5F82520A5F8292018E77B7FA9
:102A300043F040037B77381D19F062F80123F883D7
:102A40002B773BE7002301220093184611460FF035
:102A5000D7FB84E71A4A1D491B48F12325F0CFF91B
:102A6000404080F311884FF0030002DFDBE612F0F4
:102A7000EFF80B9B83423FF46DAF114A14491248A3
:102A800040F29F2325F0BBF9404080F311884FF0BE
:102A9000030002DF5EE700BF8D49FD1A070000005A
:102AA00083DE1B43FF5962027FC3C90100CA9A3B00
:102AB00005B10100D5B0010041B101008D49FD1AF9
:102AC000280603000C0503003CFD020068FF02001D
:102AD00084060300000000002DE9F04F8BB00F4684
:102AE0000493BDF85830059006930020BDF860307F
:102AF0009DF85490BDF85CB00393164613F02EFB7E
:102B0000002800F09D8109F0010A054650460FF0AB
:102B10003FFCBAF1000F6AD12B6A05F11C02079243
:102B2000002B6BD0D5F82080D8F8004098F84400EE
:102B3000C0F3C00100F007001AF00AFDB8F8401019
:102B400000F5E1700144B8F842000144C648C4A34E
:102B5000D3E90023A1FB0001FEF75EF820F07F40DF
:102B60002061304619F0EAFC95F833306FF34103E9
:102B700085F83330FF2385F8343066B3A9F10203BA
:102B8000012B40F2618195F84410049C059A69F389
:102B9000420185F8441095F8331064F3000185F87C
:102BA00033101499096869621499898829850399F1
:102BB00029863B4605F11C0000210096FFF7D0F85E
:102BC0001AF066FE002840F05B812846FFF7F4F813
:102BD0000BB0BDE8F08F1AF0F5F80028CED01499AC
:102BE0000498324619F01AFE85F83400C6E706212B
:102BF0000EF022F800288FD11220E9E711F05AFFD9
:102C00000790002800F0738114F056F9044600285C
:102C100000F08F8120300EF0AFF904F11C0800287D
:102C200040F05881032104F124001AF03FFB069B79
:102C3000606F63854FF6FF73A4F82CB023850028DE
:102C400000F0578104F1640104F168020EF000F80D
:102C5000B4F86030854A23F4EF6323F0070343F4AC
:102C6000887343F00103A4F8603094F87A3023F0BD
:102C700007034FF0000B84F87A304FF01B13C4E9C0
:102C80001632C4F874B0A4F878B0A4F82EB0C4F822
:102C900030B004F1340018F0E5FE94F8393060F3F8
:102CA0000503012184F839300DF127001AF0FEFAEE
:102CB0009DF827206E4BDDF80CC0A08D84F83BB04A
:102CC000A3FB0213DB0803EB4303A2EB83030533EF
:102CD00084F83A3094F839300699A4F8C4B003F077
:102CE0003F0384F8393094F83C30A4F8C8B023F09E
:102CF000030340F2E24284F83C305E4BA4F8D0B0CB
:102D000002FB01F10A460B44B3FBF1F35A49A4F864
:102D1000CCB01144B1FBF2F1A4F8C61042F210712C
:102D200001FB0C210139B1FBF2F2A4F8C22006220A
:102D3000A4F8C020811D9AB28A42A4F8CE2002DDF8
:102D4000063A121A92B294F8D830A4F8CA204FF07A
:102D5000000B23F0070384F8D830A4F8E4B084F81B
:102D6000E6B0C4F808B1A4F80CB1A4F820B111F091
:102D700063F9079BC4F8443194F83A31A4F838B1A8
:102D800023F0030384F83A3194F87A30A4F840B180
:102D900023F0180384F87A3094F8663184F843B14C
:102DA00023F0070384F8663194F88631A4F864B1FF
:102DB0006BF3451384F8863194F8AE31A4F884B1EE
:102DC0006BF3C303002284F8AE310023C4E94A0147
:102DD000C4E94C23A4F8ACB1A4F8B8B114F0B4FB26
:102DE000A4F8D20014F0B6FBD4F8BC21234BA4F80D
:102DF000D4001340C4F8BC3114F0B2FB94F8C031D5
:102E000060F3020384F8C03114F0B0FB94F8C031D1
:102E1000C4F8C4B160F3C50384F8C0313123C4E9F8
:102E200074BBC4E972BBC4F804B0C4F80CB0A360AE
:102E3000C5F82080C4E905BB84F800B0E46175E6FC
:102E40000C200BB0BDE8F08F002019F09BFB95F82B
:102E5000333043F00203D14685F8333093E600BFA8
:102E60008D49FD1A0700000000CA9A3B480148013D
:102E7000ABAAAAAA7FC3C901FF5962020000FFF6EC
:102E80002C6AA36D63B12D4A2D492E484FF49763E8
:102E900024F0B5FF404080F311884FF0030002DFBB
:102EA00004F14C0104F148000DF0D6FE064600285E
:102EB00031D02768A665D7F84441F4B1204611F017
:102EC000FFFD384613F0FEFF002303202B620BB0FA
:102ED000BDE8F08F194A1C491A48BF2324F08FFF20
:102EE000404080F311884FF0030002DF9AE607208C
:102EF0006EE604F16C006067A4E6104A13491148BD
:102F000040F2C14324F07BFF404080F311884FF032
:102F1000030002DFD2E7094A0C490A4840F2BA43EB
:102F200024F06DFF404080F311884FF0030002DF72
:102F3000BFE7079811F0C4FD072049E6C806030063
:102F4000340303003CFD0200B400030084040300CA
:102F50002DE9F04F044690F81C80238D406A8DB017
:102F6000C8F3401BADF82C30E307C8F3C016894600
:102F700015460A90D84600F1F9800023A38399F8FA
:102F8000123099F8110013F001031CBFD4F81E3061
:102F9000C4F82B3004F12B0214BF638CC4F82B301F
:102FA000FF28938004F1250704F11F0240F0D08030
:102FB0000023BDF82C100A98C4F82530BB80A677F2
:102FC000C4F81F009180D9F80030D3F800A0EB8935
:102FD00063862B8AA386BAF83030E3861AF0AAFCFF
:102FE00084F838002E68304613F072FFD9F8047068
:102FF000A8812146E080206811F074FDAB89FB8038
:103000001B233C683B71B8F1000F40F0BD8087F88E
:103010001CB03946204611F065FD11F06DFD736856
:10302000B76895F84400B5F80EB0D9F80C409F4247
:1030300038BF1F46C0F3C00140F2E24300F0070072
:1030400003FB0BFB1AF084FA203400220221241A1D
:1030500001200DF04DFE504613F058F8021D524B62
:10306000CDF800A0D2B2012100200FF0C9F830F055
:1030700002030CD04D4A4E494E4840F2C93324F069
:10308000BEFE404080F311884FF0030002DF0025B0
:103090002B4603220121009528460FF0B1F8304657
:1030A00013F016FFD9F808300696A3F10908424B31
:1030B0000793424B059340F2F933DFF804910893EC
:1030C0003369ABFB09B6CDE90353A8EB070834A37A
:1030D000D3E90023471D31465846FDF79DFD1046B4
:1030E00019464FF47A720023FDF796FD2CA3D3E91D
:1030F0000023029031465846FDF78EFD28A3D3E900
:1031000000230190A4FB0901FDF786FDFFB220F02A
:103110007F40009043463A46012128460EF0E6FFE4
:1031200030F002030CD0214A2149224840F2FA3300
:1031300024F065FE404080F311884FF0030002DF69
:103140000122022110460DB0BDE8F04F0DF0D0BDB8
:1031500004F11E0118F0D8FEA37FBDF82C200A98B8
:10316000C4F825000233A377BA802CE70F4A15492B
:1031700010484FF4527324F042FE404080F311880F
:103180004FF0030002DFF8E66B7F43F040036B77FC
:10319000281D18F0B5FC0123E8833B7739E700BF11
:1031A0008D49FD1A070000000DB30100C806030099
:1031B0000C0503003CFD020011B3010041B3010006
:1031C00000CA9A3B68FF02002DE9F04F8FB01E46FF
:1031D00009931546FF230A1DDFF80481DFF804B1C7
:1031E000DFF804A1DFF80491089200213160044661
:1031F0008DF82F3004930C91059106910DAF0CAE14
:1032000002230D93CDE9018700962B460DF12F0285
:10321000214600200FF036F802282DD00D9B002B00
:1032200030D19DF82F30FF2B3CD0052BE8D100206A
:1032300013F056FE0028E3D090F93930002BDFDB85
:10324000049902690C9BFF290CD006990792184635
:1032500004930FF077F8059B089A99188842049B0D
:10326000079A22D8CDE905239DF82F300493C7E7AC
:10327000214600200FF04CF80D9B022BF8D00D9B3F
:10328000002BCED073235A465146484624F0B7FD52
:10329000404080F311884FF0030002DF9DF82F308B
:1032A000FF2BC2D1049BFF2B10D0DDE90532104863
:1032B0001344A3FB0001072202FB031106A3D3E979
:1032C0000023FDF7A9FC099B803018600FB0BDE812
:1032D000F08F00BFAFF3008000CA9A3B00000000EF
:1032E000E9B6010020070300640703003CFD02006B
:1032F0008D49FD1A0000000070B582B01C46019295
:103300001546064601AA0220FFF75EFF23680BB3AD
:103310000198431B1B021FD429460FF013F81A4AC9
:1033200003460721A0FB020201FB032114A3D3E9FA
:103330000023FDF771FC226802442260002A09DBA9
:1033400040F2E24006FB00F0904203D2121A8242A1
:10335000FCD8226002B070BD014628460EF0F2FF94
:10336000094A03460721A0FB020201FB032104A333
:10337000D3E90023FDF750FC2268121A2260DDE732
:1033800000CA9A3B000000008D49FD1A00000000B1
:103390002DE9F041B0F8941188B0044640F2E243C0
:1033A0004748002603FB01F105AD0623C5E9016688
:1033B0008DF80F30A1FB00013FA3D3E90023059650
:1033C000FDF72AFC0DF10F0301950093B4F88A3143
:1033D000049004AA2046012118F088F99DF80F8076
:1033E00008F1FF3C5FFA8CFC0DF11603304604F542
:1033F000CA7703EB4C0C04F5D0764FF6FF7E3A8883
:10340000B8F1000F0AD02B46724504D019889142BA
:103410004FF001001DD002339C45F5D10237BE426A
:10342000EDD1D4F8EC3048BBBDF8142040F2E241B5
:1034300002FB01F1100AC4F818111A70587094F8C0
:103440000E31042262F3020384F80E3108B0BDE8A5
:10345000F081D4F8EC1040F2E24302FB03F3100ACF
:10346000C4F818310A70487094F80E31042262F3DF
:10347000020384F80E3108B0BDE8F081032203F89E
:10348000042C13F8052C94F80E11052542F00302C4
:10349000112003F8020C03F8052C65F302010F203C
:1034A000202203F8010C1A7084F80E1108B0BDE850
:1034B000F08100BFAFF300808D49FD1A07000000C6
:1034C00000CA9A3B0000000038B504461BF0C2F861
:1034D000A27DC2F34103013303F00303032B34D075
:1034E00063F34202A27503F1250019F0EFFF636850
:1034F0000BB32369FBB11CF0B9FD05460EF020FFAC
:10350000C11C00201CF080FD1CF0FCFD1CF0AEFD79
:1035100029460EF017FF124903460722A0FB0101BE
:1035200002FB03110CA3D3E90023FDF775FB23690C
:103530001B1A236138BD0EF003FFC11C00201CF0D4
:1035400063FDBDE838401CF0DDBD6FF34202A2759B
:103550002520CAE7AFF3008000CA9A3B00000000B4
:103560008D49FD1A000000002DE9F04F87B0044698
:103570001CF05AFBC0B250B91AF000F8BE48214600
:103580001CF02CFA07B0BDE8F04F1CF023BB1CF078
:103590006BFB05461CF08AFC83461CF091FC8146BF
:1035A0001CF09EFE06461CF07FFE82461CF042FC8C
:1035B000EDB280461CF024FC19F0E0FF002DDDD0B8
:1035C000012011F0EBFB0546002800F091811BF073
:1035D000FF0BF6B240F08381002E40F0E080FF2721
:1035E0005A463B46314620461BF062FA0028C5D0B9
:1035F0002B7F626800218DF813105FFA88F803F0C2
:103600000F01002A00F0E780626892F820209007FE
:1036100000F1E1800729B1D0A27D120740F1768147
:10362000002940F0C2806B7F252B00F236810420F8
:1036300011F0B4FB0028A1D01CF06CFD636A804639
:1036400043B9238C40F2712202FB03F3B0FBF3F287
:1036500003FB120823681A69884B0721A2FB0303A6
:1036600001FB023182A3D3E90023FDF7D5FAA0F2D2
:103670004233434582D31CF0B5FB3846636819F0EA
:1036800001FAE37D9B07814640F1E281002800F0CA
:10369000DF8183464FF0010A1CF0F4FA2B7F05AA64
:1036A000039205F11E0201468046C3F38013009287
:1036B00020460022CDE901AB1BF014FA40461CF075
:1036C00067FA1CF0A7FA002840F0DC816C4821461C
:1036D0001CF084F96168A37D91F8202043F08003F9
:1036E00042F0010281F82020A37511F075FB16222B
:1036F000027195F81CE04FF6FF724346C280824685
:10370000CEF3401E00F11C0208F120081D68586825
:103710009968D3F80CC0C2F80CC01033434515604B
:103720005060916002F11002F0D11B6813609AF8AA
:103730001C30CAF808406EF345138AF81C301CF0A0
:1037400095FC0021CAF810000120059D1CF030FAFC
:10375000002E08BFFF278AF81970E37D2D1A13F099
:103760000203CAF8145000F07A81B9F1000918BFB9
:103770004FF001099AF81A3069F300038AF81A30F9
:1037800011F02AFB03465146DAF80000CAF80C3063
:1037900011F038FB11F046FB07B0BDE8F08F5FFA7F
:1037A0008AF019F0FDF907461AE7012915D16B7F58
:1037B0000C2B7FF4E3AE2A7F009700230193D209FC
:1037C00005F1240320461BF0C5F800287FF42FAF35
:1037D000297F01F00F01002954D0062952D0022977
:1037E00000F0A780012958D16B7F0C2B7FF4C6AE67
:1037F0002A7F00970DF113030193D20905F12403E9
:10380000002120461BF0A6F8002846D06B7F002B35
:103810003FF4B4AE63682BB12B7F03F00F03072B8B
:103820007FF4ACAE03209DF8139011F0B7FA054673
:1038300000283FF4A3AE11F0CFFA4FF6FF73EB80F0
:1038400005232B71B8F1000F6FD17F20AB7E287656
:10385000002E08BFFF2769F341032868AB7629468D
:103860006F7611F0CFFA11F0DDFA87E6AFF3008042
:1038700000CA9A3B000000000DE701008D49FD1AC7
:1038800005E901006B7F252B07D8A27D920602D5A2
:103890006268002A4FD0252BB9D92B7F03F00F0384
:1038A000042B7FF46BAE6B7F252B3FF667AEA37DB9
:1038B000D9077FF563AE1CF0E5F92B7F0278C3F3DF
:1038C0008013B3EBD21F7FF459AE0830062205F106
:1038D0001E012AF063FD00287FF450AE96E7A07D1C
:1038E0005FFA89F1C0F3C00019F0F0F8074677E6F7
:1038F000724A7349734840F2C32324F080FA40406F
:1039000080F311884FF0030002DF60E6FF2F8DF88F
:103910001470C3F3801977D0237EDB1BB3FA83F3D3
:103920005B09002B7FF47CAE55E71CF075FAC0B242
:103930008CE76B7FAFE796201CF0D8FA00201CF0D4
:10394000A9F9032011F02AFA814600283FF416AEA7
:1039500011F042FA4FF6FF73A9F80630052389F8F3
:103960000430B8F1000F6FD17F23002E89F8183092
:1039700014BF3B46FF2389F8193099F81A30D9F85B
:1039800000006FF3410389F81A30494611F03AFA02
:1039900011F048FA1CF076F92B7F0646C3F380132A
:1039A0003278DB0102F0700243F0030313433370FB
:1039B0000C233846737019F065F8E37D9F0750D5E6
:1039C00000284ED03278334642F0400203F8022BF2
:1039D0000268C6F8022082889A80D5F81E30B3604B
:1039E0006B8CB38130461CF0D3F81CF013F900281F
:1039F00056D11CF087FBA37D334843F00103A37528
:103A000021461BF0EBFFC7E605F11E0A05AA514649
:103A1000484619F07BF900283FF4DAAEE37D03F065
:103A200001034B457FF4D4AE5146062204F1080051
:103A30002AF0B4FC297FB0FA80F35B0901F00F0192
:103A4000002B7FF4EDADC6E61CF0E6F9C3B28CE7BF
:103A500094F816A004F1190BCAF3801A1CE69946D3
:103A600088E6A37D3278C3F3801363F3861233466E
:103A700003F8022BD4F81920C6F80220B4F81D2050
:103A80009A80AAE70D4A11490E4840F2914324F06A
:103A9000B6F9404080F311884FF0030002DF15E6CD
:103AA000064A0A49074840F2165324F0A8F9404054
:103AB00080F311884FF0030002DF9AE7E80B030060
:103AC000940B03003CFD020021E701009C0B030066
:103AD00070B50329144688B005461A466DD8002CE7
:103AE0003CD0072C58D15B6810683D4AD917C0FB01
:103AF0000231012B71F1000222DB3A48181836A37B
:103B0000D3E9002341F10001FDF736F880B2022825
:103B10001ED004281ED008281ED0102832D103231E
:103B200031492A6951F823101161526814691B0147
:103B3000302223212846A44608B0BDE870406047E3
:103B40002A48181861F1000123A3D3E90023DBE719
:103B50000023E5E70123E3E70223E1E71A88244B8A
:103B600033F8021B8A420AD12E69736802AA9B6845
:103B7000202128469847002807DA08B070BD013494
:103B80000B2CEDD16FF01500F7E79DF80820110719
:103B9000234604D4082C05D16FF08500EDE70A2CEC
:103BA00008BF092302F00F0242EA03127368D2B27F
:103BB000DB68202128469847DFE70E4B0693022357
:103BC000019305930C48002305AA4FF4845124F077
:103BD0009AFEE1E7AFF300803AA3950000000000F1
:103BE00040420F009DD14A00C0070020632EB5FF60
:103BF000381203008E39030084F302000000000035
:103C00002DE9F04F446A99B016461F46CDE9046786
:103C1000DDF89480054674B9102021F0B7FF024604
:103C2000686220B9A84BEA21A84823F035FCC0E916
:103C300001440460C4606B6A196851B15A684A60F3
:103C4000012393408B60284622F088FC6B6A002297
:103C50001A603B1EB9BF23F0004305930023C8F848
:103C60000030DDF814909A4BBCBF0122C8F8002048
:103C700033EA090319D1249A42F20F731360C9F38E
:103C80001303334300F08085269B53B9914B22E008
:103C9000914B03930833269A1360039819B0BDE83B
:103CA000F08F8C4B03930333F5E7DDE90434CDE962
:103CB0000C34DDE90C0100220023FDF71DF88046DD
:103CC00058B1249A01231360269B002B00F05985DC
:103CD00082481860431E0393DFE716AB019317ABCE
:103CE00000932846DDE90C2322F0B0FEC9F30A5404
:103CF0008346002C7ED00D9BCDF84C80C3F313037C
:103D0000DDE90C0143F07F5141F44011A4F2FF348E
:103D1000734B0022FCF738FA65A3D3E90023FCF7C4
:103D2000EBFB65A3D3E90023FCF730FA06462046F7
:103D30000F46FCF777FB62A3D3E90023FCF7DCFB1B
:103D400002460B4630463946FCF720FA06460F4637
:103D5000FDF71AF800228246002330463946FCF768
:103D6000D5FF48B15046FCF75DFB32463B46FCF7B9
:103D7000C3FF08B90AF1FF3ABAF1160F57D8594BE9
:103D800003EBCA03D3E90023DDE90C01FCF7BEFF16
:103D900000284ED00AF1FF3A00230F93169B1C1BFC
:103DA000631E099345BFC4F101030693002300235A
:103DB0004CBF09930693BAF1000F3CDB099BCDF889
:103DC00038A05344099300230A93229B092B00F245
:103DD0008D80052BC4BF043B2293229BA3F10203D9
:103DE000CCBF00240124032B00F28C80DFE803F019
:103DF0002D4F4D5BDDE916431C4404F23243202B6A
:103E0000C3BFC3F1400304F2124009FA03F3C3F144
:103E10002003C6BF26FA00F0184306FA03F0FCF7A9
:103E2000F1FA0123A1F1F871013C139370E701232A
:103E3000B3E70F90B2E7069BA3EB0A030693CAF120
:103E400000030A9300230E93BFE700230B93239BE9
:103E5000002B5ADC4FF00109CDF820904B46CDF8ED
:103E60008C90686A00224260042202F114069E428D
:103E7000416850D9284622F031FB039000284ED1EA
:103E8000194B02464FF4D571CEE60123DEE700233D
:103E90000B93239B0AEB030909F10103012B089300
:103EA000B8BF0123DDE70123F2E700BFAFF30080D5
:103EB00061436F63A787D23FB3C8608B288AC63F30
:103EC000FB799F501344D33F3C3D0300533D030017
:103ED0000000F07F383D03002F3D0300831F0300E7
:103EE0000000F83FD0F50200AD3D0300012400239F
:103EF00022930B944FF0FF390022CDF8209012232B
:103F00002392AEE701230B93F4E7DDF88C90CDF814
:103F100020904B46A5E7013141605200A5E76B6A4E
:103F2000039A1A60089B0E2B00F2A880002C00F068
:103F3000A580BAF1000F34DD9A4A0AF00F0302EBB4
:103F4000C303D3E900341AF4807FCDE910344FEA7B
:103F50002A1416D0944BDDE90C01D3E90823FCF7B1
:103F6000F5FBCDE9040104F00F0403278E4E54B98C
:103F7000DDE91023DDE90401FCF7E8FBCDE90401EC
:103F800029E00227F2E7E10708D5DDE91001D6E9CB
:103F90000023FCF7B1FACDE91001013764100836AF
:103FA000E5E700F0A580CAF100047E4B7E4E04F0E8
:103FB0000F0203EBC203D3E90023DDE90C01FCF798
:103FC0009BFACDE90401241100230227002C40F0C4
:103FD0008480002BD2D10F9B002B00F08B80DDE979
:103FE0000434CDE91034DDE91001704B0022FCF7F8
:103FF0008DFE00287ED0089B002B7BD0B9F1000FEE
:1040000038DDDDE910016A4B0022FCF775FACDE9D5
:1040100004010AF1FF3801374C463846FCF702FA32
:10402000DDE90423FCF768FA624B0022FCF7AEF8E6
:10403000A1F15076CDE910011196002C5DD1DDE99A
:1040400004015D4B0022FCF79FF802460B46CDE9C8
:104050000423109A3346FCF777FE002840F09C8238
:10406000DDE90401109A06F10043FCF74FFE002839
:1040700040F09082DDE90C34CDE90434179B002B2D
:10408000C0F25281BAF10E0F00F34E81454B03EBA3
:10409000CA03D3E90034CDE90634239B002B80F218
:1040A000DB80089B002B00F3D78040F07282424BEC
:1040B0000022DDE90601FCF71FFADDE90423FCF725
:1040C00039FE089C2646002840F04882039F312391
:1040D00007F8013B0AF1010A44E2E20705D5D6E9F7
:1040E0000023FCF709FA01370123641008366DE755
:1040F000022770E7089CD0468FE70399294B21449B
:1041000012910B9903EBC403DDE9106753E9022315
:10411000002955D029490020FCF718FB3B463246C0
:10412000FCF732F8CDE91001039FDDE90401FCF74B
:104130002BFE0446FCF776F902460B46DDE9040146
:10414000FCF722F8303402460B46CDE9042307F889
:10415000014BDDE91023FCF7D9FD002874D1DDE91E
:10416000042312490020FCF70FF8DDE91023FCF7C7
:10417000CDFD002840F0B780129B9F423FF47AAFFC
:10418000DDE910010A4B0022FCF7B6F9084BCDE936
:1041900010010022DDE90401FCF7AEF9CDE90401CC
:1041A000C3E700BFD0F50200A8F502000000F03F11
:1041B0000000244000001C40000014400000E03FCC
:1041C00030463946FCF798F9CDE91001129B039C63
:1041D0001493DDE90401FCF7D7FD1590FCF722F9F3
:1041E00002460B46DDE90401FBF7CEFF159B303399
:1041F00004F8013B129B9C4206460F464FF000021A
:1042000024D1A44BDDE91001FBF7C0FF02460B46A9
:1042100030463946FCF798FD002863D1DDE91023CC
:104220009C490020FBF7B0FF02460B46304639465A
:10423000FCF76CFD00283FF41DAF149F7B1E149308
:1042400017F8013C302BF8D0C2463BE0924BFCF70C
:1042500053F9CDE90401BCE7DDE90489039FDDE9F9
:10426000062340464946FCF771FAFCF78DFD0446EB
:10427000FCF7D8F8DDE90623FCF73EF904F1300637
:1042800002460B4640464946FBF77EFF07F8016BA6
:10429000039EDDF820C0BE1BB44502460B4636D156
:1042A000FBF774FFDDE9062380468946FCF74CFDE9
:1042B00058BBDDE9062340464946FCF71DFD08B121
:1042C000E10722D42846594622F048F900233B70E2
:1042D000249B0AF101001860269B002B3FF4DDAC03
:1042E0001F60DAE427463B461F4613F8012D392AA2
:1042F00007D1039A9A42F7D10399302208F10108B5
:104300000A701A7801321A709EE7D046EBE7624BCA
:104310000022FCF7F1F80022002380468946FCF7D2
:10432000EBFC00289BD0CDE70B9A002A00F0D08050
:10433000229A012A00F3B280139A002A00F0A68084
:1043400003F233430A9C069F069A1A440692099A7E
:1043500001211A442846099222F068F90646002FE6
:104360000CDD099B002B09DDBB42069AA8BF3B462A
:10437000D21A0692099AFF1AD31A09930A9BF3B12B
:104380000B9B002B00F0A880002C10DD314622464C
:10439000284622F009FA5A4601460646284622F0E7
:1043A0005BF959468046284622F0D8F8C3460A9B56
:1043B0001A1B04D05946284622F0F6F983460121FB
:1043C000284622F033F90E9B002B044640F38680EA
:1043D0001A460146284622F0E7F9229B012B0446A3
:1043E0007FDD4FF00008236904EB830318692AF08E
:1043F0003EFAC0F12000099B184410F01F0000F0A5
:104400009280C0F12003042B40F38A80C0F11C008D
:10441000069B03440693099B034407440993069BA8
:10442000002B05DD59461A46284622F017FA834626
:10443000099B002B05DD21461A46284622F00EFA7C
:1044400004460F9B002B70D0214658462AF05CFA98
:1044500000286ADA002359460A22284622F0A0F8EA
:104460000B9B0AF1FF3A8346002B00F09481314602
:1044700000230A22284622F093F8B9F1000F0646DD
:1044800000F39380229B022B57DC8EE0169BC3F136
:10449000360357E70000E03F00002440089B5C1E05
:1044A0000A9BA342BFBF0A9B0A94E21A0E9BB6BFA7
:1044B0009B181C1B0E93089BB8BF0024002BB9BF90
:1044C000069B089A069F089BBCBF9F1A00233BE7E8
:1044D0000A9C069F0B9E42E70A9A6BE7229B012BE0
:1044E00019DC049BBBB9059BC3F313039BB9059B64
:1044F00023F000431B0D1B0583B1069B013306937C
:10450000099B013309934FF001080E9B002B7FF4A8
:104510006AAF01206FE74FF00008F6E79846F4E72E
:104520003FF47DAF18461C3072E7089B002B36DC49
:10453000229B022B33DDDDF82090B9F1000F0DD165
:1045400021464B460522284622F02AF80146044619
:1045500058462AF0D9F900283FF7B8AD239B039FAE
:104560006FEA030A4FF000082146284621F0F6FFC3
:10457000002E3FF4A7AEB8F1000F05D0B04503D030
:104580004146284621F0EAFF3146284621F0E6FF61
:1045900098E600242646E1E7C246264696E50B9BB0
:1045A000DDF82090002B00F0FD80002F05DD314666
:1045B0003A46284622F052F90646B8F1000F5CD080
:1045C0007168284621F08AFF074628B9804B0246C9
:1045D00040F2EA21FFF728BB32690232920006F16D
:1045E0000C010C3029F0EAFE01223946284622F05F
:1045F00035F9039B01330893039B4B440A93049BB7
:1046000003F00103B04609930646089B2146013B8F
:10461000584604932AF0A4F80346303306904146E6
:1046200058460B932AF070F93246814621462846B7
:1046300022F084F9C2680B9B074602BB014658462C
:104640002AF062F90B9B024639462846CDE90B3227
:1046500021F084FF229B0C9A089F43EA0201099BE8
:104660000B430B9B0DD1392B29D0B9F1000F01DD84
:10467000069B3133049A137076E73046B9E701227E
:10468000E2E7B9F1000F06DB229941EA090909992D
:1046900059EA010120D1002AECDD594601222846C1
:1046A000089322F0DBF8214683462AF02DF90028F2
:1046B000089B02DCDED1DA07DCD5392BD8D1049A8D
:1046C000392313703B461F46013B17F8012C392A4A
:1046D00050D001321A7047E7002A03DD392BEED0A3
:1046E0000133C7E7089A0A9902F8013C8A422AD0A6
:1046F000594600230A22284621F052FFB04583463E
:104700004FF000034FF00A024146284607D121F03E
:1047100047FF80460646089B0133089375E721F062
:104720003FFF3146804600230A22284621F038FF09
:104730000646F0E7B9F1000F039ACCBF4F460127B8
:1047400017444FF00008594601222846089322F0EA
:1047500085F8214683462AF0D7F80028B2DC02D13A
:10476000089BDB07AED43B461F4613F8012D302AC9
:10477000FAD0F9E6039A9A42A5D10AF1010A312347
:1047800079E7144BFFF7A7BA269B002B7FF480AA8A
:10479000114BFFF7A0BAB9F1000F03DC229B022BEB
:1047A0003FF7CBAE039F2146584629F0D9FF00F1D1
:1047B000300307F8013B039ABA1A9145BADD59460E
:1047C00000230A22284621F0EBFE8346EBE700BFD8
:1047D000AD3D0300821F03002F3D030030B587B0BD
:1047E0000B7A0593CB7904938B7903934B790293DE
:1047F0000B790193CB7800938B784A7805460C4669
:104800000B48097823F0FBFA0A490E238B810A4BE7
:104810000B600A4B8C6018688D8009F02DFF28B161
:10482000074807B0BDE8304023F0E9BA07B030BD13
:104830008C120300A4210020F9480000A0210020D0
:10484000A31203001FB50E240294044C0194BDF87A
:104850001840009427F0C5F804B010BD843900203A
:1048600070B5002088B005F067F9064630B1014602
:10487000104808B0BDE8704023F0C1BA0E4D0F4893
:1048800023F0BDFA0FCD03AC0FC42B6823600C4995
:1048900000963346022203A806F036F8014620B1FE
:1048A000084823F0ACFA08B070BD074823F0A7FA17
:1048B000F9E700BFA9120300B0F40200C912030017
:1048C00098F60200E01203000613030008B507483B
:1048D00023F095FA064B00221A70FFF7C1FF054B33
:1048E0001868BDE8084025F0DBBE00BF28130300B0
:1048F00092390020A021002010B5144611B10548BE
:1049000023F07DFA20461022BDE81040002129F056
:1049100076BD00BF461303002DE9F04380468BB0FF
:1049200014460D4679B9374B1B8813B9364823F026
:1049300066FA14220021204629F061FD0026304647
:104940000BB0BDE8F083314BBFF35B8F012253E81E
:10495000001F43E800200028F9D1BFF35B8F2C48EB
:10496000298A23F04CFA267C56BB2A4BD4F800C087
:104970006A4603F11009964618685968174603C736
:1049800008334B453A46F7D11B783B707146604679
:1049900025F027FA074698B91F4823F030FA2B8AEA
:1049A000276001332381032321462374404609F005
:1049B0007DFA01460028C2D0184823F020FABEE74D
:1049C000237C032B1BD1ED68154B2E6805AA03F140
:1049D000100C174618685968144603C40833634519
:1049E0002246F7D11B7823703946304625F0F9F975
:1049F00028B90C4823F003FA024BAA881A80012632
:104A00009DE700BF4C3900205C1303009C2100206F
:104A100076130300C4F402008D130300A1130300F6
:104A2000D5F40200BB13030070B592B00E4625F01A
:104A3000FFFE0378044607AD032B25D8DFE803F01B
:104A4000021E20221349284629F04BFEA379059522
:104A500062780492A2780392E2780292227901921B
:104A6000627900921E210C4A0AA823F0D5F90B485E
:104A700032460AA923F0C3F912B070BD0849E2E733
:104A80000849E0E70849DEE7084A0A21284623F0FA
:104A9000C3F9DBE7C7130300E91303000C14030099
:104AA000CE130300D5130300DF1303000932030004
:104AB00037B5144D044631B1134823F0A0F9002353
:104AC0002B7003B030BD114823F099F9104A01232F
:104AD000D2F83600D2F83A102B706B4603C320464A
:104AE00025F0C3FD0B4B69461860204625F003FFF7
:104AF0000028E6DA084C204623F081F90A2023F04A
:104B0000F7F8F8E79239002022140300421403005A
:104B1000B0F40200A02100205B140300F0B585B0C2
:104B20001C462B48BDF828709DF82C50164623F0E3
:104B300066F90E2C07D9274823F061F96FF00C04B1
:104B4000204605B0F0BD3B190E2B05DD224823F0B1
:104B500056F96FF00604F3E72DB1204823F04FF922
:104B60006FF00D04ECE71E4D22463146E81929F09E
:104B700025FC2B788DF800306B788DF80130AB7800
:104B80008DF80230D5F80330CDF80330D5F8073072
:104B9000CDF80730B5F80B30ADF80B3011486B7B12
:104BA0008DF80D300DF1030123F029F90E48002294
:104BB000002369461FF03AFE18B10C4823F096F81E
:104BC000BEE79DF802100A4823F019F9B8E700BFC4
:104BD000741403007B14030090140300B01403004A
:104BE000843900207D3E0300C40C0020F40C00201A
:104BF000BE1403001FB542F2AA53ADF800308DF881
:104C00000200FCF751FACDE9020106480022002318
:104C100069461FF00BFE10B1024823F067F805B09B
:104C20005DF804FB240D002030B589B06C4684E8A3
:104C30000F009DF803009DF804509DF8054010B149
:104C4000002023F06DF82DB1114823F0D8F8012091
:104C500023F066F814B1022023F062F842F6AA337A
:104C6000ADF8103008238DF81230FBF731FFFBF759
:104C7000EBFBCDE9060107480022002304A91FF041
:104C8000D5FD10B1034823F031F809B030BD00BFA5
:104C9000CF140300240D00201FB542F6AA33ADF84F
:104CA00000300A238DF8023000F03AFAFBF710FFCB
:104CB000FBF7CAFBCDE90201064800220023694642
:104CC0001FF0B4FD10B1034823F010F805B05DF8F3
:104CD00004FB00BF240D0020F0B5374F374D384E90
:104CE00089B06C464FF0FF334FF0FF322146384613
:104CF0001FF0F2FD03460028F3D19DF80020AA2AF8
:104D0000EFD19DF80200421E012A02D8FFF772FF80
:104D1000E7E7032815D142F2AA53ADF810308DF819
:104D20001200FCF709FACDE906012648002200230B
:104D300004A91FF07BFD0028D3D0224822F0D6FF23
:104D4000CFE7042808D142F2AA53ADF810308DF80D
:104D50001200FCF731FAE6E7421F022A08D842F2B5
:104D6000AA53ADF810308DF81200FCF751FADAE7CB
:104D7000082804D194E80F00FFF756FFB1E709288F
:104D80000ED104AA104904930DF1030021F00AFB8F
:104D900004990D4823F033F8049800F0F1F9A0E7E6
:104DA0000A2802D1FFF778FF9BE70B2899D12888C2
:104DB0003146FFF713FD94E7C40C00204C39002066
:104DC00084390020240D0020443A0300F0B5314D11
:104DD000314C324E8FB04FF0FF324FF0FF330AA903
:104DE00028461FF079FD002844D12D4B06AA03F177
:104DF000080E1746186859689446ACE80300083353
:104E000073456246F6D118689B88CCF80000ACF870
:104E100004309DF82830206861688DF818309DF8BE
:104E200029309DF82A208DF8193003AB03C38DF883
:104E30001A20083A21891980022ADDE90C011DD9BE
:104E4000CDE90001174B0A22002103A829F0EAFB53
:104E500003AB03CB1B88CDF81B00CDF81F103088A7
:104E6000ADF823303946FFF7B9FC102200210AA81B
:104E700029F0C5FA642022F03BFFACE7FBF74EFDBA
:104E8000C0B20090084B0A22002103A829F0CAFBF7
:104E9000DEE700BF240D0020FCF402004C390020A6
:104EA000EEF40200D8140300DF14030008B5FFF786
:104EB000D7FC054806F084FD044806F0A5FF322023
:104EC00022F016FFFBE700BF9401002070010020D4
:104ED0002DE9F0411E4FDFF87C801F4C00253E7805
:104EE0005EB32DBB404622F08AFF1C4B23601C4B57
:104EF0006360012323814FF6FF73E381194B164949
:104F00001868257408F0D2FF014610B1164822F047
:104F100076FF164DBFF35B8F2B68BFF35B8F93B1AA
:104F2000134822F06CFF134B1348198822F067FFD7
:104F3000642022F0DDFE0125D1E74FF47A7022F0E3
:104F4000D7FE3546CBE70021212020F0F1FAE1E73A
:104F500092390020E414030088210020AE0A0020CA
:104F600019490000A02100200E1503009C210020FB
:104F7000271503004C390020861C030008B50348A0
:104F80001FF0AAF9024B186008BD00BF3A150300D4
:104F9000B821002008B503481FF09EF9024B1860A5
:104FA00008BD00BFAA150300C02100201FB50C4892
:104FB0001FF092F90B4B02A918601CF0A7FD58B91D
:104FC0009DF80D300093BDF80820BDF80A309DF81B
:104FD0000C10054822F013FF05B05DF804FB00BF7C
:104FE00001160300B42100200816030010B5074C79
:104FF0000748206028F01DFC30B92368054819686F
:10500000BDE8104022F0FBBE10BD00BFBC21002057
:1050100070F002003416030008B528F01DFBBDE84F
:1050200008400146014822F0EABE00BF5E160300B8
:1050300070B5214C204628F0FCFB28B921681F4898
:10504000BDE8704022F0DBBE2669A568336843F4F2
:10505000006333600B212B6840F211122046984701
:10506000014630B1226816480B23BDE8704022F09B
:10507000C6BE3368AE6913F4006F4FF00B010CBF6E
:105080004FF480234FF400334FF4A0322046B04752
:10509000014618B122680B480B23E6E70A490B4B7F
:1050A0004B604FF400638B60EB6923B12046012213
:1050B000BDE87040184770BDF0EE020074160300A2
:1050C0009A160300C3160300C421002019500000E3
:1050D00073B5114C114DFFF7ABFF2669A3680E485D
:1050E0005B6801A99847002813D13368019858409C
:1050F000C0F3C020BFF35B8F55E8003F45E80002D6
:10510000002AF9D1BFF35B8F0021A42020F010FA10
:10511000E4E7F9DBEEE700BFF0EE0200D02100206B
:10512000034BBFF35B8F1868BFF35B8F704700BF03
:10513000D021002007B50E481FF0CEF80D4A1060B0
:1051400030B90B490C4803B05DF804EB22F057BEB0
:1051500083686A465B681B21984708481FF0BCF8C3
:1051600018B1836800211B68984703B05DF804FB01
:10517000F9160300D4210020FF16030010170300C6
:105180002DE9F04F1E4B1F4E1D68013087B096FB76
:10519000F0F6AB6804AA5B681B21284698470746CF
:1051A00058BBDDE9044AA6FB04B006FB0A0600234F
:1051B000144ADFF8548058463146FBF72DFD4FF076
:1051C000FF39D94578EB0603039016D3FA23A4FBE5
:1051D000036403FB0A4A0B4A002330465146FBF79F
:1051E0001BFDB14578EB0A02034606D3AA68009777
:1051F0001468039A1B212846A04707B0BDE8F08F2A
:10520000D421002040420F003F420F002DE9F04F13
:1052100005468BB0184615F00303DDF85080039265
:105220000E46019340F0F5812C1D002D40F0F481D5
:1052300001F00706341DC6F108064FF0000A0427E6
:10524000411ECDF808A0CDF800A05246B94605B1E0
:105250002060039B03F0010ECE4B9842C0F02A81E0
:10526000CD4B984280F02681BEF1000F00F03C81CA
:105270004FF0010CA4EB050BBEF1000F00F01D81F7
:10528000BBF5007FC0F019816FF01500F5E032B971
:10529000252B40F02C8101220427B94627E12B2B36
:1052A00024D81F2B01D8002221E1A3F120000B28D4
:1052B000F9D80FF2080C5CF820F000BFEF540000A2
:1052C000A7520000A7520000EF540000A7520000B0
:1052D000A7520000A7520000A7520000A7520000EA
:1052E000A752000093540000EF540000A3F12D00DA
:1052F0005FFA80FCBCF14D0FD5D84D28D3D80FF202
:10530000080C5CF820F000BFEF540000EF540000E0
:10531000A7520000EF540000EF540000EF540000CB
:10532000EF540000EF540000EF540000EF54000071
:10533000EF540000EF540000EF540000A7520000AB
:10534000A7520000A7520000A7520000A752000079
:10535000A7520000A75200005B540000A7520000B3
:10536000A7520000A75200005B5400005B540000ED
:105370005B540000A7520000A7520000A752000093
:10538000A7520000EF540000A7520000A7520000EF
:10539000A7520000A7520000A7520000A752000029
:1053A000A7520000A7520000A7520000A752000019
:1053B000A752000041540000A7520000A75200006D
:1053C000A7520000A7520000A7520000A7520000F9
:1053D000A7520000A75200005B540000A752000033
:1053E00041540000415400005B5400005B54000035
:1053F0005B540000EF540000415400008954000049
:10540000A7520000EF540000A75200008D54000086
:10541000415400008D540000A7520000A752000024
:105420008D5400009952000041540000A752000022
:10543000A752000041540000A752000099520000FA
:1054400011F8012C6C2A23D111F8022C6C2A4FF090
:1054500000022DD00427B9461BE008F1070828F008
:1054600007080734F8E8022324F0070455B10EEBCF
:105470000400B04204D96FF01B000BB0BDE8F08F00
:10548000C4E9002308340022082706E70022E1E7E8
:105490000022013C3C447842044025B1A9EB0500C0
:1054A00020448642E7D3732B43D158F8040BCEE651
:1054B0000827D0E74FF0000CDCE6009B0F2B3FF6EF
:1054C000E3AE45B3DDF800E00AA8CBF387037044F0
:1054D000BCF1000F19D063F07F0300F8103C0AF113
:1054E000010A009B013300930434C5F1080E11F842
:1054F000013F002B7FF4CBAE601BB0F5806FBFF493
:10550000C3AE9DBB083E3044B7E700F8103C029B99
:1055100001330293E5E7BCF1000F01D00136E0E76B
:10552000CDE90412FBF7B5FD0236DDE904120644AD
:10553000D7E7B9F1040F08D108F1040015B1D8F884
:105540000030236004348046D1E7B9F1080F7FF4BE
:105550009BAE08F1070323F0070303F108081DB110
:10556000D3E900BCC4E900BC0834C0E7029A2B6050
:10557000800828706A7085F802A0BAF1000F05D083
:1055800006A9C5F10100009A9A4207D1C5F10109A7
:1055900039E000BFF0ED0200883E030011F8012B56
:1055A000170607D52718BE4202F07F02FFF463AF4B
:1055B00004F8012B0133E6E7019B06AA12F80380E9
:1055C000BAF1000F02D018F0800F19D10FFA88F24B
:1055D000002355F8221045F8223008460291FBF7C7
:1055E00058FD04EB0902471C3A449642FFF443AFCE
:1055F00004F8018B029920463A4628F0DFFE3C442D
:10560000019B01330193DDE900239A42D4D1601B51
:1056100033E76FF00D0030E707293FF60EAE2AE7BB
:10562000014B1860704700BFB001002030B585B055
:10563000CDE901010446002501A90548039500F0C4
:1056400049F9DDE902309842B8BF255405B030BDB4
:10565000D97D02002DE9F84FB0F8189019F008082C
:10566000044693460DD001290CBF49F0100949F0BA
:105670002009A0F818908BF31188BFF36F8FBDE855
:10568000F88F09F00709022907D1204622F0D1FB43
:105690000028F0D00128238B4ED16769218B002F81
:1056A00015DA256821F00701C4E9008841F00101FD
:1056B00021830026218B01F0070ACA4502D0A36886
:1056C000002B5AD10DB9002E71D0002356E001F005
:1056D00007035A1F012A1ED821F00701062B25684F
:1056E00089B2C4E900880AD13DB1638B2A461268A9
:1056F00001339BB2002AFAD1638341F00201218376
:10570000204622F096FB06460028D3D0238B43F098
:1057100020032383CDE7042B0CD121F0070189B2AC
:105720002183204622F085FB05460028C1D041F0A8
:10573000200121830025BCE7032809D1226923F039
:105740000703166843F00603238300252F46B1E7BD
:10575000042806D1226923F00703566843F00403A6
:10576000F2E7052806D1226923F00703966843F083
:105770000503E9E700252E46E8E7012341F008018B
:1057800021838BF31188BFF36F8FFBB985BB16B1F3
:105790001F492046B0474FF02003EFF3118B83F3EE
:1057A0001288BFF36F8F238B23F008032383238B8F
:1057B000DA0625D523F0100323830121B4F81890CD
:1057C00009F0070900297FF45EAF54E7A1680029BA
:1057D000DCD0D1F80090D1F804B03B4652462046C8
:1057E000D847B9F1000FD1D04946D9F80090F2E777
:1057F00029463B46524620462D6822F036FBC5E737
:1058000013F020011EBF23F0200323830221D5E7DC
:10581000977E0200F0B5084E026803460A27002072
:10582000114601320C78A55D6D0701D41960F0BDF9
:1058300007FB00403038F3E7013C03002DE9F84F47
:1058400015469A46D378224A13F802B06F2B804649
:105850000F460BF0030B29D024D8582B14BF0A266F
:105860001026DDF828903246002340463946FBF7E3
:10587000D3F9092AD4B21ED83034B045E4B277F156
:10588000000309F8014D01D3D14511D82B789B06AF
:1058900005D5082E15D1AB7843F00803AB70484608
:1058A000BDE8F88F03F0F703702BD7E70826D8E799
:1058B00080460F46D7E7BBF1010F0CBF3734573492
:1058C000DBE7102EEBD1AB7843F01003E6E700BF27
:1058D000013C03002DE9F04F81469BB08A461546F6
:1058E0001C460026287810B9304600F0C5BD6B1C58
:1058F0002528029306D05146C8470028C0F2BC852F
:10590000013626E2182200210CA828F078FD6B78D9
:10591000252B59D06A1C174612F8013B2B2B00F09F
:105920008B8079D8202B00F08C80232B00F08E8088
:105930009DF8383003F04402442A03D16FF38613F4
:105940008DF838309DF838300A9743F080038DF891
:1059500038303B782A2B7ED19DF8393043F0010353
:105960008DF839307B1C0A931A782E2A9DF839203D
:105970000CBF0121002161F341028DF839200BD1C8
:105980005A1C0A925A782A2A7BD19DF8392042F073
:1059900004028DF8392002331A4612F8010B6C28E4
:1059A00000F0CF807DD8682800F084806A2800F05D
:1059B000D2804C2800F0D6809DF839206FF3C602C3
:1059C0008DF839201A4680E0AA1C02928DF83B30EF
:1059D0009DF83930DF0740F1708154F804BBBBF10A
:1059E000000F07DA9DF8382042F004028DF83820C5
:1059F000CBF1000B580740F1698154F8048BB8F1E2
:105A0000000F80F268819DF839306FF341038DF803
:105A100039304FF0FF385EE12D2B06D0302B87D187
:105A20009DF8383043F0400303E09DF8383043F0F0
:105A300004038DF838306EE79DF8383043F00803E2
:105A4000F7E79DF8383043F01003F2E79DF838305F
:105A500043F02003EDE70AA8FFF7DCFE0A9BBB42F8
:105A600081D09DF838100F90C1F3400242EAD07205
:105A7000520062F07F0201F07D010A438DF8382068
:105A800071E70AA8FFF7C6FE9DF838301090C3F3FF
:105A9000400242EAD07060F341038DF838300A9B2F
:105AA0007AE774289DF8391059D07A2884D10B46AA
:105AB000062141E0597868299DF839103AD1012230
:105AC00062F3C6018DF839109A1C134613F8012BA6
:105AD0000293782A8DF83B2000F2C580572A4ED8D1
