:10000000185C002085720000176C02005972000015
:10001000597200005972000059720000000000007F
:10002000000000000000000000000000096C00005B
:100030005972000000000000C16B000059720000FE
:10004000856C000095C20100856C0000856C000085
:10005000856C0000856C0000856C0000856C0000DC
:10006000856C0000856C0000856C0000856C0000CC
:10007000856C0000856C0000856C0000856C0000BC
:10008000856C0000856C0000856C0000856C0000AC
:10009000856C0000856C0000856C0000856C00009C
:1000A000856C0000856C0000856C0000856C00008C
:1000B000856C0000856C0000856C0000856C00007C
:1000C000856C0000856C0000856C0000856C00006C
:1000D000856C0000856C0000856C0000856C00005C
:1000E000856C0000856C0000856C0000856C00004C
:1000F000856C0000856C0000856C0000856C00003C
:1001000001F0FF01102A2BDB10F0070F08D010F8C8
:10011000013B013A8B422DD010F0070F42B3F6D1CC
:10012000F0B441EA012141EA014122F007047FF0E5
:1001300000070023F0E80256083C85EA010586EA3C
:10014000010685FA47F5A3FA87F586FA47F6A5FA78
:1001500087F68EB9EED1F0BC01F0FF0102F0070284
:1001600032B110F8013B013A83EA010313B1F8D12F
:100170000020704701387047002D06BF3546033810
:10018000073815F0010F07D1013015F4807F02BF49
:10019000013015F4C03F0130F0BC0138704700BF9A
:1001A00081F0004102E000BF83F0004330B54FEA28
:1001B00041044FEA430594EA050F08BF90EA020F95
:1001C0001FBF54EA000C55EA020C7FEA645C7FEA28
:1001D000655C00F0E2804FEA5454D4EB5555B8BF4B
:1001E0006D420CDD2C4480EA020281EA030382EABC
:1001F000000083EA010180EA020281EA0303362D4E
:1002000088BF30BD11F0004F4FEA01314FF4801C20
:100210004CEA113102D0404261EB410113F0004F32
:100220004FEA03334CEA133302D0524263EB4303E9
:1002300094EA050F00F0A780A4F10104D5F1200E87
:100240000DDB02FA0EFC22FA05F2801841F10001E2
:1002500003FA0EF2801843FA05F359410EE0A5F1B6
:1002600020050EF1200E012A03FA0EFC28BF4CF0E7
:10027000020C43FA05F3C01851EBE37101F000459D
:1002800007D54FF0000EDCF1000C7EEB00006EEBAA
:100290000101B1F5801F1BD3B1F5001F0CD3490834
:1002A0005FEA30004FEA3C0C04F101044FEA44528B
:1002B00012F5800F80F09A80BCF1004F08BF5FEA12
:1002C000500C50F1000041EB045141EA050130BDF2
:1002D0005FEA4C0C404141EB0101013C28BFB1F504
:1002E000801FE9D291F0000F04BF01460020B1FA4F
:1002F00081F308BF2033A3F10B03B3F120020CDA22
:100300000C3208DD02F1140CC2F10C0201FA0CF0FF
:1003100021FA02F10CE002F11402D8BFC2F1200C64
:1003200001FA02F120FA0CFCDCBF41EA0C0190401A
:10033000E41AA2BF01EB0451294330BD6FEA040463
:100340001F3C1CDA0C340EDC04F11404C4F120024E
:1003500020FA04F001FA02F340EA030021FA04F360
:1003600045EA030130BDC4F10C04C4F1200220FAB7
:1003700002F001FA04F340EA0300294630BD21FAF5
:1003800004F0294630BD94F0000F83F4801306BFBB
:1003900081F480110134013D4EE77FEA645C18BFAF
:1003A0007FEA655C29D094EA050F08BF90EA020F46
:1003B00005D054EA000C04BF1946104630BD91EA3E
:1003C000030F1EBF0021002030BD5FEA545C05D141
:1003D0004000494128BF41F0004130BD14F5800480
:1003E0003CBF01F5801130BD01F0004545F0FE41F4
:1003F00041F470014FF0000030BD7FEA645C1ABF29
:10040000194610467FEA655C1CBF0B46024650EA5F
:10041000013406BF52EA033591EA030F41F400218B
:1004200030BD00BF90F0000F04BF0021704730B511
:100430004FF4806404F132044FF000054FF00001E6
:1004400050E700BF90F0000F04BF0021704730B5A7
:100450004FF4806404F1320410F0004548BF40427C
:100460004FF000013EE700BF42004FEAE2014FEAD1
:1004700031014FEA02701FBF12F07F4393F07F4FAC
:1004800081F06051704732F07F4208BF704793F0AF
:100490007F4F04BF41F40021704730B54FF46074C2
:1004A00001F0004521F000411CE700BF50EA0102C5
:1004B00008BF704730B54FF000050AE050EA01026E
:1004C00008BF704730B511F0004502D5404261EBDE
:1004D00041014FF4806404F132045FEA915C3FF41F
:1004E000D8AE4FF003025FEADC0C18BF03325FEABC
:1004F000DC0C18BF033202EBDC02C2F1200300FA6D
:1005000003FC20FA02F001FA03FE40EA0E0021FA91
:1005100002F11444BDE600BF70B54FF0FF0C4CF47F
:10052000E06C1CEA11541DBF1CEA135594EA0C0F31
:1005300095EA0C0F00F0DEF82C4481EA030621EA6C
:100540004C5123EA4C5350EA013518BF52EA0335A7
:1005500041F4801143F4801338D0A0FB02CE4FF059
:100560000005E1FB02E506F00042E0FB03E54FF089
:100570000006E1FB03569CF0000F18BF4EF0010E81
:10058000A4F1FF04B6F5007F64F5407404D25FEA7D
:100590004E0E6D4146EB060642EAC62141EA555130
:1005A0004FEAC52040EA5E504FEACE2EB4F1FD0C72
:1005B00088BFBCF5E06F1ED8BEF1004F08BF5FEAF0
:1005C000500E50F1000041EB045170BD06F00046A2
:1005D00046EA010140EA020081EA0301B4EB5C044F
:1005E000C2BFD4EB0C0541EA045170BD41F4801147
:1005F0004FF0000E013C00F3AB8014F1360FDEBF6C
:10060000002001F0004170BDC4F10004203C35DA47
:100610000C341BDC04F11404C4F1200500FA05F3CA
:1006200020FA04F001FA05F240EA020001F000426B
:1006300021F0004110EBD37021FA04F642EB0601E1
:100640005EEA430E08BF20EAD37070BDC4F10C040B
:10065000C4F1200500FA04F320FA05F001FA04F2CF
:1006600040EA020001F0004110EBD37041F10001BB
:100670005EEA430E08BF20EAD37070BDC4F12005C6
:1006800000FA05F24EEA020E20FA04F301FA05F22E
:1006900043EA020321FA04F001F0004121FA04F2D6
:1006A00020EA020000EBD3705EEA430E08BF20EAA6
:1006B000D37070BD94F0000F0FD101F000464000E0
:1006C00041EB010111F4801F08BF013CF7D041EA62
:1006D000060195F0000F18BF704703F00046520066
:1006E00043EB030313F4801F08BF013DF7D043EA37
:1006F0000603704794EA0C0F0CEA135518BF95EAED
:100700000C0F0CD050EA410618BF52EA4306D1D173
:1007100081EA030101F000414FF0000070BD50EA92
:10072000410606BF1046194652EA430619D094EA1C
:100730000C0F02D150EA013613D195EA0C0F05D106
:1007400052EA03361CBF104619460AD181EA03015A
:1007500001F0004141F0FE4141F470014FF0000012
:1007600070BD41F0FE4141F4780170BD70B54FF0AD
:10077000FF0C4CF4E06C1CEA11541DBF1CEA13552D
:1007800094EA0C0F95EA0C0F00F0A7F8A4EB05040F
:1007900081EA030E52EA03354FEA013100F0888006
:1007A0004FEA03334FF0805545EA131343EA1263CF
:1007B0004FEA022245EA111545EA10654FEA002684
:1007C0000EF000419D4208BF964244F1FD0404F53D
:1007D000407402D25B084FEA3202B61A65EB030599
:1007E0005B084FEA32024FF480104FF4002CB6EB56
:1007F000020E75EB030E22BFB61A754640EA0C00D6
:100800005B084FEA3202B6EB020E75EB030E22BF15
:10081000B61A754640EA5C005B084FEA3202B6EB56
:10082000020E75EB030E22BFB61A754640EA9C0015
:100830005B084FEA3202B6EB020E75EB030E22BFE5
:10084000B61A754640EADC0055EA060E18D04FEAA3
:10085000051545EA16754FEA06164FEAC30343EA43
:1008600052734FEAC2025FEA1C1CC0D111F4801F10
:100870000BD141EA00014FF000004FF0004CB6E709
:1008800011F4801F04BF01430020B4F1FD0C88BFA8
:10089000BCF5E06F3FF6AFAEB5EB030C04BFB6EBB3
:1008A000020C5FEA500C50F1000041EB045170BDA6
:1008B0000EF0004E4EEA113114EB5C04C2BFD4EBD3
:1008C0000C0541EA045170BD41F480114FF0000E57
:1008D000013C90E645EA060E8DE60CEA135594EAD3
:1008E0000C0F08BF95EA0C0F3FF43BAF94EA0C0FD6
:1008F0000AD150EA01347FF434AF95EA0C0F7FF44B
:1009000025AF104619462CE795EA0C0F06D152EA9E
:1009100003353FF4FDAE1046194622E750EA410682
:1009200018BF52EA43067FF4C5AE50EA41047FF493
:100930000DAF52EA43057FF4EBAE12E74A0011D245
:1009400012F5001211D20DD56FF47873B3EB625229
:100950000ED44FEAC12343F0004343EA505323FA35
:1009600002F070474FF00000704750EA013002D1AA
:100970004FF0FF3070474FF00000704753B94AB94D
:10098000002908BF00281CBF4FF0FF314FF0FF3097
:1009900000F00CB8ADF1080C6DE904CE00F0CEF813
:1009A000DDF804E0DDE9022304B07047704700BFC2
:1009B0004FF0FF3C06E000BF4FF0010C02E000BF2B
:1009C0004FF0010C4DF804CD4FEA410C7FEA6C5C0E
:1009D0004FEA430C18BF7FEA6C5C1BD001B050EAB1
:1009E000410C0CBF52EA430C91EA030F02BF90EA9C
:1009F000020F0020704710F1000F91EA030F58BF5B
:100A0000994208BF90422CBFD8176FEAE37040F0BC
:100A1000010070474FEA410C7FEA6C5C02D150EA5A
:100A2000013C07D14FEA430C7FEA6C5CD6D152EA15
:100A3000033CD3D05DF8040B704700BF84461046DA
:100A400062468C461946634600E000BF01B5FFF7D9
:100A5000B7FF002848BF10F1000F01BD4DF808EDA9
:100A6000FFF7F4FF0CBF012000205DF808FB00BF7A
:100A70004DF808EDFFF7EAFF34BF012000205DF8D4
:100A800008FB00BF4DF808EDFFF7E0FF94BF012021
:100A900000205DF808FB00BF4DF808EDFFF7CEFF22
:100AA00094BF012000205DF808FB00BF4DF808ED61
:100AB000FFF7C4FF34BF012000205DF808FB00BF32
:100AC0004FEA410C7FEA6C5C02D150EA013C0AD14A
:100AD0004FEA430C7FEA6C5C02D152EA033C02D13C
:100AE0004FF0000070474FF0010070474FEA41029D
:100AF00012F5001215D211D56FF47873B3EB625270
:100B000012D94FEAC12343F0004343EA505311F096
:100B1000004F23FA02F018BF404270474FF0000028
:100B2000704750EA013005D111F0004008BF6FF066
:100B3000004070474FF00000704700BF2DE9F04FB4
:100B400007468C460846099E15463C461946002B2A
:100B500040F0C6808242B2FA82F746D94FB1C7F15F
:100B6000200E24FA0EFE00FA07F3BD404EEA030CF5
:100B7000BC404FEA15481FFA85FEBCFBF8F9220C71
:100B800008FB19C309FB0EFA42EA03439A4528D928
:100B9000EB1809F1FF3004D29A4502D9A9F10200FD
:100BA0002B44A3EB0A03A4B2B3FBF8F208FB123305
:100BB00002FB0EFE44EA0344A64514D92C1902F1A7
:100BC000FF3303D2A64501D9931E2C44A4EB0E0497
:100BD00043EA00401EB1FC40002334607360BDE86E
:100BE000F08F4846DDE71346F0E702B9FFDE87BB2A
:100BF000831A01214FEA154EAAB2B3FBFEFC200C6A
:100C00000EFB1C330CFB02F840EA0343984563D902
:100C1000EB180CF1FF3004D2984502D9ACF1020078
:100C20002B44A3EB0803A4B2B3FBFEFC0EFB1C3366
:100C30000CFB02F244EA0344A2424FD92C190CF1F6
:100C4000FF3304D2A24202D9ACF102032C44A41A0D
:100C5000BEE7C7F1200C20FA0CF800FA07F324FADB
:100C60000CFCBD404CEA03024FEA154EABB2B8FB98
:100C7000FEFC110C0EFB1C800CFB03F941EA00404A
:100C8000814504FA07F423D928180CF1FF3104D266
:100C9000814502D9ACF102012844A0EB090092B2CF
:100CA000B0FBFEFC0EFB1C000CFB03F842EA004309
:100CB00098450FD9EB180CF1FF3204D2984502D9B0
:100CC000ACF102022B44A3EB080342EA014191E795
:100CD0006146E2E76246F6E76046A2E76346B6E7AA
:100CE000834205D90EB1C6E900700021084676E7B7
:100CF000B3FA83F181B9834201D3BA420AD8BC1A4C
:100D000060EB030301209C46002E68D0C6E9004C2E
:100D1000002164E70846F7E7C1F1200C8B4022FA76
:100D20000CF41C4302FA01F500FA01F327FA0CF265
:100D300020FA0CFB4FEA14491343BBFBF9F81FFAE6
:100D400084FE09FB18BB1A0C08FB0EFA42EA0B42A0
:100D5000924507FA01F73ED9A21808F1FF3004D2F4
:100D6000924502D9A8F102002244A2EB0A029BB2EA
:100D7000B2FBF9F809FB182208FB0EFE43EA024217
:100D800096452AD9A21808F1FF3304D2964502D914
:100D9000A8F10203224443EA0040A0FB0593A2EB22
:100DA0000E029A42CE46984602D306D14F4504D24F
:100DB000B9EB050E63EB0408013886B1B7EB0E03FF
:100DC00062EB080707FA0CFCCB404CEA0303CF4068
:100DD000C6E900379CE74046C7E74346DBE73146B4
:100DE000FDE610F8012B11F8013B012A28BF9A42B9
:100DF000F7D0D01A7047034613F8012B002AFBD115
:100E0000181A01387047000070B5494DD5F85431B3
:100E1000996811F0010188B023D102AA40F603407D
:100E200007F092FB044600287FD1029B9B681B7849
:100E3000A3B909F039F9BFF35B8F2B4653F8CC2FD8
:100E4000BFF35B8F02F00502BFF35B8F53E8001F17
:100E500043E800200028F9D1BFF35B8F02981EF011
:100E600083FF02AA002141F2030007F06DFB044654
:100E700000285AD1029B2F4E9A68D2F80100D2F86E
:100E8000051003C618461EF06FFF214602AA41F264
:100E9000010007F059FB0446002846D102988368F8
:100EA0005A7885F86820D9789A7842EA0122A5F81C
:100EB0006A201A7985F86920197ADA7942EA0122DA
:100EC000A5F86C205A799B7942EA0323A5F86E3085
:100ED0001EF04AFF214602AA41F2020007F034FB4D
:100EE000044610BB029B9A68531C4132186859682B
:100EF000344603C4083393422646F7D10E4825F002
:100F000071FF02981EF030FF95F874305A0619D41C
:100F10000A4B06930A48022305AA4FF482516FF048
:100F200012040193059326F021F8204608B070BD05
:100F300000000020700000207800002060E1020026
:100F4000BCB6020002AA002142F2030007F0FCFA3C
:100F500004460028E9D1029BC14E9A68D2F80100EC
:100F6000D2F8051003C618461EF0FEFE214602AA5E
:100F700042F2020007F0E8FA04460028D5D1029BAD
:100F80009B68B3F80120A5F8FC2091B229B1DA786A
:100F9000114606F1280029F05CF902981EF0E4FEE3
:100FA00095F8746016F0200600F0F98095F89430FA
:100FB0001B0712D502AA002142F21C0007F0C4FA56
:100FC00004460028B1D102988368D3F80120D3F8F1
:100FD0000530C5E936231EF0C7FE95F8D0309E06D1
:100FE00022D501A9684607F02FFB044600289CD1B2
:100FF000042142F2240007F03FF90646002800F0E1
:10100000D5800421083028F0A0FCBDF80030038012
:10101000BDF8043043802246314642F2240007F0F6
:1010200093FA0446002880D195F8D0305C0610D59C
:1010300002AA002142F22A0007F086FA044600289C
:101040007FF473AF029883685B7885F818311EF0DF
:101050008BFE082142F2010007F00EF90446002839
:1010600000F0A4800821084428F06FFC95F8D01007
:1010700011F0400F024640F2022308BF0323880705
:101080004CBF43F02C0043F00C008B0695F8D13098
:1010900048BF40F0400013F0090F95F89A3018BF90
:1010A00040F4006003F00603CE0748BF40F0100094
:1010B000062B08BF40F4C070002125F068FF2146D0
:1010C000002242F2010007F03FFA044600287FF4B4
:1010D0002CAF95F87430B5F8FC1098067BD4D9B9CC
:1010E00002AA41F2050007F02FFA044600287FF417
:1010F0001CAFB5F8FC3063B9029B9B685A789978AD
:1011000042EA0122A5F8FC209A885648114629F0A7
:10111000A0F802981EF028FE082140F6014007F0D2
:10112000ABF80446002841D00821084428F00DFC03
:1011300095F8D030D90702465DD547A1D1E9000125
:1011400025F025FF2146002240F6014007F0FCF97A
:10115000044600287FF4E9AE01466A464FF6014096
:1011600007F0F2F90446002849D03F4B06933F4868
:10117000022305AA4FF484510193059325F0F6FE4E
:1011800008F0BEFB044600287FF4CFAE0AF0B8F8A2
:10119000044600287FF4C9AE07F016FFC5E6022119
:1011A00040F66D4007F068F8044610B96FF0680427
:1011B000BBE60221083028F0C8FB0123037046700B
:1011C0002146324640F66D4007F0BEF9044600283D
:1011D0003FF4ECAEA9E600299ED1254B06932348A7
:1011E000022305AA4FF48251019305936FF0040482
:1011F00025F0BCFE99E61F484FF00051A0E700988B
:101200001EF0B2FD21466A464FF6024007F09CF9F7
:10121000044608B1184BA9E700988368B3F8013079
:10122000A5F8B9301EF0A0FD95F8B9305B07A7D539
:101230006A4621464FF6034007F086F908B10F4B86
:1012400094E7009883685B7885F8B8301EF08CFDD1
:1012500096E700BFAFF30080908800020080002076
:10126000D000002000010020A7E10200BCB602006F
:1012700084E1020010880002CBE10200F4E10200E8
:101280002DE9F041D0E90B35866A5C193034A6426D
:101290008846174618D81C4DA3FB050118A3D3E9AF
:1012A0000023FFF76BFBA41B20F07F40C8F8000071
:1012B00013A3D3E90023A4FB0501FFF75FFB20F094
:1012C0007F403860BDE8F0810F4C0DA3D3E90023C7
:1012D000A6FB0401FFF752FB05F1300120F07F402F
:1012E000C8F8000006A3D3E90023A1FB0401FFF71F
:1012F00045FB20F07F403860BDE8F081AFF300800F
:101300008D49FD1A0700000000CA9A3B000000004A
:101310002DE9F04FAC4C8FB094F86A20002800F013
:10132000398112F0010740F0378194F82500FF233E
:1013300000F0030084F826301AF03EFB94F86A00AF
:1013400041072DD494F8292094F8353004EB82021B
:1013500004EB8303D2F82C80D3F83890B8F1000F57
:1013600011D09948414613F05BFF98F800305A06B7
:1013700005D506210EF0C0FE002800F0CE8192486F
:10138000494613F04DFF98F8003013F00E0F40F06F
:10139000EE80236A9BB10C2738460FB0BDE8F08F72
:1013A0003A4604F16B01C0F3C0001AF097FCFF2825
:1013B00084F82600C6D038461AF044FBC2E712F083
:1013C000D9FD8246002800F0B28112F0DFFD83468D
:1013D000002800F0B18114F0CFFF0546002800F08E
:1013E000A881406F4FF6FF732B8505F11C03002881
:1013F00000F0998105F1680205F164010B930EF08C
:1014000087FEB5F86020714B22F4EF6222F00702EC
:1014100042F4887242F00102A5F8602095F8392064
:1014200002F03F0262F07F0285F8392095F87A20B9
:1014300022F0070285F87A2095F83C2022F0070276
:1014400085F83C2095F8D82022F0070285F8D820AE
:101450004FF01B120026C5E916230622A5F8C0206E
:10146000C5E912666E67A5F87860EE852E6385F88B
:101470003B602E65A5F8C460A5F8C860A5F8D060EB
:10148000A5F8CC60A5F8E46085F8E660C5F80861C9
:10149000A5F80C61A5F8206112F02EF895F83A2114
:1014A000A5F8386122F0030285F83A2195F87A20F0
:1014B000A5F8406122F0180285F87A2095F8662197
:1014C00085F8436122F0070285F8662195F88621A8
:1014D000C5F844A166F3451285F8862195F8AE213A
:1014E000A5F8646166F3C302C5E94A010021002042
:1014F000C5E94C0185F8AE2185F8D960A5F884616D
:10150000C5F8E060A5F8AC61A5F8B86115F07CFA03
:10151000A5F8D20015F07EFAD5F8BC112C4AA5F832
:10152000D4000A40C5F8BC2115F07AFA95F8C0211C
:1015300060F3020285F8C02115F078FA0B9B236254
:1015400095F8C031C5F8C46160F3C503C4E918ABB0
:10155000C5E97466C5E97266C5E905662E70ED6178
:1015600085F8C0311BF0F4FB002840F0D88094F8D7
:1015700024300121C3F342030DF133008DF83330E1
:101580000EF046FF30BB236A002B3FF404AF13F08C
:1015900009FB00E7D50704D4002738460FB0BDE8A3
:1015A000F08F236A5BB193F8202042F0020283F8A7
:1015B0002020236A93F82030D8073FF5ECAE0FB017
:1015C000BDE8F04F13F030BB5C2900204801480112
:1015D0000000FFF699F801100246404613F0D4FBD4
:1015E0005B49B4F8689031230025A360A0FB01019A
:1015F00055A3D3E90023C4E9055525706560E5606E
:10160000FFF7BCF9206110F0FBF80646B9F1000FB6
:1016100008D198F8005005F00F05A5F10105B5FABD
:1016200085F56D0994F82400236965F3000010F036
:10163000010584F8240031D00020464ADFF81891D3
:10164000049302250DF13408019305920321CDE99D
:101650000200069433460090CDF82080CDF81C900F
:101660002A460D950FF0A2FF414612F013FD002807
:1016700089D13A4A05924AF2D8320092CDE9030064
:10168000CDE90100CDF81C90CDF8208006943346BA
:10169000012203210D950FF089FF29E0304A3148DE
:1016A000049303F24713A9FB00010694029513600B
:1016B000912303FB0911284B0793264B05934FF603
:1016C000FF7309924FF0020903930DF134081EA332
:1016D000D3E90023CDF83490CDF82080FFF74EF900
:1016E0003346CDE900504A46284603210FF008FF53
:1016F000414612F0CFFC00287FF445AF94F86A30E1
:1017000043F0010384F86A3013F07AFF00287FF475
:1017100043AF01201AF032F93EE612273CE613F0FF
:1017200041FA032738E605F16C00686762E607278F
:1017300032E6584612F030FC504612F021FC0727E2
:101740002AE600BFAFF300808D49FD1A07000000B4
:1017500000CA9A3BF94D0100C53501003549010029
:10176000D0290020002AE78470B590F824308AB090
:10177000C3F342030D46044601210DF12300164632
:101780008DF823300EF044FE71780246284613F09F
:10179000FBFA1D491AA3D3E90023A0FB0101FFF7BF
:1017A000EDF823699842054620D21B1A00220192C7
:1017B000164A0293164BA21AA3FB02320221920987
:1017C00000230A4409AE099112490591CDE903337A
:1017D0000321D2B20696009318460FF059FF314606
:1017E00012F058FC48B925610AB070BD02D9C21A7E
:1017F0000023DCE700200AB070BD0C200AB070BDE9
:101800008D49FD1A0700000000CA9A3B5C290020A0
:1018100009CB3D8DC535010038B5194C9DF810E058
:1018200094F844C01CF0010522D163F3420C40013E
:1018300094F83230A1874FEACE0E0EF0180E00F069
:10184000200040EA0E0023F0380303430D4884F8DB
:101850003230A2FB0001912303FB021106A3D3E95E
:10186000002384F844C0FFF789F82064284638BD77
:101870000C25284638BD00BF8D49FD1A0700000021
:10188000F4290020002AE78410B59DF808C004461A
:1018900049014FEACC0000F0180001F0200CA17DB6
:1018A00022844CEA000C0C4821F038014CEA010C6F
:1018B0009122A3FB000102FB031184F816C004A3CC
:1018C000D3E90023FFF75AF8606210BDAFF3008040
:1018D0008D49FD1A07000000002AE784000000007F
:1018E0002DE9F047044600F1350190F8440094F8E2
:1018F0003230C0F3400060F386138CB084F832308D
:101900000FF0B6FF94F83220A38F4D48E46102F047
:1019100079020025A3FB000184F83220912202FB0A
:101920000311C4E9055544A3D3E900232570FFF74B
:1019300025F83123C4E90153236CE5600933A0F194
:101940003102934232BF23612261256406460FF0C3
:1019500057FF236A07460DF12C08002B4CD0394D58
:10196000394BCDF820800694651BA3FB0535344820
:10197000A38F4FF0000AA3FB00019122CDF80CA029
:1019800002FB031123690493304B0793304B0593FB
:101990004FF0020928A3D3E90023CDF82C90FEF7DD
:1019A000EDFF104619464FF47A720023FEF7E6FF6A
:1019B0002D090435EDB22A46CDE901603B460321ED
:1019C000CDF800A050460FF0F1FD414612F062FB49
:1019D000054668B994F8443043F0010384F8443074
:1019E00013F0F4FB0446F8B128460CB0BDE8F087CC
:1019F0000C200CB0BDE8F087CDE90A3321694346DD
:101A00000AAA032001F074F90B990029A7D0114804
:101A100009A3D3E90023A1FB0001FEF7AFFF0A9F52
:101A200020F07F4007449AE7484619F0A7FF204678
:101A30000CB0BDE8F08700BF8D49FD1A070000001B
:101A4000002AE784F4290020398EE338C5350100E7
:101A5000FD53010000CA9A3B2DE9F04FC38D458E1E
:101A60001D4490F80E31ADB22944164613F007021A
:101A70008BB0044689B20AD0531E042B00F2708347
:101A8000DFE813F0C6013702A10150013A02B0F8B5
:101A9000E870C91B1FFA81F8090400F16E8190F902
:101AA0003930002BC0F26A8294F8E43084F8E530D3
:101AB00094F8842194F8853194F80C1184F80D1170
:101AC00093420AD094F8863103F00F03062B04D119
:101AD000002384F88521A4F8C830BF4BD4F80891BE
:101AE0001A68944204BF00221A60B9F1000F00F096
:101AF0005A81D9F80000002800F05581B4F810315F
:101B0000B4F82AC04268C4F808216345B4F8122129
:101B1000B4F8141100F03A82B4F828C0A9F81E30C5
:101B2000182389F804300023A9F806C0A9F820205A
:101B3000A9F8221089F81C30494612F033FA12F045
:101B40003BFAA368002B09DAE168626823F00043DE
:101B500091422CBF7618B618A360F61A608DB4F8BF
:101B6000109110FB08F080B2B0FBF9F119FB01F302
:101B70009BB298421FFA81FA80F004811B1A40F24E
:101B8000E241964803FB01F1A1FB000190A3D3E9D8
:101B90000023FEF7F3FE20F07F400644E38D1F4450
:101BA00094F939307D1B554440F2E24B002BE5851A
:101BB0000BFB09F7C0F20C82D4F81811874884A3F4
:101BC000D3E90023A1FB0001FEF7D8FE20F07F48F7
:101BD0003D4608F10108824AB4F81431B4F8120104
:101BE0008049A4F82A903A44B2FBF7F2A4F8C62040
:101BF00042F2107202FB03733944013BB1FBF7F16F
:101C0000B3FBF7F78AB2831D9A42A085A4F8C2708D
:101C1000A4F8CE2004DDC0F57F43FA331A4492B213
:101C200094F80E31A4F8CA201B0744BF0023A4F87F
:101C3000C430022101201DF0CFFD00220221814687
:101C400001200EF0B5FA68494FF4F07220460EF00C
:101C50003FFA00F1050A5FFA8AFA644B0094524693
:101C6000012100200FF02CFD30F002030CD0604A5F
:101C70006049614840F6CB4323F045F9404080F38A
:101C800011884FF0030002DF544FA5FB077B50A3E0
:101C9000D3E9002338465946FEF770FE20F07F4511
:101CA00056480723A5FB0001381A03FB05116BEB0F
:101CB00001014FF47A720023FEF760FECDE9015076
:101CC00008940694CDF80080216994F939504C4865
:101CD00004914C494C4C079411EA250138BF014648
:101CE00005914FF6FE7133460391524601210020C3
:101CF0000FF05CFC30F002030CD03D4A3D493E48F9
:101D000040F6E54323F0FFF8404080F311884FF0A0
:101D1000030002DFB9F1000F40F0548100200BB046
:101D2000BDE8F08F828D90F80E51D0F8EC3006327D
:101D30001144D0F8C42189B26FF30205A0F8E8106D
:101D40001981A3F10900D4F8C81184F80E5122B109
:101D500094F86651AE0740F18981002900F09D8119
:101D6000D4F8CC21116843F8091C106053F8092CF1
:101D7000C4F8CC01002A00F08D816FF076000BB022
:101D8000BDE8F08F09FB110140F2E243134889B22C
:101D900003FB01F1A1FB00010DA3D3E90023FEF732
:101DA000EDFD361AFAE6124A184913484FF4426319
:101DB00023F0A9F8404080F311884FF0030002DFC0
:101DC000D9F800009AE66FF00F000BB0BDE8F08F75
:101DD0008D49FD1A07000000502A002000CA9A3BD6
:101DE000FF5962027FC3C901301A0020E95A01007D
:101DF000CCC60200ACC70200DCBF02008D49FD1A50
:101E000001A8010001A60100915A010098C7020033
:101E1000DFF81483012012F0D5F80746002800F0FF
:101E20004D81C2480EF022F90546002800F0468197
:101E3000BF4B1A68002A00F0178112F0E1F83B68E6
:101E4000D4F808215A602B79C4F8087143F00303D1
:101E50002B710C236B710023EB7194F81C312B72E6
:101E6000B44AD4F81831A2FB03239B0AA5F8093021
:101E7000B4F81031A5F80B30B4F81231A5F80D30D4
:101E8000B4F81431A5F80F3094F80E31C4F8F060AE
:101E9000032262F3020384F80E31A368002B0ADAEE
:101EA000E168626823F0004391422CBF7618B618AF
:101EB000F31AC4F8F030A04B01220935C4F8EC50F5
:101EC00002211046C3E902480EF0A4F900283FF4AD
:101ED00054AF9A4A9A499B4840F6733323F013F85B
:101EE000404080F311884FF0030002DF6FF076006E
:101EF00015E7DFF854828DE7D0F8EC20D0F8C43134
:101F000090F8E40084F8E50094F80C01884984F81E
:101F10000D0194F8840184F8850100200860D4F84C
:101F2000C801A2F10901B3B194F86651AD0712D40A
:101F300094F8BF51EF070ED4D4F8D051AB4200F063
:101F4000D78058B9187900F00300032800F0DF802B
:101F5000C4F8C83104E0002800F0A980D4F8CC31DE
:101F6000186842F8090C196052F8093CC4F8CC1101
:101F7000002B00F0A6806FF08B00D0E690F8D930EF
:101F8000002B3FF491AD80F8D92091E5B4F82CC036
:101F900094457FF4C1AD40F2E24C0CFB03FE42F2EB
:101FA000107C0CFB01EC0CF1FF3CBCFBFEFCB4F81C
:101FB000C2E01FFA8CFCE6457FF4AEAD012389F840
:101FC0000430B9E50122022110460EF0F1F8A5E631
:101FD000226CA36C02FB1833A3641AF00DFF0546B4
:101FE00094F8D800DFF86481C0F3C2001AF006FF4D
:101FF000054407FB05F5564B94F81C2105F574259F
:1020000005F23F25A3FB0535AD0CA36C25640BFB46
:1020100002F205FB0AF022657A080344963A9342DD
:1020200028BF1346C4E911230023A0FB0801C4F80C
:10203000E0303BA3D3E90023FEF7A0FC3D4B361A6A
:10204000D4F81801A3FB0030800A0BFB00F0A0FBC2
:10205000080133A3D3E90023FEF790FC7D1BB4F8FD
:10206000109120F07F48B6E51C60E6E694F8BF5179
:10207000ED073FF572AED4F8D051AA4226D0002920
:102080007FF46EAE117901F00301032962D0C4F828
:10209000C82167E6C4F8D4016FE643F8092CC4E907
:1020A0007100C4F8CC01002A7FF467AEF2E742F871
:1020B000093CC4E97111C4F8CC1159E76FF068000C
:1020C0002DE6C4F8D4116FF08B0028E61568C4F82B
:1020D000D05100297FF444AE116843F8091C106008
:1020E00053F8092CC4E97200002A7FF446AED1E708
:1020F0001D68C4F8D05100287FF430AF186842F84A
:10210000090C196052F8093CC4E9721130E7D8791A
:102110000328F3D00A287FF41BAFEFE7AFF300806A
:102120008D49FD1A0700000061AE0100E42A00207D
:10213000502A00205917B7D108060020CCC602004B
:102140007CC40200DCBF0200B92E000000CA9A3B2A
:1021500083DE1B43D1790329BED00A2997D1BBE77F
:10216000074A0849084840F6C73322F0CCFE4040F1
:1021700080F311884FF0030002DF4FF0000849E6BA
:10218000CCC6020074C00200DCBF020000000000E8
:102190002DE9F04F0B6891F811901B68D2F800A060
:1021A00097B005460B93037FD0F81E001490C3F33D
:1021B00080138DF84730B9F1FF0F6B8CADF85430B8
:1021C0000C4617460DF150084BD198E803001290C9
:1021D000ADF84C102B46EA8D53F82EBB9B78BB72A2
:1021E0003A81D5F82A307B60D5F83A30BB6107F1E7
:1021F000180095F83E30037105210EF009F97B7F38
:1022000095F83F2000F03F0060F305037B77C2F3B1
:102210000403BB77AE8EFE810128B6B202F01F0325
:1022200005D91B3303F01F030B2B00D82EBB0B9BD0
:10223000EC6800225A6197F82030012662F300030F
:1022400087F82030584629462E7111F0ABFE2068E1
:102250002671214611F0A6FE11F0AEFE17B0BDE8C2
:10226000F08F12AA0DF14701484619F0ADF89DF81C
:10227000473002338DF84730ACE7236800215960BE
:1022800095F8371095F8363043EA01233B829AF8E7
:10229000D830520962F3C5036A8E0D928AF8D8309D
:1022A00040F2E24202FB06F61AF0A6FD0C909AF804
:1022B000D800C0F3C2001AF0A1FD0C9BC249034430
:1022C00006FB03F303F5742303F23F23A1FB03236F
:1022D0009B0C7B6295F83130398A40F2E24203FB75
:1022E00002F27308963BBA63BB622B8FB74AADF814
:1022F0003A3018463244B64BB2FBF6F2AAF8C62082
:1023000082B242F2107000FB02623344013A881D2F
:10231000B2FBF6F2B3FBF6F3AAF8C2209AB28242FD
:10232000AAF8CE2004DDC1F57F41FA310A4492B209
:10233000AAF8CA207B68CAF8DC302B4613F81C2F99
:10234000C2F34011DA070F910C9100F117814FF49D
:102350008073AB830B9B93F8260019F0E5FD05F124
:102360002B03002800F0ED806A6AC5F82B202A8D27
:102370009A80B9F1FF0F00F0E880B8F804301498A3
:10238000A5F82930C5F825009DF84730AB7712989D
:10239000BDF84C30C5F81F00A5F823309AF8D830A6
:1023A000FA896A863A8AAA86C3F3C203BDF83A203C
:1023B00085F83830EA86504613F0EAFF2946B8819E
:1023C000E8806568584611F0EDFDBB89EB801B2362
:1023D0002B710C9BD5F80080002B40F0BC809DF841
:1023E0003C302B772946404611F0DCFD11F0E4FD2E
:1023F00097F84500B7F84050B7F84280012100F047
:1024000007001AF007FBA84408F5E178834608EBBB
:10241000000170484FF000093123CAF80830A1FBD1
:10242000000167A3D3E90023CAF80490CAF80C900E
:10243000FEF7A4FA7B6A0D9AE56820F07F40F61A51
:1024400040F2E24303FB025502214A46CAF810005B
:1024500001200DF0ADFE0B9F384612F09DFE821C50
:102460005D4B0097D2B2484601210FF029F905F2E1
:10247000B2450128A5EB0B0500F08D800B9B93F86E
:102480002430DB0772D4504613F082FFDFF844910A
:10249000A6FB09864AA3D3E900238346314640467A
:1024A000FEF76CFAA368CDF818A00BF10504A3F1B0
:1024B0003A0B4A4B07934A4B05934FF4E473089346
:1024C000DAF81030049320F07F4746480023A7FB3A
:1024D000000103930723B8EB000003FB071166EB31
:1024E00001014FF47A720023FEF748FA34A3D3E9CE
:1024F0000023CDE90170A5FB0901FEF73FFAE4B224
:1025000020F07F4000905B462246012100200FF022
:102510004DF830F002030CD0334A3449344840F2CD
:10252000C91322F0F0FC404080F311884FF0030003
:1025300002DF0122022110460DF03AFE17B0BDE87D
:10254000F08FC5F82B00988013E70022C5F82520EE
:10255000A5F8292018E77B7F43F040037B77381DDF
:1025600018F02EFD0123F8832B773BE7002301228F
:102570000093184611460FF0A3F884E71A4A1D4944
:102580001B48F12322F0BFFC404080F311884FF03C
:10259000030002DFDBE611F0BBFD0B9B83423FF43F
:1025A0006DAF114A1449124840F29F2322F0ABFC50
:1025B000404080F311884FF0030002DF5EE700BF68
:1025C0008D49FD1A0700000083DE1B43FF5962029C
:1025D0007FC3C90100CA9A3BC5A5010095A50100AA
:1025E00001A601008D49FD1AC8C80200ACC702004F
:1025F000DCBF020008C2020024C902000000000083
:102600002DE9F04F8BB00F460493BDF8583005907C
:1026100006930020BDF860309DF85490BDF85CB082
:102620000393164612F0FAFF002800F09D8109F08E
:10263000010A054650460FF00BF9BAF1000F6AD1B6
:102640002B6A05F11C020792002B6BD0D5F8208075
:10265000D8F8004098F84400C0F3C00100F007002B
:102660001AF0D6F9B8F8401000F5E1700144B8F856
:1026700042000144C648C4A3D3E90023A1FB0001E2
:10268000FEF77CF920F07F402061304619F0B6F962
:1026900095F833306FF3410385F83330FF2385F825
:1026A000343066B3A9F10203012B40F2618195F841
:1026B0004410049C059A69F3420185F8441095F88A
:1026C000331064F3000185F83310149909686962C6
:1026D000149989882985039929863B4605F11C00B0
:1026E00000210096FFF7D0F81AF032FB002840F0E6
:1026F0005B812846FFF7F4F80BB0BDE8F08F19F0C6
:10270000C1FD0028CED014990498324619F0E6FA9B
:1027100085F83400C6E706210DF0EEFC00288FD1C5
:102720001220E9E711F026FC0790002800F07381E1
:1027300013F022FE0446002800F08F8120300DF0B7
:102740007BFE04F11C08002840F05881032104F1AD
:1027500024001AF00BF8069B606F63854FF6FF7339
:10276000A4F82CB02385002800F0578104F16401FF
:1027700004F168020DF0CCFCB4F86030854A23F413
:10278000EF6323F0070343F4887343F00103A4F8D5
:10279000603094F87A3023F007034FF0000B84F890
:1027A0007A304FF01B13C4E91632C4F874B0A4F8A1
:1027B00078B0A4F82EB0C4F830B004F1340018F0AA
:1027C000B1FB94F8393060F30503012184F8393006
:1027D0000DF1270019F0CAFF9DF827206E4BDDF898
:1027E0000CC0A08D84F83BB0A3FB0213DB0803EB05
:1027F0004303A2EB8303053384F83A3094F839306D
:102800000699A4F8C4B003F03F0384F8393094F873
:102810003C30A4F8C8B023F0030340F2E24284F84D
:102820003C305E4BA4F8D0B002FB01F10A460B44E9
:10283000B3FBF1F35A49A4F8CCB01144B1FBF2F167
:10284000A4F8C61042F2107101FB0C210139B1FB52
:10285000F2F2A4F8C2200622A4F8C020811D9AB288
:102860008A42A4F8CE2002DD063A121A92B294F8F7
:10287000D830A4F8CA204FF0000B23F0070384F8E7
:10288000D830A4F8E4B084F8E6B0C4F808B1A4F8ED
:102890000CB1A4F820B110F02FFE079BC4F844310E
:1028A00094F83A31A4F838B123F0030384F83A31AC
:1028B00094F87A30A4F840B123F0180384F87A3001
:1028C00094F8663184F843B123F0070384F8663145
:1028D00094F88631A4F864B16BF3451384F886311B
:1028E00094F8AE31A4F884B16BF3C303002284F8EA
:1028F000AE310023C4E94A01C4E94C23A4F8ACB1C9
:10290000A4F8B8B114F080F8A4F8D20014F082F85A
:10291000D4F8BC21234BA4F8D4001340C4F8BC3134
:1029200014F07EF894F8C03160F3020384F8C031EB
:1029300014F07CF894F8C031C4F8C4B160F3C50356
:1029400084F8C0313123C4E974BBC4E972BBC4F854
:1029500004B0C4F80CB0A360C5F82080C4E905BB7E
:1029600084F800B0E46175E60C200BB0BDE8F08F90
:10297000002019F067F895F8333043F00203D14690
:1029800085F8333093E600BF8D49FD1A070000003B
:1029900000CA9A3B48014801ABAAAAAA7FC3C90151
:1029A000FF5962020000FFF62C6AA36D63B12D4A45
:1029B0002D492E484FF4976322F0A5FA404080F34A
:1029C00011884FF0030002DF04F14C0104F14800CC
:1029D0000DF0A2FB0646002831D02768A665D7F87F
:1029E0004441F4B1204611F0CBFA384613F0CAFC4A
:1029F000002303202B620BB0BDE8F08F194A1C495D
:102A00001A48BF2322F07FFA404080F311884FF02C
:102A1000030002DF9AE607206EE604F16C006067AF
:102A2000A4E6104A1349114840F2C14322F06BFA60
:102A3000404080F311884FF0030002DFD2E7094ADB
:102A40000C490A4840F2BA4322F05DFA404080F354
:102A500011884FF0030002DFBFE7079811F090FAEA
:102A6000072049E668C90200D4C50200DCBF0200A5
:102A700054C3020024C702002DE9F04F044690F829
:102A80001C80238D406A8DB0C8F3401BADF82C30FC
:102A9000E307C8F3C016894615460A90D84600F1E8
:102AA000F9800023A38399F8123099F8110013F0EC
:102AB00001031CBFD4F81E30C4F82B3004F12B02E4
:102AC00014BF638CC4F82B30FF28938004F12507D2
:102AD00004F11F0240F0D0800023BDF82C100A98AA
:102AE000C4F82530BB80A677C4F81F009180D9F8C0
:102AF0000030D3F800A0EB8963862B8AA386BAF84E
:102B00003030E3861AF076F984F838002E683046C3
:102B100013F03EFCD9F80470A8812146E0802068BB
:102B200011F040FAAB89FB801B233C683B71B8F184
:102B3000000F40F0BD8087F81CB03946204611F0E8
:102B400031FA11F039FA7368B76895F84400B5F8AE
:102B50000EB0D9F80C409F4238BF1F46C0F3C001E9
:102B600040F2E24300F0070003FB0BFB19F050FFBB
:102B7000203400220221241A01200DF019FB5046B6
:102B800012F024FD021D524BCDF800A0D2B201215B
:102B900000200EF095FD30F002030CD04D4A4E4956
:102BA0004E4840F2C93322F0AEF9404080F311881C
:102BB0004FF0030002DF00252B4603220121009580
:102BC00028460EF07DFD304613F0E2FBD9F80830C0
:102BD0000696A3F10908424B0793424B059340F236
:102BE000F933DFF8049108933369ABFB09B6CDE9FB
:102BF0000353A8EB070834A3D3E90023471D31464C
:102C00005846FDF7BBFE104619464FF47A72002372
:102C1000FDF7B4FE2CA3D3E90023029031465846B9
:102C2000FDF7ACFE28A3D3E900230190A4FB090122
:102C3000FDF7A4FEFFB220F07F40009043463A46E5
:102C4000012128460EF0B2FC30F002030CD0214ADC
:102C50002149224840F2FA3322F055F9404080F3EE
:102C600011884FF0030002DF0122022110460DB04F
:102C7000BDE8F04F0DF09CBA04F11E0118F0A4FB62
:102C8000A37FBDF82C200A98C4F825000233A3774F
:102C9000BA802CE70F4A154910484FF4527322F0BE
:102CA00032F9404080F311884FF0030002DFF8E66C
:102CB0006B7F43F040036B77281D18F081F90123E7
:102CC000E8833B7739E700BF8D49FD1A0700000014
:102CD000CDA7010068C90200ACC70200DCBF02003A
:102CE000D1A7010001A8010000CA9A3B08C2020056
:102CF0002DE9F04F8FB01E4609931546FF230A1D9C
:102D0000DFF80481DFF804B1DFF804A1DFF80491F3
:102D100008920021316004468DF82F3004930C9105
:102D2000059106910DAF0CAE02230D93CDE90187FD
:102D300000962B460DF12F02214600200EF002FDD9
:102D400002282DD00D9B002B30D19DF82F30FF2B6A
:102D50003CD0052BE8D1002013F022FB0028E3D063
:102D600090F93930002BDFDB049902690C9BFF29B5
:102D70000CD006990792184604930EF043FD059B6C
:102D8000089A99188842049B079A22D8CDE905230E
:102D90009DF82F300493C7E7214600200EF018FD60
:102DA0000D9B022BF8D00D9B002BCED073235A46DF
:102DB0005146484622F0A7F8404080F311884FF072
:102DC000030002DF9DF82F30FF2BC2D1049BFF2BA5
:102DD00010D0DDE9053210481344A3FB000107229F
:102DE00002FB031106A3D3E90023FDF7C7FD099BEE
:102DF000803018600FB0BDE8F08F00BFAFF30080E7
:102E000000CA9A3B00000000A9AB0100C0C9020043
:102E100004CA0200DCBF02008D49FD1A0000000058
:102E200070B582B01C4601921546064601AA0220E2
:102E3000FFF75EFF23680BB30198431B1B021FD4EF
:102E400029460EF0DFFC1A4A03460721A0FB0202C6
:102E500001FB032114A3D3E90023FDF78FFD2268B2
:102E600002442260002A09DB40F2E24006FB00F047
:102E7000904203D2121A8242FCD8226002B070BD86
:102E8000014628460EF0BEFC094A03460721A0FB76
:102E9000020201FB032104A3D3E90023FDF76EFD29
:102EA0002268121A2260DDE700CA9A3B0000000087
:102EB0008D49FD1A000000002DE9F041B0F8941191
:102EC00088B0044640F2E2434748002603FB01F184
:102ED00005AD0623C5E901668DF80F30A1FB0001A1
:102EE0003FA3D3E900230596FDF748FD0DF10F033D
:102EF00001950093B4F88A31049004AA2046012178
:102F000017F054FE9DF80F8008F1FF3C5FFA8CFC2F
:102F10000DF11603304604F5CA7703EB4C0C04F5AB
:102F2000D0764FF6FF7E3A88B8F1000F0AD02B46D4
:102F3000724504D0198891424FF001001DD0023330
:102F40009C45F5D10237BE42EDD1D4F8EC3048BBF8
:102F5000BDF8142040F2E24102FB01F1100AC4F86E
:102F600018111A70587094F80E31042262F302039B
:102F700084F80E3108B0BDE8F081D4F8EC1040F2CE
:102F8000E24302FB03F3100AC4F818310A704870D8
:102F900094F80E31042262F3020384F80E3108B073
:102FA000BDE8F081032203F8042C13F8052C94F8F3
:102FB0000E11052542F00302112003F8020C03F85C
:102FC000052C65F302010F20202203F8010C1A7072
:102FD00084F80E1108B0BDE8F08100BFAFF30080A7
:102FE0008D49FD1A0700000000CA9A3B000000004E
:102FF00038B504461AF08EFDA27DC2F341030133B9
:1030000003F00303032B34D063F34202A27503F1F0
:10301000250019F0BBFC63680BB32369FBB11CF0FE
:1030200065FA05460EF0ECFBC11C00201CF02CFAE2
:103030001CF0A8FA1CF05AFA29460EF0E3FB1249DC
:1030400003460722A0FB010102FB03110CA3D3E9F5
:103050000023FDF793FC23691B1A236138BD0EF092
:10306000CFFBC11C00201CF00FFABDE838401CF05B
:1030700089BA6FF34202A2752520CAE7AFF3008038
:1030800000CA9A3B000000008D49FD1A00000000B4
:103090002DE9F04F87B004461CF00AF8C0B250B9D1
:1030A00019F0CCFCBE4821461BF0DCFE07B0BDE8A1
:1030B000F04F1BF0D3BF1CF01BF805461CF036F98F
:1030C00083461CF03DF981461CF052FB06461CF07D
:1030D00033FB82461CF0EEF8EDB280461CF0D0F8CF
:1030E00019F0ACFC002DDDD0012011F0B7F8054639
:1030F000002800F091811BF0FF0BF6B240F08381B5
:10310000002E40F0E080FF275A463B4631462046DD
:103110001AF02EFF0028C5D02B7F626800218DF8A1
:1031200013105FFA88F803F00F01002A00F0E7801F
:10313000626892F82020900700F1E1800729B1D061
:10314000A27D120740F17681002940F0C2806B7F9A
:10315000252B00F23681042011F080F80028A1D040
:103160001CF018FA636A804643B9238C40F271223E
:1031700002FB03F3B0FBF3F203FB120823681A69A6
:10318000884B0721A2FB030301FB023182A3D3E991
:103190000023FDF7F3FBA0F24233434582D31CF03A
:1031A00061F83846636818F0CDFEE37D9B078146E1
:1031B00040F1E281002800F0DF8183464FF0010AF0
:1031C0001BF0A4FF2B7F05AA039205F11E02014606
:1031D0008046C3F38013009220460022CDE901AB64
:1031E0001AF0E0FE40461BF017FF1BF057FF0028C7
:1031F00040F0DC816C4821461BF034FE6168A37D01
:1032000091F8202043F0800342F0010281F8202051
:10321000A37511F041F81622027195F81CE04FF6E3
:10322000FF724346C2808246CEF3401E00F11C026C
:1032300008F120081D6858689968D3F80CC0C2F8D6
:103240000CC01033434515605060916002F11002CC
:10325000F0D11B6813609AF81C30CAF808406EF36E
:1032600045138AF81C301CF041F90021CAF81000FF
:103270000120059D1BF0E0FE002E08BFFF278AF805
:103280001970E37D2D1A13F00203CAF8145000F0F0
:103290007A81B9F1000918BF4FF001099AF81A3084
:1032A00069F300038AF81A3010F0F6FF034651461E
:1032B000DAF80000CAF80C3011F004F811F012F836
:1032C00007B0BDE8F08F5FFA8AF018F0C9FE074634
:1032D0001AE7012915D16B7F0C2B7FF4E3AE2A7F0F
:1032E000009700230193D20905F1240320461AF028
:1032F00091FD00287FF42FAF297F01F00F010029F5
:1033000054D0062952D0022900F0A780012958D1B3
:103310006B7F0C2B7FF4C6AE2A7F00970DF1130351
:103320000193D20905F12403002120461AF072FD11
:10333000002846D06B7F002B3FF4B4AE63682BB1FE
:103340002B7F03F00F03072B7FF4ACAE03209DF817
:10335000139010F083FF054600283FF4A3AE10F051
:103360009BFF4FF6FF73EB8005232B71B8F1000F25
:103370006FD17F20AB7E2876002E08BFFF2769F330
:1033800041032868AB7629466F7610F09BFF10F05A
:10339000A9FF87E6AFF3008000CA9A3B0000000057
:1033A000CDDB01008D49FD1AC5DD01006B7F252BAA
:1033B00007D8A27D920602D56268002A4FD0252B3D
:1033C000B9D92B7F03F00F03042B7FF46BAE6B7F17
:1033D000252B3FF667AEA37DD9077FF563AE1BF0C3
:1033E00095FE2B7F0278C3F38013B3EBD21F7FF4DB
:1033F00059AE0830062205F11E0127F01EFB0028F9
:103400007FF450AE96E7A07D5FFA89F1C0F3C0006B
:1034100018F0BCFD074677E6724A7349734840F2DC
:10342000C32321F070FD404080F311884FF003006A
:1034300002DF60E6FF2F8DF81470C3F3801977D098
:10344000237EDB1BB3FA83F35B09002B7FF47CAE96
:1034500055E71BF021FFC0B28CE76B7FAFE79620EA
:103460001BF084FF00201BF055FE032010F0F6FE39
:10347000814600283FF416AE10F00EFF4FF6FF73A2
:10348000A9F80630052389F80430B8F1000F6FD190
:103490007F23002E89F8183014BF3B46FF2389F89C
:1034A000193099F81A30D9F800006FF3410389F800
:1034B0001A30494610F006FF10F014FF1BF026FEEC
:1034C0002B7F0646C3F380133278DB0102F07002D3
:1034D00043F00303134333700C233846737018F022
:1034E00031FDE37D9F0750D500284ED0327833461A
:1034F00042F0400203F8022B0268C6F802208288DC
:103500009A80D5F81E30B3606B8CB38130461BF0C7
:1035100083FD1BF0C3FD002856D11CF033F8A37DBA
:10352000334843F00103A37521461BF09BFCC7E61B
:1035300005F11E0A05AA5146484618F047FE002824
:103540003FF4DAAEE37D03F001034B457FF4D4AEE4
:103550005146062204F1080027F06FFA297FB0FADD
:1035600080F35B0901F00F01002B7FF4EDADC6E69F
:103570001BF092FEC3B28CE794F816A004F1190B6D
:10358000CAF3801A1CE6994688E6A37D3278C3F315
:10359000801363F38612334603F8022BD4F8192004
:1035A000C6F80220B4F81D209A80AAE70D4A1149F6
:1035B0000E4840F2914321F0A6FC404080F3118870
:1035C0004FF0030002DF15E6064A0A49074840F2B9
:1035D000165321F098FC404080F311884FF003000F
:1035E00002DF9AE788CE020034CE0200DCBF020080
:1035F000E1DB01003CCE02002DE9F04F446A99B0B6
:1036000016461F46CDE90467DDF89480054674B977
:1036100010201FF03BFF0246686220B9A84BEA2148
:10362000A84820F091FFC0E901440460C4606B6ABF
:10363000196851B15A684A60012393408B6028464B
:1036400020F0AEFB6B6A00221A603B1EB9BF23F06C
:10365000004305930023C8F80030DDF814909A4B1E
:10366000BCBF0122C8F8002033EA090319D1249A0B
:1036700042F20F731360C9F31303334300F08085E4
:10368000269B53B9914B22E0914B03930833269A22
:103690001360039819B0BDE8F08F8C4B039303338C
:1036A000F5E7DDE90434CDE90C34DDE90C01002255
:1036B0000023FDF7D3F9804658B1249A0123136003
:1036C000269B002B00F0598582481860431E039307
:1036D000DFE716AB019317AB00932846DDE90C2317
:1036E00020F0D6FDC9F30A548346002C7ED00D9BF2
:1036F000CDF84C80C3F31303DDE90C0143F07F5197
:1037000041F44011A4F2FF34734B0022FCF74CFD4E
:1037100065A3D3E90023FCF7FFFE65A3D3E90023EB
:10372000FCF744FD064620460F46FCF78BFE62A3DD
:10373000D3E90023FCF7F0FE02460B46304639463B
:10374000FCF734FD06460F46FDF7D0F9002282460D
:10375000002330463946FDF78BF948B15046FCF757
:1037600071FE32463B46FDF779F908B90AF1FF3A96
:10377000BAF1160F57D8594B03EBCA03D3E900230C
:10378000DDE90C01FDF774F900284ED00AF1FF3A8B
:1037900000230F93169B1C1B631E099345BFC4F1A6
:1037A00001030693002300234CBF09930693BAF14B
:1037B000000F3CDB099BCDF838A05344099300234C
:1037C0000A93229B092B00F28D80052BC4BF043B7A
:1037D0002293229BA3F10203CCBF00240124032BDC
:1037E00000F28C80DFE803F02D4F4D5BDDE91643DE
:1037F0001C4404F23243202BC3BFC3F1400304F244
:10380000124009FA03F3C3F12003C6BF26FA00F001
:10381000184306FA03F0FCF705FE0123A1F1F87145
:10382000013C139370E70123B3E70F90B2E7069BC7
:10383000A3EB0A030693CAF100030A9300230E9335
:10384000BFE700230B93239B002B5ADC4FF00109A9
:10385000CDF820904B46CDF88C90686A00224260EB
:10386000042202F114069E42416850D9284620F0F5
:1038700057FA039000284ED1194B02464FF4D571E8
:10388000CEE60123DEE700230B93239B0AEB03091B
:1038900009F10103012B0893B8BF0123DDE70123E0
:1038A000F2E700BFAFF3008061436F63A787D23FA9
:1038B000B3C8608B288AC63FFB799F501344D33F1F
:1038C00091F40200A8F402000000F07F8DF40200E1
:1038D00084F4020051DE02000000F83F80B80200CC
:1038E00002F502000124002322930B944FF0FF39CC
:1038F0000022CDF8209012232392AEE701230B93F0
:10390000F4E7DDF88C90CDF820904B46A5E7013127
:1039100041605200A5E76B6A039A1A60089B0E2B60
:1039200000F2A880002C00F0A580BAF1000F34DD71
:103930009A4A0AF00F0302EBC303D3E900341AF4E6
:10394000807FCDE910344FEA2A1416D0944BDDE97C
:103950000C01D3E90823FCF709FFCDE9040104F0C9
:103960000F0403278E4E54B9DDE91023DDE904016D
:10397000FCF7FCFECDE9040129E00227F2E7E107AC
:1039800008D5DDE91001D6E90023FCF7C5FDCDE936
:103990001001013764100836E5E700F0A580CAF190
:1039A00000047E4B7E4E04F00F0203EBC203D3E90A
:1039B0000023DDE90C01FCF7AFFDCDE90401241182
:1039C00000230227002C40F08480002BD2D10F9BD3
:1039D000002B00F08B80DDE90434CDE91034DDE903
:1039E0001001704B0022FDF743F800287ED0089BA1
:1039F000002B7BD0B9F1000F38DDDDE910016A4BF7
:103A00000022FCF789FDCDE904010AF1FF380137F6
:103A10004C463846FCF716FDDDE90423FCF77CFD37
:103A2000624B0022FCF7C2FBA1F15076CDE91001F8
:103A30001196002C5DD1DDE904015D4B0022FCF7FD
:103A4000B3FB02460B46CDE90423109A3346FDF73B
:103A50002DF8002840F09C82DDE90401109A06F15F
:103A60000043FDF705F8002840F09082DDE90C34B2
:103A7000CDE90434179B002BC0F25281BAF10E0F2E
:103A800000F34E81454B03EBCA03D3E90034CDE983
:103A90000634239B002B80F2DB80089B002B00F375
:103AA000D78040F07282424B0022DDE90601FCF72C
:103AB00033FDDDE90423FCF7EFFF089C26460028D0
:103AC00040F04882039F312307F8013B0AF1010AC5
:103AD00044E2E20705D5D6E90023FCF71DFD0137D6
:103AE0000123641008366DE7022770E7089CD04672
:103AF0008FE70399294B214412910B9903EBC403DF
:103B0000DDE9106753E90223002955D02949002037
:103B1000FCF72CFE3B463246FCF746FBCDE9100194
:103B2000039FDDE90401FCF7E1FF0446FCF78AFC92
:103B300002460B46DDE90401FCF736FB3034024651
:103B40000B46CDE9042307F8014BDDE91023FCF710
:103B50008FFF002874D1DDE9042312490020FCF70F
:103B600023FBDDE91023FCF783FF002840F0B7803A
:103B7000129B9F423FF47AAFDDE910010A4B00220D
:103B8000FCF7CAFC084BCDE910010022DDE9040175
:103B9000FCF7C2FCCDE90401C3E700BF80B8020016
:103BA00058B802000000F03F0000244000001C4014
:103BB000000014400000E03F30463946FCF7ACFC02
:103BC000CDE91001129B039C1493DDE90401FCF77D
:103BD0008DFF1590FCF736FC02460B46DDE904012B
:103BE000FCF7E2FA159B303304F8013B129B9C4230
:103BF00006460F464FF0000224D1A44BDDE9100128
:103C0000FCF7D4FA02460B4630463946FCF74EFF25
:103C1000002863D1DDE910239C490020FCF7C4FA99
:103C200002460B4630463946FCF722FF00283FF497
:103C30001DAF149F7B1E149317F8013C302BF8D056
:103C4000C2463BE0924BFCF767FCCDE90401BCE7C0
:103C5000DDE90489039FDDE9062340464946FCF778
:103C600085FDFCF743FF0446FCF7ECFBDDE906238A
:103C7000FCF752FC04F1300602460B46404649462A
:103C8000FCF792FA07F8016B039EDDF820C0BE1B1B
:103C9000B44502460B4636D1FCF788FADDE9062327
:103CA00080468946FCF702FF58BBDDE90623404603
:103CB0004946FCF7D3FE08B1E10722D4284659460D
:103CC00020F06EF800233B70249B0AF1010018607D
:103CD000269B002B3FF4DDAC1F60DAE427463B4611
:103CE0001F4613F8012D392A07D1039A9A42F7D1BA
:103CF0000399302208F101080A701A7801321A700B
:103D00009EE7D046EBE7624B0022FCF705FC002261
:103D1000002380468946FCF7A1FE00289BD0CDE712
:103D20000B9A002A00F0D080229A012A00F3B28078
:103D3000139A002A00F0A68003F233430A9C069FE0
:103D4000069A1A440692099A01211A4428460992B1
:103D500020F08EF80646002F0CDD099B002B09DDB4
:103D6000BB42069AA8BF3B46D21A0692099AFF1A8E
:103D7000D31A09930A9BF3B10B9B002B00F0A88088
:103D8000002C10DD31462246284620F02FF95A46F5
:103D900001460646284620F081F8594680462846C6
:103DA0001FF0FEFFC3460A9B1A1B04D05946284643
:103DB00020F01CF983460121284620F059F80E9B7B
:103DC000002B044640F386801A460146284620F020
:103DD0000DF9229B012B04467FDD4FF0000823697B
:103DE00004EB8303186927F04CF8C0F12000099B0D
:103DF000184410F01F0000F09280C0F12003042B43
:103E000040F38A80C0F11C00069B03440693099B83
:103E1000034407440993069B002B05DD59461A46C7
:103E2000284620F03DF98346099B002B05DD2146FD
:103E30001A46284620F034F904460F9B002B70D018
:103E40002146584627F06AF800286ADA00235946C6
:103E50000A2228461FF0C6FF0B9B0AF1FF3A834651
:103E6000002B00F09481314600230A2228461FF0DF
:103E7000B9FFB9F1000F064600F39380229B022B95
:103E800057DC8EE0169BC3F1360357E70000E03F96
:103E900000002440089B5C1E0A9BA342BFBF0A9BF4
:103EA0000A94E21A0E9BB6BF9B181C1B0E93089B2C
:103EB000B8BF0024002BB9BF069B089A069F089B39
:103EC000BCBF9F1A00233BE70A9C069F0B9E42E75C
:103ED0000A9A6BE7229B012B19DC049BBBB9059B5B
:103EE000C3F313039BB9059B23F000431B0D1B0574
:103EF00083B1069B01330693099B013309934FF06D
:103F000001080E9B002B7FF46AAF01206FE74FF092
:103F10000008F6E79846F4E73FF47DAF18461C30FA
:103F200072E7089B002B36DC229B022B33DDDDF889
:103F30002090B9F1000F0DD121464B4605222846AD
:103F40001FF050FF01460446584626F0E7FF0028C0
:103F50003FF7B8AD239B039F6FEA030A4FF00008B9
:103F6000214628461FF01CFF002E3FF4A7AEB8F1F3
:103F7000000F05D0B04503D0414628461FF010FF82
:103F8000314628461FF00CFF98E600242646E1E75C
:103F9000C246264696E50B9BDDF82090002B00F0EC
:103FA000FD80002F05DD31463A46284620F078F89E
:103FB0000646B8F1000F5CD0716828461FF0B0FECD
:103FC000074628B9804B024640F2EA21FFF728BB9A
:103FD00032690232920006F10C010C3026F03DFDF0
:103FE00001223946284620F05BF8039B01330893F1
:103FF000039B4B440A93049B03F00103B0460993CF
:104000000646089B2146013B5846049326F0B2FE23
:10401000034630330690414658460B9326F07EFF08
:10402000324681462146284620F0AAF8C2680B9BFA
:10403000074602BB0146584626F070FF0B9B02461E
:1040400039462846CDE90B321FF0AAFE229B0C9A76
:10405000089F43EA0201099B0B430B9B0DD1392BAF
:1040600029D0B9F1000F01DD069B3133049A13709A
:1040700076E73046B9E70122E2E7B9F1000F06DB47
:10408000229941EA0909099959EA010120D1002A36
:10409000ECDD594601222846089320F001F821461C
:1040A000834626F03BFF0028089B02DCDED1DA07BE
:1040B000DCD5392BD8D1049A392313703B461F46DF
:1040C000013B17F8012C392A50D001321A7047E70A
:1040D000002A03DD392BEED00133C7E7089A0A998D
:1040E00002F8013C8A422AD0594600230A22284677
:1040F0001FF078FEB04583464FF000034FF00A02F0
:104100004146284607D11FF06DFE80460646089BB3
:104110000133089375E71FF065FE314680460023A2
:104120000A2228461FF05EFE0646F0E7B9F1000FAE
:10413000039ACCBF4F46012717444FF00008594659
:104140000122284608931FF0ABFF2146834626F044
:10415000E5FE0028B2DC02D1089BDB07AED43B466B
:104160001F4613F8012D302AFAD0F9E6039A9A4235
:10417000A5D10AF1010A312379E7144BFFF7A7BA59
:10418000269B002B7FF480AA114BFFF7A0BAB9F150
:10419000000F03DC229B022B3FF7CBAE039F21468F
:1041A000584626F0E7FD00F1300307F8013B039A7B
:1041B000BA1A9145BADD594600230A2228461FF053
:1041C00011FE8346EBE700BF02F5020050DE02005D
:1041D00084F402001FB50E240294044C0194BDF82F
:1041E0001840009424F012FC04B010BD0A340020E2
:1041F00070B5002088B004F0FFFE064630B10146DD
:10420000104808B0BDE8704020F07DBE0E4D0F484C
:1042100020F079FE0FCD03AC0FC42B6823600C494E
:1042200000963346022203A805F0CEFD014620B1D8
:10423000084820F068FE08B070BD074820F063FE13
:10424000F9E700BF66D3020070B7020086D3020010
:1042500048B902009DD30200C3D3020008B5074845
:1042600020F051FE064B00221A70FFF7C1FF054BEC
:104270001868BDE8084023F028BA00BFE5D3020063
:1042800018340020281E002010B5144611B105482E
:1042900020F039FE20461022BDE81040002126F013
:1042A000FDBB00BF03D40200F0B585B01C462B480F
:1042B000BDF828709DF82C50164620F024FE0E2CD8
:1042C00007D9274820F01FFE6FF00C04204605B0E8
:1042D000F0BD3B190E2B05DD224820F014FE6FF0D7
:1042E0000604F3E72DB1204820F00DFE6FF00D0419
:1042F000ECE71E4D22463146E81926F0AEFB2B783E
:104300008DF800306B788DF80130AB788DF8023085
:10431000D5F80330CDF80330D5F80730CDF80730A5
:10432000B5F80B30ADF80B3011486B7B8DF80D30C4
:104330000DF1030120F0E7FD0E480022002369463D
:104340001DF0F4FE18B10B4825F087FEBEE79DF87E
:104350000210094820F0D7FDB8E700BF19D40200C9
:1043600020D4020035D4020055D402000A340020C3
:10437000B7F50200840B002063D402002DE9F0435E
:1043800080468BB014460D4679B9374B1B8813B95C
:10439000364820F0B8FD14220021204626F07EFB8E
:1043A000002630460BB0BDE8F083314BBFF35B8F86
:1043B000012253E8001F43E800200028F9D1BFF391
:1043C0005B8F2C48298A20F09EFD267C56BB2A4B09
:1043D000D4F800C06A4603F1100996461868596877
:1043E000174603C708334B453A46F7D11B783B7055
:1043F0007146604622F00AFD074698B91F4820F032
:1044000082FD2B8A276001332381032321462374F5
:10441000404608F0ABFF01460028C2D0184820F003
:1044200072FDBEE7237C032B1BD1ED68154B2E6874
:1044300005AA03F1100C174618685968144603C4FE
:10444000083363452246F7D11B782370394630463E
:1044500022F0DCFC28B90C4820F055FD024BAA885C
:104460001A8001269DE700BFE433002074D40200C7
:10447000241E00208ED4020084B70200A5D40200BE
:10448000B9D4020095B70200D3D4020070B592B03F
:104490000E4623F0E2F90378044607AD032B25D836
:1044A000DFE803F0021E20221349284626F023FCF1
:1044B000A379059562780492A2780392E278029239
:1044C00022790192627900921E210C4A0AA820F0FA
:1044D00027FD0B4832460AA920F015FD12B070BD29
:1044E0000849E2E70849E0E70849DEE7084A0A2107
:1044F000284620F015FDDBE7DFD4020001D50200DD
:1045000024D50200E6D40200EDD40200F7D4020064
:10451000D7F0020037B5144D044631B1134820F0EE
:10452000F2FC00232B7003B030BD114820F0EBFCEF
:10453000104A0123D2F83600D2F83A102B706B469D
:1045400003C3204623F0A6F80B4B694618602046AB
:1045500023F0E6F90028E6DA084C204620F0D3FCE8
:104560000A2020F053FCF8E7183400203AD5020066
:104570005AD5020070B70200281E002073D5020031
:104580002DE9F041454D464C464E92B04FF0FF327A
:104590004FF0FF330EA928461DF01EFE00286DD1F6
:1045A000414B0AAA03F1080E174618685968944649
:1045B000ACE80300083373456246F6D118689B885F
:1045C000CCF80000ACF804309DF838302068616801
:1045D0008DF828309DF839309DF83A208DF8293033
:1045E00007AB03C38DF82A20083A21891980022AD3
:1045F000DDE9100146D9CDE900012C4B0A2200214A
:1046000007A826F05EFB07AB03CB1B88CDF82F1065
:10461000ADF833309DF83030CDF82B0005939DF880
:104620002F3004939DF82E3003939DF82D30029384
:104630009DF82C3001939DF82B309DF828101C48D4
:1046400000939DF829209DF82A30B6F8008020F0CC
:104650005AFC18490E238B81174B0B60174B8F6048
:104660001868A1F8048009F067FA10B1144820F026
:104670004AFC102200210EA826F010FA642020F037
:10468000C5FB83E7FCF75AF9C0B200900D4B0A2234
:10469000002107A826F015FBB5E700BFB40B0020EA
:1046A000BCB70200E4330020AEB702008CD5020094
:1046B00098D502002C1E002089420000281E0020F0
:1046C000AFD5020093D5020008B5FFF791FD05486C
:1046D00006F0D6FB044806F0F7FD322020F096FBEA
:1046E000FBE700BF94010020700100202DE9F0419C
:1046F0001E4FDFF87C801F4C00253E785EB32DBB3B
:10470000404620F000FC1C4B23601C4B63600123DF
:1047100023814FF6FF73E381194B164918682574FE
:1047200008F024FE014610B1164820F0ECFB164DAF
:10473000BFF35B8F2B68BFF35B8F93B1134820F0FF
:10474000E2FB134B1348198820F0DDFB642020F0B6
:104750005DFB0125D1E74FF47A7020F057FB354619
:10476000CBE7002121201EF063FBE1E71834002095
:10477000B5D50200101E0020020A00207D43000073
:10478000281E0020DFD50200241E0020F8D50200DC
:10479000E433002078DB02002DE9F04F05468BB0B2
:1047A000184615F00303DDF8508003920E4601937E
:1047B00040F0F5812C1D002D40F0F48101F007063A
:1047C000341DC6F108064FF0000A0427411ECDF83B
:1047D00008A0CDF800A05246B94605B12060039B61
:1047E00003F0010ECE4B9842C0F02A81CD4B984287
:1047F00080F02681BEF1000F00F03C814FF0010CEB
:10480000A4EB050BBEF1000F00F01D81BBF5007F8E
:10481000C0F019816FF01500F5E032B9252B40F09A
:104820002C8101220427B94627E12B2B24D81F2BEA
:1048300001D8002221E1A3F120000B28F9D80FF2C2
:10484000080C5CF820F000BF7B4A000033480000F1
:10485000334800007B4A0000334800003348000022
:10486000334800003348000033480000334800005C
:104870001F4A00007B4A0000A3F12D005FFA80FC74
:10488000BCF14D0FD5D84D28D3D80FF2080C5CF8E9
:1048900020F000BF7B4A00007B4A00003348000044
:1048A0007B4A00007B4A00007B4A00007B4A0000F4
:1048B0007B4A00007B4A00007B4A00007B4A0000E4
:1048C0007B4A00007B4A0000334800003348000068
:1048D00033480000334800003348000033480000EC
:1048E00033480000E7490000334800003348000027
:1048F00033480000E7490000E7490000E7490000AD
:1049000033480000334800003348000033480000BB
:104910007B4A000033480000334800003348000061
:10492000334800003348000033480000334800009B
:10493000334800003348000033480000334800008B
:10494000CD490000334800003348000033480000E0
:10495000334800003348000033480000334800006B
:1049600033480000E749000033480000CD4900000B
:10497000CD490000E7490000E7490000E749000091
:104980007B4A0000CD490000154A00003348000072
:104990007B4A000033480000194A0000CD4900005E
:1049A000194A00003348000033480000194A00004B
:1049B00025480000CD49000033480000334800007E
:1049C000CD490000334800002548000011F8012CB3
:1049D0006C2A23D111F8022C6C2A4FF000022DD042
:1049E0000427B9461BE008F1070828F00708073438
:1049F000F8E8022324F0070455B10EEB0400B0429E
:104A000004D96FF01B000BB0BDE8F08FC4E90023A0
:104A100008340022082706E70022E1E70022013CD3
:104A20003C447842044025B1A9EB0500204486426D
:104A3000E7D3732B43D158F8040BCEE60827D0E711
:104A40004FF0000CDCE6009B0F2B3FF6E3AE45B3C6
:104A5000DDF800E00AA8CBF387037044BCF1000F37
:104A600019D063F07F0300F8103C0AF1010A009BA3
:104A7000013300930434C5F1080E11F8013F002BF7
:104A80007FF4CBAE601BB0F5806FBFF4C3AE9DBBAF
:104A9000083E3044B7E700F8103C029B0133029314
:104AA000E5E7BCF1000F01D00136E0E7CDE90412E3
:104AB000FCF7A1F90236DDE904120644D7E7B9F1A3
:104AC000040F08D108F1040015B1D8F800302360B4
:104AD00004348046D1E7B9F1080F7FF49BAE08F1AA
:104AE000070323F0070303F108081DB1D3E900BC55
:104AF000C4E900BC0834C0E7029A2B608008287023
:104B00006A7085F802A0BAF1000F05D006A9C5F1B8
:104B10000100009A9A4207D1C5F1010939E000BFAE
:104B2000E8B20200C4F5020011F8012B170607D500
:104B30002718BE4202F07F02FFF463AF04F8012B96
:104B40000133E6E7019B06AA12F80380BAF1000FD1
:104B500002D018F0800F19D10FFA88F2002355F80F
:104B6000221045F8223008460291FCF744F904EB84
:104B70000902471C3A449642FFF443AF04F8018B04
:104B8000029920463A4625F068FF3C44019B0133D8
:104B90000193DDE900239A42D4D1601B33E76FF023
:104BA0000D0030E707293FF60EAE2AE7014B1860EB
:104BB000704700BFB001002030B585B0CDE90101DC
:104BC0000446002501A90548039500F049F9DDE9EF
:104BD00002309842B8BF255405B030BDE14E020006
:104BE0002DE9F84FB0F8189019F0080804469346DC
:104BF0000DD001290CBF49F0100949F02009A0F897
:104C000018908BF31188BFF36F8FBDE8F88F09F010
:104C10000709022907D1204620F08FF90028F0D09B
:104C20000128238B4ED16769218B002F15DA256867
:104C300021F00701C4E9008841F001012183002629
:104C4000218B01F0070ACA4502D0A368002B5AD174
:104C50000DB9002E71D0002356E001F007035A1F52
:104C6000012A1ED821F00701062B256889B2C4E964
:104C700000880AD13DB1638B2A46126801339BB28A
:104C8000002AFAD1638341F002012183204620F0FB
:104C900054F906460028D3D0238B43F02003238306
:104CA000CDE7042B0CD121F0070189B221832046E6
:104CB00020F043F905460028C1D041F020012183AE
:104CC0000025BCE7032809D1226923F007031668F1
:104CD00043F00603238300252F46B1E7042806D1BD
:104CE000226923F00703566843F00403F2E705281E
:104CF00006D1226923F00703966843F00503E9E72C
:104D000000252E46E8E7012341F0080121838BF3BB
:104D10001188BFF36F8FFBB985BB16B11F492046C1
:104D2000B0474FF02003EFF3118B83F31288BFF3EA
:104D30006F8F238B23F008032383238BDA0625D57B
:104D400023F0100323830121B4F8189009F0070918
:104D500000297FF45EAF54E7A1680029DCD0D1F8C8
:104D60000090D1F804B03B4652462046D847B9F1EE
:104D7000000FD1D04946D9F80090F2E729463B46CA
:104D8000524620462D6820F0F4F8C5E713F02001C4
:104D90001EBF23F0200323830221D5E79F4F02008B
:104DA000F0B5084E026803460A270020114601327A
:104DB0000C78A55D6D0701D41960F0BD07FB0040BC
:104DC0003038F3E756F302002DE9F84F15469A46BE
:104DD000D378224A13F802B06F2B80460F460BF0AF
:104DE000030B29D024D8582B14BF0A261026DDF82F
:104DF00028903246002340463946FBF7BFFD092A7A
:104E0000D4B21ED83034B045E4B277F1000309F8CB
:104E1000014D01D3D14511D82B789B0605D5082E1D
:104E200015D1AB7843F00803AB704846BDE8F88F66
:104E300003F0F703702BD7E70826D8E780460F4624
:104E4000D7E7BBF1010F0CBF37345734DBE7102E27
:104E5000EBD1AB7843F01003E6E700BF56F3020056
:104E60002DE9F04F81469BB08A4615461C46002628
:104E7000287810B9304600F0C5BD6B1C2528029378
:104E800006D05146C8470028C0F2BC85013626E24C
:104E9000182200210CA825F001FE6B78252B59D093
:104EA0006A1C174612F8013B2B2B00F08B8079D837
:104EB000202B00F08C80232B00F08E809DF8383062
:104EC00003F04402442A03D16FF386138DF838307F
:104ED0009DF838300A9743F080038DF838303B78DE
:104EE0002A2B7ED19DF8393043F001038DF83930FB
:104EF0007B1C0A931A782E2A9DF839200CBF0121B9
:104F0000002161F341028DF839200BD15A1C0A921D
:104F10005A782A2A7BD19DF8392042F004028DF874
:104F2000392002331A4612F8010B6C2800F0CF80AA
:104F30007DD8682800F084806A2800F0D2804C2850
:104F400000F0D6809DF839206FF3C6028DF8392025
:104F50001A4680E0AA1C02928DF83B309DF8393049
:104F6000DF0740F1708154F804BBBBF1000F07DA92
:104F70009DF8382042F004028DF83820CBF1000B68
:104F8000580740F1698154F8048BB8F1000F80F2A2
:104F900068819DF839306FF341038DF839304FF057
:104FA000FF385EE12D2B06D0302B87D19DF83830AD
:104FB00043F0400303E09DF8383043F004038DF8DC
:104FC00038306EE79DF8383043F00803F7E79DF876
:104FD000383043F01003F2E79DF8383043F02003F7
:104FE000EDE70AA8FFF7DCFE0A9BBB4281D09DF8E3
:104FF00038100F90C1F3400242EAD072520062F0C2
:105000007F0201F07D010A438DF8382071E70AA87C
:10501000FFF7C6FE9DF838301090C3F3400242EA15
:10502000D07060F341038DF838300A9B7AE774281A
:105030009DF8391059D07A2884D10B46062141E0D9
:10504000597868299DF839103AD1012262F3C601D6
:105050008DF839109A1C134613F8012B0293782A05
:105060008DF83B2000F2C580572A4ED8412A04D043
:10507000A2F14503022B00F2BC809DF83A3002F009
:10508000DF020421A2F1410861F30203D8F100021A
:105090009DF839108DF83A3042EB080262F3C711DF
:1050A0000A068DF83910CBB200F1CB8003F07802FC
:1050B000182A40F09B806FF3C6038DF8393082E0E8
:1050C0000B46022161F3C6038DF83930C3E75978E6
:1050D0006C299DF8391001D10422B7E70B46032152
:1050E000F0E79DF839300521ECE70B460721E9E7A9
:1050F000BDF8383023F4F04323F0020343F4804337
:1051000043F00203ADF83830A5E7A2F15803202B95
:105110006FD801A151F823F0CB510000F3510000EA
:10512000F3510000F3510000F3510000F35100006F
:10513000F3510000F3510000F35100007B500000D8
:10514000F3510000CB5100009D5100007B50000046
:105150007B5000007B500000F35100009D51000087
:10516000F3510000F3510000F3510000F35100002F
:1051700001520000CB51000025520000F351000005
:10518000F351000025520000F3510000CB51000004
:10519000F3510000F3510000CB5100009DF83A306C
:1051A000012161F302038DF83A309DF8393003F0A4
:1051B0007803402B02BF9DF8381041F001018DF8B3
:1051C0003810632A05D0002306E09DF83A3002210A
:1051D000E7E7003B18BF01239DF83820C2F34001E8
:1051E0000B4363F341028DF83820B7E613F0380F14
:1051F000E9D09DF8383043F001038DF83830E2E70C
:105200009DF83A30032262F302038DF83A309DF89C
:10521000393003F07803A3F1400CDCF1000343EBD9
:105220000C03D9E79DF83A30032262F302038DF8AC
:105230003A309DF8393013F0780F14BF0123002362
:10524000CAE70123C8E79DF93820002AB4BFDDF87A
:105250003CB04FF0FF3B93E699077FF5A0AEDDF839
:1052600040809DF839100023CDE90F339DF83A3086
:1052700003F00702042A09D18A0707D49DF93920CF
:10528000002AB4BF4FF00D084FF0060803F00703E3
:10529000012BC1F3C30137D1CB1E042B21D8DFE88A
:1052A00003F003090920200054F8043BDA17CDE984
:1052B0000C3206E0073424F00704F4E80223CDE9B9
:1052C0000C239DF83870BB0756D0029B2A465146E6
:1052D000484620F001F90028C0F294830644029D5C
:1052E000C6E554F8043B01294FEAE372CDE90C32DC
:1052F00005D19DF830300C9300230D93E1E702298E
:10530000DFD1BDF93030D1E7022B23D1CB1E042BE6
:1053100013D8DFE803F0030A0A12120022680C9285
:105320000023201D0D930446CBE7E01D20F007006D
:10533000F0E80223CDE90C23F5E754F8043B0C9385
:1053400001294FF000030D93D3D00229B9D1BDF844
:105350003030D0E7042B09D1E31D23F0070303F11C
:105360000804D3E90023CDE90C23AAE7032B04BFEB
:1053700054F8043B0C93A4E79DF83B20782AAED860
:10538000572A00F28C80252A00F0D480242AA6D93E
:10539000412A03D0A2F14503022BA0D8DDE90C136A
:1053A000002BC0F2B781380700F1B68117F0100763
:1053B00018BF2027C3F30A55C3F31303CDE908131D
:1053C000002D40F0AB8151EA030014BF0120002002
:1053D000DB0243EA5153C902462A45EA010E43EA79
:1053E000E57C08BF66225EEA0C0CCDE9081300F0EC
:1053F0000382002840F0CB81DDE908014FF0000C6A
:1054000041F00041A5F2FE35099163464FF0050ECB
:1054100015F1020FC0F2C281BCF1000F01D0CDE93D
:105420000801002DDDE9081000F3CD8109980899E5
:10543000C5F1040C1C3500FA05F5ACF1200E21FA7B
:105440000CF120FA0EFE294341EA0E0120FA0CF07D
:10545000CDE9081002F0DF01472940F0D481DD1CBE
:1054600002DB984580F2CB81023AB8F1000FD2B24C
:1054700001DD08F1FF389DF83810880600F1C3817E
:10548000B8F1000FD4BF00210121662A039140F03A
:10549000BC8113EB080540F1BA810025BAE1A2F105
:1054A0005803202B3FF61BAF01A050F823F000BF9C
:1054B000B7560000DF520000DF520000DF5200004C
:1054C000DF520000DF520000DF520000DF52000018
:1054D000DF5200009D530000DF52000061550000C4
:1054E000575600009D5300009D5300009D5300003F
:1054F000DF52000057560000DF520000DF5200006C
:10550000DF520000DF520000ED560000B7560000E9
:10551000BB560000DF520000DF5200003B55000088
:10552000DF520000B7560000DF520000DF520000DB
:10553000B756000051461046A4E4B8F1000F0C9A8B
:1055400009DB41461046039225F0DDFB039A002754
:10555000151862B9C3E610460392FBF74CFCF5E759
:105560000C9B8DF84C3000270DF14D0513AAAB1A9A
:1055700007B101339DF83A00C10640F1378202338A
:105580000F9940060B4444BF10995B18BBF1000F04
:1055900023DDABEB030B9DF838305907C3F38008CC
:1055A0001BD4580640F13682002F00F03682514657
:1055B00038460392C8470028C0F22482039A47461F
:1055C00001364FF030085E445B46002BA6EB0B0023
:1055D0000BF1FF3B00F30E82064647B151463846B9
:1055E0000392C8470028C0F20D82039A01369DF845
:1055F0003A30590640F165829DF93930002BA6EB0F
:10560000020680F219821746B846F31917F8010B03
:10561000702840F00582109F1E461F44BB1B002BC4
:1056200000F348822B464246514648461FF054FF3D
:105630000028C0F2E781304406468344ABEB060302
:10564000002B7FF74CAE51462020C8470028C0F2FF
:10565000D9810136F2E73D072BD417F0100718BFA8
:105660002027DDE90C23002B05DA524263EB4303CC
:10567000CDE90C232D270DF1650300930EAADDE97A
:105680000C0113ABFFF7A0FB0246B8F1000F0DF1C0
:105690006505FFF65EAF9DF83810AB1A6FF3861103
:1056A00098458DF838107FF654AFA8EB03030F939D
:1056B0004FE72B27D5E70027DDE70C98002800F0FF
:1056C00091810DF1650300930EAA13AB0021FFF742
:1056D0007BFBBDF83A3003F0EF0343F4F04343F0B3
:1056E00010030246ADF83A300027CEE70C9B07299D
:1056F0003FF6F5ADDFE801F00C04060C08080C0CD1
:105700001E70ECE51E80EAE5F217C3E90062E6E5EB
:105710001E60E4E52D274DE62B274BE640F2FF7097
:10572000854231D10132B948D2B20B43125C02F04A
:1057300003021BD1012A11D149238DF84C304E238D
:105740008DF84D3046238DF84E309DF838306FF38C
:1057500086138DF838300DF14F0507E769238DF872
:105760004C306E238DF84D306623ECE7012A07BFDD
:105770004E2341226E2361220CBF8DF84C308DF8F0
:105780004C308DF84D20DEE7002021E6013D491820
:105790005B41002BFADACDE908132DE6400840EA18
:1057A000C1704908B1F1333FAC4605F10105F5D2AE
:1057B0000EFB01F5A0FB0E012944013B0CF1020593
:1057C0004FF0010C24E6023140F10000CDE9081051
:1057D00008A8CDE903231FF050FE049B039ADDE9DE
:1057E0000810013D013349184041002805F1FF35FB
:1057F000F9DACDE9081014E600231D4616E6A8EBF9
:105800000308662237E600213FE608F10105102D66
:10581000A8BF10251021079100204FF00061CDE9AD
:105820000A01DDE90A10A5B9089D4919099D40EB57
:105830000505B5F1805F1BD2CDE90815662A40F059
:105840009980002B23DC30218DF84C100DF14D0593
:105850002FE0490841EAC0714008CDE90A100AA8C2
:10586000CDE90423013D1FF008FEDDE90423D8E75C
:10587000490841EAC57108A86D08CDE90423CDE9BE
:1058800008151FF0FAFD059B049A0133D6E713AD06
:10589000079900290BDD07A908A8CDE904231FF00B
:1058A00004FE059B05F8010B013B049AF0D10F9310
:1058B00000239DF83810890602D4B8F1000F1DDDD1
:1058C0002E2105F8011B9BB1B8F1000F16DD5942DE
:1058D0004145A8BF41469DF83A000F910029A8EB29
:1058E0000108D4BF0021012161F345108DF83A0071
:1058F000B8F1000F02DD0799002956DC0399002951
:1059000063D1CDF8408002F0DF01452921D1002B81
:105910002946B8BF5B4201F8022BB4BF2D222B22CF
:10592000632B6A7009DD6420B3FBF0F202F1300CE6
:10593000E91C85F802C000FB12330A200D46B3FBB8
:10594000F0F200FB123302F1300C303305F802CBD9
:105950004B700F9B002B43DC109B002BD4BF00230C
:1059600001239DF83A2063F3861200238DF83A2034
:105970002B70FBE507A908A8CDE904231FF095FDCE
:10598000DDE904239DF838108DF84C00302818BF4D
:1059900003F1FF33880602D4B8F1000F12DD2E2187
:1059A0008DF84D100DF14E05A2E707A908A8CDE925
:1059B00004231FF07AFD08F1FF38DDE9042305F820
:1059C000010B95E70DF14D0598E700211091284650
:1059D00015F8011D3029FAD02E2918BF054692E787
:1059E0000123BEE70A4D07466A1FC0E5010748BF0D
:1059F0000133C5E5514640460392C8470028039A43
:105A0000BFF6E2AD1BB0BDE8F08F00BF55F302005A
:105A100010D602004FF02008D5E54FF03008D2E54F
:105A20005146C8470028BFF6EFADEBE75146039259
:105A3000C8470028039AE5DB1078374BC35C5B0747
:105A4000174606EB020802F10102EFD49DF83A3046
:105A50000F9E990607D4B044002EA8EB060206F16B
:105A6000FF360FDC904638782E2808D15146C847BB
:105A70000028C7DB002E08F1010809DC0137A8EB7C
:105A800007060EE051463020C8470028E4DAB9E79F
:105A900051463020C847013EEAE75146C847002832
:105AA000B0DB1D4AB846F31917F8010B125C520718
:105AB000F3D4B0E551463020C8470028A2DB0136B8
:105AC000ACE5D80601D4190707D55146302003921A
:105AD000C847002896DB039A01369DF83A30DB066A
