:1010000060C2002075B2000057D7020049B200004C
:1010100049B2000049B2000049B2000000000000DF
:10102000000000000000000000000000B5AA000061
:1010300049B20000000000005DAA000049B20000B3
:1010400069AB00005904020069AB000069AB000005
:1010500069AB000069AB000069AB000069AB000040
:1010600069AB000069AB000069AB000069AB000030
:1010700069AB000069AB000069AB000069AB000020
:1010800069AB000069AB000069AB000069AB000010
:1010900069AB000069AB000069AB000069AB000000
:1010A00069AB000069AB000069AB000069AB0000F0
:1010B00069AB000069AB000069AB000069AB0000E0
:1010C00069AB000069AB000069AB000069AB0000D0
:1010D00069AB000069AB000069AB000069AB0000C0
:1010E00069AB000069AB000069AB000069AB0000B0
:1010F00069AB000069AB000069AB000069AB0000A0
:101100007BB972B90029BEBF00204FF0004106E054
:1011100008BF00281CBF6FF000414FF0FF3000F007
:1011200057B8ADF1080C6DE904CE002909DB002B9E
:101130001ADB00F04FF8DDF804E0DDE9022304B02B
:101140007047404261EB4101002B1BDB00F042F88D
:10115000DDF804E0DDE9022304B0404261EB410127
:10116000524263EB43037047524263EB430300F088
:1011700031F8DDF804E0DDE9022304B0404261EB20
:1011800041017047524263EB430300F023F8DDF85E
:1011900004E0DDE9022304B0524263EB43037047ED
:1011A00053B94AB9002908BF00281CBF4FF0FF31CE
:1011B0004FF0FF3000F00CB8ADF1080C6DE904CE33
:1011C00000F008F8DDF804E0DDE9022304B0704720
:1011D000704700BF2DE9F04F07468C460846099E30
:1011E00015463C461946002B40F0C6808242B2FAB2
:1011F00082F746D94FB1C7F1200E24FA0EFE00FA4D
:1012000007F3BD404EEA030CBC404FEA15481FFAF5
:1012100085FEBCFBF8F9220C08FB19C309FB0EFA8A
:1012200042EA03439A4528D9EB1809F1FF3004D26A
:101230009A4502D9A9F102002B44A3EB0A03A4B2F8
:10124000B3FBF8F208FB123302FB0EFE44EA034440
:10125000A64514D92C1902F1FF3303D2A64501D9B2
:10126000931E2C44A4EB0E0443EA00401EB1FC4044
:10127000002334607360BDE8F08F4846DDE7134615
:10128000F0E702B9FFDE87BB831A01214FEA154E52
:10129000AAB2B3FBFEFC200C0EFB1C330CFB02F8C5
:1012A00040EA0343984563D9EB180CF1FF3004D2B0
:1012B000984502D9ACF102002B44A3EB0803A4B279
:1012C000B3FBFEFC0EFB1C330CFB02F244EA0344AE
:1012D000A2424FD92C190CF1FF3304D2A24202D9F9
:1012E000ACF102032C44A41ABEE7C7F1200C20FA8B
:1012F0000CF800FA07F324FA0CFCBD404CEA030298
:101300004FEA154EABB2B8FBFEFC110C0EFB1C8075
:101310000CFB03F941EA0040814504FA07F423D9A4
:1013200028180CF1FF3104D2814502D9ACF1020139
:101330002844A0EB090092B2B0FBFEFC0EFB1C009F
:101340000CFB03F842EA004398450FD9EB180CF167
:10135000FF3204D2984502D9ACF102022B44A3EB30
:10136000080342EA014191E76146E2E76246F6E797
:101370006046A2E76346B6E7834205D90EB1C6E9E7
:1013800000700021084676E7B3FA83F181B9834201
:1013900001D3BA420AD8BC1A60EB030301209C4671
:1013A000002E68D0C6E9004C002164E70846F7E744
:1013B000C1F1200C8B4022FA0CF41C4302FA01F517
:1013C00000FA01F327FA0CF220FA0CFB4FEA144959
:1013D0001343BBFBF9F81FFA84FE09FB18BB1A0C78
:1013E00008FB0EFA42EA0B42924507FA01F73ED992
:1013F000A21808F1FF3004D2924502D9A8F10200E8
:101400002244A2EB0A029BB2B2FBF9F809FB1822B4
:1014100008FB0EFE43EA024296452AD9A21808F1BB
:10142000FF3304D2964502D9A8F10203224443EACD
:101430000040A0FB0593A2EB0E029A42CE469846CE
:1014400002D306D14F4504D2B9EB050E63EB040875
:10145000013886B1B7EB0E0362EB080707FA0CFC04
:10146000CB404CEA0303CF40C6E900379CE7404637
:10147000C7E74346DBE73146FDE600000000000019
:1014800070B5484DD5F85431996811F0010188B014
:1014900023D102AA40F603400BF0C4F8044600280A
:1014A00072D1029B9B681B78A3B90CF035FCBFF38B
:1014B0005B8F2B4653F8CC2FBFF35B8F02F00502F6
:1014C000BFF35B8F53E8001F43E800200028F9D1E9
:1014D000BFF35B8F029822F04BFD02AA002141F27C
:1014E00003000BF09FF8044600284DD1029B2E48C4
:1014F0009968082201312CF0E8FA029822F038FDB0
:10150000214602AA41F201000BF08CF804460028A3
:101510003AD1029883685A7885F86820D9789A7801
:1015200042EA0122A5F86A201A7985F86920197A19
:10153000DA7942EA0122A5F86C205A799B7942EACD
:101540000323A5F86E3022F013FD214602AA41F2D2
:1015500002000BF067F80446B0B9029B1348996883
:10156000402201312CF0B1FA10482CF062FB0298B5
:1015700022F0FEFC95F8743059061DD40C4803681F
:101580005A0704D16FF01204204608B070BD094B11
:10159000069305AA02234FF48251019305932CF080
:1015A000FEFBEFE700000020700000207800002024
:1015B000480A0020E76E0300214602AA42F2030017
:1015C0000BF030F804460028DED1029BB848996839
:1015D000082201312CF079FA029822F0C9FC214648
:1015E00002AA42F202000BF01DF804460028CBD1FB
:1015F000029B9B68B3F80120A5F8FC2091B221B1B1
:10160000DA78AC4811462FF065FE029822F0B0FC63
:1016100095F8746016F0200600F0FE8095F894307E
:101620001B0712D502AA002142F21C000AF0FAFFA1
:1016300004460028A8D102988368D3F80120D3F883
:101640000530C5E9362322F093FC95F8D0309E068C
:1016500023D501A968460BF069F80446002893D108
:10166000042142F224000AF06DFE0646002800F034
:10167000DA80042108302EF051FFBDF800300380DD
:10168000BDF8043043802246314642F224000AF07D
:10169000C9FF044600287FF477AF95F8D0305C0688
:1016A00010D502AA002142F22A000AF0BBFF04462C
:1016B00000287FF469AF029883685B7885F8183159
:1016C00022F056FC082142F201000AF03BFE0446DB
:1016D000002800F0A880082108442EF01FFF95F88C
:1016E000D01011F0400F024640F2022308BF03233E
:1016F00088074CBF43F02C0043F00C0095F8D13024
:101700008E0648BF40F0400013F0090F18BF40F4A8
:101710000060CB0795F89A3003F0060348BF40F00D
:101720001000062B08BF40F4C07000212CF048FBCD
:101730002146002242F201000AF074FF044600280C
:101740007FF422AF95F87430B5F8FC109E067FD474
:10175000D9B902AA41F205000AF064FF0446002844
:101760007FF412AFB5F8FC3063B9029B9B685A78DE
:10177000997842EA0122A5F8FC209A884D48114642
:101780002FF0A8FD029822F0F3FB082140F601405B
:101790000AF0D8FD0446002845D0082108442EF060
:1017A000BDFE95F8D030D907024664D53EA1D1E9F7
:1017B00000012CF005FB2146002240F601400AF012
:1017C00031FF044600287FF4DFAE01466A464FF63B
:1017D00001400AF027FF0446002850D0364803682D
:1017E00013F0060F09D0354B069305AA02234FF4D8
:1017F0008451019305932CF0D2FA0CF039F9044688
:1018000000287FF4C1AE0DF075FC044600287FF47B
:10181000BBAE0BF083FCB7E6022140F66D400AF048
:1018200091FD044610B96FF06804ADE6022108305E
:101830002EF074FE0123037046702146324640F6B6
:101840006D400AF0EFFE044600283FF4E7AE9BE649
:1018500000299AD1184803685C0709D0184B0693F1
:1018600005AA02234FF48251019305932CF097FAB5
:101870006FF0040488E613484FF0005199E7009890
:1018800022F076FB21466A464FF602400AF0CAFE75
:101890000446D8B10848036813F0060FADD00A4BD0
:1018A000A2E700BFAFF30080908800020080002014
:1018B000D000002000010020480A00202E6F030005
:1018C0000B6F030010880002526F0300009B134847
:1018D0009968022201312CF0F8F8009822F048FBB8
:1018E00095F8B9305B0788D56A4621464FF6034024
:1018F0000AF098FE38B10A48036813F0060F3FF467
:101900007CAF084B70E7009B07489968012211449F
:101910002CF0DBF8009822F02BFB6EE7B9000020DA
:10192000480A00207B6F0300B80000200000000080
:101930002DE9F041D0E90B35866A5C193034A642B6
:101940008846174618D81C4DA3FB050118A3D3E9F8
:101950000023FFF725FCA41B20F07F40C8F80000FF
:1019600013A3D3E90023A4FB0501FFF719FC20F022
:101970007F403860BDE8F0810F4C0DA3D3E9002310
:10198000A6FB0401FFF70CFC05F1300120F07F40BD
:10199000C8F8000006A3D3E90023A1FB0401FFF768
:1019A000FFFB20F07F403860BDE8F081AFF300809E
:1019B0008D49FD1A0700000000CA9A3B0000000094
:1019C0002DE9F04FAE4C8FB094F86A20002800F05B
:1019D0003C8112F0010740F03A8194F82500FF2382
:1019E00000F0030084F826301EF0D0F894F86A0066
:1019F00041072DD494F8292094F8353004EB820265
:101A000004EB8303D2F82C80D3F83890B8F1000FA0
:101A100011D09B48414617F0D7FC98F800305A0681
:101A200005D5062112F0F6FB002800F0D28194487B
:101A3000494617F0C9FC98F8003013F00E0F40F03B
:101A4000F180236A9BB10C2738460FB0BDE8F08FB8
:101A50003A4604F16B01C0F3C0001EF029FAFF28DA
:101A600084F82600C6D038461EF0D6F8C2E716F035
:101A700067FB8246002800F0B68116F06DFB8346B6
:101A8000002800F0B58118F03FFD0546002800F061
:101A9000AC81406F4FF6FF732B8505F11C030028C6
:101AA00000F09D8105F1680205F164010B9312F0CD
:101AB000BDFBB5F86020734B22F4EF6222F0070201
:101AC00042F4887242F00102A5F8602095F83920AE
:101AD00002F03F0262F07F0285F8392095F87A2003
:101AE00022F0070285F87A2095F83C2022F00702C0
:101AF00085F83C2095F8D82022F0070285F8D820F8
:101B00004FF01B12C5E916237F22002685F8BD2061
:101B10000622A5F8C020C5E912666E67A5F87860B0
:101B2000EE852E6385F83B602E65A5F8C460A5F8A8
:101B3000C860A5F8D060A5F8CC60A5F8E46085F889
:101B4000E660C5F80861A5F80C61A5F8206115F0FC
:101B5000B9FD95F83A21A5F8386122F0030285F81D
:101B60003A2195F87A20A5F8406122F0180285F80C
:101B70007A2095F8662185F8436122F0070285F8FE
:101B8000662195F88621C5F844A166F3451285F8CB
:101B9000862195F8AE21A5F8646166F3C302C5E914
:101BA0004A0100210020C5E94C0185F8AE2185F8E5
:101BB000D960A5F88461C5F8E060A5F8AC61A5F826
:101BC000B86118F0FFFFA5F8D20019F001F8D5F8B8
:101BD000BC112D4AA5F8D4000A40C5F8BC2118F064
:101BE000FDFF95F8C02160F3020285F8C02118F0CE
:101BF000FBFF0B9B236295F8C031C5F8C46160F30D
:101C0000C503C4E918ABC5E97466C5E97266C5E9E0
:101C100005662E70ED6185F8C0311FF07BF9002854
:101C200040F0D98094F824300121C3F342030DF130
:101C300033008DF8333012F079FC38BB236A002B67
:101C40003FF401AF17F08AF8FDE6D50704D400276A
:101C500038460FB0BDE8F08F236A5BB193F82020BF
:101C600042F0020283F82020236A93F82030D8073C
:101C70003FF5E9AE0FB0BDE8F04F17F0B1B800BFC7
:101C8000383A0020480148010000FFF699F8011099
:101C90000246404617F054F95B49B4F86890312386
:101CA0000025A360A0FB010155A3D3E90023C4E9EB
:101CB000055525706560E560FFF772FA206113F045
:101CC0002DFE0646B9F1000F08D198F8005005F036
:101CD0000F05A5F10105B5FA85F56D0994F8240005
:101CE000236965F3000010F0010584F8240031D069
:101CF0000020464ADFF81891049302250DF13408BC
:101D0000019305920321CDE9020006943346009029
:101D1000CDF82080CDF81C902A460D9513F0D4FC08
:101D2000414616F09DFA002888D13A4A05924AF2B7
:101D3000D8320092CDE90300CDE90100CDF81C9026
:101D4000CDF8208006943346012203210D9513F02F
:101D5000BBFC29E0304A3148049303F24713A9FB46
:101D60000001069402951360912303FB0911284B8F
:101D70000793264B05934FF6FF7309924FF0020924
:101D800003930DF134081EA3D3E90023CDF834905A
:101D9000CDF82080FFF704FA3346CDE900504A46DB
:101DA0002846032113F03AFC414616F059FA002860
:101DB0007FF444AF94F86A3043F0010384F86A304A
:101DC00017F0E4FC00287FF442AF01201DF0C0FEB4
:101DD0003AE6122738E616F0C1FF032734E605F18C
:101DE0006C0068675EE607272EE6584616F0BAF9DB
:101DF000504616F0ABF9072726E600BFAFF3008088
:101E00008D49FD1A0700000000CA9A3BB18F0100FE
:101E100091770100ED8A0100AC3A0020002AE784A6
:101E200070B590F824308AB0C3F342030D460446DF
:101E300001210DF1230016468DF8233012F076FBB8
:101E400071780246284617F07BF81D491AA3D3E99A
:101E50000023A0FB0101FFF7A3F92369984205467F
:101E600020D21B1A00220192164A0293164BA21A84
:101E7000A3FB02320221920900230A4409AE099110
:101E800012490591CDE903330321D2B2069600939E
:101E9000184613F08BFC314616F0E2F948B925617B
:101EA0000AB070BD02D9C21A0023DCE700200AB0D4
:101EB00070BD0C200AB070BD8D49FD1A07000000EE
:101EC00000CA9A3B383A002009CB3D8D917701003A
:101ED00038B5194C9DF810E094F844C01CF0010589
:101EE00022D163F3420C400194F83230A1874FEACB
:101EF000CE0E0EF0180E00F0200040EA0E0023F087
:101F0000380303430D4884F83230A2FB00019123CB
:101F100003FB021106A3D3E9002384F844C0FFF7B2
:101F20003FF92064284638BD0C25284638BD00BF3F
:101F30008D49FD1A07000000D03A0020002AE784EE
:101F400010B59DF808C0044649014FEACC0000F0E6
:101F5000180001F0200CA17D22844CEA000C0C48F2
:101F600021F038014CEA010C9122A3FB000102FB95
:101F7000031184F816C004A3D3E90023FFF710F976
:101F8000606210BDAFF300808D49FD1A07000000AC
:101F9000002AE784000000002DE9F047044600F124
:101FA000350190F8440094F83230C0F3400060F3FB
:101FB00086138CB084F8323013F0E8FC94F83220A9
:101FC000A38F4D48E46102F079020025A3FB0001D4
:101FD00084F83220912202FB0311C4E9055544A381
:101FE000D3E900232570FFF7DBF83123C4E901535F
:101FF000236CE5600933A0F13102934232BF2361C3
:1020000022612564064613F089FC236A07460DF118
:102010002C08002B4CD0394D394BCDF8208006943C
:10202000651BA3FB05353448A38F4FF0000AA3FBC3
:1020300000019122CDF80CA002FB03112369049347
:10204000304B0793304B05934FF0020928A3D3E997
:102050000023CDF82C90FFF7A3F8104619464FF453
:102060007A720023FFF79CF82D090435EDB22A4659
:10207000CDE901603B460321CDF800A0504613F0A6
:1020800023FB414616F0ECF8054668B994F8443055
:1020900043F0010384F8443017F06CF90446F8B1BA
:1020A00028460CB0BDE8F0870C200CB0BDE8F087E6
:1020B000CDE90A33216943460AAA032001F098F9C1
:1020C0000B990029A7D0114809A3D3E90023A1FB4C
:1020D0000001FFF765F80A9F20F07F4007449AE768
:1020E00048461DF035FD20460CB0BDE8F08700BF26
:1020F0008D49FD1A07000000002AE784D03A00202D
:10210000398EE338917701008995010000CA9A3B26
:102110002DE9F04FC38D458E1D4490F80E31ADB2C0
:102120002944164613F007028BB0044689B20AD040
:10213000531E042B00F27083DFE813F0C601370250
:10214000A10150013A02B0F8E870C91B1FFA81F8EA
:10215000090400F16E8190F93930002BC0F26A82D7
:1021600094F8E43084F8E53094F8842194F88531CB
:1021700094F80C1184F80D1193420AD094F886312A
:1021800003F00F03062B04D1002384F88521A4F863
:10219000C830BF4BD4F808911A68944204BF00229B
:1021A0001A60B9F1000F00F05A81D9F80000002838
:1021B00000F05581B4F81031B4F82AC04268C4F870
:1021C00008216345B4F81221B4F8141100F03A82E2
:1021D000B4F828C0A9F81E30182389F80430002369
:1021E000A9F806C0A9F82020A9F8221089F81C3007
:1021F000494615F0BDFF15F0C5FFA368002B09DAAD
:10220000E168626823F0004391422CBF7618B6184B
:10221000A360F61A608DB4F8109110FB08F080B23C
:10222000B0FBF9F119FB01F39BB298421FFA81FA56
:1022300080F004811B1A40F2E241964803FB01F151
:10224000A1FB000190A3D3E90023FEF7A9FF20F032
:102250007F400644E38D1F4494F939307D1B55447B
:1022600040F2E24B002BE5850BFB09F7C0F20C8234
:10227000D4F81811874884A3D3E90023A1FB0001F7
:10228000FEF78EFF20F07F483D4608F10108824AA4
:10229000B4F81431B4F812018049A4F82A903A44F1
:1022A000B2FBF7F2A4F8C62042F2107202FB0373ED
:1022B0003944013BB1FBF7F1B3FBF7F78AB2831D59
:1022C0009A42A085A4F8C270A4F8CE2004DDC0F51F
:1022D0007F43FA331A4492B294F80E31A4F8CA201C
:1022E0001B0744BF0023A4F8C4300221012021F0C1
:1022F00083FB002202218146012011F0E7FF68499B
:102300004FF4F072204611F071FF00F1050A5FFAF8
:102310008AFA644B009452460121002013F05EFAC1
:1023200030F002030CD0604A6049614840F6CB436C
:1023300027F014FF404080F311884FF0030002DFC4
:10234000544FA5FB077B50A3D3E9002338465946D9
:10235000FEF726FF20F07F4556480723A5FB000126
:10236000381A03FB05116BEB01014FF47A7200235D
:10237000FEF716FFCDE9015008940694CDF80080D1
:10238000216994F939504C4804914C494C4C0794BC
:1023900011EA250138BF014605914FF6FE7133461B
:1023A000039152460121002013F08EF930F0020310
:1023B0000CD03D4A3D493E4840F6E54327F0CEFE6D
:1023C000404080F311884FF0030002DFB9F1000FA5
:1023D00040F0548100200BB0BDE8F08F828D90F862
:1023E0000E51D0F8EC3006321144D0F8C42189B235
:1023F0006FF30205A0F8E8101981A3F10900D4F8E1
:10240000C81184F80E5122B194F86651AE0740F11C
:102410008981002900F09D81D4F8CC21116843F80E
:10242000091C106053F8092CC4F8CC01002A00F0F4
:102430008D816FF076000BB0BDE8F08F09FB1101C4
:1024400040F2E243134889B203FB01F1A1FB000112
:102450000DA3D3E90023FEF7A3FE361AFAE6124ACB
:10246000184913484FF4426327F078FE404080F348
:1024700011884FF0030002DFD9F800009AE66FF0F0
:102480000F000BB0BDE8F08F8D49FD1A070000006A
:102490002C3B002000CA9A3BFF5962027FC3C9014E
:1024A000C8230020759C0100B43803009439030050
:1024B000C43103008D49FD1AD5E90100E5E70100AB
:1024C0001D9C010080390300DFF81483012015F002
:1024D0005FFE0746002800F04D81C24811F050FE13
:1024E0000546002800F04681BF4B1A68002A00F01C
:1024F000178115F06BFE3B68D4F808215A602B79E0
:10250000C4F8087143F003032B710C236B71002393
:10251000EB7194F81C312B72B44AD4F81831A2FB39
:1025200003239B0AA5F80930B4F81031A5F80B3045
:10253000B4F81231A5F80D30B4F81431A5F80F3005
:1025400094F80E31C4F8F060032262F3020384F8B9
:102550000E31A368002B0ADAE168626823F00043B9
:1025600091422CBF7618B618F31AC4F8F030A04B7D
:1025700001220935C4F8EC5002211046C3E9024893
:1025800011F0D6FE00283FF454AF9A4A9A499B486E
:1025900040F6733327F0E2FD404080F311884FF09E
:1025A000030002DF6FF0760015E7DFF854828DE755
:1025B000D0F8EC20D0F8C43190F8E40084F8E500BD
:1025C00094F80C01884984F80D0194F8840184F88A
:1025D000850100200860D4F8C801A2F10901B3B157
:1025E00094F86651AD0712D494F8BF51EF070ED49A
:1025F000D4F8D051AB4200F0D78058B9187900F028
:102600000300032800F0DF80C4F8C83104E000288C
:1026100000F0A980D4F8CC31186842F8090C196090
:1026200052F8093CC4F8CC11002B00F0A6806FF0E2
:102630008B00D0E690F8D930002B3FF491AD80F8B4
:10264000D92091E5B4F82CC094457FF4C1AD40F297
:10265000E24C0CFB03FE42F2107C0CFB01EC0CF193
:10266000FF3CBCFBFEFCB4F8C2E01FFA8CFCE64564
:102670007FF4AEAD012389F80430B9E501220221CF
:10268000104611F023FEA5E6226CA36C02FB183362
:10269000A3641EF093FC054694F8D800DFF864812B
:1026A000C0F3C2001EF08CFC054407FB05F5564B39
:1026B00094F81C2105F5742505F23F25A3FB05358B
:1026C000AD0CA36C25640BFB02F205FB0AF022653E
:1026D0007A080344963A934228BF1346C4E911236B
:1026E0000023A0FB0801C4F8E0303BA3D3E900239A
:1026F000FEF756FD3D4B361AD4F81801A3FB003007
:10270000800A0BFB00F0A0FB080133A3D3E90023F0
:10271000FEF746FD7D1BB4F8109120F07F48B6E52A
:102720001C60E6E694F8BF51ED073FF572AED4F8B1
:10273000D051AA4226D000297FF46EAE117901F063
:102740000301032962D0C4F8C82167E6C4F8D401A4
:102750006FE643F8092CC4E97100C4F8CC01002AE3
:102760007FF467AEF2E742F8093CC4E97111C4F89E
:10277000CC1159E76FF068002DE6C4F8D4116FF062
:102780008B0028E61568C4F8D05100297FF444AEC8
:10279000116843F8091C106053F8092CC4E9720051
:1027A000002A7FF446AED1E71D68C4F8D051002856
:1027B0007FF430AF186842F8090C196052F8093CF0
:1027C000C4E9721130E7D8790328F3D00A287FF4DE
:1027D0001BAFEFE7AFF300808D49FD1A0700000043
:1027E00029F00100C03B00202C3B00205917B7D135
:1027F00024070020B438030064360300C43103000A
:10280000B935000000CA9A3B83DE1B43D179032906
:10281000BED00A2997D1BBE7074A0849084840F6C5
:10282000C73327F09BFC404080F311884FF0030032
:1028300002DF4FF0000849E6B43803005C320300C1
:10284000C4310300000000002DE9F04F0B68D2F8FE
:1028500000801B6897B00C460A93037F00F11E01AD
:10286000C3F380130546174614A806228DF8473097
:102870002BF02BF994F81190B9F1FF0F0DF1480BE3
:102880005BD05A460DF1470148461CF07DFE9DF88D
:10289000473002338DF847302946032251F82E6B1A
:1028A00007F1080007F1040A2BF00FF907F11803EC
:1028B000042205F12A0150460B932BF006F90B9BDD
:1028C000052205F13A0118462BF0FFF80B9B052174
:1028D000184611F02BFE7B7F95F83F2000F03F005B
:1028E00060F305037B77C2F30403BB77AB8EFB81F8
:1028F000012899B202F01F0305D91B3303F01F030F
:102900000B2B00D8F9B90A9BEC6800225A6197F8A2
:102910002030304662F30003012687F82030294634
:102920002E7115F025FC20682671214615F020FC3B
:1029300015F028FC17B0BDE8F08F062214A9584600
:102940002BF0C3F8A8E723680020586095F83700FB
:1029500095F8363043EA00233B8298F8D830520984
:1029600062F3C5036A8E0D9240F2E24202FB01F06F
:1029700088F8D8300B901EF021FB0C9098F8D80006
:10298000C0F3C2001EF01CFB0C9BC54903440B980E
:1029900000FB03F303F5742303F23F23A1FB03239E
:1029A0009B0C7B6295F83130398A40F2E24203FB9E
:1029B00002F24308963BBA63BB622B8FB94AADF86B
:1029C0003A309E46B84B844603440244B3FBF0F3CE
:1029D000B2FBF0F242F21070A8F8C6201FFA8EF295
:1029E00000FB02C2013A881DB2FBFCF2A8F8C2202B
:1029F0009AB28242A8F8CE2004DDC1F57F41FA31B7
:102A00000A4492B2A8F8CA205146042208F1DC0018
:102A10002BF05BF82B4613F81C2FC2F34011DA079A
:102A20000F910C9100F115814FF48073AB830A9BD9
:102A300093F826001DF05AFB0146062205F12B00F3
:102A4000002900F0EB8005F124012BF03EF8B9F1EC
:102A5000FF0F05F1250000F0E48014A906222BF0F9
:102A600034F89DF84730AB775946062205F11F0030
:102A70002BF02BF898F8D830FA896A863A8AAA8619
:102A8000C3F3C203BDF83A2085F83830EA864046E1
:102A900017F046FD2946B881E8806568304615F094
:102AA00067FBBB89EB801B232B710C9B2E68002BD3
:102AB00040F0BC809DF83C302B772946304615F01D
:102AC00057FB15F05FFB97F84500B7F84050B7F893
:102AD0004260012100F007001EF07EF82E4406F54A
:102AE000E1763118824671484FF000093123C8F869
:102AF0000830A1FB000168A3D3E90023C8F80490C3
:102B0000C8F80C90FEF74CFB0B9B7E6A0D9AE568AB
:102B10009E1B40F2E24303FB025520F07F4005F28A
:102B2000B245A5EB0A034A460221C8F8100001206D
:102B30000B9311F0CBFB0A9D284616F001FC821C7A
:102B40005B4B0095D2B24846012112F047FE0128A6
:102B500000F08C800A9B93F82430DB0771D4404648
:102B600017F0DEFCDFF84491A6FB09564AA3D3E92F
:102B70000023834631462846FEF712FBA368CDF8B2
:102B800018800BF10504A3F13A0B4A4B07934A4B0B
:102B900005934FF4E4730893D8F8103020F07F4782
:102BA00046484FF0000ACDE903A3A7FB0001072325
:102BB000281A03FB071166EB01014FF47A72002318
:102BC000FEF7EEFA0B9BCDE90170A3FB090132A3DE
:102BD000D3E90023FEF7E4FAE4B220F07F4000904E
:102BE0005B4622460121504612F06EFD30F0020392
:102BF0000CD0334A3349344840F2C91327F0AEFAB7
:102C0000404080F311884FF0030002DF01220221CF
:102C1000104611F05BFB17B0BDE8F08F2AF060FFA3
:102C200015E7062200212AF05BFF1AE77B7F43F0BD
:102C300040037B7750461CF0A5FA0123F8832B77DD
:102C40003BE70023012200931846114612F0C6FD0F
:102C500085E71B4A1D491C48F12327F07FFA4040B5
:102C600080F311884FF0030002DFDDE615F036FB3C
:102C70000A9B83423FF46EAF114A1549124840F255
:102C80009F2327F06BFA404080F311884FF0030038
:102C900002DF5FE7AFF300808D49FD1A07000000F7
:102CA00083DE1B43FF5962027FC3C90100CA9A3BFE
:102CB000A9E7010079E70100E5E701008D49FD1A68
:102CC000B03A030094390300C4310300F033030029
:102CD0000C3B0300000000002DE9F04F8BB00F46C5
:102CE0000493BDF85830059006930020BDF860307D
:102CF0009DF85490BDF85CB00393164616F054FD51
:102D0000002800F0A08109F0010A0546504612F0A3
:102D10002DFEBAF1000F6AD12B6A05F11C02079251
:102D2000002B6BD0D5F82080D8F8004098F84400EC
:102D3000C0F3C00100F007001DF04CFFB8F84010D0
:102D400000F5E1700144B8F842000144C848C6A348
:102D5000D3E90023A1FB0001FEF722FA20F07F4017
:102D6000206130461CF034FF95F833306FF3410397
:102D700085F83330FF2385F8343066B3A9F10203B8
:102D8000012B40F2648195F84430049A69F34203C0
:102D900085F8443095F8333062F3000385F833301A
:102DA0001499062205F124002AF08FFE039B2B863E
:102DB000059A00963B4605F11C000021FFF7C0F87C
:102DC0001EF0A8F8002840F05F812846FFF7E4F8DD
:102DD0000BB0BDE8F08F1DF037FB0028CED0149962
:102DE000049832461DF064F885F83400C6E70621E1
:102DF00011F010FA00288FD11220E9E715F0A0F9A0
:102E00000790002800F0778117F07EFB0446002829
:102E100000F09381203011F09DFB04F11C08002884
:102E200040F05C81032104F124001DF081FD069B2C
:102E3000606F63854FF6FF73A4F82CB023850028DC
:102E400000F05B8104F1640104F1680211F0EEF915
:102E5000B4F86030874A23F4EF6323F0070343F4A8
:102E6000887343F00103A4F8603094F87A3023F0BB
:102E7000070384F87A304FF01B134FF0000BC4E9BE
:102E800016327F2384F8BD30C4F874B0A4F878B04B
:102E9000A4F82EB0C4F830B004F134001CF026F9C8
:102EA00094F8393060F30503012184F839300DF1CD
:102EB00027001DF03DFD9DF827206F4BDDF80CC06D
:102EC000A08D84F83BB0A3FB0213DB0803EB4303A4
:102ED000A2EB8303053384F83A3094F8393006992D
:102EE000A4F8C4B003F03F0384F8393094F83C30C0
:102EF000A4F8C8B023F0030340F2E24284F83C3067
:102F00005E4BA4F8D0B002FB01F10A460B44B3FBC0
:102F1000F1F35B49A4F8CCB01144B1FBF2F1A4F891
:102F2000C61042F2107101FB0C210139B1FBF2F223
:102F3000A4F8C2200622A4F8C020811D9AB28A42B9
:102F4000A4F8CE2002DD063A121A92B294F8D830D4
:102F5000A4F8CA204FF0000B23F0070384F8D83000
:102F6000A4F8E4B084F8E6B0C4F808B1A4F80CB151
:102F7000A4F820B114F0A6FB079BC4F8443194F8E0
:102F80003A31A4F838B123F0030384F83A3194F8C5
:102F90007A30A4F840B123F0180384F87A3094F81A
:102FA000663184F843B123F0070384F8663194F85E
:102FB0008631A4F864B16BF3451384F8863194F834
:102FC000AE31A4F884B16BF3C303002284F8AE31B0
:102FD0000023C4E94A01C4E94C23A4F8ACB1A4F825
:102FE000B8B117F0EFFDA4F8D20017F0F1FDD4F856
:102FF000BC21244BA4F8D4001340C4F8BC3117F012
:10300000EDFD94F8C03160F3020384F8C03117F08D
:10301000EBFD94F8C031C4F8C4B160F3C50384F883
:10302000C0313123C4E974BBC4E972BBC4F804B035
:10303000C4F80CB0A360C5F82080C4E905BB84F8CF
:1030400000B0E46172E60C200BB0BDE8F08F002008
:103050001CF0E2FD95F8333043F00203D14685F8C9
:10306000333090E6AFF300808D49FD1A0700000071
:1030700000CA9A3B48014801ABAAAAAA7FC3C9016A
:10308000FF5962020000FFF62C6AA36D63B12D4A5E
:103090002D492E484FF4976327F060F8404080F3A5
:1030A00011884FF0030002DF04F14C0104F14800E5
:1030B00011F0C0F80646002831D02768A665D7F879
:1030C0004441F4B1204615F041F8384617F022FA91
:1030D000002303202B620BB0BDE8F08F194A1C4976
:1030E0001A48BF2327F03AF8404080F311884FF088
:1030F000030002DF96E607206AE604F16C006067D1
:10310000A0E6104A1349114840F2C14327F026F8BF
:10311000404080F311884FF0030002DFD2E7094AF4
:103120000C490A4840F2BA4327F018F8404080F3AF
:1031300011884FF0030002DFBFE7079815F006F88B
:10314000072045E6503B0300BC370300C4310300B1
:103150003C3503000C3903002DE9F04F80468FB059
:1031600004460F46154600F1240106220CA818F863
:103170001C6F2AF0AAFC94F81C9018F0010FC9F3F8
:10318000401BC6F3C016D94640F004810023A38338
:10319000B97C97F8118011F0010104F12B004FF078
:1031A000060200F0E18004F11E012AF08EFCB8F165
:1031B000FF0F04F1250304F11F0A00F0DF805246DF
:1031C000404604F11E010B931CF0DEF90B9B1846E0
:1031D000A37F02330CA9A37706222AF076FC3B6872
:1031E000D3F800A0EB8963862B8AA386BAF8303027
:1031F000E3861DF0E1FE84F83800D5F800804046F3
:1032000017F08EF97E68A8812146E080206814F0CE
:10321000AFFFAB89F3801B2334683371B9F1000F22
:1032200040F0C68086F81CB03146204614F0A0FF5E
:1032300014F0A8FFD8F80430D8F8086095F84400D6
:10324000B5F80E90FC689E4238BF1E46C0F3C00120
:1032500040F2E24300F0070003FB09F91DF0BAFC5D
:10326000203400220221241A012011F02FF85046A8
:1032700016F072FA021D564BCDF800A0D2B2012111
:10328000002012F0ABFA30F002030CD0514A524940
:10329000524840F2C93326F061FF404080F3118864
:1032A0004FF0030002DF4FF0000A534603220121D2
:1032B000CDF800A0504612F091FA404617F030F9D0
:1032C000BB68CDF81880093B9E1B454B0793454BC7
:1032D000059340F2F933444F0893D8F81030A9FB16
:1032E0000798CDE903A3451D37A3D3E9002348463A
:1032F0004146FDF755FF104619464FF47A720023F8
:10330000FDF74EFF30A3D3E9002302904146484623
:10331000FDF746FF2CA3D3E900230190A4FB07018E
:10332000FDF73EFFEDB220F07F40009033462A4685
:103330000121504612F0C8F930F002030CD0254AA2
:103340002549264840F2FA3326F008FF404080F332
:1033500011884FF0030002DF01220221104610F015
:10336000B5FF0FB0BDE8F08F2AF0BAFBB8F1FF0F40
:1033700004F1250304F11F0A7FF421AF1846062249
:1033800000212AF0ADFBA6770CA9504606222AF0B0
:103390009CFB24E70F4A154910484FF4527326F05E
:1033A000DDFE404080F311884FF0030002DFEDE6C0
:1033B0006B7F43F040036B77281D1BF0E3FE012376
:1033C000E883337730E700BF8D49FD1A070000001E
:1033D000A1E90100503B030094390300C43103000C
:1033E000A5E90100D5E9010000CA9A3BF0330300CA
:1033F0002DE9F04F8FB01E4609931546FF230A1D95
:10340000DFF80481DFF804B1DFF804A1DFF80491EC
:1034100008920021316004468DF82F3004930C91FE
:10342000059106910DAF0CAE02230D93CDE90187F6
:1034300000962B460DF12F022146002012F010FAC3
:1034400002282DD00D9B002B30D19DF82F30FF2B63
:103450003CD0052BE8D1002017F06AF80028E3D013
:1034600090F93930002BDFDB049902690C9BFF29AE
:103470000CD0069907921846049312F051FA059B56
:10348000089A99188842049B079A22D8CDE9052307
:103490009DF82F300493C7E72146002012F026FA4A
:1034A0000D9B022BF8D00D9B002BCED073235A46D8
:1034B0005146484626F052FE404080F311884FF0B6
:1034C000030002DF9DF82F30FF2BC2D1049BFF2B9E
:1034D00010D0DDE9053210481344A3FB0001072298
:1034E00002FB031106A3D3E90023FDF759FE099B54
:1034F000803018600FB0BDE8F08F00BFAFF30080E0
:1035000000CA9A3B0000000071ED0100A83B0300D7
:10351000EC3B0300C43103008D49FD1A000000009C
:1035200070B582B01C4601921546064601AA0220DB
:10353000FFF75EFF23680BB30198431B1B021FD4E8
:10354000294612F0EDF91A4A03460721A0FB0202B0
:1035500001FB032114A3D3E90023FDF721FE226818
:1035600002442260002A09DB40F2E24006FB00F040
:10357000904203D2121A8242FCD8226002B070BD7F
:103580000146284612F0CCF9094A03460721A0FB60
:10359000020201FB032104A3D3E90023FDF700FE8F
:1035A0002268121A2260DDE700CA9A3B0000000080
:1035B0008D49FD1A000000002DE9F041B0F894118A
:1035C00088B0044640F2E2434748002603FB01F17D
:1035D00005AD0623C5E901668DF80F30A1FB00019A
:1035E0003FA3D3E900230596FDF7DAFD0DF10F03A4
:1035F00001950093B4F88A31049004AA2046012171
:103600001BF0B8FB9DF80F8008F1FF3C5FFA8CFCC3
:103610000DF11603304604F5CA7703EB4C0C04F5A4
:10362000D0764FF6FF7E3A88B8F1000F0AD02B46CD
:10363000724504D0198891424FF001001DD0023329
:103640009C45F5D10237BE42EDD1D4F8EC3048BBF1
:10365000BDF8142040F2E24102FB01F1100AC4F867
:1036600018111A70587094F80E31042262F3020394
:1036700084F80E3108B0BDE8F081D4F8EC1040F2C7
:10368000E24302FB03F3100AC4F818310A704870D1
:1036900094F80E31042262F3020384F80E3108B06C
:1036A000BDE8F081032203F8042C13F8052C94F8EC
:1036B0000E11052542F00302112003F8020C03F855
:1036C000052C65F302010F20202203F8010C1A706B
:1036D00084F80E1108B0BDE8F08100BFAFF30080A0
:1036E0008D49FD1A0700000000CA9A3B0000000047
:1036F00038B504461EF0FCFAA27DC2F34103013343
:1037000003F00303032B34D063F34202A27503F1E9
:1037100025001DF01DFA63680BB32369FBB11FF090
:10372000F5FF054612F0FAF8C11C00201FF0BCFF9F
:1037300020F038F81FF0EAFF294612F0F1F812499C
:1037400003460722A0FB010102FB03110CA3D3E9EE
:103750000023FDF725FD23691B1A236138BD12F0F4
:10376000DDF8C11C00201FF09FFFBDE8384020F0AD
:1037700019B86FF34202A2752520CAE7AFF30080A3
:1037800000CA9A3B000000008D49FD1A00000000AD
:103790002DE9F04F89B004461FF09AFDC0B250B930
:1037A0001DF02EFAB84821461FF06CFC09B0BDE8A8
:1037B000F04F1FF063BD1FF0ABFD05461FF0C6FEC6
:1037C00083461FF0CDFE814620F0E2F8064620F049
:1037D000C3F882461FF07EFEEDB280461FF060FE09
:1037E0001DF00EFA002DDDD0012014F01DFE05465F
:1037F000002800F085811BF0FF0BF6B240F07781C6
:10380000002E40F0D380FF275A463B4631462046E3
:103810001EF09CFC0028C5D02B7F626800218DF82B
:103820001B105FFA88F803F00F01002A00F0DA801D
:10383000626892F82020900700F1D4800729B1D067
:10384000A27D120740F16A81002940F0B5806B7FAC
:10385000252B00F22A81042014F0E6FD0028A1D0D7
:103860001FF0A8FF636A814643B9238C40F271229E
:1038700002FB03F3B0FBF3F203FB120923681A699E
:10388000824B0721A2FB030301FB02317CA3D3E996
:103890000023FDF785FCA0F242334B4582D31FF095
:1038A000F1FD6368059338461CF02EFCE37D9B0711
:1038B000814640F1D681002800F0D38101464FF0C7
:1038C000010B04911FF032FD2B7F049907AA03928C
:1038D00005F11E02CDE901B182460146C3F3801312
:1038E0000092204600221EF04BFC50461FF0A4FC24
:1038F0001FF0E4FC002840F0C981654821461FF014
:10390000C1FBB8F1000F40F0CF816168A37D91F851
:10391000202043F0800342F0010281F82020A375AB
:1039200014F0A0FD1623804603714FF6FF732D7F20
:10393000C380514624221C302AF0C7F898F81C3066
:10394000C8F80840C5F3401565F3451388F81C30E6
:103950001FF0DCFE0021C8F810000120079D1FF0B9
:103960007BFC002E08BFFF2788F81970E37D2D1A15
:1039700013F00203C8F8145003D0B9F1000318BFC4
:10398000012398F81A2063F3000288F81A2014F033
:1039900069FD03464146D8F80000C8F80C3014F021
:1039A00077FD14F085FD09B0BDE8F08F5FFA8AF06D
:1039B0001CF038FC074627E7012915D16B7F0C2B3B
:1039C0007FF4F0AE2A7F009700230193D20905F11E
:1039D000240320461EF00CFB00287FF43CAF297F17
:1039E00001F00F01002955D0062953D0022900F01B
:1039F000A880012959D16B7F0C2B7FF4D3AE2A7F8D
:103A000000970DF11B030193D20905F12403002156
:103A100020461EF0EDFA002847D06B7F002B3FF4C4
:103A2000C1AE63682BB12B7F03F00F03072B7FF42C
:103A3000B9AE03209DF81B9014F0F6FC0546002853
:103A40003FF4B0AE14F00EFD4FF6FF73EB8005238C
:103A50002B71B8F1000F70D17F20AB7E2876002E3D
:103A600008BFFF2769F341032868AB7629466F76C4
:103A700014F00EFD14F01CFD94E600BFAFF30080BF
:103A800000CA9A3B00000000A91D02008D49FD1AE2
:103A9000A11F02006B7F252B07D8A27D920602D5BD
:103AA0006268002A4FD0252BB8D92B7F03F00F0373
:103AB000042B7FF477AE6B7F252B3FF673AEA37D8F
:103AC000D9077FF56FAE1FF031FC2B7F0278C3F36F
:103AD0008013B3EBD21F7FF465AE0830062205F1E8
:103AE0001E0129F0C9FF00287FF45CAE95E7A07D98
:103AF0005FFA89F1C0F3C0001CF02AFB074683E699
:103B0000734A7449744840F2C32326F027FB4040AF
:103B100080F311884FF0030002DF6CE6FF2F8DF871
:103B20001C70C3F3801978D0237EDB1BB3FA83F3B8
:103B30005B09002B7FF488AE54E71FF0BDFCC0B2D8
:103B40008BE76B7FAFE796201FF020FD00201FF072
:103B5000F1FB032014F068FC814600283FF422AEFC
:103B600014F080FC4FF6FF73A9F80630052389F89E
:103B70000430B8F1000F70D17F23002E89F818307F
:103B800014BF3B46FF2389F8193099F81A30D9F849
:103B900000006FF3410389F81A30494614F078FCAD
:103BA00014F086FC1FF0C2FB2B7F0646C3F3801384
:103BB0003278DB0102F0700243F0030313433370E9
:103BC0000C23384673701CF09FFAE37D9F074ED597
:103BD00000284CD033780146304643F0400300F8CB
:103BE000023B062229F071FF062205F11E0106F1B3
:103BF000080029F06AFF30461FF01EFB1FF05EFB35
:103C0000002857D11FF0CEFDA37D344843F00103B7
:103C1000A37521461FF036FAC5E605F11E0A07AA6C
:103C2000514648461CF0B4FB00283FF4D8AEE37D73
:103C300003F001034B457FF4D2AE5146062204F156
:103C4000080029F019FF297FB0FA80F35B0901F021
:103C50000F01002B7FF4F8ADC4E61FF02DFCC3B2BA
:103C60008BE7A27D04F11901C2F3801B29E6A37D35
:103C70003278C3F38013304663F3861200F8022BC8
:103C800004F11901062229F020FFADE7104A14497A
:103C9000114840F2914326F061FA404080F31188C8
:103CA0004FF0030002DF28E61FF006FC059B83F8B7
:103CB000A1002AE6064A0A49074840F2165326F0B0
:103CC0004DFA404080F311884FF0030002DF99E77E
:103CD000704003001C400300C4310300BD1D0200FE
:103CE00024400300000000002DE9F04F074689B092
:103CF00050688A46144624F045FC054650B93A4AB5
:103D00000121384627F0CEFB6FF01504204609B09C
:103D1000BDE8F08F00221146A06829F0BDFD002209
:103D200011468046E06829F0B7FD00228146114621
:103D3000206929F0B1FDBAF1060F064616D100221E
:103D40006069114629F0A8FDC3B20393AB6806AAC7
:103D50005B6841462846984750B16FF00404234AF7
:103D600023460121384627F09DFBCFE70023ECE7EF
:103D7000DDE90643A9FB04B009FB03090493584697
:103D800017A3D3E900234946FDF70AFA4FF0FF3A9B
:103D9000174B0590DA4573EB090302D26FF08504E7
:103DA000DDE7049BA6FB049406FB034648460CA3F0
:103DB000D3E900233146FDF7F3F90D4ACA45B24174
:103DC0000346EBD3AA68039900911468059A41460B
:103DD0002846A0470446002898D0C0E7AFF30080EB
:103DE00000CA9A3B00000000758203008B8203002A
:103DF000FFC99A3B00B5094803685B0789B009D041
:103E0000074B069305AA02234FF4825101930593B1
:103E100026F0EAF809B05DF804FB00BF700A002044
:103E20003A4703002DE9F04F87B005460291164648
:103E30000393836804AA5B68984780BBDDE9044A62
:103E400044F62063A4FB03B703FB0A77584600231C
:103E5000164A39464FF0FF38FDF7A2F9D845DFF88A
:103E600050B07BEB070381461CD3A6FB047406FB12
:103E70000A460E4A002338463146FDF791F9B84507
:103E80007BEB060203460DD3AA68039900911468E0
:103E900002994A462846A04707B0BDE8F08F6FF068
:103EA0000400F9E76FF08500F6E700BF40420F001D
:103EB0003F420F0070B56729424C88B05BD0722931
:103EC0000BD0622971D1404E3378002B42D0236849
:103ED00013F0060F13D03D4B07E03D4E337883B10E
:103EE000236813F0060F0AD03A4B0693022301937E
:103EF000059305AA4FF48451204626F075F808B0C2
:103F000070BD354842F2107200680821FFF78AFF41
:103F100001233370236803F00703022B05460AD9F7
:103F20002E4B069305AA02234FF486512046019397
:103F3000059326F059F8002DE1D023685B07DED009
:103F4000274B069302231F480193059305AA4FF4BC
:103F50008251D2E7204842F2107280680C21FFF7AC
:103F600061FF01233370236803F00703022B05462A
:103F7000E1D91C4BD5E71C4E33782BB1236813F0E5
:103F8000060FBCD0194BB0E7134842F210724068DC
:103F90002921FFF747FF01233370236803F007034C
:103FA000022B0546C7D9124BBBE723685A07A6D098
:103FB000104B069302230193059305AA4FF48251F7
:103FC0009AE700BF700A0020324F00206F470300BD
:103FD000344F00204E47030038290020614703007A
:103FE000C747030083470300334F00209247030075
:103FF000A7470300B747030030B5444C672923683F
:1040000089B05BD072290AD0622974D1404D2A78D8
:10401000002A3ED113F0060F12D03E4B06E03E4D73
:104020002A787AB913F0060F0AD03C4B0693022384
:104030000193059305AA4FF48451204625F0D4FF3F
:1040400009B030BD03F00703022B0AD9344B0693A5
:1040500005AA02234FF4865120460193059325F0CB
:10406000C3FF3048002300681A460821FFF7DAFE34
:1040700000232B700028E3D023685B07E0D02A4B95
:104080000693022321480193059305AA4FF4825118
:10409000D4E703F00703022B0AD9244B069305AAA1
:1040A00002234FF4865120460193059325F09CFF8F
:1040B0001C48002380681A460C21D7E71C4D2A783B
:1040C00022B913F0060FBBD01A4BAFE703F007037A
:1040D000022B0AD9184B069305AA02234FF48651E6
:1040E00020460193059325F07FFF0E48002340688A
:1040F0001A462921BAE75A07A2D0104B0693022389
:104100000193059305AA4FF4825196E7700A0020A7
:10411000324F0020FB470300344F0020D8470300F4
:10412000EC47030038290020C7470300104803006C
:10413000334F00202048030036480300B7470300F0
:1041400010B5672988B012D0722903D0622910D126
:104150000F4C00E00F4C23781BB1FFF74DFF0023FD
:1041600002E0FFF7A7FE0123237008B010BD0A4C40
:10417000F1E70A4803685B07F7D0094B069305AAE5
:1041800002234FF482510193059325F02DFFECE7B4
:10419000324F0020344F0020334F0020700A00209F
:1041A000B747030030B51C481C4D89B0C5E9000075
:1041B000A8602CF0A5FE1A4C78B923685A070AD0DB
:1041C000184B069302230193059305AA4FF48251DD
:1041D000204625F009FF09B030BD68682CF090FE3C
:1041E0000028EAD0A8682CF08BFE0028E5D00E4A03
:1041F000002313700D4A13700D4A137023685B0778
:10420000E9D50C4B06930C4B0793032301930593BD
:1042100005AA4FF4C851DBE7101C03003829002021
:10422000700A002047480300344F0020334F00201D
:10423000324F002057480300B048030010B4044632
:104240001846074B1970074B1B6833B9012A04D86D
:104250002246054910BC08F0EFBF10BC704700BFF4
:10426000454F0020442900207947000030B5164D05
:104270000FCD8DB001AC0FC42B681449236001A889
:1042800009F08CFE034612487BB1026852070AD03F
:10429000104ACDE90A2303230093099309AA4FF496
:1042A000C25125F0C8FE0DB030BD036803F007030E
:1042B000022BF8D9084B0A9302230093099309AA09
:1042C0004FF48651EDE700BF002103003D4200009E
:1042D000C4090020BD480300DF4803001049114B0A
:1042E00000B58B600E238B810F4B0B600F4B8880CA
:1042F00089B018680DF0C4FB034670B10C48026821
:1043000052070AD00B4A4FF4C251CDE906230323CA
:1043100005AA0193059325F08EFE09B05DF804FB14
:104320006829002094090020394300004429002016
:10433000C4090020FD48030000B589B071B10948E7
:1043400003685B070AD0084B05AACDE906310323B1
:104350004FF4C2510193059325F06DFE09B05DF84D
:1043600004FB00BFC40900201649030030B51C46F9
:1043700089B00E2CBDF830009DF83430114610D9AC
:104380002F4803685C0709D02E4B069305AA022329
:104390004FF482510193059325F04DFE6FF00C040C
:1043A0003EE002190E2A10DD25480368590709D09E
:1043B000254B069305AA02234FF4825101930593DE
:1043C00025F039FE6FF006042AE08BB11C48026824
:1043D00052070AD01D4A4FF4C251CDE906230323E8
:1043E00005AA0193059325F026FE6FF00D0417E052
:1043F000174D2246284429F068FBAB780B2B12D1CD
:104400000F48036803F00703022B09D9114B0693E9
:1044100005AA02234FF486510193059325F00BFE64
:10442000204609B030BD0C4B5A78012A04D1586897
:10443000294600F0C5FBF3E7284600F083FBEFE7D1
:10444000C40900202E4903004249030061490300CA
:10445000374F002072490300602900202DE9F04306
:1044600080468DB014460D46D9B93D4B1B8873B9B3
:104470003C48026851070AD03B4A4FF4C251CDE98B
:104480000A23032309AA0193099325F0D4FD1422DA
:104490000021204629F024FB002630460DB0BDE85F
:1044A000F083324BBFF35B8F012253E8001F43E8D8
:1044B00000200028F9D1BFF35B8F267C002E31D17C
:1044C0002B4BD4F800C001AA03F1100996461868D6
:1044D0005968174603C708334B453A46F7D11B784E
:1044E0003B707146604629F0B8FBD8B92B8A206032
:1044F0000133032523812574214640460CF0D8FE64
:1045000003460028C9D0174802685207C5D0194A87
:104510000095CDE90A234FF4C25109AA099525F067
:104520008AFDBAE7237C032B18D1ED68124B2E6865
:1045300006AA03F1100C174618685968144603C4FC
:10454000083363452246F7D11B782370394630463D
:1045500029F083FB10B9024BAA881A8001269CE738
:104560000C4F0020C4090020904903005C29002062
:1045700014210300AB4903002521030070B5037823
:104580008AB004460E4607AD032B20D8DFE803F0BF
:1045900002191B1D1149284629F017FA6378049364
:1045A000A3780393E37802932379019363790093CB
:1045B0000B4AA37905951E21304625F0DCFD0AB093
:1045C00070BD0849E7E70849E5E70849E3E7084A15
:1045D0000A21284625F0CFFDE0E700BFC4490300CB
:1045E000E6490300CB490300D2490300DC4903003C
:1045F000E07F030070B5134C236883428CB00D46F6
:104600001ED104AE29F064FF3146FFF7B7FF0E4913
:104610000B6803F00703022B09D90C4B019300230D
:10462000CDE9026500930322184625F007FD2068B6
:1046300029F085FE064A002323601370FFF716FE5B
:104640000CB070BD44290020C4090020094A0300B1
:10465000354F0020F0B58DB004AD0C46064629F06C
:1046600037FF2946FFF78AFF174FB4B117490B6888
:104670005B0709D0164B01930023CDE90254009348
:104680000122184625F0DAFC386829F058FE00238C
:104690003B60FFF7EBFD0DB0F0BD3B689E42FAD1E9
:1046A0000C4B0A4901221A700B6803F00703022B16
:1046B000F1D9094B0295CDE9004303222346204658
:1046C00025F0BCFCE7E700BF44290020C409002016
:1046D0002A4A0300354F0020474A030030B5214DD8
:1046E0002B6803F00703022B89B01DD91E4B1F4A0C
:1046F0001B784FF4C651CDE906232846032305AAAB
:104700000193059325F097FC2B6803F00703022B18
:104710000AD9174B069305AA02234FF4865128465F
:104720000193059325F087FC09F0B8FC04460A20A4
:1047300025F092FC84B12B685B070BD00D4B094828
:10474000CDE9063405AA03234FF4C2510193059322
:1047500025F071FC012002E0FFF788FD204609B03A
:1047600030BD00BFC4090020454F0020554A03005A
:10477000694A0300924A030070B40378072B13D1EF
:10478000002344780A491A46944204DC102B0BD1CA
:1047900070BCFFF7A3BF466831F8025BB65CAE425F
:1047A00008BF01330132EFE7012070BC704700BF42
:1047B000D40800202DE9F043414E424D89B000233A
:1047C0003478B4B1DBB1404F404C642025F044FC58
:1047D0007B78012B08D10823DFF8F480DFF8F49010
:1047E000A3707B78012B47D03378002BEDD10123C8
:1047F000E6E74FF4FA7025F02FFC2346E0E72B683C
:1048000003F00703022B0AD9334B069305AA0223B0
:104810004FF4865128460193059325F00CFC2F494F
:104820002F4B0B602F4B4B6001230B814FF6FF7317
:10483000CB8100230B742C4B18680CF039FD70B140
:104840002B685B070BD0294B05AACDE906304FF446
:10485000C251032328460193059325F0ECFB244C19
:10486000BFF35B8F2368BFF35B8F002BABD10021BD
:10487000212025F089F8F3E798F800309BB9E37020
:10488000A370A378B9F80000062B10D90A23A370EF
:10489000FFF724FD142025F0DFFB3B784FF47A70FE
:1048A000584325F0D9FB142025F0D6FB99E70133B6
:1048B000A370FFF713FD142025F0CEFBE1E700BF46
:1048C000354F0020C40900206029002094090020F1
:1048D000364F00200C4F0020AF4A0300482900202B
:1048E000500900205D44000044290020D84A0300FC
:1048F0005C29002038B5074D074C4FF0FF324FF0D0
:10490000FF332946204624F011FA642025F0A4FB49
:10491000F3E700BF364F00208C0C00207FB5144D0C
:10492000144C4FF0FF324FF0FF336946284624F015
:10493000FDF90028F5D1104A9DF80030A37011460A
:1049400001231DF8036001F8016B01330B2BF8D133
:10495000002312F8011B09B10133DBB201300B282F
:10496000F7D110336370054B1888FFF7B7FCD8E711
:104970005C0C002094090020970900200C4F0020B7
:1049800038B5064C064D002363704FF0FF324FF0F0
:10499000FF332146284624F0C9F9F6E760290020B4
:1049A000BC0C002000B5002089B008F0CFFB174BED
:1049B00000221A600346164883B1026852070AD0E3
:1049C000144A4FF4C251CDE90623032305AA0193EB
:1049D000059325F030FB09B05DF804FB03685B0725
:1049E0000BD50D4B06930D4B079305AA03234FF4EC
:1049F000C8510193059325F01EFB09480AF050F9B0
:104A000009B05DF804EBFFF731BC00BF442900207A
:104A1000C4090020F04A03000F4B03003A4B030087
:104A20007001002030B5012989B0054611D915481B
:104A300003685B070AD0144B069302230193059386
:104A4000002305AA4FF4825126F04BFB002009B049
:104A500030BD2CF087FE4FF47A72A0FB024302FBBC
:104A60000131E40B44EA41404FF47A720023C90B50
:104A7000FCF746FB054A03460821284626F012FDAE
:104A8000E4E700BF9C0A0020454B0300574B03009E
:104A900070B506468AB010680D46254928F0CFFF4C
:104AA000044688B1234803685B070AD0224B089369
:104AB000022303930793002307AA4FF4825126F0A1
:104AC00010FB00200AB070BD012DEBD82CF04AFE7F
:104AD0004FF47A72A0FB020302FB0131C00B0023EA
:104AE0004FF47A7240EA4140C90BFCF709FB10F51C
:104AF000616FC8BF4FF461630246C8BF90FBF3F318
:104B00000E48D8BF234600FB032212F13B0FA8BF7B
:104B10003C246FF03B00A8BF92FBF4F400FB04229E
:104B2000CDE900420821064A304626F0BBFCC8E722
:104B3000F94703009C0A0020454B0300F0F1FFFFFA
:104B4000764B030030B585B001AC821C00F10C053A
:104B5000214612F8013F202B08BF0023AA4204F887
:104B6000013BF6D18378013B092B09D8DFE803F03C
:104B7000050A0C0E101214080816094825F0EEFA62
:104B800005B030BD0748F9E70748F7E70748F5E7FC
:104B90000748F3E70748F1E70748EFE70748EDE77D
:104BA000D84B0300ED4B0300074C03001D4C0300E2
:104BB000324C0300464C03005A4C03006E4C030079
:104BC00070B586B003AD8C1C01F10C062A4614F8B2
:104BD000013F202B08BF0023B44205F8013BF6D16A
:104BE0008B7800920A2B05D1054A082126F05AFC41
:104BF00006B070BD012B0CBF024A034AF5E700BFA7
:104C00007D4C03008C4C03008D4C030010B5012932
:104C100088B005D81268537813B91278662A10D074
:104C2000114803685B0709D0104B069305AA0223BD
:104C30004FF482510193059325F020FA002008B02B
:104C400010BD0B4C0B4A63700821237826F02AFC18
:104C5000094800220023214625F013FA0028EDD050
:104C6000054825F009FAE9E7C0090020A94C03002E
:104C700078290020BA4C0300BC0C002000B50129A3
:104C800089B005D813685A7812B91B786F2B11D0E8
:104C9000154803685B0709D0144B069305AA022345
:104CA0004FF482510193059325F0E8F9002009B0F3
:104CB0005DF804FB0E4B01225A701A7858600AB94D
:104CC00002221A701B780B4A082126F0EBFB0849D8
:104CD00009480022002325F0D4F90028E6D0064830
:104CE00025F0CAF9E2E700BFC0090020A94C030083
:104CF00078290020EE4C0300BC0C002000B50329ED
:104D000089B011D9184803685A0709D0174B069380
:104D100005AA02234FF482510193059325F0AEF9C1
:104D2000002009B05DF804FB5068421E411D12F8D6
:104D3000013F43B1303B092B05D90B4803685B07A2
:104D4000EED00B4BE3E78A42F1D128F00EFD094982
:104D5000002208700023084825F093F90028DFD0CE
:104D6000054825F089F9DBE7C0090020214D030043
:104D7000374D030078290020BC0C002010B5032912
:104D800088B010D91C4803685A0709D01B4B0693FA
:104D900005AA02234FF482510193059325F06EF981
:104DA000002008B010BD53685A1E5C1D104610F854
:104DB000011F41B13039092905D90F4803685B0744
:104DC000EED00F4BE3E7A042F1D10E490B2001F8E2
:104DD000010B034412F8010F01F8010B9A42F9D1BB
:104DE000084909480022002325F04BF90028D7D0B4
:104DF000054825F041F9D3E7C0090020214D030003
:104E0000374D0300474F00205C0C002000B50129FE
:104E100089B005D813685A7812B91B78722B11D053
:104E20000F4803685B0709D00E4B069305AA0223BF
:104E30004FF482510193059325F020F9002009B029
:104E40005DF804FB084909480A230B70002200237F
:104E500025F017F90028F1D0044825F00DF9EDE709
:104E6000C0090020A94C0300474F00205C0C002023
:104E700000B51E4B0820187003294FF0000089B0C0
:104E800058709870D870187111D9194803685B0769
:104E900009D0184B069305AA02234FF482510193BF
:104EA000059325F0EBF8002009B05DF804FB52688B
:104EB00051780029E9D11278672A14D0722A04D0D7
:104EC000622AE2D10122DA7001E001225A70074918
:104ED00009480022002325F0D4F80028E3D0064832
:104EE00025F0CAF8DFE701229A70F0E7474F00206B
:104EF000C0090020A94C03005C0C002010B51E4B1B
:104F00000920032988B0187010D91C4803685A0773
:104F100009D01B4B069305AA02234FF4825101933B
:104F2000059325F0ABF8002008B010BD53685A1E59
:104F30005C1D104610F8011F41B13039092905D90F
:104F40000E4803685B07EED00E4BE3E7A042F1D1B9
:104F50000D490B3312F8010F01F8010B9A42F9D1F8
:104F600005490A480022002325F08BF80028DAD0F2
:104F7000064825F081F8D6E7474F0020C0090020F9
:104F8000214D0300374D0300484F00205C0C0020EA
:104F900000B5022989B011D9184803685B0709D008
:104FA000174B069305AA02234FF4825101930593F0
:104FB00025F064F8002009B05DF804FB53685A78C6
:104FC000002AE9D11B78792B12D07A2B13D0782BB9
:104FD000E2D10C4B05221A700A490B48002200232B
:104FE00025F04FF80028E5D0074825F045F8E1E71F
:104FF000044B0622EFE7034B0722ECE7C009002031
:10500000A94C0300474F00205C0C002000B501298B
:1050100089B005D813685A7812B91B78722B11D051
:105020000F4803685B0709D00E4B069305AA0223BD
:105030004FF482510193059325F020F8002009B028
:105040005DF804FB0849094804230B700022002383
:1050500025F017F80028F1D0044825F00DF8EDE709
:10506000C0090020A94C0300474F00205C0C002021
:1050700000B5012989B005D813685A7812B91B7890
:10508000722B11D00F4803685B0709D00E4B0693B3
:1050900005AA02234FF482510193059324F0EEFFF9
:1050A000002009B05DF804FB0849094803230B7090
:1050B0000022002324F0E5FF0028F1D0044824F06A
:1050C000DBFFEDE7C0090020A94C0300474F00209B
:1050D0005C0C002000B5022989B006D853685978C5
:1050E00019B912681278722A11D0144803685B0744
:1050F00009D0134B069305AA02234FF48251019362
:10510000059324F0BBFF002009B05DF804FB1B7879
:10511000682B10D0742B02D10A4B01221A70094956
:1051200009480022002324F0ACFF0028EBD00648F9
:1051300024F0A2FFE7E7034B0222EFE7C0090020BB
:10514000A94C0300474F00205C0C002013B5002041
:10515000019004F095F910B9084C019B0BB102B015
:1051600010BDA3681B6D1BB101AA042120469847FE
:10517000002140F6CD4024F007FCEEE7E01B0300E1
:1051800008B508490B7883F001030B70064800222C
:10519000002323F075FD20B10348BDE808402BF043
:1051A0009BBF08BD554F00208C0C002070B588B007
:1051B0002F4C20462BF0A4FE30B921682D4808B0B2
:1051C000BDE8704024F0CABF2669A568336843F083
:1051D0004003336006212B6840F2111220469847A5
:1051E000014638B122682448062308B0BDE8704063
:1051F00024F0B4BF3368AE6913F0400F4FF00601DE
:105200000CBF4FF480234FF400334FF4A0322046FC
:10521000B047014618B1226818480623E5E7184947
:10522000184B4B6040238B60EB6913B10122204681
:105230009847154900230B7014480022002323F0DF
:105240001FFD10B111482BF047FF114803685B07A1
:105250000CD5104B0693104B079303230193059332
:10526000002305AA4FF4C85125F03BFF08B070BDDC
:10527000B01B03009B4E0300C14E0300EA4E030027
:105280008029002081510000554F00208C0C002007
:10529000680A0020204F0300514F03002DE9F04F12
:1052A00005468BB0184615F00303DDF850800392D5
:1052B0000E46019340F0F5812C1D002D40F0F48145
:1052C00001F00706341DC6F108064FF0000A042756
:1052D000411ECDF808A0CDF800A05246B94605B150
:1052E0002060039B03F0010ECE4B9842C0F02A8150
:1052F000CD4B984280F02681BEF1000F00F03C813A
:105300004FF0010CA4EB050BBEF1000F00F01D8166
:10531000BBF5007FC0F019816FF01500F5E032B9E0
:10532000252B40F02C8101220427B94627E12B2BA5
:1053300024D81F2B01D8002221E1A3F120000B2843
:10534000F9D80FF2080C5CF820F000BF7F55000080
:1053500037530000375300007F55000037530000DB
:105360003753000037530000375300003753000015
:1053700037530000235500007F550000A3F12D0096
:105380005FFA80FCBCF14D0FD5D84D28D3D80FF271
:10539000080C5CF820F000BF7F5500007F5500002E
:1053A000375300007F5500007F5500007F550000F7
:1053B0007F5500007F5500007F5500007F5500009D
:1053C0007F5500007F5500007F55000037530000D7
:1053D00037530000375300003753000037530000A5
:1053E0003753000037530000EB54000037530000E0
:1053F0003753000037530000EB540000EB5400001B
:10540000EB540000375300003753000037530000BF
:10541000375300007F55000037530000375300001A
:105420003753000037530000375300003753000054
:105430003753000037530000375300003753000044
:1054400037530000D1540000375300003753000099
:105450003753000037530000375300003753000024
:105460003753000037530000EB540000375300005F
:10547000D1540000D1540000EB540000EB54000064
:10548000EB5400007F550000D15400001955000076
:10549000375300007F550000375300001D550000B2
:1054A000D15400001D550000375300003753000051
:1054B0001D55000029530000D1540000375300004F
:1054C00037530000D1540000375300002953000027
:1054D00011F8012C6C2A23D111F8022C6C2A4FF000
:1054E00000022DD00427B9461BE008F1070828F078
:1054F00007080734F8E8022324F0070455B10EEB3F
:105500000400B04204D96FF01B000BB0BDE8F08F6F
:10551000C4E9002308340022082706E70022E1E757
:105520000022013C3C447842044025B1A9EB05002F
:105530002044B042E7D8732B43D158F8040BCEE691
:105540000827D0E74FF0000CDCE6009B0F2B3FF65E
:10555000E3AE45B3DDF800E00AA8CBF3870370445F
:10556000BCF1000F19D063F07F0300F8103C0AF182
:10557000010A009B013300930434C5F1080E11F8B1
:10558000013F002B7FF4CBAE601BB0F5806FBFF402
:10559000C3AE9DBB083E3044B7E700F8103C029B09
:1055A00001330293E5E7BCF1000F01D00136E0E7DB
:1055B000CDE9041228F033FA0236DDE9041206447C
:1055C000D7E7B9F1040F08D108F1040015B1D8F8F4
:1055D0000030236004348046D1E7B9F1080F7FF42E
:1055E0009BAE08F1070323F0070303F108081DB180
:1055F000D3E900BCC4E900BC0834C0E7029A2B60C0
:10560000800828706A7085F802A0BAF1000F05D0F2
:1056100006A9C5F10100009A9A4207D1C5F1010916
:1056200039E000BFE81A03002C87030011F8012BB2
:10563000170607D52718B74202F07F023FF663AF7F
:1056400004F8012B0133E6E7019B06AA12F8038058
:10565000BAF1000F02D018F0800F19D10FFA88F2BA
:10566000002355F8221045F822300846029128F010
:10567000D6F904EB0902471C3A44B2423FF643AF65
:1056800004F8018B029920463A4628F01EFA3C4461
:10569000019B01330193DDE900239A42D4D1601BC1
:1056A00033E76FF00D0030E707293FF60EAE2AE72B
:1056B00030B585B0CDE901010446002501A90548B2
:1056C000039500F0E9F8DDE902309842B8BF2554AF
:1056D00005B030BD37A102002DE9F84FB0F81890A1
:1056E00019F00808044693460DD001290CBF49F073
:1056F000100949F02009A0F818908BF31188BFF326
:105700006F8FBDE8F88F09F00709022907D12046FD
:1057100024F058FD0028F0D00128238B4ED1676972
:10572000218B002F15DA256821F00701C4E90088D4
:1057300041F0010121830026218B01F0070ACA45AF
:1057400002D0A368002B5AD10DB9002E71D00023CE
:1057500056E001F007035A1F012A1ED821F0070165
:10576000062B256889B2C4E900880AD13DB1638B54
:105770002A46126801339BB2002AFAD1638341F0B2
:1057800002012183204624F01DFD06460028D3D0C7
:10579000238B43F020032383CDE7042B0CD121F08E
:1057A000070189B22183204624F00CFD054600281C
:1057B000C1D041F0200121830025BCE7032809D195
:1057C000226923F00703166843F0060323830025AC
:1057D0002F46B1E7042806D1226923F00703566853
:1057E00043F00403F2E7052806D1226923F00703FA
:1057F000966843F00503E9E700252E46E8E7012314
:1058000041F0080121838BF31188BFF36F8FFBB93F
:1058100085BB16B11F492046B0474FF02003EFF378
:10582000118B83F31288BFF36F8F238B23F0080350
:105830002383238BDA0625D523F01003238301214C
:10584000B4F8189009F0070900297FF45EAF54E717
:10585000A1680029DCD0D1F80090D1F804B03B4613
:1058600052462046D847B9F1000FD1D04946D9F861
:105870000090F2E729463B46524620462D6824F028
:10588000BDFCC5E713F020011EBF23F020032383D6
:105890000221D5E729A202002DE9F04F91B08B46F5
:1058A000029092461C4600259AF8000008B9284646
:1058B0005FE325280AF1010707D0029B5946984764
:1058C0000028C0F25683013512E2182200210AA8EE
:1058D00028F006F99AF80130252B78D000221046DE
:1058E000964694461646394617F8013B2B2B00F096
:1058F0009D8000F29480202B00F09B80232B00F0F1
:105900009B802EB19DF8306046F004068DF8306023
:10591000BCF1000F05D09DF8306046F008068DF808
:105920003060BEF1000F05D09DF8306046F01006E3
:105930008DF8306028B19DF8300040F020008DF8DF
:1059400030002AB19DF8302042F040028DF830201E
:105950009DF8302002F04400442803D16FF38612F2
:105960008DF830209DF830202A2B42F080028DF8EF
:1059700030207BD19DF8312042F001024B1C8DF884
:1059800031201A782E2A9DF831200CBF01210021E8
:1059900061F341028DF8312074D15A782A2A6AD0F5
:1059A000013300210A26184610F8012BA2F1300716
:1059B000092F40F28E809DF830200E91C2F34000F6
:1059C00040EAD17161F341028DF830205AE00AF1CA
:1059D00002078DF833309DF83130D90740F1498105
:1059E00054F8049BB9F1000F07DA9DF8302042F01B
:1059F00004028DF83020C9F100095A0740F14281B4
:105A000054F8048BB8F1000F80F241819DF83130D9
:105A10006FF341038DF831304FF0FF3837E12D2B14
:105A20000CD0302B7FF46DAF01225CE74FF0010CFE
:105A300059E74FF0010E56E7012054E7012652E7DF
:105A40000CFB0202303A33461E4616F8010BA0F159
:105A50003007092FF4D9994293D09DF830100D9258
:105A6000D20F62F341018DF830108AE70B46002215
:105A70004FF00A0CE8E79DF8312042F004028DF85F
:105A8000312002331F4617F8012B6C2A41D025D84C
:105A9000682A2BD06A2A46D04C2A4CD01F4617F8C9
:105AA000012B9DF831308DF83320782A00F2D9800F
:105AB000572A4DD8412A03D0453A022A00F2D18014
:105AC0009DF83230042262F302038DF83230012354
:105AD0009EE006FB01213039034664E7742A26D094
:105AE0007A2ADBD19DF8313006220DE05A78682AF7
:105AF0009DF8312006D1012161F3C6028DF83120D5
:105B00009F1CCCE71346022262F3C6038DF83130A6
:105B1000C5E75A786C2A9DF8312001D10421EBE7C2
:105B200013460322F0E79DF831300522ECE79DF89B
:105B300031300722E8E7BDF8303023F4F04323F09A
:105B4000020343F4804343F00203ADF83030A6E78C
:105B5000A2F15801202900F2848001A050F821F020
:105B6000255C0000635C0000635C0000635C000077
:105B7000635C0000635C0000635C0000635C000029
:105B8000635C0000C15A0000635C0000255C0000FB
:105B9000E55B0000C15A0000C15A0000C15A000074
:105BA000635C0000E55B0000635C0000635C000078
:105BB000635C0000635C00002D5C0000255C00005D
:105BC000495C0000635C0000635C0000495C00000D
:105BD000635C0000255C0000635C0000635C000007
:105BE000255C00009DF83210012003F0780360F37B
:105BF0000201402B8DF8321002BF9DF8301041F0A9
:105C000001018DF83010632A31D1003B18BF012308
:105C10009DF83020C2F340010B4363F341028DF83D
:105C20003020D8E69DF832100220DEE79DF83220C1
:105C300003F07803A3F14000032161F30202434221
:105C40008DF832204341E3E79DF83220032113F021
:105C5000780F61F302028DF8322014BF0123002374
:105C6000D6E79DF8303043F001038DF83030002343
:105C7000CEE79DF93020002AB4BFDDF834904FF014
:105C8000FF39BAE69B077FF5C7AEDDF838809DF88F
:105C900031100023CDE90D339DF8323003F00703B6
:105CA000012BC1F3C30138D1CB1E042B22D8DFE86E
:105CB00003F003090921210054F8043BDA17CDE968
:105CC0000A3206E0073424F00704F4E80223CDE9A1
:105CD0000A239DF8303013F0030656D002983B4655
:105CE0005246594624F070FD0028C0F24281054416
:105CF000BA46D9E554F8043B01294FEAE372CDE9ED
:105D00000A3205D19DF828300A9300230B93E0E76F
:105D10000229DED1BDF92830D0E7022B23D1CB1EDA
:105D2000042B13D8DFE803F0030A0A1212002268DA
:105D30000A920023201D0B930446CAE7E01D20F0C1
:105D40000700F0E80223CDE90A23F5E754F8043B05
:105D50000A9301294FF000030B93D3D00229B8D145
:105D6000BDF82830D0E7042B09D1E31D23F0070349
:105D700003F10804D3E90023CDE90A23A9E7032BA3
:105D800004BF54F8043B0A93A3E79DF83300782836
:105D9000AED8622822D825283FF48FAD5828A7D145
:105DA0000DF126030093DDE90A0104AB0CAA24F0EF
:105DB000C5FC8246B8F1000F0DF126000CDB9DF802
:105DC0003020A0EB0A036FF3861298458DF830203F
:105DD00002D9A8EB03030D9380463DE063381528F4
:105DE00086D801A252F820F0695E0000CD5E000066
:105DF000F15C0000F15C0000F15C0000F15C00006F
:105E0000CD5E0000F15C0000F15C0000F15C000080
:105E1000F15C0000275F0000F55E0000F95E000005
:105E2000F15C0000F15C0000415E0000F15C0000EC
:105E3000F55E0000F15C0000F15C0000F55E000022
:105E4000B8F1000FDDF828A00ADB4146504627F0E4
:105E5000EDFD0AEB00080026BAF1000F0CD147E770
:105E6000504627F0DCFDF4E70A9B8DF81030002641
:105E70000DF1100A0DF11108A8EB0A0306B1013368
:105E80009DF83220D00668D5023352060D9948BFDE
:105E90000E9A0B4448BF9B18B9F1000F76DD9DF8B0
:105EA0003020A9EB0309C2F38003039353076DD499
:105EB000500661D546B1029B5946304698470028A6
:105EC00057DB039B01351E46302356E01E070FD4D7
:105ED00013F0100618BF2026DDE90A23002BBFF6B9
:105EE0005FAF524263EB4303CDE90A232D2657E708
:105EF0002B26F1E7002653E70A9840B30DF126035D
:105F000000930CAA04AB002124F018FCBDF8323039
:105F100003F0EF0343F4F04343F010038246ADF87F
:105F20003230002646E70A9B07293FF6E1AEDFE85C
:105F300001F00C04060C08080C0C1D70D8E61D803E
:105F4000D6E6EA17C3E90052D2E61D60D0E6DFF8D4
:105F5000C8A006460AF105088EE7110748BF0133BD
:105F600093E7184603935946029B98470028039BE2
:105F700004DA11B0BDE8F08F20234D444A46002AD0
:105F8000A5EB090109F1FF39EBDC0D4636B1029BA7
:105F90005946304698470028EBDB01359DF83230F2
:105FA000D90601D41A0706D5029B594630209847D6
:105FB0000028DEDB01359DF83230DB0607D59DF881
:105FC0003300029B594698470028D2DB01350D9ECD
:105FD0002E44731B002B16DC02984346524659464A
:105FE00024F0F2FB0028C4DB0544A944A9EB050317
:105FF000002B7FF77DAE029B594620209847002852
:10600000B7DB0135F2E7029B59463020984700285C
:10601000AFDB0135DDE700BF644F030030B5104949
:10602000104889B000222BF0CEFB0F4D0F49002203
:106030000023CDE9062300240E23CDE90334CDE966
:1060400001440B4B00944FF44072284622F074FD3B
:106050000849284622F0BEFC204609B030BD00BFEA
:1060600079600000F017002028180020209C0020F4
:10607000CD620000E3520300014822F0A1BF00BF3F
:10608000340D002070B5124BBFF35B8F53E8005FF7
:106090006A1C43E800210029F8D1BFF35B8F2DB9BA
:1060A0000C4C0D4E361B3611B54200DB70BD237B08
:1060B00053B123689B690BB120469847636804225B
:1060C0001968204600F038FA01351034ECE700BFBB
:1060D00094290020D41F0300E41F030010B5044CD2
:1060E000237813B9034822F06BFF0123237010BDFE
:1060F000564F0020340D00200C4BBFF35B8F53E84C
:10610000002F013243E800210029F8D1BFF35B8F53
:1061100058B1BFF35B8F064B53E8002F013A43E8B9
:1061200000210029F8D1BFF35B8F70479029002030
:106130008C2900200020064BBFF35B8F024653E8FA
:10614000000F43E800210029F9D1BFF35B8F7047AE
:1061500090290020F8B5FFF7EDFF0A4C0A4D2D1BE2
:1061600007462D110026AE4200DBF8BD63685B795F
:106170002BB123681B6913B1394620469847013675
:106180001034F0E7D41F0300E41F03000149024864
:1061900024F0A8BCC025030098290020094A08B5AE
:1061A00000231370084A1360084B094A1A604FF421
:1061B000004000F0D1FBFFF7E9FFBDE8084000F028
:1061C00025B900BF574F0020902900208C010020E6
:1061D000EBAF0200014600220148002324F0A1BCDD
:1061E00098290020014824F02FBD00BF98290020E5
:1061F0000146014824F074BD98290020014824F08C
:10620000A3BD00BF982900202A4B1B782DE9F04739
:1062100006460BB900284BD024F0FBFE054618B10A
:106220006EB12846FFF7E4FF2EB9234B1B68002B05
:1062300001DDFFF78FFFBDE8F047FFF7DFBF1F4B22
:10624000BFF35B8F53E8002F013A43E80021002998
:10625000F8D1BFF35B8F1A4C1A4FDFF86CA03F1BCD
:106260003F11B046B845DCDA63685B79CBB1297879
:106270004B0711D4B5F800906A68C9F38219C1F3CD
:10628000C20192B1A2EB0A0242F38F02012320461F
:1062900000F068F9484504D3236829461B68204666
:1062A000984708F101081034DCE74FF0FF32EDE7C2
:1062B000BDE8F087564F0020902900208C2900204F
:1062C000D41F0300E41F0300C009002010B5FFF72E
:1062D000D9FE23F073FB0C4B186030B10B4B1B68DD
:1062E000092B02DD0A4822F06BFE094C0020FFF763
:1062F0008BFF0028FAD14FF0FF324FF0FF332046DA
:1063000022F084FEF2E700BFD42900208C2900206F
:10631000340D002013B51D4BBFF35B8F53E8002FE6
:10632000511C43E800100028F8D1BFF35B8F184BD5
:106330001B7883B14FF02003EFF3118483F31288AD
:10634000BFF36F8F0020FFF75FFF84F31188BFF367
:106350006F8F02B010BD0F4B1B68002BF9D052B9E4
:1063600000220023CDE900230B484FF40042002314
:1063700023F03CFDEDE70A2AEBD107482BF02FFA7A
:10638000064802B0BDE8104022F01ABE8C29002059
:10639000574F0020D4290020F0170020340D002092
:1063A000064B10B51B68044698472146A060044878
:1063B00024F02DFCBDE81040FFF7ACBF8C0100209D
:1063C00098290020F8B50E4F3D7875B90D4C0E4E4A
:1063D000FFF758FE361B3611B54207DB0020FFF7EA
:1063E00013FF0028FAD101233B70F8BD63685B7985
:1063F0001BB1236820465B69984701351034EBE7F1
:10640000574F0020D41F0300E41F03000B480C4B20
:1064100030B51B1A0B4CDB0800210430994200D127
:1064200030BD10F83120256802F0070225F007057D
:106430002A4344F8042B0131F0E700BFE41D0300B8
:10644000D41F0300C0090020044A054B9B1AB1EB7E
:10645000D30F34BF52F8310000207047E41D030011
:10646000D41F03002DE9F047894616469846044696
:10647000B8B9DFF884A0214FA7EB0A073F11054602
:10648000BC4202DB2846BDE8F0870AEB0410434615
:1064900032464946FFF7E6FF854238BF05460134DC
:1064A000EEE7174B174C03EBC2031D7943681A79CB
:1064B000072302EB420203FA02F1454554F8263065
:1064C00028BF454623EA010305F0070101FA02F25D
:1064D00013430021032223FA02F000F00700814257
:1064E00002F1030238BF01461E2AF4D123F007034C
:1064F0000B4344F82630C5E7D41F0300E41F030014
:10650000E41D0300C0090020F8B5094C094BE41A4A
:1065100006460F46E4080025A54200D1F8BD00213B
:106520002AB23B463046FFF79DFF0135F4E700BF36
:10653000D41F0300E41D0300094BC31A70B51B11DF
:106540004668044601330D4633711146FFF7DCFF00
:10655000636801221D605A71BDE87040FFF7BEBD3F
:10656000D41F030063B1002A0FDB43680849187980
:1065700000EB400351F82200D84000F007007047BC
:10658000044B03EBC202107970470420704700BF30
:10659000C0090020E41D0300024B98689B69C01AE3
:1065A000704700BFD8290020014B9869704700BF91
:1065B000D82900200EB403B503AB014653F8042BD1
:1065C00004480193FFF768F902B05DF804EB03B0EB
:1065D000704700BF5DB002002DE9F0471D46089BE3
:1065E0001746DA0604460E4605D499064CBF2A49DA
:1065F0002A49FFF7DFFFDFF8A8904FF00008A84511
:106600002ADBDFF8A080DFF8A090DFF894A0002557
:10661000BD422FD2725D49462046FFF7CBFF0135C0
:10662000102D20D12149DFF87880DFF884902046B2
:10663000FFF7C0FF0025AF4228D9725DA2F1200309
:106640005F2B28BF2E2249462046FFF7B3FF0135B6
:10665000102D14D1BDE8F08749462046FFF7AAFF68
:1066600008F10108CBE76A07D2D151462046FFF76F
:10667000A1FFCDE741462046FFF79CFFCFE76B0720
:10668000D9D141462046FFF795FFD4E74146204641
:10669000FFF790FFDBE700BF945403008050030036
:1066A000764F0300744F03006E4F0300784F0300D2
:1066B000EC5A03002DE9F04F87B01C4601F00103AE
:1066C00005929DF84090BDF948A00493074688467E
:1066D00001F0020B01F0080624F09FFC024600289E
:1066E00044D03A493846FFF765FF0546BBF1000F35
:1066F00008D018F0440F3BD1354922463846FFF701
:1067000059FF0544049B53B1324B334953F82920B8
:10671000324B3846002A08BF1A46FFF74BFF3EB1FE
:106720002F4B304953F829203846FFF743FF0646E0
:10673000BAF1000F16DB059B002B45D0012303FAAD
:1067400009F9294B294C19F0100F18BF1C46514666
:106750009DF84400FFF778FE214602463846FFF7D1
:1067600029FF0644701907B0BDE8F08F0546BDE764
:106770001F4B18680028C4D01E4B4FF47A781B6852
:10678000B4FBF3F44FF46161B4FBF0F300FB13448A
:1067900008FB04F44FF03C0CB3FBF1F201FB1231A7
:1067A000B4FBF0FEB1FBFCF300FB1E440CFB131129
:1067B00008FB04F40091B4FBF0F00F49CDE901E0CF
:1067C0003846FFF7F7FE9CE7084CC0E7884F030008
:1067D0008C4F0300D4250300B35503007A4F030008
:1067E000E8250300B14F0300844F03007F4F0300EF
:1067F000F4290020F8290020954F030038B50C46F5
:10680000E107054603D5084A0849FFF7D3FEE2062B
:1068100008D4A30628464CBF05490649BDE83840C0
:10682000FFF7C8BE38BD00BF7A4F0300B355030061
:1068300094540300805003002DE9FF470B8813F4A4
:10684000E07F06460C469046C3F382194DD00A7885
:106850004B68C2F3C202002B44D025495B1A43F3B4
:106860008F03CDE90123CDF80090A36800224146B3
:106870003046FFF71FFF8246254655F80C3BC3F311
:10688000492353B11B4F1C481C492B463246B9F1D2
:10689000000F08BF384623F0F6FB6788C7F3CB0725
:1068A00097B12368C3F349231D44102F3C4628BFEA
:1068B00010242946CDF80080534622463046FFF783
:1068C0008BFE3F1B2544F0D1B9F1000F04D04A469E
:1068D00041463046FFF792FF304604B0BDE8F0472E
:1068E00024F0AFBB4FF0FF33BBE7CA46C4E700BF9D
:1068F000C009002093B002005DB00200995800006A
:1069000073B542F20F738B4228BF0B4605680F4ADE
:1069100004460521684623F02EFC63680C495B6839
:1069200006460422284624F07FFB63683246694607
:1069300028465B6824F078FB636806495B68172289
:10694000284624F071FB02B070BD00BF134903005C
:10695000EF4F0300D74F0300084A10B50123084C3E
:1069600013600021A04204D801B11360054B1860E8
:1069700010BD40085B000121F4E700BFF8290020AA
:1069800040420F00F42900202DE9F04F85B0DDE9E9
:106990000E6BDDF840A00546884614469946BBF1CB
:1069A000000F37D00022CDF800A05B460C21104626
:1069B000CDF80CA0FEF772FC074604F0070206F1C2
:1069C000130005F00704144D144BE400384444EA66
:1069D000821405EA472520F007002C4303EAC6434A
:1069E00080081C43FFF7F6FB054650B1BBF1000FD2
:1069F00007D0CDF800A05B46002239460C30FEF7E8
:106A00004DFC4B4622464146284605B0BDE8F04FB6
:106A100024F04CBB5F46D0E700FE07000000F87F83
:106A200000230428CB604B6098BF044B044A98BFF6
:106A300053F820308A600B60704700BF3C2603008B
:106A4000182603000023084A0B60CB604B608A6065
:106A5000064B074AD21AB0EB221F3EBF03EB0013CE
:106A60009B680B60704700BF90270300D41F030092
:106A7000E41F030038B50446FFF78EFD0546FFF717
:106A800093FD094A03460821204624F00BFD2B46BE
:106A90002046064A082124F005FD2046044A082124
:106AA00024F000FD002038BDF44F03000550030022
:106AB000165003002DE9F347114B124CDFF84880C4
:106AC000DFF84890DFF848A01B1B07461E11002581
:106AD000B54203DB002002B0BDE8F0876368597956
