:1010000060C200206DB200008BD7020041B2000028
:1010100041B2000041B2000041B2000000000000F7
:10102000000000000000000000000000ADAA000069
:1010300041B200000000000055AA000041B20000CB
:1010400061AB0000E104020061AB000061AB000095
:1010500061AB000061AB000061AB000061AB000060
:1010600061AB000061AB000061AB000061AB000050
:1010700061AB000061AB000061AB000061AB000040
:1010800061AB000061AB000061AB000061AB000030
:1010900061AB000061AB000061AB000061AB000020
:1010A00061AB000061AB000061AB000061AB000010
:1010B00061AB000061AB000061AB000061AB000000
:1010C00061AB000061AB000061AB000061AB0000F0
:1010D00061AB000061AB000061AB000061AB0000E0
:1010E00061AB000061AB000061AB000061AB0000D0
:1010F00061AB000061AB000061AB000061AB0000C0
:101100007BB972B90029BEBF00204FF0004106E054
:1011100008BF00281CBF6FF000414FF0FF3000F007
:1011200057B8ADF1080C6DE904CE002909DB002B9E
:101130001ADB00F04FF8DDF804E0DDE9022304B02B
:101140007047404261EB4101002B1BDB00F042F88D
:10115000DDF804E0DDE9022304B0404261EB410127
:10116000524263EB43037047524263EB430300F088
:1011700031F8DDF804E0DDE9022304B0404261EB20
:1011800041017047524263EB430300F023F8DDF85E
:1011900004E0DDE9022304B0524263EB43037047ED
:1011A00053B94AB9002908BF00281CBF4FF0FF31CE
:1011B0004FF0FF3000F00CB8ADF1080C6DE904CE33
:1011C00000F008F8DDF804E0DDE9022304B0704720
:1011D000704700BF2DE9F04F07468C460846099E30
:1011E00015463C461946002B40F0C6808242B2FAB2
:1011F00082F746D94FB1C7F1200E24FA0EFE00FA4D
:1012000007F3BD404EEA030CBC404FEA15481FFAF5
:1012100085FEBCFBF8F9220C08FB19C309FB0EFA8A
:1012200042EA03439A4528D9EB1809F1FF3004D26A
:101230009A4502D9A9F102002B44A3EB0A03A4B2F8
:10124000B3FBF8F208FB123302FB0EFE44EA034440
:10125000A64514D92C1902F1FF3303D2A64501D9B2
:10126000931E2C44A4EB0E0443EA00401EB1FC4044
:10127000002334607360BDE8F08F4846DDE7134615
:10128000F0E702B9FFDE87BB831A01214FEA154E52
:10129000AAB2B3FBFEFC200C0EFB1C330CFB02F8C5
:1012A00040EA0343984563D9EB180CF1FF3004D2B0
:1012B000984502D9ACF102002B44A3EB0803A4B279
:1012C000B3FBFEFC0EFB1C330CFB02F244EA0344AE
:1012D000A2424FD92C190CF1FF3304D2A24202D9F9
:1012E000ACF102032C44A41ABEE7C7F1200C20FA8B
:1012F0000CF800FA07F324FA0CFCBD404CEA030298
:101300004FEA154EABB2B8FBFEFC110C0EFB1C8075
:101310000CFB03F941EA0040814504FA07F423D9A4
:1013200028180CF1FF3104D2814502D9ACF1020139
:101330002844A0EB090092B2B0FBFEFC0EFB1C009F
:101340000CFB03F842EA004398450FD9EB180CF167
:10135000FF3204D2984502D9ACF102022B44A3EB30
:10136000080342EA014191E76146E2E76246F6E797
:101370006046A2E76346B6E7834205D90EB1C6E9E7
:1013800000700021084676E7B3FA83F181B9834201
:1013900001D3BA420AD8BC1A60EB030301209C4671
:1013A000002E68D0C6E9004C002164E70846F7E744
:1013B000C1F1200C8B4022FA0CF41C4302FA01F517
:1013C00000FA01F327FA0CF220FA0CFB4FEA144959
:1013D0001343BBFBF9F81FFA84FE09FB18BB1A0C78
:1013E00008FB0EFA42EA0B42924507FA01F73ED992
:1013F000A21808F1FF3004D2924502D9A8F10200E8
:101400002244A2EB0A029BB2B2FBF9F809FB1822B4
:1014100008FB0EFE43EA024296452AD9A21808F1BB
:10142000FF3304D2964502D9A8F10203224443EACD
:101430000040A0FB0593A2EB0E029A42CE469846CE
:1014400002D306D14F4504D2B9EB050E63EB040875
:10145000013886B1B7EB0E0362EB080707FA0CFC04
:10146000CB404CEA0303CF40C6E900379CE7404637
:10147000C7E74346DBE73146FDE600000000000019
:1014800070B5484DD5F85431996811F0010188B014
:1014900023D102AA40F603400BF0C0F8044600280E
:1014A00072D1029B9B681B78A3B90CF031FCBFF38F
:1014B0005B8F2B4653F8CC2FBFF35B8F02F00502F6
:1014C000BFF35B8F53E8001F43E800200028F9D1E9
:1014D000BFF35B8F029822F065FD02AA002141F262
:1014E00003000BF09BF8044600284DD1029B2E48C8
:1014F0009968082201312CF002FB029822F052FD7B
:10150000214602AA41F201000BF088F804460028A7
:101510003AD1029883685A7885F86820D9789A7801
:1015200042EA0122A5F86A201A7985F86920197A19
:10153000DA7942EA0122A5F86C205A799B7942EACD
:101540000323A5F86E3022F02DFD214602AA41F2B8
:1015500002000BF063F80446B0B9029B1348996887
:10156000402201312CF0CBFA10482CF07CFB029881
:1015700022F018FD95F8743059061DD40C48036804
:101580005A0704D16FF01204204608B070BD094B11
:10159000069305AA02234FF48251019305932CF080
:1015A00018FCEFE700000020700000207800002009
:1015B000480A00203F6F0300214602AA42F20300BE
:1015C0000BF02CF804460028DED1029BB84899683D
:1015D000082201312CF093FA029822F0E3FC214614
:1015E00002AA42F202000BF019F804460028CBD1FF
:1015F000029B9B68B3F80120A5F8FC2091B221B1B1
:10160000DA78AC4811462FF07FFE029822F0CAFC2F
:1016100095F8746016F0200600F0FE8095F894307E
:101620001B0712D502AA002142F21C000AF0F6FFA5
:1016300004460028A8D102988368D3F80120D3F883
:101640000530C5E9362322F0ADFC95F8D0309E0672
:1016500023D501A968460BF065F80446002893D10C
:10166000042142F224000AF069FE0646002800F038
:10167000DA80042108302EF06BFFBDF800300380C3
:10168000BDF8043043802246314642F224000AF07D
:10169000C5FF044600287FF477AF95F8D0305C068C
:1016A00010D502AA002142F22A000AF0B7FF044630
:1016B00000287FF469AF029883685B7885F8183159
:1016C00022F070FC082142F201000AF037FE0446C5
:1016D000002800F0A880082108442EF039FF95F872
:1016E000D01011F0400F024640F2022308BF03233E
:1016F00088074CBF43F02C0043F00C0095F8D13024
:101700008E0648BF40F0400013F0090F18BF40F4A8
:101710000060CB0795F89A3003F0060348BF40F00D
:101720001000062B08BF40F4C07000212CF062FBB3
:101730002146002242F201000AF070FF0446002810
:101740007FF422AF95F87430B5F8FC109E067FD474
:10175000D9B902AA41F205000AF060FF0446002848
:101760007FF412AFB5F8FC3063B9029B9B685A78DE
:10177000997842EA0122A5F8FC209A884D48114642
:101780002FF0C2FD029822F00DFC082140F6014026
:101790000AF0D4FD0446002845D0082108442EF064
:1017A000D7FE95F8D030D907024664D53EA1D1E9DD
:1017B00000012CF01FFB2146002240F601400AF0F8
:1017C0002DFF044600287FF4DFAE01466A464FF63F
:1017D00001400AF023FF0446002850D03648036831
:1017E00013F0060F09D0354B069305AA02234FF4D8
:1017F0008451019305932CF0ECFA0CF035F9044672
:1018000000287FF4C1AE0DF019FD044600287FF4D6
:10181000BBAE0BF07FFCB7E6022140F66D400AF04C
:101820008DFD044610B96FF06804ADE60221083062
:101830002EF08EFE0123037046702146324640F69C
:101840006D400AF0EBFE044600283FF4E7AE9BE64D
:1018500000299AD1184803685C0709D0184B0693F1
:1018600005AA02234FF48251019305932CF0B1FA9B
:101870006FF0040488E613484FF0005199E7009890
:1018800022F090FB21466A464FF602400AF0C6FE5F
:101890000446D8B10848036813F0060FADD00A4BD0
:1018A000A2E700BFAFF30080908800020080002014
:1018B000D000002000010020480A0020866F0300AD
:1018C000636F030010880002AA6F0300009B134897
:1018D0009968022201312CF012F9009822F062FB83
:1018E00095F8B9305B0788D56A4621464FF6034024
:1018F0000AF094FE38B10A48036813F0060F3FF46B
:101900007CAF084B70E7009B07489968012211449F
:101910002CF0F5F8009822F045FB6EE7B9000020A6
:10192000480A0020D36F0300B80000200000000028
:101930002DE9F041D0E90B35866A5C193034A642B6
:101940008846174618D81C4DA3FB050118A3D3E9F8
:101950000023FFF725FCA41B20F07F40C8F80000FF
:1019600013A3D3E90023A4FB0501FFF719FC20F022
:101970007F403860BDE8F0810F4C0DA3D3E9002310
:10198000A6FB0401FFF70CFC05F1300120F07F40BD
:10199000C8F8000006A3D3E90023A1FB0401FFF768
:1019A000FFFB20F07F403860BDE8F081AFF300809E
:1019B0008D49FD1A0700000000CA9A3B0000000094
:1019C0002DE9F04FAC4C8FB094F86A20002800F05D
:1019D000398112F0010740F0378194F82500FF2388
:1019E00000F0030084F826301EF014F994F86A0021
:1019F00041072DD494F8292094F8353004EB820265
:101A000004EB8303D2F82C80D3F83890B8F1000FA0
:101A100011D09948414617F031FD98F800305A0628
:101A200005D5062112F09AFC002800F0CE819248DC
:101A3000494617F023FD98F8003013F00E0F40F0E0
:101A4000EE80236A9BB10C2738460FB0BDE8F08FBB
:101A50003A4604F16B01C0F3C0001EF06DFAFF2896
:101A600084F82600C6D038461EF01AF9C2E716F0F0
:101A7000C1FB8246002800F0B28116F0C7FB834606
:101A8000002800F0B18118F099FD0546002800F00B
:101A9000A881406F4FF6FF732B8505F11C030028CA
:101AA00000F0998105F1680205F164010B9312F0D1
:101AB00061FCB5F86020714B22F4EF6222F007025E
:101AC00042F4887242F00102A5F8602095F83920AE
:101AD00002F03F0262F07F0285F8392095F87A2003
:101AE00022F0070285F87A2095F83C2022F00702C0
:101AF00085F83C2095F8D82022F0070285F8D820F8
:101B00004FF01B120026C5E916230622A5F8C020B7
:101B1000C5E912666E67A5F87860EE852E6385F8D4
:101B20003B602E65A5F8C460A5F8C860A5F8D06034
:101B3000A5F8CC60A5F8E46085F8E660C5F8086112
:101B4000A5F80C61A5F8206115F016FE95F83A216C
:101B5000A5F8386122F0030285F83A2195F87A2039
:101B6000A5F8406122F0180285F87A2095F86621E0
:101B700085F8436122F0070285F8662195F88621F1
:101B8000C5F844A166F3451285F8862195F8AE2183
:101B9000A5F8646166F3C302C5E94A01002100208B
:101BA000C5E94C0185F8AE2185F8D960A5F88461B6
:101BB000C5F8E060A5F8AC61A5F8B86119F046F881
:101BC000A5F8D20019F048F8D5F8BC112C4AA5F8B0
:101BD000D4000A40C5F8BC2119F044F895F8C0219A
:101BE00060F3020285F8C02119F042F80B9B2362D2
:101BF00095F8C031C5F8C46160F3C503C4E918ABFA
:101C0000C5E97466C5E97266C5E905662E70ED61C1
:101C100085F8C0311FF0C2F9002840F0D88094F850
:101C200024300121C3F342030DF133008DF833302A
:101C300012F020FD30BB236A002B3FF404AF17F0F5
:101C4000E7F800E7D50704D4002738460FB0BDE811
:101C5000F08F236A5BB193F8202042F0020283F8F0
:101C60002020236A93F82030D8073FF5ECAE0FB060
:101C7000BDE8F04F17F00EB9383A0020480148018E
:101C80000000FFF699F801100246404617F0B2F93D
:101C90005B49B4F8689031230025A360A0FB0101E3
:101CA00055A3D3E90023C4E9055525706560E560B7
:101CB000FFF776FA206113F0D5FE0646B9F1000F62
:101CC00008D198F8005005F00F05A5F10105B5FA07
:101CD00085F56D0994F82400236965F3000010F080
:101CE000010584F8240031D00020464ADFF818911D
:101CF000049302250DF13408019305920321CDE9E7
:101D00000200069433460090CDF82080CDF81C9058
:101D10002A460D9513F07CFD414616F0FBFA00288B
:101D200089D13A4A05924AF2D8320092CDE90300AD
:101D3000CDE90100CDF81C90CDF820800694334603
:101D4000012203210D9513F063FD29E0304A31484B
:101D5000049303F24713A9FB000106940295136054
:101D6000912303FB0911284B0793264B05934FF64C
:101D7000FF7309924FF0020903930DF134081EA37B
:101D8000D3E90023CDF83490CDF82080FFF708FA8E
:101D90003346CDE900504A462846032113F0E2FCC1
:101DA000414616F0B7FA00287FF445AF94F86A3040
:101DB00043F0010384F86A3017F042FD00287FF4F5
:101DC00043AF01201DF008FF3EE612273CE617F066
:101DD0001FF8032738E605F16C00686762E60727FD
:101DE00032E6584616F018FA504616F009FA072758
:101DF0002AE600BFAFF300808D49FD1A07000000FE
:101E000000CA9A3B6590010045780100A18B010052
:101E1000AC3A0020002AE78470B590F824308AB0EC
:101E2000C3F342030D46044601210DF1230016467B
:101E30008DF8233012F01EFC71780246284617F008
:101E4000D9F81D491AA3D3E90023A0FB0101FFF72C
:101E5000A7F923699842054620D21B1A0022019255
:101E6000164A0293164BA21AA3FB023202219209D0
:101E700000230A4409AE099112490591CDE90333C3
:101E80000321D2B206960093184613F033FD314673
:101E900016F040FA48B925610AB070BD02D9C21ADD
:101EA0000023DCE700200AB070BD0C200AB070BD32
:101EB0008D49FD1A0700000000CA9A3B383A0020FD
:101EC00009CB3D8D4578010038B5194C9DF810E0DF
:101ED00094F844C01CF0010522D163F3420C400188
:101EE00094F83230A1874FEACE0E0EF0180E00F0B3
:101EF000200040EA0E0023F0380303430D4884F825
:101F00003230A2FB0001912303FB021106A3D3E9A7
:101F1000002384F844C0FFF743F92064284638BD05
:101F20000C25284638BD00BF8D49FD1A070000006A
:101F3000D03A0020002AE78410B59DF808C0044676
:101F400049014FEACC0000F0180001F0200CA17DFF
:101F500022844CEA000C0C4821F038014CEA010CB8
:101F60009122A3FB000102FB031184F816C004A315
:101F7000D3E90023FFF714F9606210BDAFF30080CE
:101F80008D49FD1A07000000002AE78400000000C8
:101F90002DE9F047044600F1350190F8440094F82B
:101FA0003230C0F3400060F386138CB084F83230D6
:101FB00013F090FD94F83220A38F4D48E46102F0B5
:101FC00079020025A3FB000184F83220912202FB54
:101FD0000311C4E9055544A3D3E900232570FFF795
:101FE000DFF83123C4E90153236CE5600933A0F124
:101FF0003102934232BF236122612564064613F009
:1020000031FD236A07460DF12C08002B4CD0394DC9
:10201000394BCDF820800694651BA3FB0535344869
:10202000A38F4FF0000AA3FB00019122CDF80CA072
:1020300002FB031123690493304B0793304B059344
:102040004FF0020928A3D3E90023CDF82C90FFF725
:10205000A7F8104619464FF47A720023FFF7A0F84C
:102060002D090435EDB22A46CDE901603B46032136
:10207000CDF800A0504613F0CBFB414616F04AF9CC
:10208000054668B994F8443043F0010384F84430BD
:1020900017F0CAF90446F8B128460CB0BDE8F0873D
:1020A0000C200CB0BDE8F087CDE90A332169434626
:1020B0000AAA032001F094F90B990029A7D011482E
:1020C00009A3D3E90023A1FB0001FFF769F80A9FE8
:1020D00020F07F4007449AE748461DF07DFD2046EA
:1020E0000CB0BDE8F08700BF8D49FD1A0700000065
:1020F000002AE784D03A0020398EE3384578010081
:102100003D96010000CA9A3B2DE9F04FC38D458EE4
:102110001D4490F80E31ADB22944164613F0070263
:102120008BB0044689B20AD0531E042B00F2708390
:10213000DFE813F0C6013702A10150013A02B0F8FE
:10214000E870C91B1FFA81F8090400F16E8190F94B
:102150003930002BC0F26A8294F8E43084F8E5301C
:1021600094F8842194F8853194F80C1184F80D11B9
:1021700093420AD094F8863103F00F03062B04D162
:10218000002384F88521A4F8C830BF4BD4F8089107
:102190001A68944204BF00221A60B9F1000F00F0DF
:1021A0005A81D9F80000002800F05581B4F81031A8
:1021B000B4F82AC04268C4F808216345B4F8122173
:1021C000B4F8141100F03A82B4F828C0A9F81E300F
:1021D000182389F804300023A9F806C0A9F82020A4
:1021E000A9F8221089F81C30494616F01BF816F0A1
:1021F00023F8A368002B09DAE168626823F0004342
:1022000091422CBF7618B618A360F61A608DB4F808
:10221000109110FB08F080B2B0FBF9F119FB01F34B
:102220009BB298421FFA81FA80F004811B1A40F297
:10223000E241964803FB01F1A1FB000190A3D3E921
:102240000023FEF7ADFF20F07F400644E38D1F44DE
:1022500094F939307D1B554440F2E24B002BE58563
:102260000BFB09F7C0F20C82D4F81811874884A33D
:10227000D3E90023A1FB0001FEF792FF20F07F4885
:102280003D4608F10108824AB4F81431B4F812014D
:102290008049A4F82A903A44B2FBF7F2A4F8C62089
:1022A00042F2107202FB03733944013BB1FBF7F1B8
:1022B000B3FBF7F78AB2831D9A42A085A4F8C270D7
:1022C000A4F8CE2004DDC0F57F43FA331A4492B25D
:1022D00094F80E31A4F8CA201B0744BF0023A4F8C9
:1022E000C4300221012021F0A1FB002202218146FD
:1022F000012012F08FF868494FF4F072204612F076
:1023000019F800F1050A5FFA8AFA644B0094524604
:102310000121002013F006FB30F002030CD0604ACC
:102320006049614840F6CB4327F032FF404080F3DC
:1023300011884FF0030002DF544FA5FB077B50A329
:10234000D3E9002338465946FEF72AFF20F07F459F
:1023500056480723A5FB0001381A03FB05116BEB58
:1023600001014FF47A720023FEF71AFFCDE9015004
:1023700008940694CDF80080216994F939504C48AE
:1023800004914C494C4C079411EA250138BF014691
:1023900005914FF6FE71334603915246012100200C
:1023A00013F036FA30F002030CD03D4A3D493E4866
:1023B00040F6E54327F0ECFE404080F311884FF0F3
:1023C000030002DFB9F1000F40F0548100200BB090
:1023D000BDE8F08F828D90F80E51D0F8EC300632C7
:1023E0001144D0F8C42189B26FF30205A0F8E810B7
:1023F0001981A3F10900D4F8C81184F80E5122B153
:1024000094F86651AE0740F18981002900F09D8162
:10241000D4F8CC21116843F8091C106053F8092C3A
:10242000C4F8CC01002A00F08D816FF076000BB06B
:10243000BDE8F08F09FB110140F2E243134889B275
:1024400003FB01F1A1FB00010DA3D3E90023FEF77B
:10245000A7FE361AFAE6124A184913484FF44263A7
:1024600027F096FE404080F311884FF0030002DF12
:10247000D9F800009AE66FF00F000BB0BDE8F08FBE
:102480008D49FD1A070000002C3B002000CA9A3B32
:10249000FF5962027FC3C901C8230020299D0100A2
:1024A00004390300E4390300143203008D49FD1A96
:1024B0005DEA01006DE80100D19C0100D039030004
:1024C000DFF81483012015F0BDFE0746002800F058
:1024D0004D81C24811F0F8FE0546002800F0468103
:1024E000BF4B1A68002A00F0178115F0C9FE3B683F
:1024F000D4F808215A602B79C4F8087143F003031B
:102500002B710C236B710023EB7194F81C312B722F
:10251000B44AD4F81831A2FB03239B0AA5F809306A
:10252000B4F81031A5F80B30B4F81231A5F80D301D
:10253000B4F81431A5F80F3094F80E31C4F8F060F7
:10254000032262F3020384F80E31A368002B0ADA37
:10255000E168626823F0004391422CBF7618B618F8
:10256000F31AC4F8F030A04B01220935C4F8EC503E
:1025700002211046C3E9024811F07EFF00283FF413
:1025800054AF9A4A9A499B4840F6733327F000FEAD
:10259000404080F311884FF0030002DF6FF07600B7
:1025A00015E7DFF854828DE7D0F8EC20D0F8C4317D
:1025B00090F8E40084F8E50094F80C01884984F868
:1025C0000D0194F8840184F8850100200860D4F896
:1025D000C801A2F10901B3B194F86651AD0712D454
:1025E00094F8BF51EF070ED4D4F8D051AB4200F0AD
:1025F000D78058B9187900F00300032800F0DF8075
:10260000C4F8C83104E0002800F0A980D4F8CC3127
:10261000186842F8090C196052F8093CC4F8CC114A
:10262000002B00F0A6806FF08B00D0E690F8D93038
:10263000002B3FF491AD80F8D92091E5B4F82CC07F
:1026400094457FF4C1AD40F2E24C0CFB03FE42F234
:10265000107C0CFB01EC0CF1FF3CBCFBFEFCB4F865
:10266000C2E01FFA8CFCE6457FF4AEAD012389F889
:102670000430B9E501220221104611F0CBFEA5E697
:10268000226CA36C02FB1833A3641EF0DBFC05462E
:1026900094F8D800DFF86481C0F3C2001EF0D4FCC7
:1026A000054407FB05F5564B94F81C2105F57425E8
:1026B00005F23F25A3FB0535AD0CA36C25640BFB90
:1026C00002F205FB0AF022657A080344963A934227
:1026D00028BF1346C4E911230023A0FB0801C4F856
:1026E000E0303BA3D3E90023FEF75AFD3D4B361AF9
:1026F000D4F81801A3FB0030800A0BFB00F0A0FB0C
:10270000080133A3D3E90023FEF74AFD7D1BB4F88B
:10271000109120F07F48B6E51C60E6E694F8BF51C2
:10272000ED073FF572AED4F8D051AA4226D0002969
:102730007FF46EAE117901F00301032962D0C4F871
:10274000C82167E6C4F8D4016FE643F8092CC4E950
:102750007100C4F8CC01002A7FF467AEF2E742F8BA
:10276000093CC4E97111C4F8CC1159E76FF0680055
:102770002DE6C4F8D4116FF08B0028E61568C4F874
:10278000D05100297FF444AE116843F8091C106051
:1027900053F8092CC4E97200002A7FF446AED1E751
:1027A0001D68C4F8D05100287FF430AF186842F893
:1027B000090C196052F8093CC4E9721130E7D87964
:1027C0000328F3D00A287FF41BAFEFE7AFF30080B4
:1027D0008D49FD1A07000000B1F00100C03B002048
:1027E0002C3B00205917B7D12407002004390300DF
:1027F000B436030014320300A935000000CA9A3B26
:1028000083DE1B43D1790329BED00A2997D1BBE7C8
:10281000074A0849084840F6C73327F0B9FC40404A
:1028200080F311884FF0030002DF4FF0000849E603
:1028300004390300AC32030014320300000000002E
:102840002DE9F04F0B68D2F800801B6897B00C465A
:102850000A93037F00F11E01C3F380130546174658
:1028600014A806228DF847302BF049F994F81190FE
:10287000B9F1FF0F0DF1480B5BD05A460DF147013E
:1028800048461CF0C5FE9DF8473002338DF84730AE
:102890002946032251F82E6B07F1080007F1040ABC
:1028A0002BF02DF907F11803042205F12A015046F7
:1028B0000B932BF024F90B9B052205F13A011846E6
:1028C0002BF01DF90B9B0521184611F0D3FE7B7FE1
:1028D00095F83F2000F03F0060F305037B77C2F3DB
:1028E0000403BB77AB8EFB81012899B202F01F0372
:1028F00005D91B3303F01F030B2B00D8F9B90A9B32
:10290000EC6800225A6197F82030304662F30003E9
:10291000012687F8203029462E7115F083FC2068A7
:102920002671214615F07EFC15F086FC17B0BDE837
:10293000F08F062214A958462BF0E1F8A8E7236887
:102940000020586095F8370095F8363043EA0023A8
:102950003B8298F8D830520962F3C5036A8E0D9213
:1029600040F2E24202FB01F088F8D8300B901EF0F2
:1029700069FB0C9098F8D800C0F3C2001EF064FB0D
:102980000C9BC54903440B9800FB03F303F5742328
:1029900003F23F23A1FB03239B0C7B6295F83130AC
:1029A000398A40F2E24203FB02F24308963BBA63E3
:1029B000BB622B8FB94AADF83A309E46B84B84467D
:1029C00003440244B3FBF0F3B2FBF0F242F21070A6
:1029D000A8F8C6201FFA8EF200FB02C2013A881D39
:1029E000B2FBFCF2A8F8C2209AB28242A8F8CE202C
:1029F00004DDC1F57F41FA310A4492B2A8F8CA2039
:102A00005146042208F1DC002BF079F82B4613F82C
:102A10001C2FC2F34011DA070F910C9100F11581C0
:102A20004FF48073AB830A9B93F826001DF0A2FB42
:102A30000146062205F12B00002900F0EB8005F18C
:102A400024012BF05CF8B9F1FF0F05F1250000F02F
:102A5000E48014A906222BF052F89DF84730AB779A
:102A60005946062205F11F002BF049F898F8D83096
:102A7000FA896A863A8AAA86C3F3C203BDF83A2065
:102A800085F83830EA86404617F0A4FD2946B8811B
:102A9000E8806568304615F0C5FBBB89EB801B23D9
:102AA0002B710C9B2E68002B40F0BC809DF83C30B5
:102AB0002B772946304615F0B5FB15F0BDFB97F88E
:102AC0004500B7F84050B7F84260012100F0070018
:102AD0001EF0C6F82E4406F5E1763118824671489C
:102AE0004FF000093123C8F80830A1FB000168A3AA
:102AF000D3E90023C8F80490C8F80C90FEF750FB07
:102B00000B9B7E6A0D9AE5689E1B40F2E24303FB35
:102B1000025520F07F4005F2B245A5EB0A034A4674
:102B20000221C8F8100001200B9311F073FC0A9DDC
:102B3000284616F05FFC821C5B4B0095D2B24846DB
:102B4000012112F0EFFE012800F08C800A9B93F81F
:102B50002430DB0771D4404617F03CFDDFF8449188
:102B6000A6FB09564AA3D3E90023834631462846EB
:102B7000FEF716FBA368CDF818800BF10504A3F14E
:102B80003A0B4A4B07934A4B05934FF4E47308936F
:102B9000D8F8103020F07F4746484FF0000ACDE9C2
:102BA00003A3A7FB00010723281A03FB071166EB09
:102BB00001014FF47A720023FEF7F2FA0B9BCDE984
:102BC0000170A3FB090132A3D3E90023FEF7E8FA61
:102BD000E4B220F07F4000905B462246012150463F
:102BE00012F016FE30F002030CD0334A3349344859
:102BF00040F2C91327F0CCFA404080F311884FF01F
:102C0000030002DF01220221104611F003FC17B07D
:102C1000BDE8F08F2AF07EFF15E7062200212AF09A
:102C200079FF1AE77B7F43F040037B7750461CF027
:102C3000EDFA0123F8832B773BE700230122009371
:102C40001846114612F06EFE85E71B4A1D491C48C6
:102C5000F12327F09DFA404080F311884FF00300E4
:102C600002DFDDE615F094FB0A9B83423FF46EAF72
:102C7000114A1549124840F29F2327F089FA404033
:102C800080F311884FF0030002DF5FE7AFF30080AD
:102C90008D49FD1A0700000083DE1B43FF596202C5
:102CA0007FC3C90100CA9A3B31E8010001E8010075
:102CB0006DE801008D49FD1A003B0300E439030073
:102CC00014320300403403005C3B030000000000AA
:102CD0002DE9F04F8BB00F460493BDF858300590A6
:102CE00006930020BDF860309DF85490BDF85CB0AC
:102CF0000393164616F0B2FD002800F09D8109F0FE
:102D0000010A0546504612F0D5FEBAF1000F6AD10D
:102D10002B6A05F11C020792002B6BD0D5F820809E
:102D2000D8F8004098F84400C0F3C00100F0070054
:102D30001DF094FFB8F8401000F5E1700144B8F8B8
:102D400042000144C648C4A3D3E90023A1FB00010B
:102D5000FEF726FA20F07F40206130461CF07CFF11
:102D600095F833306FF3410385F83330FF2385F84E
:102D7000343066B3A9F10203012B40F2618195F86A
:102D80004430049A69F3420385F8443095F83330AF
:102D900062F3000385F833301499062205F124000C
:102DA0002AF0ADFE039B2B86059A00963B4605F163
:102DB0001C000021FFF7C0F81EF0F0F8002840F0DA
:102DC0005B812846FFF7E4F80BB0BDE8F08F1DF0FB
:102DD0007FFB0028CED01499049832461DF0ACF841
:102DE00085F83400C6E7062111F0B8FA00288FD123
:102DF0001220E9E715F0FEF90790002800F0738132
:102E000017F0DCFB0446002800F08F81203011F021
:102E100045FC04F11C08002840F05881032104F10E
:102E200024001DF0C9FD069B606F63854FF6FF739C
:102E3000A4F82CB02385002800F0578104F1640128
:102E400004F1680211F096FAB4F86030854A23F470
:102E5000EF6323F0070343F4887343F00103A4F8FE
:102E6000603094F87A3023F007034FF0000B84F8B9
:102E70007A304FF01B13C4E91632C4F874B0A4F8CA
:102E800078B0A4F82EB0C4F830B004F134001CF0CF
:102E900071F994F8393060F30503012184F8393071
:102EA0000DF127001DF088FD9DF827206E4BDDF801
:102EB0000CC0A08D84F83BB0A3FB0213DB0803EB2E
:102EC0004303A2EB8303053384F83A3094F8393096
:102ED0000699A4F8C4B003F03F0384F8393094F89D
:102EE0003C30A4F8C8B023F0030340F2E24284F877
:102EF0003C305E4BA4F8D0B002FB01F10A460B4413
:102F0000B3FBF1F35A49A4F8CCB01144B1FBF2F190
:102F1000A4F8C61042F2107101FB0C210139B1FB7B
:102F2000F2F2A4F8C2200622A4F8C020811D9AB2B1
:102F30008A42A4F8CE2002DD063A121A92B294F820
:102F4000D830A4F8CA204FF0000B23F0070384F810
:102F5000D830A4F8E4B084F8E6B0C4F808B1A4F816
:102F60000CB1A4F820B114F007FC079BC4F844315D
:102F700094F83A31A4F838B123F0030384F83A31D5
:102F800094F87A30A4F840B123F0180384F87A302A
:102F900094F8663184F843B123F0070384F866316E
:102FA00094F88631A4F864B16BF3451384F8863144
:102FB00094F8AE31A4F884B16BF3C303002284F813
:102FC000AE310023C4E94A01C4E94C23A4F8ACB1F2
:102FD000A4F8B8B117F03AFEA4F8D20017F03CFEFE
:102FE000D4F8BC21234BA4F8D4001340C4F8BC315E
:102FF00017F038FE94F8C03160F3020384F8C03152
:1030000017F036FE94F8C031C4F8C4B160F3C503BC
:1030100084F8C0313123C4E974BBC4E972BBC4F87D
:1030200004B0C4F80CB0A360C5F82080C4E905BBA7
:1030300084F800B0E46175E60C200BB0BDE8F08FB9
:1030400000201CF02DFE95F8333043F00203D146EA
:1030500085F8333093E600BF8D49FD1A0700000064
:1030600000CA9A3B48014801ABAAAAAA7FC3C9017A
:10307000FF5962020000FFF62C6AA36D63B12D4A6E
:103080002D492E484FF4976327F082F8404080F393
:1030900011884FF0030002DF04F14C0104F14800F5
:1030A00011F06CF90646002831D02768A665D7F8DC
:1030B0004441F4B1204615F0A3F8384617F084FADD
:1030C000002303202B620BB0BDE8F08F194A1C4986
:1030D0001A48BF2327F05CF8404080F311884FF076
:1030E000030002DF9AE607206EE604F16C006067D9
:1030F000A4E6104A1349114840F2C14327F048F8AA
:10310000404080F311884FF0030002DFD2E7094A04
:103110000C490A4840F2BA4327F03AF8404080F39D
:1031200011884FF0030002DFBFE7079815F068F839
:10313000072049E6A03B03000C38030014320300CB
:103140008C3503005C3903002DE9F04F80468FB0C9
:1031500004460F46154600F1240106220CA818F873
:103160001C6F2AF0CCFC94F81C9018F0010FC9F3E6
:10317000401BC6F3C016D94640F004810023A38348
:10318000B97C97F8118011F0010104F12B004FF088
:10319000060200F0E18004F11E012AF0B0FCB8F153
:1031A000FF0F04F1250304F11F0A00F0DF805246EF
:1031B000404604F11E010B931CF02AFA0B9B1846A3
:1031C000A37F02330CA9A37706222AF098FC3B6860
:1031D000D3F800A0EB8963862B8AA386BAF8303037
:1031E000E3861DF02DFF84F83800D5F800804046B6
:1031F00017F0F0F97E68A8812146E080206815F07C
:1032000011F8AB89F3801B2334683371B9F1000FD7
:1032100040F0C68086F81CB03146204615F002F812
:1032200015F00AF8D8F80430D8F8086095F844008A
:10323000B5F80E90FC689E4238BF1E46C0F3C00130
:1032400040F2E24300F0070003FB09F91DF006FD20
:10325000203400220221241A012011F0DBF850460C
:1032600016F0D4FA021D564BCDF800A0D2B20121BF
:10327000002012F057FB30F002030CD0514A5249A3
:10328000524840F2C93326F083FF404080F3118852
:103290004FF0030002DF4FF0000A534603220121E2
:1032A000CDF800A0504612F03DFB404617F092F9D1
:1032B000BB68CDF81880093B9E1B454B0793454BD7
:1032C000059340F2F933444F0893D8F81030A9FB26
:1032D0000798CDE903A3451D37A3D3E9002348464A
:1032E0004146FDF75DFF104619464FF47A72002300
:1032F000FDF756FF30A3D3E900230290414648462C
:10330000FDF74EFF2CA3D3E900230190A4FB070196
:10331000FDF746FFEDB220F07F40009033462A468D
:103320000121504612F074FA30F002030CD0254A05
:103330002549264840F2FA3326F02AFF404080F320
:1033400011884FF0030002DF01220221104611F024
:1033500061F80FB0BDE8F08F2AF0DCFBB8F1FF0F89
:1033600004F1250304F11F0A7FF421AF1846062259
:1033700000212AF0CFFBA6770CA9504606222AF09E
:10338000BEFB24E70F4A154910484FF4527326F04C
:10339000FFFE404080F311884FF0030002DFEDE6AE
:1033A0006B7F43F040036B77281D1BF02FFF012339
:1033B000E883337730E700BF8D49FD1A070000002E
:1033C00029EA0100A03B0300E439030014320300A2
:1033D0002DEA01005DEA010000CA9A3B4034030077
:1033E0002DE9F04F8FB01E4609931546FF230A1DA5
:1033F000DFF80481DFF804B1DFF804A1DFF80491FD
:1034000008920021316004468DF82F3004930C910E
:10341000059106910DAF0CAE02230D93CDE9018706
:1034200000962B460DF12F022146002012F0BCFA27
:1034300002282DD00D9B002B30D19DF82F30FF2B73
:103440003CD0052BE8D1002017F0CCF80028E3D0C1
:1034500090F93930002BDFDB049902690C9BFF29BE
:103460000CD0069907921846049312F0FDFA059BBA
:10347000089A99188842049B079A22D8CDE9052317
:103480009DF82F300493C7E72146002012F0D2FAAE
:103490000D9B022BF8D00D9B002BCED073235A46E8
:1034A0005146484626F074FE404080F311884FF0A4
:1034B000030002DF9DF82F30FF2BC2D1049BFF2BAE
:1034C00010D0DDE9053210481344A3FB00010722A8
:1034D00002FB031106A3D3E90023FDF761FE099B5C
:1034E000803018600FB0BDE8F08F00BFAFF30080F0
:1034F00000CA9A3B00000000F9ED0100F83B030010
:103500003C3C0300143203008D49FD1A000000000A
:1035100070B582B01C4601921546064601AA0220EB
:10352000FFF75EFF23680BB30198431B1B021FD4F8
:10353000294612F099FA1A4A03460721A0FB020213
:1035400001FB032114A3D3E90023FDF729FE226820
:1035500002442260002A09DB40F2E24006FB00F050
:10356000904203D2121A8242FCD8226002B070BD8F
:103570000146284612F078FA094A03460721A0FBC3
:10358000020201FB032104A3D3E90023FDF708FE97
:103590002268121A2260DDE700CA9A3B0000000090
:1035A0008D49FD1A000000002DE9F041B0F894119A
:1035B00088B0044640F2E2434748002603FB01F18D
:1035C00005AD0623C5E901668DF80F30A1FB0001AA
:1035D0003FA3D3E900230596FDF7E2FD0DF10F03AC
:1035E00001950093B4F88A31049004AA2046012181
:1035F0001BF004FC9DF80F8008F1FF3C5FFA8CFC87
:103600000DF11603304604F5CA7703EB4C0C04F5B4
:10361000D0764FF6FF7E3A88B8F1000F0AD02B46DD
:10362000724504D0198891424FF001001DD0023339
:103630009C45F5D10237BE42EDD1D4F8EC3048BB01
:10364000BDF8142040F2E24102FB01F1100AC4F877
:1036500018111A70587094F80E31042262F30203A4
:1036600084F80E3108B0BDE8F081D4F8EC1040F2D7
:10367000E24302FB03F3100AC4F818310A704870E1
:1036800094F80E31042262F3020384F80E3108B07C
:10369000BDE8F081032203F8042C13F8052C94F8FC
:1036A0000E11052542F00302112003F8020C03F865
:1036B000052C65F302010F20202203F8010C1A707B
:1036C00084F80E1108B0BDE8F08100BFAFF30080B0
:1036D0008D49FD1A0700000000CA9A3B0000000057
:1036E00038B504461EF03CFBA27DC2F34103013312
:1036F00003F00303032B34D063F34202A27503F1FA
:1037000025001DF069FA63680BB32369FBB120F053
:1037100017F8054612F0A6F9C11C00201FF0DEFFC5
:1037200020F05AF820F00CF8294612F09DF91249C1
:1037300003460722A0FB010102FB03110CA3D3E9FE
:103740000023FDF72DFD23691B1A236138BD12F0FC
:1037500089F9C11C00201FF0C1FFBDE8384020F0EE
:103760003BB86FF34202A2752520CAE7AFF3008091
:1037700000CA9A3B000000008D49FD1A00000000BD
:103780002DE9F04F87B004461FF0BCFDC0B250B920
:103790001DF07AFAB44821461FF08EFC07B0BDE850
:1037A000F04F1FF085BD1FF0CDFD05461FF0E8FE70
:1037B00083461FF0EFFE814620F004F9064620F014
:1037C000E5F882461FF0A0FEEDB280461FF082FEB3
:1037D0001DF05AFA002DDDD0012014F07FFE0546C1
:1037E000002800F07D811BF0FF0BF6B240F06F81E6
:1037F000002E40F0CC80FF275A463B4631462046FB
:103800001EF0DCFC0028C5D02B7F626800218DF8FB
:1038100013105FFA88F803F00F01002A00F0D3803C
:10382000626892F82020900700F1CD800729B1D07E
:10383000A27D120740F16281002940F0AE806B7FCB
:10384000252B00F22281042014F048FE0028A1D08C
:103850001FF0CAFF636A804643B9238C40F271228D
:1038600002FB03F3B0FBF3F203FB120823681A69AF
:103870007E4B0721A2FB030301FB023178A3D3E9AE
:103880000023FDF78DFCA0F24233434582D31FF0A5
:1038900013FE384663681CF07BFCE37D9B07814682
:1038A00040F1CF81002800F0CC8183464FF0010821
:1038B0001FF056FD2B7F05AA039205F11E0201465B
:1038C0008246C3F38013009220460022CDE9018B8B
:1038D0001EF08EFC50461FF0C9FC1FF009FD0028A9
:1038E00040F0C581624821461FF0E6FB6168A37D78
:1038F00091F8202043F0800342F0010281F820205B
:10390000A37514F009FE1623804603714FF6FF736A
:103910002D7FC380514624221C302AF0F0F898F8FD
:103920001C30C8F80840C5F3401565F3451388F806
:103930001C301FF005FF0021C8F810000120059D74
:103940001FF0A4FC002E08BFFF2788F81970E37D44
:103950002D1A13F00203C8F8145003D0B9F1000374
:1039600018BF012398F81A2063F3000288F81A2080
:1039700014F0D2FD03464146D8F80000C8F80C30D8
:1039800014F0E0FD14F0EEFD07B0BDE8F08F5FFA33
:103990008AF01CF08BFC07462EE7012915D16B7FBE
:1039A0000C2B7FF4F7AE2A7F009700230193D209F6
:1039B00005F1240320461EF053FB00287FF443AF9B
:1039C000297F01F00F01002954D0062952D0022985
:1039D00000F0A780012958D16B7F0C2B7FF4DAAE61
:1039E0002A7F00970DF113030193D20905F12403F7
:1039F000002120461EF034FB002846D06B7F002BB0
:103A00003FF4C8AE63682BB12B7F03F00F03072B85
:103A10007FF4C0AE03209DF8139014F05FFD0546BF
:103A200000283FF4B7AE14F077FD4FF6FF73EB803C
:103A300005232B71B8F1000F6FD17F20AB7E287664
:103A4000002E08BFFF2769F341032868AB7629469B
:103A50006F7614F077FD14F085FD9BE6AFF30080E0
:103A600000CA9A3B00000000191E02008D49FD1A91
:103A7000112002006B7F252B07D8A27D920602D56C
:103A80006268002A4FD0252BB9D92B7F03F00F0392
:103A9000042B7FF47FAE6B7F252B3FF67BAEA37D9F
:103AA000D9077FF577AE1FF05BFC2B7F0278C3F35D
:103AB0008013B3EBD21F7FF46DAE0830062205F100
:103AC0001E0129F0F3FF00287FF464AE96E7A07D85
:103AD0005FFA89F1C0F3C0001CF07EFB07468BE65D
:103AE000714A7249724840F2C32326F051FB4040AC
:103AF00080F311884FF0030002DF74E6FF2F8DF88A
:103B00001470C3F3801978D0237EDB1BB3FA83F3E0
:103B10005B09002B7FF490AE55E71FF0E7FCC0B2C5
:103B20008CE76B7FAFE796201FF04AFD00201FF067
:103B30001BFC032014F0D2FC814600283FF42AAE7F
:103B400014F0EAFC4FF6FF73A9F80630052389F854
:103B50000430B8F1000F70D17F23002E89F818309F
:103B600014BF3B46FF2389F8193099F81A30D9F869
:103B700000006FF3410389F81A30494614F0E2FC63
:103B800014F0F0FC1FF0ECFB2B7F0646C3F3801310
:103B90003278DB0102F0700243F003031343337009
:103BA0000C23384673701CF0F3FAE37D9F074FD562
:103BB00000284DD033780146304643F0400300F8EA
:103BC000023B062229F09BFF062205F11E0106F1A9
:103BD000080029F094FF30461FF048FB1FF088FBD7
:103BE000002852D11FF0F8FDA37D324843F00103B5
:103BF000A37521461FF060FAC6E605F11E0A05AA64
:103C0000514648461CF008FC00283FF4D9AEE37D3D
:103C100003F001034B457FF4D3AE5146062204F175
:103C2000080029F043FF297FB0FA80F35B0901F017
:103C30000F01002B7FF400AEC5E61FF057FCC3B2A6
:103C40008BE794F8168004F1190BC8F380182FE65F
:103C5000A37D3278C3F38013304663F3861200F8F5
:103C6000022B04F11901062229F049FFACE70E4AA4
:103C700011490F4840F2914326F08AFA404080F300
:103C800011884FF0030002DF2CE6074A0A49084872
:103C900040F2165326F07CFA404080F311884FF032
:103CA000030002DF9EE700BFC04003006C4003003A
:103CB000143203002D1E02007440030000000000B7
:103CC0002DE9F04F074689B050688A46144624F023
:103CD00073FC054650B93A4A0121384627F0FCFBEF
:103CE0006FF01504204609B0BDE8F08F00221146A0
:103CF000A06829F0EBFD002211468046E06829F01B
:103D0000E5FD002281461146206929F0DFFDBAF168
:103D1000060F064616D100226069114629F0D6FD2D
:103D2000C3B20393AB6806AA5B684146284698472E
:103D300050B16FF00404234A23460121384627F08E
:103D4000CBFBCFE70023ECE7DDE90643A9FB04B09A
:103D500009FB03090493584617A3D3E900234946F6
:103D6000FDF71EFA4FF0FF3A174B0590DA4573EB5B
:103D7000090302D26FF08504DDE7049BA6FB0494DF
:103D800006FB034648460CA3D3E900233146FDF762
:103D900007FA0D4ACA45B2410346EBD3AA68039914
:103DA00000911468059A41462846A0470446002819
:103DB00098D0C0E7AFF3008000CA9A3B0000000033
:103DC000CD820300E3820300FFC99A3B00B5094896
:103DD00003685B0789B009D0074B069305AA022345
:103DE0004FF482510193059326F018F909B05DF85C
:103DF00004FB00BF700A00208A4703002DE9F04F42
:103E000087B00546029116460393836804AA5B684F
:103E1000984780BBDDE9044A44F62063A4FB03B75E
:103E200003FB0A7758460023164A39464FF0FF38FD
:103E3000FDF7B6F9D845DFF850B07BEB07038146B4
:103E40001CD3A6FB047406FB0A460E4A0023384620
:103E50003146FDF7A5F9B8457BEB060203460DD3C5
:103E6000AA6803990091146802994A462846A04717
:103E700007B0BDE8F08F6FF00400F9E76FF0850040
:103E8000F6E700BF40420F003F420F0070B56729C0
:103E9000424C88B05BD072290BD0622971D1404E60
:103EA0003378002B42D0236813F0060F13D03D4B1C
:103EB00007E03D4E337883B1236813F0060F0AD034
:103EC0003A4B069302230193059305AA4FF48451BC
:103ED000204626F0A3F808B070BD354842F21072B3
:103EE00000680821FFF78AFF01233370236803F07D
:103EF0000703022B05460AD92E4B069305AA022377
:103F00004FF4865120460193059326F087F8002D43
:103F1000E1D023685B07DED0274B069302231F48BE
:103F20000193059305AA4FF48251D2E7204842F24B
:103F3000107280680C21FFF761FF01233370236842
:103F400003F00703022B0546E1D91C4BD5E71C4EB5
:103F500033782BB1236813F0060FBCD0194BB0E7B0
:103F6000134842F2107240682921FFF747FF0123EE
:103F70003370236803F00703022B0546C7D9124BA1
:103F8000BBE723685A07A6D0104B06930223019380
:103F9000059305AA4FF482519AE700BF700A0020EA
:103FA000324F0020BF470300344F00209E470300DC
:103FB00038290020B147030017480300D347030006
:103FC000334F0020E2470300F74703000748030090
:103FD00030B5444C6729236889B05BD072290AD078
:103FE000622974D1404D2A78002A3ED113F0060F81
:103FF00012D03E4B06E03E4D2A787AB913F0060FF8
:104000000AD03C4B069302230193059305AA4FF473
:104010008451204626F002F809B030BD03F00703B2
:10402000022B0AD9344B069305AA02234FF486517A
:1040300020460193059325F0F1FF304800230068E6
:104040001A460821FFF7DAFE00232B700028E3D080
:1040500023685B07E0D02A4B069302232148019393
:10406000059305AA4FF48251D4E703F00703022B0E
:104070000AD9244B069305AA02234FF48651204601
:104080000193059325F0CAFF1C48002380681A4657
:104090000C21D7E71C4D2A7822B913F0060FBBD0AC
:1040A0001A4BAFE703F00703022B0AD9184B06930C
:1040B00005AA02234FF4865120460193059325F06B
:1040C000ADFF0E48002340681A462921BAE75A0777
:1040D000A2D0104B069302230193059305AA4FF437
:1040E000825196E7700A0020324F00204B480300AF
:1040F000344F0020284803003C48030038290020A2
:104100001748030060480300334F00207048030045
:10411000864803000748030010B5672988B012D00D
:10412000722903D0622910D10F4C00E00F4C237884
:104130001BB1FFF74DFF002302E0FFF7A7FE0123AD
:10414000237008B010BD0A4CF1E70A4803685B070A
:10415000F7D0094B069305AA02234FF4825101932D
:10416000059325F05BFFECE7324F0020344F002031
:10417000334F0020700A00200748030030B51C4868
:104180001C4D89B0C5E90000A8602CF0D3FE1A4C84
:1041900078B923685A070AD0184B06930223019373
:1041A000059305AA4FF48251204625F037FF09B048
:1041B00030BD68682CF0BEFE0028EAD0A8682CF05C
:1041C000B9FE0028E5D00E4A002313700D4A137083
:1041D0000D4A137023685B07E9D50C4B06930C4B13
:1041E000079303230193059305AA4FF4C851DBE716
:1041F000441C030038290020700A0020974803005F
:10420000344F0020334F0020324F0020A7480300D6
:104210000049030001461846044B1B682BB9012ACC
:1042200003D80A46024909F003B870474429002020
:104230006D47000030B5164D0FCD8DB001AC0FC4E9
:104240002B681449236001A809F0A4FE0346124814
:104250007BB1026852070AD0104ACDE90A23032332
:104260000093099309AA4FF4C25125F0FEFE0DB048
:1042700030BD036803F00703022BF8D9084B0A93FB
:1042800002230093099309AA4FF48651EDE700BF7A
:104290004021030015420000C40900200D4903001D
:1042A0002F4903001049114B00B58B600E238B8101
:1042B0000F4B0B600F4B888089B018680DF084FCA1
:1042C000034670B10C48026852070AD00B4A4FF4FB
:1042D000C251CDE90623032305AA0193059325F0D6
:1042E000C4FE09B05DF804FB682900209409002091
:1042F0000143000044290020C40900204D49030067
:1043000000B589B071B1094803685B070AD0084B52
:1043100005AACDE9063103234FF4C2510193059359
:1043200025F0A3FE09B05DF804FB00BFC40900201E
:104330006649030030B51C4689B00E2CBDF830002C
:104340009DF83430114610D92F4803685C0709D016
:104350002E4B069305AA02234FF482510193059335
:1043600025F083FE6FF00C043EE002190E2A10DDEA
:1043700025480368590709D0254B069305AA02234F
:104380004FF482510193059325F06FFE6FF0060400
:104390002AE08BB11C48026852070AD01D4A4FF42C
:1043A000C251CDE90623032305AA0193059325F005
:1043B0005CFE6FF00D0417E0174D2246284429F0EB
:1043C0009EFBAB780B2B12D10F48036803F0070359
:1043D000022B09D9114B069305AA02234FF48651EB
:1043E0000193059325F041FE204609B030BD0C4BEA
:1043F0005A78012A04D15868294600F0DDFBF3E71A
:10440000284600F09BFBEFE7C40900207E4903002B
:1044100092490300B1490300374F0020C24903000D
:10442000602900202DE9F04380468DB014460D46EA
:10443000D9B93D4B1B8873B93C48026851070AD073
:104440003B4A4FF4C251CDE90A23032309AA019341
:10445000099325F00AFE14220021204629F05AFB78
:10446000002630460DB0BDE8F083324BBFF35B8FC2
:10447000012253E8001F43E800200028F9D1BFF3D0
:104480005B8F267C002E31D12B4BD4F800C001AAC3
:1044900003F11009964618685968174603C7083390
:1044A0004B453A46F7D11B783B707146604629F080
:1044B000EEFBD8B92B8A20600133032523812574B4
:1044C000214640460CF098FF03460028C9D0174803
:1044D00002685207C5D0194A0095CDE90A234FF466
:1044E000C25109AA099525F0C0FDBAE7237C032B28
:1044F00018D1ED68124B2E6806AA03F1100C17466E
:1045000018685968144603C4083363452246F7D136
:104510001B7823703946304629F0B9FB10B9024B9D
:10452000AA881A8001269CE70C4F0020C4090020AD
:10453000E04903005C29002054210300FB490300EB
:104540006521030070B503788AB004460E4607ADB6
:10455000032B20D8DFE803F002191B1D1149284660
:1045600029F04DFA63780493A3780393E3780293D8
:1045700023790193637900930B4AA37905951E2152
:10458000304625F012FE0AB070BD0849E7E7084939
:10459000E5E70849E3E7084A0A21284625F005FE31
:1045A000E0E700BF144A0300364A03001B4A030039
:1045B000224A03002C4A03003880030070B5134CD4
:1045C000236883428CB00D461ED104AE29F09AFFB9
:1045D0003146FFF7B7FF0E490B6803F00703022BC4
:1045E00009D90C4B01930023CDE902650093032206
:1045F000184625F03DFD206829F0BBFE064A002341
:1046000023601370FFF716FE0CB070BD4429002024
:10461000C4090020594A0300354F0020F0B58DB081
:1046200004AD0C46064629F06DFF2946FFF78AFFC8
:10463000174FB4B117490B685B0709D0164B0193AC
:104640000023CDE9025400930122184625F010FD05
:10465000386829F08EFE00233B60FFF7EBFD0DB0BC
:10466000F0BD3B689E42FAD10C4B0A4901221A70F8
:104670000B6803F00703022BF1D9094B0295CDE932
:10468000004303222346204625F0F2FCE7E700BF63
:1046900044290020C40900207A4A0300354F002035
:1046A000974A030070B52B4D2B6803F00703022BCC
:1046B0008EB006460AD9284B0C930BAA02234FF45E
:1046C0008651284604930B9325F0CFFC09F0E2FCB9
:1046D00004460A2025F0DAFC84B12B685A070BD077
:1046E0001E4B1C48CDE90C340BAA03234FF4C251D6
:1046F00004930B9325F0B9FC012029E01823ADF8B1
:1047000008302823ADF80A304FF4C873ADF80E30E6
:10471000134BADF80C400FCB04AC84E80F00114BE9
:1047200002AA214630460AF045FB88B12B685B0798
:104730000BD00D4B0BAACDE90C304FF4C251032323
:10474000044801930B9325F090FCFFF773FD0020C4
:104750000EB070BDC4090020A54A0300CE4A030074
:104760007821030044290020EB4A03000346F0B4FB
:104770001A78072A084613D100225D780A491446A0
:10478000A54204DC102A0BD1F0BCFFF78BBF5F6899
:1047900031F8026B3F5DB74208BF01320134EFE7E9
:1047A0000120F0BC704700BFD40800202DE9F04381
:1047B000414E424D89B000233478B4B1DBB1404F53
:1047C000404C642025F062FC7B78012B08D1082343
:1047D000DFF8F480DFF8F490A3707B78012B47D0EA
:1047E0003378002BEDD10123E6E74FF4FA7025F082
:1047F0004DFC2346E0E72B6803F00703022B0AD9A0
:10480000334B069305AA02234FF4865128460193A1
:10481000059325F02AFC2F492F4B0B602F4B4B6043
:1048200001230B814FF6FF73CB8100230B742C4BBC
:1048300018680CF0E1FD70B12B685B070BD0294BB9
:1048400005AACDE906304FF4C2510323284601934F
:10485000059325F00AFC244CBFF35B8F2368BFF35C
:104860005B8F002BABD10021212025F0A7F8F3E7C7
:1048700098F800309BB9E370A370A378B9F80000F2
:10488000062B10D90A23A370FFF70CFD142025F086
:10489000FDFB3B784FF47A70584325F0F7FB14206A
:1048A00025F0F4FB99E70133A370FFF7FBFC14201C
:1048B00025F0ECFBE1E700BF354F0020C4090020E4
:1048C0006029002094090020364F00200C4F002062
:1048D000074B030048290020500900202544000010
:1048E00044290020304B03005C29002038B5074DD7
:1048F000074C4FF0FF324FF0FF332946204624F09B
:104900002FFA642025F0C2FBF3E700BF364F0020EA
:104910008C0C00207FB5144D144C4FF0FF324FF03B
:10492000FF336946284624F01BFA0028F5D1104AC7
:104930009DF80030A370114601231DF8036001F8B3
:10494000016B01330B2BF8D1002312F8011B09B1C5
:104950000133DBB201300B28F7D110336370054B04
:104960001888FFF79FFCD8E75C0C00209409002012
:10497000970900200C4F002038B5064C064D002347
:1049800063704FF0FF324FF0FF332146284624F08A
:10499000E7F9F6E760290020BC0C002000B50020F4
:1049A00089B008F0CFFB174B00221A600346164867
:1049B00083B1026852070AD0144A4FF4C251CDE9BC
:1049C0000623032305AA0193059325F04EFB09B0A6
:1049D0005DF804FB03685B070BD50D4B06930D4B8D
:1049E000079305AA03234FF4C8510193059325F0BB
:1049F0003CFB09480AF050F909B05DF804EBFFF7F9
:104A000019BC00BF44290020C4090020484B030002
:104A1000674B0300924B03007001002030B5012961
:104A200089B0054611D9154803685B070AD0144BB5
:104A30000693022301930593002305AA4FF48251A4
:104A400026F069FB002009B030BD2CF0A5FE4FF424
:104A50007A72A0FB024302FB0131E40B44EA4140BD
:104A60004FF47A720023C90BFCF74AFB054A034650
:104A70000821284626F030FDE4E700BF9C0A00200C
:104A80009D4B0300AF4B030070B506468AB010681B
:104A90000D46254928F0EDFF044688B123480368F8
:104AA0005B070AD0224B089302230393079300234A
:104AB00007AA4FF4825126F02EFB00200AB070BDE9
:104AC000012DEBD82CF068FE4FF47A72A0FB0203A4
:104AD00002FB0131C00B00234FF47A7240EA4140DF
:104AE000C90BFCF70DFB10F5616FC8BF4FF4616394
:104AF0000246C8BF90FBF3F30E48D8BF234600FB25
:104B0000032212F13B0FA8BF3C246FF03B00A8BF6B
:104B100092FBF4F400FB0422CDE900420821064A8E
:104B2000304626F0D9FCC8E7494803009C0A00201B
:104B30009D4B0300F0F1FFFFCE4B030030B585B075
:104B400001AC821C00F10C05214612F8013F202B1C
:104B500008BF0023AA4204F8013BF6D18378013B49
:104B6000092B09D8DFE803F0050A0C0E101214080F
:104B70000816094825F00CFB05B030BD0748F9E7D9
:104B80000748F7E70748F5E70748F3E70748F1E77D
:104B90000748EFE70748EDE7304C0300454C0300BA
:104BA0005F4C0300754C03008A4C03009E4C0300CD
:104BB000B24C0300C64C030070B586B003AD8C1C2C
:104BC00001F10C062A4614F8013F202B08BF0023F0
:104BD000B44205F8013BF6D18B7800920A2B05D13F
:104BE000054A082126F078FC06B070BD012B0CBFE9
:104BF000024A034AF5E700BFD54C0300E44C03002A
:104C0000E54C030010B5012988B005D81268537827
:104C100013B91278662A10D0114803685B0709D0CF
:104C2000104B069305AA02234FF48251019305937A
:104C300025F03EFA002008B010BD0B4C0B4A637003
:104C40000821237826F048FC094800220023214649
:104C500025F031FA0028EDD0054825F027FAE9E7DC
:104C6000C0090020014D030078290020124D0300E7
:104C7000BC0C002000B5012989B005D813685A780A
:104C800012B91B786F2B11D0154803685B0709D048
:104C9000144B069305AA02234FF482510193059306
:104CA00025F006FA002009B05DF804FB0E4B012246
:104CB0005A701A7858600AB902221A701B780B4A87
:104CC000082126F009FC084909480022002325F0A4
:104CD000F2F90028E6D0064825F0E8F9E2E700BF3F
:104CE000C0090020014D030078290020464D030033
:104CF000BC0C002000B5032989B011D918480368FD
:104D00005A0709D0174B069305AA02234FF4825184
:104D10000193059325F0CCF9002009B05DF804FB60
:104D20005068421E411D12F8013F43B1303B092B30
:104D300005D90B4803685B07EED00B4BE3E78A42CB
:104D4000F1D128F02CFD0949002208700023084801
:104D500025F0B1F90028DFD0054825F0A7F9DBE7F9
:104D6000C0090020794D03008F4D030078290020F1
:104D7000BC0C002010B5032988B010D91C4803686A
:104D80005A0709D01B4B069305AA02234FF4825100
:104D90000193059325F08CF9002008B010BD5368ED
:104DA0005A1E5C1D104610F8011F41B13039092907
:104DB00005D90F4803685B07EED00F4BE3E7A0422D
:104DC000F1D10E490B2001F8010B034412F8010F39
:104DD00001F8010B9A42F9D1084909480022002341
:104DE00025F069F90028D7D0054825F05FF9D3E709
:104DF000C0090020794D03008F4D0300454F00206E
:104E00005C0C002000B5012989B005D813685A78D8
:104E100012B91B78722B11D00F4803685B0709D0B9
:104E20000E4B069305AA02234FF48251019305937A
:104E300025F03EF9002009B05DF804FB0849094857
:104E40000A230B700022002325F035F90028F1D049
:104E5000044825F02BF9EDE7C0090020014D0300BF
:104E6000454F00205C0C002000B51E4B0820187038
:104E700003294FF0000089B058709870D8701871ED
:104E800011D9194803685B0709D0184B069305AA86
:104E900002234FF482510193059325F009F9002074
:104EA00009B05DF804FB526851780029E9D1127805
:104EB000672A14D0722A04D0622AE2D10122DA7061
:104EC00001E001225A70074909480022002325F019
:104ED000F2F80028E3D0064825F0E8F8DFE70122E1
:104EE0009A70F0E7454F0020C0090020014D0300F3
:104EF0005C0C002010B51E4B0920032988B01870E7
:104F000010D91C4803685A0709D01B4B069305AA01
:104F100002234FF482510193059325F0C9F8002034
:104F200008B010BD53685A1E5C1D104610F8011FD2
:104F300041B13039092905D90E4803685B07EED025
:104F40000E4BE3E7A042F1D10D490B3312F8010FEC
:104F500001F8010B9A42F9D105490A4800220023C1
:104F600025F0A9F80028DAD0064825F09FF8D6E702
:104F7000454F0020C0090020794D03008F4D0300EC
:104F8000464F00205C0C002000B5022989B011D9E1
:104F9000184803685B0709D0174B069305AA02233C
:104FA0004FF482510193059325F082F8002009B057
:104FB0005DF804FB53685A78002AE9D11B78792BF5
:104FC00012D07A2B13D0782BE2D10C4B05221A7019
:104FD0000A490B480022002325F06DF80028E5D08F
:104FE000074825F063F8E1E7044B0622EFE7034B9F
:104FF0000722ECE7C0090020014D0300454F0020C7
:105000005C0C002000B5012989B005D813685A78D6
:1050100012B91B78722B11D00F4803685B0709D0B7
:105020000E4B069305AA02234FF482510193059378
:1050300025F03EF8002009B05DF804FB0849094856
:1050400004230B700022002325F035F80028F1D04E
:10505000044825F02BF8EDE7C0090020014D0300BE
:10506000454F00205C0C002000B5012989B005D80F
:1050700013685A7812B91B78722B11D00F48036845
:105080005B0709D00E4B069305AA02234FF4825109
:105090000193059325F00CF8002009B05DF804FB9E
:1050A0000849094803230B700022002325F003F868
:1050B0000028F1D0044824F0F9FFEDE7C0090020F2
:1050C000014D0300454F00205C0C002000B5022973
:1050D00089B006D85368597819B912681278722ABB
:1050E00011D0144803685B0709D0134B069305AA37
:1050F00002234FF482510193059324F0D9FF00203D
:1051000009B05DF804FB1B78682B10D0742B02D11A
:105110000A4B01221A70094909480022002324F091
:10512000CAFF0028EBD0064824F0C0FFE7E7034B96
:105130000222EFE7C0090020014D0300454F002087
:105140005C0C002013B50020019004F095F910B913
:10515000084C019B0BB102B010BDA3681B6D1BB1C5
:1051600001AA042120469847002140F6CD4024F0B2
:1051700025FCEEE7141C030008B508490B7883F002
:1051800001030B7006480022002323F093FD20B199
:105190000348BDE808402BF0B9BF08BD534F0020BD
:1051A0008C0C002070B588B02F4C20462BF0C2FE2E
:1051B00030B921682D4808B0BDE8704024F0E8BF40
:1051C0002669A568336843F04003336006212B68E5
:1051D00040F2111220469847014638B1226824480F
:1051E000062308B0BDE8704024F0D2BF3368AE6932
:1051F00013F0400F4FF006010CBF4FF480234FF423
:1052000000334FF4A0322046B047014618B122685F
:1052100018480623E5E71849184B4B6040238B607C
:10522000EB6913B1012220469847154900230B7002
:1052300014480022002323F03DFD10B111482BF04B
:1052400065FF114803685B070CD5104B0693104BA4
:105250000793032301930593002305AA4FF4C85134
:1052600025F059FF08B070BDE41B0300F34E0300A6
:10527000194F0300424F030080290020795100009C
:10528000534F00208C0C0020680A0020784F030048
:10529000A94F03002DE9F04F05468BB0184615F0D5
:1052A0000303DDF8508003920E46019340F0F58130
:1052B0002C1D002D40F0F48101F00706341DC6F1CD
:1052C00008064FF0000A0427411ECDF808A0CDF8CB
:1052D00000A05246B94605B12060039B03F0010EC1
:1052E000CE4B9842C0F02A81CD4B984280F0268167
:1052F000BEF1000F00F03C814FF0010CA4EB050B58
:10530000BEF1000F00F01D81BBF5007FC0F01981D8
:105310006FF01500F5E032B9252B40F02C81012209
:105320000427B94627E12B2B24D81F2B01D80022B4
:1053300021E1A3F120000B28F9D80FF2080C5CF84A
:1053400020F000BF775500002F5300002F530000BE
:10535000775500002F5300002F5300002F530000FB
:105360002F5300002F5300002F5300001B55000047
:1053700077550000A3F12D005FFA80FCBCF14D0FC2
:10538000D5D84D28D3D80FF2080C5CF820F000BF18
:1053900077550000775500002F5300007755000027
:1053A00077550000775500007755000077550000CD
:1053B00077550000775500007755000077550000BD
:1053C000775500002F5300002F5300002F5300008B
:1053D0002F5300002F5300002F5300002F530000C5
:1053E000E35400002F5300002F5300002F53000000
:1053F000E3540000E3540000E35400002F53000086
:105400002F5300002F5300002F530000775500004A
:105410002F5300002F5300002F5300002F53000084
:105420002F5300002F5300002F5300002F53000074
:105430002F5300002F5300002F530000C9540000C9
:105440002F5300002F5300002F5300002F53000054
:105450002F5300002F5300002F5300002F53000044
:10546000E35400002F530000C9540000C954000049
:10547000E3540000E3540000E354000077550000BB
:10548000C9540000115500002F530000775500004B
:105490002F53000015550000C95400001555000099
:1054A0002F5300002F53000015550000215300001A
:1054B000C95400002F5300002F530000C9540000AE
:1054C0002F5300002153000011F8012C6C2A23D126
:1054D00011F8022C6C2A4FF000022DD00427B94697
:1054E0001BE008F1070828F007080734F8E8022352
:1054F00024F0070455B10EEB0400B04204D96FF05C
:105500001B000BB0BDE8F08FC4E900230834002273
:10551000082706E70022E1E70022013C3C447842EC
:10552000044025B1A9EB05002044B042E7D8732B15
:1055300043D158F8040BCEE60827D0E74FF0000C13
:10554000DCE6009B0F2B3FF6E3AE45B3DDF800E051
:105550000AA8CBF387037044BCF1000F19D063F0A5
:105560007F0300F8103C0AF1010A009B013300930D
:105570000434C5F1080E11F8013F002B7FF4CBAEC7
:10558000601BB0F5806FBFF4C3AE9DBB083E3044D6
:10559000B7E700F8103C029B01330293E5E7BCF14A
:1055A000000F01D00136E0E7CDE9041228F051FAEE
:1055B0000236DDE904120644D7E7B9F1040F08D139
:1055C00008F1040015B1D8F8003023600434804697
:1055D000D1E7B9F1080F7FF49BAE08F1070323F080
:1055E000070303F108081DB1D3E900BCC4E900BCFE
:1055F0000834C0E7029A2B60800828706A7085F82A
:1056000002A0BAF1000F05D006A9C5F10100009A69
:105610009A4207D1C5F1010939E000BF1C1B030004
:105620008487030011F8012B170607D52718B74206
:1056300002F07F023FF663AF04F8012B0133E6E787
:10564000019B06AA12F80380BAF1000F02D018F0ED
:10565000800F19D10FFA88F2002355F8221045F86F
:1056600022300846029128F0F4F904EB0902471CA5
:105670003A44B2423FF643AF04F8018B0299204608
:105680003A4628F03CFA3C44019B01330193DDE9A2
:1056900000239A42D4D1601B33E76FF00D0030E74E
:1056A00007293FF60EAE2AE730B585B0CDE90101F6
:1056B0000446002501A90548039500F0E9F8DDE955
:1056C00002309842B8BF255405B030BD6BA102002E
:1056D0002DE9F84FB0F8189019F0080804469346E1
:1056E0000DD001290CBF49F0100949F02009A0F89C
:1056F00018908BF31188BFF36F8FBDE8F88F09F016
:105700000709022907D1204624F076FD0028F0D0B1
:105710000128238B4ED16769218B002F15DA25686C
:1057200021F00701C4E9008841F00101218300262E
:10573000218B01F0070ACA4502D0A368002B5AD179
:105740000DB9002E71D0002356E001F007035A1F57
:10575000012A1ED821F00701062B256889B2C4E969
:1057600000880AD13DB1638B2A46126801339BB28F
:10577000002AFAD1638341F002012183204624F0FC
:105780003BFD06460028D3D0238B43F02003238320
:10579000CDE7042B0CD121F0070189B221832046EB
:1057A00024F02AFD05460028C1D041F020012183C4
:1057B0000025BCE7032809D1226923F007031668F6
:1057C00043F00603238300252F46B1E7042806D1C2
:1057D000226923F00703566843F00403F2E7052823
:1057E00006D1226923F00703966843F00503E9E731
:1057F00000252E46E8E7012341F0080121838BF3C1
:105800001188BFF36F8FFBB985BB16B11F492046C6
:10581000B0474FF02003EFF3118B83F31288BFF3EF
:105820006F8F238B23F008032383238BDA0625D580
:1058300023F0100323830121B4F8189009F007091D
:1058400000297FF45EAF54E7A1680029DCD0D1F8CD
:105850000090D1F804B03B4652462046D847B9F1F3
:10586000000FD1D04946D9F80090F2E729463B46CF
:10587000524620462D6824F0DBFCC5E713F02001DA
:105880001EBF23F0200323830221D5E75DA202007F
:105890002DE9F04F91B08B46029092461C460025B0
:1058A0009AF8000008B928465FE325280AF10107A5
:1058B00007D0029B594698470028C0F2568301350D
:1058C00012E2182200210AA828F024F99AF80130DF
:1058D000252B78D000221046964694461646394627
:1058E00017F8013B2B2B00F09D8000F29480202BB9
:1058F00000F09B80232B00F09B802EB19DF8306040
:1059000046F004068DF83060BCF1000F05D09DF81C
:10591000306046F008068DF83060BEF1000F05D00B
:105920009DF8306046F010068DF8306028B19DF883
:10593000300040F020008DF830002AB19DF8302072
:1059400042F040028DF830209DF8302002F04400F3
:10595000442803D16FF386128DF830209DF8302053
:105960002A2B42F080028DF830207BD19DF8312027
:1059700042F001024B1C8DF831201A782E2A9DF836
:1059800031200CBF0121002161F341028DF831204B
:1059900074D15A782A2A6AD0013300210A2618467F
:1059A00010F8012BA2F13007092F40F28E809DF8EC
:1059B00030200E91C2F3400040EAD17161F3410200
:1059C0008DF830205AE00AF102078DF833309DF847
:1059D0003130D90740F1498154F8049BB9F1000FE7
:1059E00007DA9DF8302042F004028DF83020C9F12A
:1059F00000095A0740F1428154F8048BB8F1000FB6
:105A000080F241819DF831306FF341038DF83130E0
:105A10004FF0FF3837E12D2B0CD0302B7FF46DAFDA
:105A200001225CE74FF0010C59E74FF0010E56E7F9
:105A3000012054E7012652E70CFB0202303A3346BC
:105A40001E4616F8010BA0F13007092FF4D9994230
:105A500093D09DF830100D92D20F62F341018DF872
:105A600030108AE70B4600224FF00A0CE8E79DF859
:105A7000312042F004028DF8312002331F4617F81E
:105A8000012B6C2A41D025D8682A2BD06A2A46D00F
:105A90004C2A4CD01F4617F8012B9DF831308DF859
:105AA0003320782A00F2D980572A4DD8412A03D0D2
:105AB000453A022A00F2D1809DF83230042262F386
:105AC00002038DF8323001239EE006FB01213039BC
:105AD000034664E7742A26D07A2ADBD19DF8313058
:105AE00006220DE05A78682A9DF8312006D101215E
:105AF00061F3C6028DF831209F1CCCE713460222C9
:105B000062F3C6038DF83130C5E75A786C2A9DF8E8
:105B1000312001D10421EBE713460322F0E79DF881
:105B200031300522ECE79DF831300722E8E7BDF877
:105B3000303023F4F04323F0020343F4804343F076
:105B40000203ADF83030A6E7A2F15801202900F297
:105B5000848001A050F821F01D5C00005B5C000017
:105B60005B5C00005B5C00005B5C00005B5C000059
:105B70005B5C00005B5C00005B5C0000B95A0000ED
:105B80005B5C00001D5C0000DD5B0000B95A00009A
:105B9000B95A0000B95A00005B5C0000DD5B0000F0
:105BA0005B5C00005B5C00005B5C00005B5C000019
:105BB000255C00001D5C0000415C00005B5C000097
:105BC0005B5C0000415C00005B5C00001D5C000051
:105BD0005B5C00005B5C00001D5C00009DF8321007
:105BE000012003F0780360F30201402B8DF832109E
:105BF00002BF9DF8301041F001018DF83010632A8A
:105C000031D1003B18BF01239DF83020C2F3400181
:105C10000B4363F341028DF83020D8E69DF8321033
:105C20000220DEE79DF8322003F07803A3F1400064
:105C3000032161F3020243428DF832204341E3E73E
:105C40009DF83220032113F0780F61F302028DF8E2
:105C5000322014BF01230023D6E79DF8303043F0F3
:105C600001038DF830300023CEE79DF93020002A63
:105C7000B4BFDDF834904FF0FF39BAE69B077FF5EB
:105C8000C7AEDDF838809DF831100023CDE90D3323
:105C90009DF8323003F00703012BC1F3C30138D163
:105CA000CB1E042B22D8DFE803F0030909212100D1
:105CB00054F8043BDA17CDE90A3206E0073424F041
:105CC0000704F4E80223CDE90A239DF8303013F0ED
:105CD000030656D002983B465246594624F08EFDA4
:105CE0000028C0F242810544BA46D9E554F8043B85
:105CF00001294FEAE372CDE90A3205D19DF8283037
:105D00000A9300230B93E0E70229DED1BDF9283086
:105D1000D0E7022B23D1CB1E042B13D8DFE803F0EE
:105D2000030A0A12120022680A920023201D0B9314
:105D30000446CAE7E01D20F00700F0E80223CDE9A1
:105D40000A23F5E754F8043B0A9301294FF00003B6
:105D50000B93D3D00229B8D1BDF82830D0E7042B5B
:105D600009D1E31D23F0070303F10804D3E900235D
:105D7000CDE90A23A9E7032B04BF54F8043B0A9397
:105D8000A3E79DF833007828AED8622822D82528CA
:105D90003FF48FAD5828A7D10DF126030093DDE91C
:105DA0000A0104AB0CAA24F0E3FC8246B8F1000F10
:105DB0000DF126000CDB9DF83020A0EB0A036FF3F9
:105DC000861298458DF8302002D9A8EB03030D9375
:105DD00080463DE06338152886D801A252F820F0AD
:105DE000615E0000C55E0000E95C0000E95C000047
:105DF000E95C0000E95C0000C55E0000E95C0000B1
:105E0000E95C0000E95C0000E95C00001F5F000045
:105E1000ED5E0000F15E0000E95C0000E95C00005E
:105E2000395E0000E95C0000ED5E0000E95C000006
:105E3000E95C0000ED5E0000B8F1000FDDF828A07D
:105E40000ADB4146504627F00BFE0AEB000800260D
:105E5000BAF1000F0CD147E7504627F0FAFDF4E7FE
:105E60000A9B8DF8103000260DF1100A0DF1110873
:105E7000A8EB0A0306B101339DF83220D00668D59D
:105E8000023352060D9948BF0E9A0B4448BF9B1827
:105E9000B9F1000F76DD9DF83020A9EB0309C2F3BC
:105EA0008003039353076DD4500661D546B1029B1E
:105EB000594630469847002857DB039B01351E465C
:105EC000302356E01E070FD413F0100618BF20260B
:105ED000DDE90A23002BBFF65FAF524263EB4303B9
:105EE000CDE90A232D2657E72B26F1E7002653E7B5
:105EF0000A9840B30DF1260300930CAA04AB0021CD
:105F000024F036FCBDF8323003F0EF0343F4F043E5
:105F100043F010038246ADF83230002646E70A9B74
:105F200007293FF6E1AEDFE801F00C04060C080893
:105F30000C0C1D70D8E61D80D6E6EA17C3E90052A6
:105F4000D2E61D60D0E6DFF8C8A006460AF10508D3
:105F50008EE7110748BF013393E71846039359466C
:105F6000029B98470028039B04DA11B0BDE8F08F2C
:105F700020234D444A46002AA5EB090109F1FF39C7
:105F8000EBDC0D4636B1029B594630469847002857
:105F9000EBDB01359DF83230D90601D41A0706D55E
:105FA000029B5946302098470028DEDB01359DF8DA
:105FB0003230DB0607D59DF83300029B59469847DF
:105FC0000028D2DB01350D9E2E44731B002B16DCFE
:105FD000029843465246594624F010FC0028C4DB80
:105FE0000544A944A9EB0503002B7FF77DAE029B76
:105FF0005946202098470028B7DB0135F2E7029B7D
:106000005946302098470028AFDB0135DDE700BF57
:10601000BC4F030030B51049104889B000222BF066
:10602000ECFB0F4D0F4900220023CDE9062300248D
:106030000E23CDE90334CDE901440B4B00944FF41A
:106040004072284622F092FD0849284622F0DCFCE6
:10605000204609B030BD00BF71600000F01700207D
:1060600028180020209C0020C56200003B5303003C
:10607000014822F0BFBF00BF340D002070B5124BA5
:10608000BFF35B8F53E8005F6A1C43E800210029DF
:10609000F8D1BFF35B8F2DB90C4C0D4E361B36116A
:1060A000B54200DB70BD237B53B123689B690BB104
:1060B00020469847636804221968204600F038FAA1
:1060C00001351034ECE700BF9429002008200300BC
:1060D0001820030010B5044C237813B9034822F0AC
:1060E00089FF0123237010BD544F0020340D002080
:1060F0000C4BBFF35B8F53E8002F013243E80021C4
:106100000029F8D1BFF35B8F58B1BFF35B8F064B0B
:1061100053E8002F013A43E800210029F8D1BFF3EA
:106120005B8F7047902900208C2900200020064BAF
:10613000BFF35B8F024653E8000F43E800210029BC
:10614000F9D1BFF35B8F704790290020F8B5FFF7B6
:10615000EDFF0A4C0A4D2D1B07462D110026AE42BD
:1061600000DBF8BD63685B792BB123681B6913B151
:1061700039462046984701361034F0E708200300DE
:10618000182003000149024824F0C6BC1026030071
:1061900098290020094A08B500231370084A1360A3
:1061A000084B094A1A604FF4004000F0D1FBFFF79A
:1061B000E9FFBDE8084000F025B900BF554F0020B9
:1061C000902900208C0100201FB00200014600220F
:1061D0000148002324F0BFBC98290020014824F086
:1061E0004DBD00BF982900200146014824F092BD12
:1061F00098290020014824F0C1BD00BF9829002043
:106200002A4B1B782DE9F04706460BB900284BD0E6
:1062100024F019FF054618B16EB12846FFF7E4FFD8
:106220002EB9234B1B68002B01DDFFF78FFFBDE864
:10623000F047FFF7DFBF1F4BBFF35B8F53E8002F23
:10624000013A43E800210029F8D1BFF35B8F1A4CD3
:106250001A4FDFF86CA03F1B3F11B046B845DCDA9F
:1062600063685B79CBB129784B0711D4B5F80090FE
:106270006A68C9F38219C1F3C20192B1A2EB0A02A2
:1062800042F38F020123204600F068F9484504D309
:10629000236829461B682046984708F101081034F6
:1062A000DCE74FF0FF32EDE7BDE8F087544F002008
:1062B000902900208C2900200820030018200300CA
:1062C000C009002010B5FFF7D9FE23F091FB0C4B5D
:1062D000186030B10B4B1B68092B02DD0A4822F015
:1062E00089FE094C0020FFF78BFF0028FAD14FF000
:1062F000FF324FF0FF33204622F0A2FEF2E700BF4C
:10630000D42900208C290020340D002013B51D4B0A
:10631000BFF35B8F53E8002F511C43E800100028A7
:10632000F8D1BFF35B8F184B1B7883B14FF020037C
:10633000EFF3118483F31288BFF36F8F0020FFF710
:106340005FFF84F31188BFF36F8F02B010BD0F4B56
:106350001B68002BF9D052B900220023CDE900239D
:106360000B484FF40042002323F05AFDEDE70A2AC0
:10637000EBD107482BF04DFA064802B0BDE81040BB
:1063800022F038BE8C290020554F0020D42900204F
:10639000F0170020340D0020064B10B51B68044692
:1063A00098472146A060044824F04BFCBDE810400B
:1063B000FFF7ACBF8C01002098290020F8B50E4FE4
:1063C0003D7875B90D4C0E4EFFF758FE361B361151
:1063D000B54207DB0020FFF713FF0028FAD10123A5
:1063E0003B70F8BD63685B791BB1236820465B692D
:1063F000984701351034EBE7554F00200820030083
:10640000182003000B480C4B30B51B1A0B4CDB0853
:1064100000210430994200D130BD10F831202568A8
:1064200002F0070225F007052A4344F8042B013146
:10643000F0E700BF181E030008200300C009002079
:10644000044A054B9B1AB1EBD30F34BF52F831000D
:1064500000207047181E0300082003002DE9F047B4
:106460008946164698460446B8B9DFF884A0214FFD
:10647000A7EB0A073F110546BC4202DB2846BDE8F0
:10648000F0870AEB0410434632464946FFF7E6FF21
:10649000854238BF05460134EEE7174B174C03EB36
:1064A000C2031D7943681A79072302EB420203FAFB
:1064B00002F1454554F8263028BF454623EA01033A
:1064C00005F0070101FA02F213430021032223FA27
:1064D00002F000F00700814202F1030238BF0146DA
:1064E0001E2AF4D123F007030B4344F82630C5E7F6
:1064F0000820030018200300181E0300C009002014
:10650000F8B5094C094BE41A06460F46E408002585
:10651000A54200D1F8BD00212AB23B463046FFF724
:106520009DFF0135F4E700BF08200300181E03009B
:10653000094BC31A70B51B114668044601330D465A
:1065400033711146FFF7DCFF636801221D605A7149
:10655000BDE87040FFF7BEBD0820030063B1002A0C
:106560000FDB43680849187900EB400351F822001B
:10657000D84000F007007047044B03EBC2021079CB
:1065800070470420704700BFC0090020181E030098
:10659000024B98689B69C01A704700BFD829002039
:1065A000014B9869704700BFD82900200EB403B58D
:1065B00003AB014653F8042B04480193FFF768F935
:1065C00002B05DF804EB03B0704700BF91B0020069
:1065D0002DE9F0471D46089B1746DA0604460E468D
:1065E00005D499064CBF2A492A49FFF7DFFFDFF897
:1065F000A8904FF00008A8452ADBDFF8A080DFF85C
:10660000A090DFF894A00025BD422FD2725D4946CC
:106610002046FFF7CBFF0135102D20D12149DFF8AF
:106620007880DFF884902046FFF7C0FF0025AF4256
:1066300028D9725DA2F120035F2B28BF2E22494684
:106640002046FFF7B3FF0135102D14D1BDE8F087C8
:1066500049462046FFF7AAFF08F10108CBE76A0781
:10666000D2D151462046FFF7A1FFCDE74146204653
:10667000FFF79CFFCFE76B07D9D141462046FFF7D4
:1066800095FFD4E741462046FFF790FFDBE700BFC8
:10669000EC540300D8500300CE4F0300CC4F03004E
:1066A000C64F0300D04F0300445B03002DE9F04FB9
:1066B00087B01C4601F0010305929DF84090BDF99A
:1066C00048A004930746884601F0020B01F0080633
:1066D00024F0BDFC0246002844D03A493846FFF772
:1066E00065FF0546BBF1000F08D018F0440F3BD101
:1066F000354922463846FFF759FF0544049B53B1FC
:10670000324B334953F82920324B3846002A08BF10
:106710001A46FFF74BFF3EB12F4B304953F8292063
:106720003846FFF743FF0646BAF1000F16DB059B1C
:10673000002B45D0012303FA09F9294B294C19F004
:10674000100F18BF1C4651469DF84400FFF778FE15
:10675000214602463846FFF729FF0644701907B064
:10676000BDE8F08F0546BDE71F4B18680028C4D070
:106770001E4B4FF47A781B68B4FBF3F44FF461615D
:10678000B4FBF0F300FB134408FB04F44FF03C0CA3
:10679000B3FBF1F201FB1231B4FBF0FEB1FBFCF3F1
:1067A00000FB1E440CFB131108FB04F40091B4FB26
:1067B000F0F00F49CDE901E03846FFF7F7FE9CE71E
:1067C000084CC0E7E04F0300E44F03002426030019
:1067D0000B560300D24F0300382603000950030074
:1067E000DC4F0300D74F0300F4290020F8290020D4
:1067F000ED4F030038B50C46E107054603D5084ABE
:106800000849FFF7D3FEE20608D4A30628464CBF8A
:1068100005490649BDE83840FFF7C8BE38BD00BF8E
:10682000D24F03000B560300EC540300D850030072
:106830002DE9FF470B8813F4E07F06460C4690468F
:10684000C3F382194DD00A784B68C2F3C202002B01
:1068500044D025495B1A43F38F03CDE90123CDF8DA
:106860000090A368002241463046FFF71FFF824692
:10687000254655F80C3BC3F3492353B11B4F1C4825
:106880001C492B463246B9F1000F08BF384623F0A9
:1068900014FC6788C7F3CB0797B12368C3F3492378
:1068A0001D44102F3C4628BF10242946CDF80080F7
:1068B000534622463046FFF78BFE3F1B2544F0D15E
:1068C000B9F1000F04D04A4641463046FFF792FF27
:1068D000304604B0BDE8F04724F0CDBB4FF0FF33A5
:1068E000BBE7CA46C4E700BFC0090020C7B002002A
:1068F00091B002009158000073B542F20F738B42C1
:1069000028BF0B4605680F4A04460521684623F058
:106910004CFC63680C495B6806460422284624F058
:106920009DFB63683246694628465B6824F096FB07
:10693000636806495B681722284624F08FFB02B083
:1069400070BD00BF63490300475003002F50030090
:10695000084A10B50123084C13600021A04204D856
:1069600001B11360054B186010BD40085B000121A8
:10697000F4E700BFF829002040420F00F42900206E
:106980002DE9F04F85B0DDE90E6BDDF840A005463E
:10699000884614469946BBF1000F37D00022CDF847
:1069A00000A05B460C211046CDF80CA0FEF772FC4F
:1069B000074604F0070206F1130005F00704144D22
:1069C000144BE400384444EA821405EA472520F0D9
:1069D00007002C4303EAC64380081C43FFF7F6FB7D
:1069E000054650B1BBF1000F07D0CDF800A05B46C3
:1069F000002239460C30FEF74DFC4B4622464146FC
:106A0000284605B0BDE8F04F24F06ABB5F46D0E7EA
:106A100000FE07000000F87F00230428CB604B60D5
:106A200098BF044B044A98BF53F820308A600B602B
:106A3000704700BF8C260300682603000023084A25
:106A40000B60CB604B608A60064B074AD21AB0EBF2
:106A5000221F3EBF03EB00139B680B60704700BF13
:106A6000E0270300082003001820030038B504467F
:106A7000FFF78EFD0546FFF793FD094A03460821FF
:106A8000204624F029FD2B462046064A082124F002
:106A900023FD2046044A082124F01EFD002038BDB5
:106AA0004C5003005D5003006E5003002DE9F34786
:106AB000114B124CDFF84880DFF84890DFF848A00F
:106AC0001B1B07461E110025B54203DB002002B048
:106AD000BDE8F087636859791B79002914BF4246E5
